{"contracts/MasMutualAttestation.sol":{"MasMutualAttestation":{"abi":[{"inputs":[],"stateMutability":"nonpayable","type":"constructor"},{"anonymous":false,"inputs":[{"indexed":false,"internalType":"address","name":"agent","type":"address"}],"name":"AgentRegistered","type":"event"},{"anonymous":false,"inputs":[{"indexed":false,"internalType":"address","name":"agent","type":"address"}],"name":"AgentRemoved","type":"event"},{"anonymous":false,"inputs":[{"indexed":false,"internalType":"bytes32","name":"id","type":"bytes32"}],"name":"AttestationCompleted","type":"event"},{"anonymous":false,"inputs":[{"indexed":false,"internalType":"bytes32","name":"id","type":"bytes32"}],"name":"AttestationStarted","type":"event"},{"anonymous":false,"inputs":[],"name":"ChainReset","type":"event"},{"anonymous":false,"inputs":[{"indexed":false,"internalType":"bytes32","name":"id","type":"bytes32"}],"name":"ReadyForEvaluation","type":"event"},{"inputs":[{"internalType":"bytes32","name":"id","type":"bytes32"},{"internalType":"bool","name":"verified","type":"bool"}],"name":"CloseAttestationProcess","outputs":[{"internalType":"bool","name":"","type":"bool"}],"stateMutability":"nonpayable","type":"function"},{"inputs":[{"internalType":"address","name":"agentAddress","type":"address"},{"internalType":"address","name":"callAddress","type":"address"}],"name":"GetAgentInfo","outputs":[{"internalType":"string","name":"","type":"string"},{"internalType":"bool","name":"","type":"bool"},{"internalType":"bytes32[]","name":"","type":"bytes32[]"}],"stateMutability":"view","type":"function"},{"inputs":[],"name":"GetAttestationChain","outputs":[{"internalType":"bytes32[]","name":"","type":"bytes32[]"}],"stateMutability":"view","type":"function"},{"inputs":[{"internalType":"bytes32","name":"id","type":"bytes32"}],"name":"GetAttestationInfo","outputs":[{"internalType":"address","name":"","type":"address"},{"internalType":"address","name":"","type":"address"},{"internalType":"enum MasMutualAttestation.AttestationResult","name":"","type":"uint8"},{"internalType":"uint256","name":"","type":"uint256"}],"stateMutability":"view","type":"function"},{"inputs":[{"internalType":"bytes32","name":"id","type":"bytes32"},{"internalType":"address","name":"callAddress","type":"address"}],"name":"GetAttestationSignatures","outputs":[{"internalType":"bytes32[3]","name":"","type":"bytes32[3]"},{"internalType":"bytes32[3]","name":"","type":"bytes32[3]"}],"stateMutability":"view","type":"function"},{"inputs":[{"internalType":"bytes32","name":"id","type":"bytes32"}],"name":"GetAttestationState","outputs":[{"internalType":"enum MasMutualAttestation.AttestationState","name":"","type":"uint8"}],"stateMutability":"view","type":"function"},{"inputs":[{"internalType":"bytes32","name":"id","type":"bytes32"},{"internalType":"address","name":"callAddress","type":"address"}],"name":"GetProverAddress","outputs":[{"internalType":"address","name":"","type":"address"}],"stateMutability":"view","type":"function"},{"inputs":[{"internalType":"bytes32","name":"id","type":"bytes32"},{"internalType":"address","name":"callAddress","type":"address"}],"name":"IsProver","outputs":[{"internalType":"bool","name":"","type":"bool"}],"stateMutability":"view","type":"function"},{"inputs":[{"internalType":"address","name":"callAddress","type":"address"}],"name":"IsRegistered","outputs":[{"internalType":"bool","name":"","type":"bool"}],"stateMutability":"view","type":"function"},{"inputs":[{"internalType":"bytes32","name":"id","type":"bytes32"},{"internalType":"address","name":"callAddress","type":"address"}],"name":"IsVerifier","outputs":[{"internalType":"bool","name":"","type":"bool"}],"stateMutability":"view","type":"function"},{"inputs":[{"internalType":"string","name":"name","type":"string"}],"name":"RegisterAgent","outputs":[],"stateMutability":"nonpayable","type":"function"},{"inputs":[],"name":"RemoveAgent","outputs":[],"stateMutability":"nonpayable","type":"function"},{"inputs":[],"name":"ResetChain","outputs":[],"stateMutability":"nonpayable","type":"function"},{"inputs":[{"internalType":"bytes32","name":"id","type":"bytes32"},{"internalType":"bytes32[3]","name":"freshMeasurements","type":"bytes32[3]"}],"name":"SendEvidence","outputs":[],"stateMutability":"nonpayable","type":"function"},{"inputs":[{"internalType":"bytes32","name":"id","type":"bytes32"},{"internalType":"bytes32[3]","name":"refMeasurements","type":"bytes32[3]"}],"name":"SendRefSignaures","outputs":[{"internalType":"bool","name":"","type":"bool"}],"stateMutability":"nonpayable","type":"function"},{"inputs":[],"name":"freshnessWindow","outputs":[{"internalType":"uint256","name":"","type":"uint256"}],"stateMutability":"view","type":"function"},{"inputs":[],"name":"rrIndex","outputs":[{"internalType":"uint256","name":"","type":"uint256"}],"stateMutability":"view","type":"function"}],"evm":{"bytecode":{"linkReferences":{},"object":"6080604052610e1060035534801561001657600080fd5b50336000806101000a81548173ffffffffffffffffffffffffffffffffffffffff021916908373ffffffffffffffffffffffffffffffffffffffff160217905550600160008054906101000a900473ffffffffffffffffffffffffffffffffffffffff169080600181540180825580915050600190039060005260206000200160009091909190916101000a81548173ffffffffffffffffffffffffffffffffffffffff021916908373ffffffffffffffffffffffffffffffffffffffff1602179055506000600860008060009054906101000a900473ffffffffffffffffffffffffffffffffffffffff1673ffffffffffffffffffffffffffffffffffffffff1673ffffffffffffffffffffffffffffffffffffffff1681526020019081526020016000208190555061319e8061014f6000396000f3fe608060405234801561001057600080fd5b506004361061010b5760003560e01c806396efe852116100a2578063bc1a097e11610071578063bc1a097e146102bd578063c224122d146102ef578063c984f8db1461031f578063cb2a03481461033b578063e1a94c831461036b5761010b565b806396efe8521461020f5780639cb65fa11461022d578063b46ca81a1461025d578063b8df8f981461028d5761010b565b80635f3d4220116100de5780635f3d42201461019657806378caad49146101c957806381880fd3146101d357806393506aa6146101f15761010b565b80631d995a0e1461011057806332facfb71461011a578063395d719b1461014a5780635e8b36221461017a575b600080fd5b61011861039c565b005b610134600480360381019061012f9190611dcf565b6106b3565b6040516101419190611e2a565b60405180910390f35b610164600480360381019061015f9190611ea3565b610856565b6040516101719190611e2a565b60405180910390f35b610194600480360381019061018f9190611dcf565b610941565b005b6101b060048036038101906101ab9190611ee3565b610b6f565b6040516101c09493929190611faf565b60405180910390f35b6101d1610c74565b005b6101db610d46565b6040516101e89190611ff4565b60405180910390f35b6101f9610d4c565b6040516102069190611ff4565b60405180910390f35b610217610d52565b60405161022491906120cd565b60405180910390f35b61024760048036038101906102429190611ea3565b610daa565b60405161025491906120ef565b60405180910390f35b61027760048036038101906102729190611ea3565b610efe565b6040516102849190611e2a565b60405180910390f35b6102a760048036038101906102a29190611ee3565b610fe9565b6040516102b49190612152565b60405180910390f35b6102d760048036038101906102d2919061216d565b611016565b6040516102e69392919061222c565b60405180910390f35b61030960048036038101906103049190612271565b611250565b6040516103169190611e2a565b60405180910390f35b61033960048036038101906103349190612353565b6112a9565b005b610355600480360381019061035091906123c8565b611446565b6040516103629190611e2a565b60405180910390f35b61038560048036038101906103809190611ea3565b61176a565b60405161039392919061248c565b60405180910390f35b6000600660003373ffffffffffffffffffffffffffffffffffffffff1673ffffffffffffffffffffffffffffffffffffffff16815260200190815260200160002090508060010160009054906101000a900460ff16610430576040517f08c379a000000000000000000000000000000000000000000000000000000000815260040161042790612527565b60405180910390fd5b6000600860003373ffffffffffffffffffffffffffffffffffffffff1673ffffffffffffffffffffffffffffffffffffffff168152602001908152602001600020549050600060018080805490506104889190612576565b81548110610499576104986125aa565b5b9060005260206000200160009054906101000a900473ffffffffffffffffffffffffffffffffffffffff16905080600183815481106104db576104da6125aa565b5b9060005260206000200160006101000a81548173ffffffffffffffffffffffffffffffffffffffff021916908373ffffffffffffffffffffffffffffffffffffffff16021790555081600860008373ffffffffffffffffffffffffffffffffffffffff1673ffffffffffffffffffffffffffffffffffffffff168152602001908152602001600020819055506001805480610579576105786125d9565b5b6001900381819060005260206000200160006101000a81549073ffffffffffffffffffffffffffffffffffffffff02191690559055600860003373ffffffffffffffffffffffffffffffffffffffff1673ffffffffffffffffffffffffffffffffffffffff168152602001908152602001600020600090558260020160006106019190611b41565b600660003373ffffffffffffffffffffffffffffffffffffffff1673ffffffffffffffffffffffffffffffffffffffff168152602001908152602001600020600080820160006106519190611b62565b6001820160006101000a81549060ff02191690556002820160006106759190611b41565b50507fed9c8ad8d5a0a66898ea49d2956929c93ae2e8bd50281b2ed897c5d1a6737e0b336040516106a691906120ef565b60405180910390a1505050565b60008060009054906101000a900473ffffffffffffffffffffffffffffffffffffffff1673ffffffffffffffffffffffffffffffffffffffff163373ffffffffffffffffffffffffffffffffffffffff1614610744576040517f08c379a000000000000000000000000000000000000000000000000000000000815260040161073b9061267a565b60405180910390fd5b60006007600085815260200190815260200160002090506000600281111561076f5761076e611f1f565b5b8160090160009054906101000a900460ff16600281111561079357610792611f1f565b5b146107d3576040517f08c379a00000000000000000000000000000000000000000000000000000000081526004016107ca9061270c565b60405180910390fd5b82816006019060036107e6929190611ba2565b5060018160090160006101000a81548160ff0219169083600281111561080f5761080e611f1f565b5b02179055507f6781e8d3c07e87e938ec28a5435aa7862779fb9c7d01b7315eca91430b2a464384604051610843919061273b565b60405180910390a1600191505092915050565b60008060076000858152602001908152602001600020905060028081111561088157610880611f1f565b5b8160090160009054906101000a900460ff1660028111156108a5576108a4611f1f565b5b036108e5576040517f08c379a00000000000000000000000000000000000000000000000000000000081526004016108dc906127c8565b60405180910390fd5b8273ffffffffffffffffffffffffffffffffffffffff168160020160009054906101000a900473ffffffffffffffffffffffffffffffffffffffff1673ffffffffffffffffffffffffffffffffffffffff161491505092915050565b6000600660003373ffffffffffffffffffffffffffffffffffffffff1673ffffffffffffffffffffffffffffffffffffffff16815260200190815260200160002090508060010160009054906101000a900460ff166109d5576040517f08c379a00000000000000000000000000000000000000000000000000000000081526004016109cc9061285a565b60405180910390fd5b60006007600085815260200190815260200160002090508381600001819055506109fe3361192d565b8160010160006101000a81548173ffffffffffffffffffffffffffffffffffffffff021916908373ffffffffffffffffffffffffffffffffffffffff160217905550338160020160006101000a81548173ffffffffffffffffffffffffffffffffffffffff021916908373ffffffffffffffffffffffffffffffffffffffff1602179055508281600301906003610a96929190611ba2565b5060405180606001604052806000801b81526020016000801b81526020016000801b81525081600601906003610acd929190611ba2565b5060008160090160006101000a81548160ff02191690836002811115610af657610af5611f1f565b5b021790555060008160090160016101000a81548160ff02191690836002811115610b2357610b22611f1f565b5b0217905550600081600a01819055507fd32f85071e05721b8a1c63d5cad1fe3525ec0a11fd5b7760b6a82d7f6be7d28384604051610b61919061273b565b60405180910390a150505050565b6000806000806000600760008781526020019081526020016000209050600280811115610b9f57610b9e611f1f565b5b8160090160009054906101000a900460ff166002811115610bc357610bc2611f1f565b5b14610c03576040517f08c379a0000000000000000000000000000000000000000000000000000000008152600401610bfa906128ec565b60405180910390fd5b8060020160009054906101000a900473ffffffffffffffffffffffffffffffffffffffff168160010160009054906101000a900473ffffffffffffffffffffffffffffffffffffffff168260090160019054906101000a900460ff1683600a01549450945094509450509193509193565b60008054906101000a900473ffffffffffffffffffffffffffffffffffffffff1673ffffffffffffffffffffffffffffffffffffffff163373ffffffffffffffffffffffffffffffffffffffff1614610d02576040517f08c379a0000000000000000000000000000000000000000000000000000000008152600401610cf99061297e565b60405180910390fd5b60026000610d109190611b41565b60006004819055507f8e1dda8e7ca889ef4bd70f2ff6dd48a9b896b1d89703a08b6385333045af148960405160405180910390a1565b60035481565b60045481565b60606002805480602002602001604051908101604052809291908181526020018280548015610da057602002820191906000526020600020905b815481526020019060010190808311610d8c575b5050505050905090565b60008060009054906101000a900473ffffffffffffffffffffffffffffffffffffffff1673ffffffffffffffffffffffffffffffffffffffff168273ffffffffffffffffffffffffffffffffffffffff1614610e3b576040517f08c379a0000000000000000000000000000000000000000000000000000000008152600401610e32906129ea565b60405180910390fd5b600060076000858152602001908152602001600020905060006002811115610e6657610e65611f1f565b5b8160090160009054906101000a900460ff166002811115610e8a57610e89611f1f565b5b14610eca576040517f08c379a0000000000000000000000000000000000000000000000000000000008152600401610ec190612a7c565b60405180910390fd5b60008160020160009054906101000a900473ffffffffffffffffffffffffffffffffffffffff169050809250505092915050565b600080600760008581526020019081526020016000209050600280811115610f2957610f28611f1f565b5b8160090160009054906101000a900460ff166002811115610f4d57610f4c611f1f565b5b03610f8d576040517f08c379a0000000000000000000000000000000000000000000000000000000008152600401610f84906127c8565b60405180910390fd5b8273ffffffffffffffffffffffffffffffffffffffff168160010160009054906101000a900473ffffffffffffffffffffffffffffffffffffffff1673ffffffffffffffffffffffffffffffffffffffff161491505092915050565b60006007600083815260200190815260200160002060090160009054906101000a900460ff169050919050565b6060600060606000600660008673ffffffffffffffffffffffffffffffffffffffff1673ffffffffffffffffffffffffffffffffffffffff16815260200190815260200160002090506000600660008873ffffffffffffffffffffffffffffffffffffffff1673ffffffffffffffffffffffffffffffffffffffff16815260200190815260200160002090508160010160009054906101000a900460ff168061110a575060008054906101000a900473ffffffffffffffffffffffffffffffffffffffff1673ffffffffffffffffffffffffffffffffffffffff168673ffffffffffffffffffffffffffffffffffffffff16145b611149576040517f08c379a000000000000000000000000000000000000000000000000000000000815260040161114090612b0e565b60405180910390fd5b806000018160010160009054906101000a900460ff168260020182805461116f90612b5d565b80601f016020809104026020016040519081016040528092919081815260200182805461119b90612b5d565b80156111e85780601f106111bd576101008083540402835291602001916111e8565b820191906000526020600020905b8154815290600101906020018083116111cb57829003601f168201915b505050505092508080548060200260200160405190810160405280929190818152602001828054801561123a57602002820191906000526020600020905b815481526020019060010190808311611226575b5050505050905094509450945050509250925092565b6000600660008373ffffffffffffffffffffffffffffffffffffffff1673ffffffffffffffffffffffffffffffffffffffff16815260200190815260200160002060010160009054906101000a900460ff169050919050565b60008151116112ed576040517f08c379a00000000000000000000000000000000000000000000000000000000081526004016112e490612bda565b60405180910390fd5b6000600660003373ffffffffffffffffffffffffffffffffffffffff1673ffffffffffffffffffffffffffffffffffffffff1681526020019081526020016000209050818160000190816113419190612da6565b5060018160010160006101000a81548160ff021916908315150217905550600180549050600860003373ffffffffffffffffffffffffffffffffffffffff1673ffffffffffffffffffffffffffffffffffffffff168152602001908152602001600020819055506001339080600181540180825580915050600190039060005260206000200160009091909190916101000a81548173ffffffffffffffffffffffffffffffffffffffff021916908373ffffffffffffffffffffffffffffffffffffffff1602179055507f82d0829d9d481e4cb9913897f9b9c903271c4db68c7b3324071d2a7e3b2c5ff03360405161143a91906120ef565b60405180910390a15050565b6000806007600085815260200190815260200160002090503373ffffffffffffffffffffffffffffffffffffffff168160010160009054906101000a900473ffffffffffffffffffffffffffffffffffffffff1673ffffffffffffffffffffffffffffffffffffffff16146114f0576040517f08c379a00000000000000000000000000000000000000000000000000000000081526004016114e790612eea565b60405180910390fd5b6001600281111561150457611503611f1f565b5b8160090160009054906101000a900460ff16600281111561152857611527611f1f565b5b14611568576040517f08c379a000000000000000000000000000000000000000000000000000000000815260040161155f90612f7c565b60405180910390fd5b60028160090160006101000a81548160ff021916908360028111156115905761158f611f1f565b5b02179055504281600a01819055506000600660008360020160009054906101000a900473ffffffffffffffffffffffffffffffffffffffff1673ffffffffffffffffffffffffffffffffffffffff1673ffffffffffffffffffffffffffffffffffffffff168152602001908152602001600020905083156116a55760028260090160016101000a81548160ff0219169083600281111561163357611632611f1f565b5b021790555042600560008460020160009054906101000a900473ffffffffffffffffffffffffffffffffffffffff1673ffffffffffffffffffffffffffffffffffffffff1673ffffffffffffffffffffffffffffffffffffffff168152602001908152602001600020819055506116d3565b60018260090160016101000a81548160ff021916908360028111156116cd576116cc611f1f565b5b02179055505b8060020185908060018154018082558091505060019003906000526020600020016000909190919091505560028590806001815401808255809150506001900390600052602060002001600090919091909150557f31a3cf273cd0e82f8ddb4be15d4b954d7fcd18a4c5d4591cce32edd1a4bc417d85604051611756919061273b565b60405180910390a160019250505092915050565b611772611be2565b61177a611be2565b60006007600086815260200190815260200160002090508373ffffffffffffffffffffffffffffffffffffffff168160010160009054906101000a900473ffffffffffffffffffffffffffffffffffffffff1673ffffffffffffffffffffffffffffffffffffffff1614611823576040517f08c379a000000000000000000000000000000000000000000000000000000000815260040161181a9061300e565b60405180910390fd5b6001600281111561183757611836611f1f565b5b8160090160009054906101000a900460ff16600281111561185b5761185a611f1f565b5b1461189b576040517f08c379a0000000000000000000000000000000000000000000000000000000008152600401611892906130a0565b60405180910390fd5b8060030181600601816003806020026040519081016040528092919082600380156118db576020028201915b8154815260200190600101908083116118c7575b505050505091508060038060200260405190810160405280929190826003801561191a576020028201915b815481526020019060010190808311611906575b5050505050905092509250509250929050565b60008060018054905067ffffffffffffffff81111561194f5761194e611c9e565b5b60405190808252806020026020018201604052801561197d5781602001602082028036833780820191505090505b5090506000805b600180549050811015611abe576000600182815481106119a7576119a66125aa565b5b9060005260206000200160009054906101000a900473ffffffffffffffffffffffffffffffffffffffff1690508573ffffffffffffffffffffffffffffffffffffffff168173ffffffffffffffffffffffffffffffffffffffff1614158015611a5057506000600560008373ffffffffffffffffffffffffffffffffffffffff1673ffffffffffffffffffffffffffffffffffffffff1681526020019081526020016000205414155b15611ab05780848480611a62906130c0565b955081518110611a7557611a746125aa565b5b602002602001019073ffffffffffffffffffffffffffffffffffffffff16908173ffffffffffffffffffffffffffffffffffffffff16815250505b508080600101915050611984565b5060008103611af15760008054906101000a900473ffffffffffffffffffffffffffffffffffffffff1692505050611b3c565b60008282600454611b029190613137565b81518110611b1357611b126125aa565b5b6020026020010151905060046000815480929190611b30906130c0565b91905055508093505050505b919050565b5080546000825590600052602060002090810190611b5f9190611c04565b50565b508054611b6e90612b5d565b6000825580601f10611b805750611b9f565b601f016020900490600052602060002090810190611b9e9190611c21565b5b50565b8260038101928215611bd1579160200282015b82811115611bd0578251825591602001919060010190611bb5565b5b509050611bde9190611c04565b5090565b6040518060600160405280600390602082028036833780820191505090505090565b5b80821115611c1d576000816000905550600101611c05565b5090565b5b80821115611c3a576000816000905550600101611c22565b5090565b6000604051905090565b600080fd5b600080fd5b6000819050919050565b611c6581611c52565b8114611c7057600080fd5b50565b600081359050611c8281611c5c565b92915050565b600080fd5b6000601f19601f8301169050919050565b7f4e487b7100000000000000000000000000000000000000000000000000000000600052604160045260246000fd5b611cd682611c8d565b810181811067ffffffffffffffff82111715611cf557611cf4611c9e565b5b80604052505050565b6000611d08611c3e565b9050611d148282611ccd565b919050565b600067ffffffffffffffff821115611d3457611d33611c9e565b5b602082029050919050565b600080fd5b6000611d57611d5284611d19565b611cfe565b90508060208402830185811115611d7157611d70611d3f565b5b835b81811015611d9a5780611d868882611c73565b845260208401935050602081019050611d73565b5050509392505050565b600082601f830112611db957611db8611c88565b5b6003611dc6848285611d44565b91505092915050565b60008060808385031215611de657611de5611c48565b5b6000611df485828601611c73565b9250506020611e0585828601611da4565b9150509250929050565b60008115159050919050565b611e2481611e0f565b82525050565b6000602082019050611e3f6000830184611e1b565b92915050565b600073ffffffffffffffffffffffffffffffffffffffff82169050919050565b6000611e7082611e45565b9050919050565b611e8081611e65565b8114611e8b57600080fd5b50565b600081359050611e9d81611e77565b92915050565b60008060408385031215611eba57611eb9611c48565b5b6000611ec885828601611c73565b9250506020611ed985828601611e8e565b9150509250929050565b600060208284031215611ef957611ef8611c48565b5b6000611f0784828501611c73565b91505092915050565b611f1981611e65565b82525050565b7f4e487b7100000000000000000000000000000000000000000000000000000000600052602160045260246000fd5b60038110611f5f57611f5e611f1f565b5b50565b6000819050611f7082611f4e565b919050565b6000611f8082611f62565b9050919050565b611f9081611f75565b82525050565b6000819050919050565b611fa981611f96565b82525050565b6000608082019050611fc46000830187611f10565b611fd16020830186611f10565b611fde6040830185611f87565b611feb6060830184611fa0565b95945050505050565b60006020820190506120096000830184611fa0565b92915050565b600081519050919050565b600082825260208201905092915050565b6000819050602082019050919050565b61204481611c52565b82525050565b6000612056838361203b565b60208301905092915050565b6000602082019050919050565b600061207a8261200f565b612084818561201a565b935061208f8361202b565b8060005b838110156120c05781516120a7888261204a565b97506120b283612062565b925050600181019050612093565b5085935050505092915050565b600060208201905081810360008301526120e7818461206f565b905092915050565b60006020820190506121046000830184611f10565b92915050565b6003811061211b5761211a611f1f565b5b50565b600081905061212c8261210a565b919050565b600061213c8261211e565b9050919050565b61214c81612131565b82525050565b60006020820190506121676000830184612143565b92915050565b6000806040838503121561218457612183611c48565b5b600061219285828601611e8e565b92505060206121a385828601611e8e565b9150509250929050565b600081519050919050565b600082825260208201905092915050565b60005b838110156121e75780820151818401526020810190506121cc565b60008484015250505050565b60006121fe826121ad565b61220881856121b8565b93506122188185602086016121c9565b61222181611c8d565b840191505092915050565b6000606082019050818103600083015261224681866121f3565b90506122556020830185611e1b565b8181036040830152612267818461206f565b9050949350505050565b60006020828403121561228757612286611c48565b5b600061229584828501611e8e565b91505092915050565b600080fd5b600067ffffffffffffffff8211156122be576122bd611c9e565b5b6122c782611c8d565b9050602081019050919050565b82818337600083830152505050565b60006122f66122f1846122a3565b611cfe565b9050828152602081018484840111156123125761231161229e565b5b61231d8482856122d4565b509392505050565b600082601f83011261233a57612339611c88565b5b813561234a8482602086016122e3565b91505092915050565b60006020828403121561236957612368611c48565b5b600082013567ffffffffffffffff81111561238757612386611c4d565b5b61239384828501612325565b91505092915050565b6123a581611e0f565b81146123b057600080fd5b50565b6000813590506123c28161239c565b92915050565b600080604083850312156123df576123de611c48565b5b60006123ed85828601611c73565b92505060206123fe858286016123b3565b9150509250929050565b600060039050919050565b600081905092915050565b6000819050919050565b6000602082019050919050565b61243e81612408565b6124488184612413565b92506124538261241e565b8060005b8381101561248457815161246b878261204a565b965061247683612428565b925050600181019050612457565b505050505050565b600060c0820190506124a16000830185612435565b6124ae6060830184612435565b9392505050565b7f52656d6f76654167656e74203a204167656e74206973206e6f7420726567697360008201527f7465726564000000000000000000000000000000000000000000000000000000602082015250565b60006125116025836121b8565b915061251c826124b5565b604082019050919050565b6000602082019050818103600083015261254081612504565b9050919050565b7f4e487b7100000000000000000000000000000000000000000000000000000000600052601160045260246000fd5b600061258182611f96565b915061258c83611f96565b92508282039050818111156125a4576125a3612547565b5b92915050565b7f4e487b7100000000000000000000000000000000000000000000000000000000600052603260045260246000fd5b7f4e487b7100000000000000000000000000000000000000000000000000000000600052603160045260246000fd5b7f4f6e6c7920746865205345436161532063616e2073656e64207468652072656660008201527f6572656e6365207369676e617475726500000000000000000000000000000000602082015250565b60006126646030836121b8565b915061266f82612608565b604082019050919050565b6000602082019050818103600083015261269381612657565b9050919050565b7f496e76616c696420737461746520666f722053454361615320726573706f6e7360008201527f6500000000000000000000000000000000000000000000000000000000000000602082015250565b60006126f66021836121b8565b91506127018261269a565b604082019050919050565b60006020820190508181036000830152612725816126e9565b9050919050565b61273581611c52565b82525050565b6000602082019050612750600083018461272c565b92915050565b7f4174746573746174696f6e2070726f6365737320697320636c6f736564206f7260008201527f206e6f7420657869737473000000000000000000000000000000000000000000602082015250565b60006127b2602b836121b8565b91506127bd82612756565b604082019050919050565b600060208201905081810360008301526127e1816127a5565b9050919050565b7f53656e6445766964656e6365203a204167656e74206973206e6f74207265676960008201527f7374657265640000000000000000000000000000000000000000000000000000602082015250565b60006128446026836121b8565b915061284f826127e8565b604082019050919050565b6000602082019050818103600083015261287381612837565b9050919050565b7f4174746573746174696f6e2070726f63657373206973206e6f7420636c6f736560008201527f6400000000000000000000000000000000000000000000000000000000000000602082015250565b60006128d66021836121b8565b91506128e18261287a565b604082019050919050565b60006020820190508181036000830152612905816128c9565b9050919050565b7f4f6e6c7920746865205345436161532063616e2072657365742074686520636860008201527f61696e0000000000000000000000000000000000000000000000000000000000602082015250565b60006129686023836121b8565b91506129738261290c565b604082019050919050565b600060208201905081810360008301526129978161295b565b9050919050565b7f596f7520617265206e6f7420746865205345436161532e000000000000000000600082015250565b60006129d46017836121b8565b91506129df8261299e565b602082019050919050565b60006020820190508181036000830152612a03816129c7565b9050919050565b7f4174746573746174696f6e20697320636c6f736564206f72206e6f742065786960008201527f7374730000000000000000000000000000000000000000000000000000000000602082015250565b6000612a666023836121b8565b9150612a7182612a0a565b604082019050919050565b60006020820190508181036000830152612a9581612a59565b9050919050565b7f4765744167656e74496e666f203a204167656e74206973206e6f74207265676960008201527f7374657265640000000000000000000000000000000000000000000000000000602082015250565b6000612af86026836121b8565b9150612b0382612a9c565b604082019050919050565b60006020820190508181036000830152612b2781612aeb565b9050919050565b7f4e487b7100000000000000000000000000000000000000000000000000000000600052602260045260246000fd5b60006002820490506001821680612b7557607f821691505b602082108103612b8857612b87612b2e565b5b50919050565b7f4e616d65206973206e6f742076616c6964000000000000000000000000000000600082015250565b6000612bc46011836121b8565b9150612bcf82612b8e565b602082019050919050565b60006020820190508181036000830152612bf381612bb7565b9050919050565b60008190508160005260206000209050919050565b60006020601f8301049050919050565b600082821b905092915050565b600060088302612c5c7fffffffffffffffffffffffffffffffffffffffffffffffffffffffffffffffff82612c1f565b612c668683612c1f565b95508019841693508086168417925050509392505050565b6000819050919050565b6000612ca3612c9e612c9984611f96565b612c7e565b611f96565b9050919050565b6000819050919050565b612cbd83612c88565b612cd1612cc982612caa565b848454612c2c565b825550505050565b600090565b612ce6612cd9565b612cf1818484612cb4565b505050565b5b81811015612d1557612d0a600082612cde565b600181019050612cf7565b5050565b601f821115612d5a57612d2b81612bfa565b612d3484612c0f565b81016020851015612d43578190505b612d57612d4f85612c0f565b830182612cf6565b50505b505050565b600082821c905092915050565b6000612d7d60001984600802612d5f565b1980831691505092915050565b6000612d968383612d6c565b9150826002028217905092915050565b612daf826121ad565b67ffffffffffffffff811115612dc857612dc7611c9e565b5b612dd28254612b5d565b612ddd828285612d19565b600060209050601f831160018114612e105760008415612dfe578287015190505b612e088582612d8a565b865550612e70565b601f198416612e1e86612bfa565b60005b82811015612e4657848901518255600182019150602085019450602081019050612e21565b86831015612e635784890151612e5f601f891682612d6c565b8355505b6001600288020188555050505b505050505050565b7f4f6e6c79207468652076657269666965722063616e20636c6f7365207468652060008201527f6174746573746174696f6e2070726f6365737300000000000000000000000000602082015250565b6000612ed46033836121b8565b9150612edf82612e78565b604082019050919050565b60006020820190508181036000830152612f0381612ec7565b9050919050565b7f4174746573746174696f6e206973206e6f7420726561647920666f7220636c6f60008201527f7375726500000000000000000000000000000000000000000000000000000000602082015250565b6000612f666024836121b8565b9150612f7182612f0a565b604082019050919050565b60006020820190508181036000830152612f9581612f59565b9050919050565b7f4f6e6c79207468652076657269666965722063616e207265747269657665207460008201527f6865207369676e61747572657300000000000000000000000000000000000000602082015250565b6000612ff8602d836121b8565b915061300382612f9c565b604082019050919050565b6000602082019050818103600083015261302781612feb565b9050919050565b7f4174746573746174696f6e2070726f63657373206973206e6f7420636f6d706c60008201527f6574656400000000000000000000000000000000000000000000000000000000602082015250565b600061308a6024836121b8565b91506130958261302e565b604082019050919050565b600060208201905081810360008301526130b98161307d565b9050919050565b60006130cb82611f96565b91507fffffffffffffffffffffffffffffffffffffffffffffffffffffffffffffffff82036130fd576130fc612547565b5b600182019050919050565b7f4e487b7100000000000000000000000000000000000000000000000000000000600052601260045260246000fd5b600061314282611f96565b915061314d83611f96565b92508261315d5761315c613108565b5b82820690509291505056fea26469706673582212206b592cd7955f34ddf7dc07448806713f8831d8f4a432dbd72a14c26810820d7364736f6c634300081c0033","opcodes":"PUSH1 0x80 PUSH1 0x40 MSTORE PUSH2 0xE10 PUSH1 0x3 SSTORE CALLVALUE DUP1 ISZERO PUSH2 0x16 JUMPI PUSH1 0x0 DUP1 REVERT JUMPDEST POP CALLER PUSH1 0x0 DUP1 PUSH2 0x100 EXP DUP2 SLOAD DUP2 PUSH20 0xFFFFFFFFFFFFFFFFFFFFFFFFFFFFFFFFFFFFFFFF MUL NOT AND SWAP1 DUP4 PUSH20 0xFFFFFFFFFFFFFFFFFFFFFFFFFFFFFFFFFFFFFFFF AND MUL OR SWAP1 SSTORE POP PUSH1 0x1 PUSH1 0x0 DUP1 SLOAD SWAP1 PUSH2 0x100 EXP SWAP1 DIV PUSH20 0xFFFFFFFFFFFFFFFFFFFFFFFFFFFFFFFFFFFFFFFF AND SWAP1 DUP1 PUSH1 0x1 DUP2 SLOAD ADD DUP1 DUP3 SSTORE DUP1 SWAP2 POP POP PUSH1 0x1 SWAP1 SUB SWAP1 PUSH1 0x0 MSTORE PUSH1 0x20 PUSH1 0x0 KECCAK256 ADD PUSH1 0x0 SWAP1 SWAP2 SWAP1 SWAP2 SWAP1 SWAP2 PUSH2 0x100 EXP DUP2 SLOAD DUP2 PUSH20 0xFFFFFFFFFFFFFFFFFFFFFFFFFFFFFFFFFFFFFFFF MUL NOT AND SWAP1 DUP4 PUSH20 0xFFFFFFFFFFFFFFFFFFFFFFFFFFFFFFFFFFFFFFFF AND MUL OR SWAP1 SSTORE POP PUSH1 0x0 PUSH1 0x8 PUSH1 0x0 DUP1 PUSH1 0x0 SWAP1 SLOAD SWAP1 PUSH2 0x100 EXP SWAP1 DIV PUSH20 0xFFFFFFFFFFFFFFFFFFFFFFFFFFFFFFFFFFFFFFFF AND PUSH20 0xFFFFFFFFFFFFFFFFFFFFFFFFFFFFFFFFFFFFFFFF AND PUSH20 0xFFFFFFFFFFFFFFFFFFFFFFFFFFFFFFFFFFFFFFFF AND DUP2 MSTORE PUSH1 0x20 ADD SWAP1 DUP2 MSTORE PUSH1 0x20 ADD PUSH1 0x0 KECCAK256 DUP2 SWAP1 SSTORE POP PUSH2 0x319E DUP1 PUSH2 0x14F PUSH1 0x0 CODECOPY PUSH1 0x0 RETURN INVALID PUSH1 0x80 PUSH1 0x40 MSTORE CALLVALUE DUP1 ISZERO PUSH2 0x10 JUMPI PUSH1 0x0 DUP1 REVERT JUMPDEST POP PUSH1 0x4 CALLDATASIZE LT PUSH2 0x10B JUMPI PUSH1 0x0 CALLDATALOAD PUSH1 0xE0 SHR DUP1 PUSH4 0x96EFE852 GT PUSH2 0xA2 JUMPI DUP1 PUSH4 0xBC1A097E GT PUSH2 0x71 JUMPI DUP1 PUSH4 0xBC1A097E EQ PUSH2 0x2BD JUMPI DUP1 PUSH4 0xC224122D EQ PUSH2 0x2EF JUMPI DUP1 PUSH4 0xC984F8DB EQ PUSH2 0x31F JUMPI DUP1 PUSH4 0xCB2A0348 EQ PUSH2 0x33B JUMPI DUP1 PUSH4 0xE1A94C83 EQ PUSH2 0x36B JUMPI PUSH2 0x10B JUMP JUMPDEST DUP1 PUSH4 0x96EFE852 EQ PUSH2 0x20F JUMPI DUP1 PUSH4 0x9CB65FA1 EQ PUSH2 0x22D JUMPI DUP1 PUSH4 0xB46CA81A EQ PUSH2 0x25D JUMPI DUP1 PUSH4 0xB8DF8F98 EQ PUSH2 0x28D JUMPI PUSH2 0x10B JUMP JUMPDEST DUP1 PUSH4 0x5F3D4220 GT PUSH2 0xDE JUMPI DUP1 PUSH4 0x5F3D4220 EQ PUSH2 0x196 JUMPI DUP1 PUSH4 0x78CAAD49 EQ PUSH2 0x1C9 JUMPI DUP1 PUSH4 0x81880FD3 EQ PUSH2 0x1D3 JUMPI DUP1 PUSH4 0x93506AA6 EQ PUSH2 0x1F1 JUMPI PUSH2 0x10B JUMP JUMPDEST DUP1 PUSH4 0x1D995A0E EQ PUSH2 0x110 JUMPI DUP1 PUSH4 0x32FACFB7 EQ PUSH2 0x11A JUMPI DUP1 PUSH4 0x395D719B EQ PUSH2 0x14A JUMPI DUP1 PUSH4 0x5E8B3622 EQ PUSH2 0x17A JUMPI JUMPDEST PUSH1 0x0 DUP1 REVERT JUMPDEST PUSH2 0x118 PUSH2 0x39C JUMP JUMPDEST STOP JUMPDEST PUSH2 0x134 PUSH1 0x4 DUP1 CALLDATASIZE SUB DUP2 ADD SWAP1 PUSH2 0x12F SWAP2 SWAP1 PUSH2 0x1DCF JUMP JUMPDEST PUSH2 0x6B3 JUMP JUMPDEST PUSH1 0x40 MLOAD PUSH2 0x141 SWAP2 SWAP1 PUSH2 0x1E2A JUMP JUMPDEST PUSH1 0x40 MLOAD DUP1 SWAP2 SUB SWAP1 RETURN JUMPDEST PUSH2 0x164 PUSH1 0x4 DUP1 CALLDATASIZE SUB DUP2 ADD SWAP1 PUSH2 0x15F SWAP2 SWAP1 PUSH2 0x1EA3 JUMP JUMPDEST PUSH2 0x856 JUMP JUMPDEST PUSH1 0x40 MLOAD PUSH2 0x171 SWAP2 SWAP1 PUSH2 0x1E2A JUMP JUMPDEST PUSH1 0x40 MLOAD DUP1 SWAP2 SUB SWAP1 RETURN JUMPDEST PUSH2 0x194 PUSH1 0x4 DUP1 CALLDATASIZE SUB DUP2 ADD SWAP1 PUSH2 0x18F SWAP2 SWAP1 PUSH2 0x1DCF JUMP JUMPDEST PUSH2 0x941 JUMP JUMPDEST STOP JUMPDEST PUSH2 0x1B0 PUSH1 0x4 DUP1 CALLDATASIZE SUB DUP2 ADD SWAP1 PUSH2 0x1AB SWAP2 SWAP1 PUSH2 0x1EE3 JUMP JUMPDEST PUSH2 0xB6F JUMP JUMPDEST PUSH1 0x40 MLOAD PUSH2 0x1C0 SWAP5 SWAP4 SWAP3 SWAP2 SWAP1 PUSH2 0x1FAF JUMP JUMPDEST PUSH1 0x40 MLOAD DUP1 SWAP2 SUB SWAP1 RETURN JUMPDEST PUSH2 0x1D1 PUSH2 0xC74 JUMP JUMPDEST STOP JUMPDEST PUSH2 0x1DB PUSH2 0xD46 JUMP JUMPDEST PUSH1 0x40 MLOAD PUSH2 0x1E8 SWAP2 SWAP1 PUSH2 0x1FF4 JUMP JUMPDEST PUSH1 0x40 MLOAD DUP1 SWAP2 SUB SWAP1 RETURN JUMPDEST PUSH2 0x1F9 PUSH2 0xD4C JUMP JUMPDEST PUSH1 0x40 MLOAD PUSH2 0x206 SWAP2 SWAP1 PUSH2 0x1FF4 JUMP JUMPDEST PUSH1 0x40 MLOAD DUP1 SWAP2 SUB SWAP1 RETURN JUMPDEST PUSH2 0x217 PUSH2 0xD52 JUMP JUMPDEST PUSH1 0x40 MLOAD PUSH2 0x224 SWAP2 SWAP1 PUSH2 0x20CD JUMP JUMPDEST PUSH1 0x40 MLOAD DUP1 SWAP2 SUB SWAP1 RETURN JUMPDEST PUSH2 0x247 PUSH1 0x4 DUP1 CALLDATASIZE SUB DUP2 ADD SWAP1 PUSH2 0x242 SWAP2 SWAP1 PUSH2 0x1EA3 JUMP JUMPDEST PUSH2 0xDAA JUMP JUMPDEST PUSH1 0x40 MLOAD PUSH2 0x254 SWAP2 SWAP1 PUSH2 0x20EF JUMP JUMPDEST PUSH1 0x40 MLOAD DUP1 SWAP2 SUB SWAP1 RETURN JUMPDEST PUSH2 0x277 PUSH1 0x4 DUP1 CALLDATASIZE SUB DUP2 ADD SWAP1 PUSH2 0x272 SWAP2 SWAP1 PUSH2 0x1EA3 JUMP JUMPDEST PUSH2 0xEFE JUMP JUMPDEST PUSH1 0x40 MLOAD PUSH2 0x284 SWAP2 SWAP1 PUSH2 0x1E2A JUMP JUMPDEST PUSH1 0x40 MLOAD DUP1 SWAP2 SUB SWAP1 RETURN JUMPDEST PUSH2 0x2A7 PUSH1 0x4 DUP1 CALLDATASIZE SUB DUP2 ADD SWAP1 PUSH2 0x2A2 SWAP2 SWAP1 PUSH2 0x1EE3 JUMP JUMPDEST PUSH2 0xFE9 JUMP JUMPDEST PUSH1 0x40 MLOAD PUSH2 0x2B4 SWAP2 SWAP1 PUSH2 0x2152 JUMP JUMPDEST PUSH1 0x40 MLOAD DUP1 SWAP2 SUB SWAP1 RETURN JUMPDEST PUSH2 0x2D7 PUSH1 0x4 DUP1 CALLDATASIZE SUB DUP2 ADD SWAP1 PUSH2 0x2D2 SWAP2 SWAP1 PUSH2 0x216D JUMP JUMPDEST PUSH2 0x1016 JUMP JUMPDEST PUSH1 0x40 MLOAD PUSH2 0x2E6 SWAP4 SWAP3 SWAP2 SWAP1 PUSH2 0x222C JUMP JUMPDEST PUSH1 0x40 MLOAD DUP1 SWAP2 SUB SWAP1 RETURN JUMPDEST PUSH2 0x309 PUSH1 0x4 DUP1 CALLDATASIZE SUB DUP2 ADD SWAP1 PUSH2 0x304 SWAP2 SWAP1 PUSH2 0x2271 JUMP JUMPDEST PUSH2 0x1250 JUMP JUMPDEST PUSH1 0x40 MLOAD PUSH2 0x316 SWAP2 SWAP1 PUSH2 0x1E2A JUMP JUMPDEST PUSH1 0x40 MLOAD DUP1 SWAP2 SUB SWAP1 RETURN JUMPDEST PUSH2 0x339 PUSH1 0x4 DUP1 CALLDATASIZE SUB DUP2 ADD SWAP1 PUSH2 0x334 SWAP2 SWAP1 PUSH2 0x2353 JUMP JUMPDEST PUSH2 0x12A9 JUMP JUMPDEST STOP JUMPDEST PUSH2 0x355 PUSH1 0x4 DUP1 CALLDATASIZE SUB DUP2 ADD SWAP1 PUSH2 0x350 SWAP2 SWAP1 PUSH2 0x23C8 JUMP JUMPDEST PUSH2 0x1446 JUMP JUMPDEST PUSH1 0x40 MLOAD PUSH2 0x362 SWAP2 SWAP1 PUSH2 0x1E2A JUMP JUMPDEST PUSH1 0x40 MLOAD DUP1 SWAP2 SUB SWAP1 RETURN JUMPDEST PUSH2 0x385 PUSH1 0x4 DUP1 CALLDATASIZE SUB DUP2 ADD SWAP1 PUSH2 0x380 SWAP2 SWAP1 PUSH2 0x1EA3 JUMP JUMPDEST PUSH2 0x176A JUMP JUMPDEST PUSH1 0x40 MLOAD PUSH2 0x393 SWAP3 SWAP2 SWAP1 PUSH2 0x248C JUMP JUMPDEST PUSH1 0x40 MLOAD DUP1 SWAP2 SUB SWAP1 RETURN JUMPDEST PUSH1 0x0 PUSH1 0x6 PUSH1 0x0 CALLER PUSH20 0xFFFFFFFFFFFFFFFFFFFFFFFFFFFFFFFFFFFFFFFF AND PUSH20 0xFFFFFFFFFFFFFFFFFFFFFFFFFFFFFFFFFFFFFFFF AND DUP2 MSTORE PUSH1 0x20 ADD SWAP1 DUP2 MSTORE PUSH1 0x20 ADD PUSH1 0x0 KECCAK256 SWAP1 POP DUP1 PUSH1 0x1 ADD PUSH1 0x0 SWAP1 SLOAD SWAP1 PUSH2 0x100 EXP SWAP1 DIV PUSH1 0xFF AND PUSH2 0x430 JUMPI PUSH1 0x40 MLOAD PUSH32 0x8C379A000000000000000000000000000000000000000000000000000000000 DUP2 MSTORE PUSH1 0x4 ADD PUSH2 0x427 SWAP1 PUSH2 0x2527 JUMP JUMPDEST PUSH1 0x40 MLOAD DUP1 SWAP2 SUB SWAP1 REVERT JUMPDEST PUSH1 0x0 PUSH1 0x8 PUSH1 0x0 CALLER PUSH20 0xFFFFFFFFFFFFFFFFFFFFFFFFFFFFFFFFFFFFFFFF AND PUSH20 0xFFFFFFFFFFFFFFFFFFFFFFFFFFFFFFFFFFFFFFFF AND DUP2 MSTORE PUSH1 0x20 ADD SWAP1 DUP2 MSTORE PUSH1 0x20 ADD PUSH1 0x0 KECCAK256 SLOAD SWAP1 POP PUSH1 0x0 PUSH1 0x1 DUP1 DUP1 DUP1 SLOAD SWAP1 POP PUSH2 0x488 SWAP2 SWAP1 PUSH2 0x2576 JUMP JUMPDEST DUP2 SLOAD DUP2 LT PUSH2 0x499 JUMPI PUSH2 0x498 PUSH2 0x25AA JUMP JUMPDEST JUMPDEST SWAP1 PUSH1 0x0 MSTORE PUSH1 0x20 PUSH1 0x0 KECCAK256 ADD PUSH1 0x0 SWAP1 SLOAD SWAP1 PUSH2 0x100 EXP SWAP1 DIV PUSH20 0xFFFFFFFFFFFFFFFFFFFFFFFFFFFFFFFFFFFFFFFF AND SWAP1 POP DUP1 PUSH1 0x1 DUP4 DUP2 SLOAD DUP2 LT PUSH2 0x4DB JUMPI PUSH2 0x4DA PUSH2 0x25AA JUMP JUMPDEST JUMPDEST SWAP1 PUSH1 0x0 MSTORE PUSH1 0x20 PUSH1 0x0 KECCAK256 ADD PUSH1 0x0 PUSH2 0x100 EXP DUP2 SLOAD DUP2 PUSH20 0xFFFFFFFFFFFFFFFFFFFFFFFFFFFFFFFFFFFFFFFF MUL NOT AND SWAP1 DUP4 PUSH20 0xFFFFFFFFFFFFFFFFFFFFFFFFFFFFFFFFFFFFFFFF AND MUL OR SWAP1 SSTORE POP DUP2 PUSH1 0x8 PUSH1 0x0 DUP4 PUSH20 0xFFFFFFFFFFFFFFFFFFFFFFFFFFFFFFFFFFFFFFFF AND PUSH20 0xFFFFFFFFFFFFFFFFFFFFFFFFFFFFFFFFFFFFFFFF AND DUP2 MSTORE PUSH1 0x20 ADD SWAP1 DUP2 MSTORE PUSH1 0x20 ADD PUSH1 0x0 KECCAK256 DUP2 SWAP1 SSTORE POP PUSH1 0x1 DUP1 SLOAD DUP1 PUSH2 0x579 JUMPI PUSH2 0x578 PUSH2 0x25D9 JUMP JUMPDEST JUMPDEST PUSH1 0x1 SWAP1 SUB DUP2 DUP2 SWAP1 PUSH1 0x0 MSTORE PUSH1 0x20 PUSH1 0x0 KECCAK256 ADD PUSH1 0x0 PUSH2 0x100 EXP DUP2 SLOAD SWAP1 PUSH20 0xFFFFFFFFFFFFFFFFFFFFFFFFFFFFFFFFFFFFFFFF MUL NOT AND SWAP1 SSTORE SWAP1 SSTORE PUSH1 0x8 PUSH1 0x0 CALLER PUSH20 0xFFFFFFFFFFFFFFFFFFFFFFFFFFFFFFFFFFFFFFFF AND PUSH20 0xFFFFFFFFFFFFFFFFFFFFFFFFFFFFFFFFFFFFFFFF AND DUP2 MSTORE PUSH1 0x20 ADD SWAP1 DUP2 MSTORE PUSH1 0x20 ADD PUSH1 0x0 KECCAK256 PUSH1 0x0 SWAP1 SSTORE DUP3 PUSH1 0x2 ADD PUSH1 0x0 PUSH2 0x601 SWAP2 SWAP1 PUSH2 0x1B41 JUMP JUMPDEST PUSH1 0x6 PUSH1 0x0 CALLER PUSH20 0xFFFFFFFFFFFFFFFFFFFFFFFFFFFFFFFFFFFFFFFF AND PUSH20 0xFFFFFFFFFFFFFFFFFFFFFFFFFFFFFFFFFFFFFFFF AND DUP2 MSTORE PUSH1 0x20 ADD SWAP1 DUP2 MSTORE PUSH1 0x20 ADD PUSH1 0x0 KECCAK256 PUSH1 0x0 DUP1 DUP3 ADD PUSH1 0x0 PUSH2 0x651 SWAP2 SWAP1 PUSH2 0x1B62 JUMP JUMPDEST PUSH1 0x1 DUP3 ADD PUSH1 0x0 PUSH2 0x100 EXP DUP2 SLOAD SWAP1 PUSH1 0xFF MUL NOT AND SWAP1 SSTORE PUSH1 0x2 DUP3 ADD PUSH1 0x0 PUSH2 0x675 SWAP2 SWAP1 PUSH2 0x1B41 JUMP JUMPDEST POP POP PUSH32 0xED9C8AD8D5A0A66898EA49D2956929C93AE2E8BD50281B2ED897C5D1A6737E0B CALLER PUSH1 0x40 MLOAD PUSH2 0x6A6 SWAP2 SWAP1 PUSH2 0x20EF JUMP JUMPDEST PUSH1 0x40 MLOAD DUP1 SWAP2 SUB SWAP1 LOG1 POP POP POP JUMP JUMPDEST PUSH1 0x0 DUP1 PUSH1 0x0 SWAP1 SLOAD SWAP1 PUSH2 0x100 EXP SWAP1 DIV PUSH20 0xFFFFFFFFFFFFFFFFFFFFFFFFFFFFFFFFFFFFFFFF AND PUSH20 0xFFFFFFFFFFFFFFFFFFFFFFFFFFFFFFFFFFFFFFFF AND CALLER PUSH20 0xFFFFFFFFFFFFFFFFFFFFFFFFFFFFFFFFFFFFFFFF AND EQ PUSH2 0x744 JUMPI PUSH1 0x40 MLOAD PUSH32 0x8C379A000000000000000000000000000000000000000000000000000000000 DUP2 MSTORE PUSH1 0x4 ADD PUSH2 0x73B SWAP1 PUSH2 0x267A JUMP JUMPDEST PUSH1 0x40 MLOAD DUP1 SWAP2 SUB SWAP1 REVERT JUMPDEST PUSH1 0x0 PUSH1 0x7 PUSH1 0x0 DUP6 DUP2 MSTORE PUSH1 0x20 ADD SWAP1 DUP2 MSTORE PUSH1 0x20 ADD PUSH1 0x0 KECCAK256 SWAP1 POP PUSH1 0x0 PUSH1 0x2 DUP2 GT ISZERO PUSH2 0x76F JUMPI PUSH2 0x76E PUSH2 0x1F1F JUMP JUMPDEST JUMPDEST DUP2 PUSH1 0x9 ADD PUSH1 0x0 SWAP1 SLOAD SWAP1 PUSH2 0x100 EXP SWAP1 DIV PUSH1 0xFF AND PUSH1 0x2 DUP2 GT ISZERO PUSH2 0x793 JUMPI PUSH2 0x792 PUSH2 0x1F1F JUMP JUMPDEST JUMPDEST EQ PUSH2 0x7D3 JUMPI PUSH1 0x40 MLOAD PUSH32 0x8C379A000000000000000000000000000000000000000000000000000000000 DUP2 MSTORE PUSH1 0x4 ADD PUSH2 0x7CA SWAP1 PUSH2 0x270C JUMP JUMPDEST PUSH1 0x40 MLOAD DUP1 SWAP2 SUB SWAP1 REVERT JUMPDEST DUP3 DUP2 PUSH1 0x6 ADD SWAP1 PUSH1 0x3 PUSH2 0x7E6 SWAP3 SWAP2 SWAP1 PUSH2 0x1BA2 JUMP JUMPDEST POP PUSH1 0x1 DUP2 PUSH1 0x9 ADD PUSH1 0x0 PUSH2 0x100 EXP DUP2 SLOAD DUP2 PUSH1 0xFF MUL NOT AND SWAP1 DUP4 PUSH1 0x2 DUP2 GT ISZERO PUSH2 0x80F JUMPI PUSH2 0x80E PUSH2 0x1F1F JUMP JUMPDEST JUMPDEST MUL OR SWAP1 SSTORE POP PUSH32 0x6781E8D3C07E87E938EC28A5435AA7862779FB9C7D01B7315ECA91430B2A4643 DUP5 PUSH1 0x40 MLOAD PUSH2 0x843 SWAP2 SWAP1 PUSH2 0x273B JUMP JUMPDEST PUSH1 0x40 MLOAD DUP1 SWAP2 SUB SWAP1 LOG1 PUSH1 0x1 SWAP2 POP POP SWAP3 SWAP2 POP POP JUMP JUMPDEST PUSH1 0x0 DUP1 PUSH1 0x7 PUSH1 0x0 DUP6 DUP2 MSTORE PUSH1 0x20 ADD SWAP1 DUP2 MSTORE PUSH1 0x20 ADD PUSH1 0x0 KECCAK256 SWAP1 POP PUSH1 0x2 DUP1 DUP2 GT ISZERO PUSH2 0x881 JUMPI PUSH2 0x880 PUSH2 0x1F1F JUMP JUMPDEST JUMPDEST DUP2 PUSH1 0x9 ADD PUSH1 0x0 SWAP1 SLOAD SWAP1 PUSH2 0x100 EXP SWAP1 DIV PUSH1 0xFF AND PUSH1 0x2 DUP2 GT ISZERO PUSH2 0x8A5 JUMPI PUSH2 0x8A4 PUSH2 0x1F1F JUMP JUMPDEST JUMPDEST SUB PUSH2 0x8E5 JUMPI PUSH1 0x40 MLOAD PUSH32 0x8C379A000000000000000000000000000000000000000000000000000000000 DUP2 MSTORE PUSH1 0x4 ADD PUSH2 0x8DC SWAP1 PUSH2 0x27C8 JUMP JUMPDEST PUSH1 0x40 MLOAD DUP1 SWAP2 SUB SWAP1 REVERT JUMPDEST DUP3 PUSH20 0xFFFFFFFFFFFFFFFFFFFFFFFFFFFFFFFFFFFFFFFF AND DUP2 PUSH1 0x2 ADD PUSH1 0x0 SWAP1 SLOAD SWAP1 PUSH2 0x100 EXP SWAP1 DIV PUSH20 0xFFFFFFFFFFFFFFFFFFFFFFFFFFFFFFFFFFFFFFFF AND PUSH20 0xFFFFFFFFFFFFFFFFFFFFFFFFFFFFFFFFFFFFFFFF AND EQ SWAP2 POP POP SWAP3 SWAP2 POP POP JUMP JUMPDEST PUSH1 0x0 PUSH1 0x6 PUSH1 0x0 CALLER PUSH20 0xFFFFFFFFFFFFFFFFFFFFFFFFFFFFFFFFFFFFFFFF AND PUSH20 0xFFFFFFFFFFFFFFFFFFFFFFFFFFFFFFFFFFFFFFFF AND DUP2 MSTORE PUSH1 0x20 ADD SWAP1 DUP2 MSTORE PUSH1 0x20 ADD PUSH1 0x0 KECCAK256 SWAP1 POP DUP1 PUSH1 0x1 ADD PUSH1 0x0 SWAP1 SLOAD SWAP1 PUSH2 0x100 EXP SWAP1 DIV PUSH1 0xFF AND PUSH2 0x9D5 JUMPI PUSH1 0x40 MLOAD PUSH32 0x8C379A000000000000000000000000000000000000000000000000000000000 DUP2 MSTORE PUSH1 0x4 ADD PUSH2 0x9CC SWAP1 PUSH2 0x285A JUMP JUMPDEST PUSH1 0x40 MLOAD DUP1 SWAP2 SUB SWAP1 REVERT JUMPDEST PUSH1 0x0 PUSH1 0x7 PUSH1 0x0 DUP6 DUP2 MSTORE PUSH1 0x20 ADD SWAP1 DUP2 MSTORE PUSH1 0x20 ADD PUSH1 0x0 KECCAK256 SWAP1 POP DUP4 DUP2 PUSH1 0x0 ADD DUP2 SWAP1 SSTORE POP PUSH2 0x9FE CALLER PUSH2 0x192D JUMP JUMPDEST DUP2 PUSH1 0x1 ADD PUSH1 0x0 PUSH2 0x100 EXP DUP2 SLOAD DUP2 PUSH20 0xFFFFFFFFFFFFFFFFFFFFFFFFFFFFFFFFFFFFFFFF MUL NOT AND SWAP1 DUP4 PUSH20 0xFFFFFFFFFFFFFFFFFFFFFFFFFFFFFFFFFFFFFFFF AND MUL OR SWAP1 SSTORE POP CALLER DUP2 PUSH1 0x2 ADD PUSH1 0x0 PUSH2 0x100 EXP DUP2 SLOAD DUP2 PUSH20 0xFFFFFFFFFFFFFFFFFFFFFFFFFFFFFFFFFFFFFFFF MUL NOT AND SWAP1 DUP4 PUSH20 0xFFFFFFFFFFFFFFFFFFFFFFFFFFFFFFFFFFFFFFFF AND MUL OR SWAP1 SSTORE POP DUP3 DUP2 PUSH1 0x3 ADD SWAP1 PUSH1 0x3 PUSH2 0xA96 SWAP3 SWAP2 SWAP1 PUSH2 0x1BA2 JUMP JUMPDEST POP PUSH1 0x40 MLOAD DUP1 PUSH1 0x60 ADD PUSH1 0x40 MSTORE DUP1 PUSH1 0x0 DUP1 SHL DUP2 MSTORE PUSH1 0x20 ADD PUSH1 0x0 DUP1 SHL DUP2 MSTORE PUSH1 0x20 ADD PUSH1 0x0 DUP1 SHL DUP2 MSTORE POP DUP2 PUSH1 0x6 ADD SWAP1 PUSH1 0x3 PUSH2 0xACD SWAP3 SWAP2 SWAP1 PUSH2 0x1BA2 JUMP JUMPDEST POP PUSH1 0x0 DUP2 PUSH1 0x9 ADD PUSH1 0x0 PUSH2 0x100 EXP DUP2 SLOAD DUP2 PUSH1 0xFF MUL NOT AND SWAP1 DUP4 PUSH1 0x2 DUP2 GT ISZERO PUSH2 0xAF6 JUMPI PUSH2 0xAF5 PUSH2 0x1F1F JUMP JUMPDEST JUMPDEST MUL OR SWAP1 SSTORE POP PUSH1 0x0 DUP2 PUSH1 0x9 ADD PUSH1 0x1 PUSH2 0x100 EXP DUP2 SLOAD DUP2 PUSH1 0xFF MUL NOT AND SWAP1 DUP4 PUSH1 0x2 DUP2 GT ISZERO PUSH2 0xB23 JUMPI PUSH2 0xB22 PUSH2 0x1F1F JUMP JUMPDEST JUMPDEST MUL OR SWAP1 SSTORE POP PUSH1 0x0 DUP2 PUSH1 0xA ADD DUP2 SWAP1 SSTORE POP PUSH32 0xD32F85071E05721B8A1C63D5CAD1FE3525EC0A11FD5B7760B6A82D7F6BE7D283 DUP5 PUSH1 0x40 MLOAD PUSH2 0xB61 SWAP2 SWAP1 PUSH2 0x273B JUMP JUMPDEST PUSH1 0x40 MLOAD DUP1 SWAP2 SUB SWAP1 LOG1 POP POP POP POP JUMP JUMPDEST PUSH1 0x0 DUP1 PUSH1 0x0 DUP1 PUSH1 0x0 PUSH1 0x7 PUSH1 0x0 DUP8 DUP2 MSTORE PUSH1 0x20 ADD SWAP1 DUP2 MSTORE PUSH1 0x20 ADD PUSH1 0x0 KECCAK256 SWAP1 POP PUSH1 0x2 DUP1 DUP2 GT ISZERO PUSH2 0xB9F JUMPI PUSH2 0xB9E PUSH2 0x1F1F JUMP JUMPDEST JUMPDEST DUP2 PUSH1 0x9 ADD PUSH1 0x0 SWAP1 SLOAD SWAP1 PUSH2 0x100 EXP SWAP1 DIV PUSH1 0xFF AND PUSH1 0x2 DUP2 GT ISZERO PUSH2 0xBC3 JUMPI PUSH2 0xBC2 PUSH2 0x1F1F JUMP JUMPDEST JUMPDEST EQ PUSH2 0xC03 JUMPI PUSH1 0x40 MLOAD PUSH32 0x8C379A000000000000000000000000000000000000000000000000000000000 DUP2 MSTORE PUSH1 0x4 ADD PUSH2 0xBFA SWAP1 PUSH2 0x28EC JUMP JUMPDEST PUSH1 0x40 MLOAD DUP1 SWAP2 SUB SWAP1 REVERT JUMPDEST DUP1 PUSH1 0x2 ADD PUSH1 0x0 SWAP1 SLOAD SWAP1 PUSH2 0x100 EXP SWAP1 DIV PUSH20 0xFFFFFFFFFFFFFFFFFFFFFFFFFFFFFFFFFFFFFFFF AND DUP2 PUSH1 0x1 ADD PUSH1 0x0 SWAP1 SLOAD SWAP1 PUSH2 0x100 EXP SWAP1 DIV PUSH20 0xFFFFFFFFFFFFFFFFFFFFFFFFFFFFFFFFFFFFFFFF AND DUP3 PUSH1 0x9 ADD PUSH1 0x1 SWAP1 SLOAD SWAP1 PUSH2 0x100 EXP SWAP1 DIV PUSH1 0xFF AND DUP4 PUSH1 0xA ADD SLOAD SWAP5 POP SWAP5 POP SWAP5 POP SWAP5 POP POP SWAP2 SWAP4 POP SWAP2 SWAP4 JUMP JUMPDEST PUSH1 0x0 DUP1 SLOAD SWAP1 PUSH2 0x100 EXP SWAP1 DIV PUSH20 0xFFFFFFFFFFFFFFFFFFFFFFFFFFFFFFFFFFFFFFFF AND PUSH20 0xFFFFFFFFFFFFFFFFFFFFFFFFFFFFFFFFFFFFFFFF AND CALLER PUSH20 0xFFFFFFFFFFFFFFFFFFFFFFFFFFFFFFFFFFFFFFFF AND EQ PUSH2 0xD02 JUMPI PUSH1 0x40 MLOAD PUSH32 0x8C379A000000000000000000000000000000000000000000000000000000000 DUP2 MSTORE PUSH1 0x4 ADD PUSH2 0xCF9 SWAP1 PUSH2 0x297E JUMP JUMPDEST PUSH1 0x40 MLOAD DUP1 SWAP2 SUB SWAP1 REVERT JUMPDEST PUSH1 0x2 PUSH1 0x0 PUSH2 0xD10 SWAP2 SWAP1 PUSH2 0x1B41 JUMP JUMPDEST PUSH1 0x0 PUSH1 0x4 DUP2 SWAP1 SSTORE POP PUSH32 0x8E1DDA8E7CA889EF4BD70F2FF6DD48A9B896B1D89703A08B6385333045AF1489 PUSH1 0x40 MLOAD PUSH1 0x40 MLOAD DUP1 SWAP2 SUB SWAP1 LOG1 JUMP JUMPDEST PUSH1 0x3 SLOAD DUP2 JUMP JUMPDEST PUSH1 0x4 SLOAD DUP2 JUMP JUMPDEST PUSH1 0x60 PUSH1 0x2 DUP1 SLOAD DUP1 PUSH1 0x20 MUL PUSH1 0x20 ADD PUSH1 0x40 MLOAD SWAP1 DUP2 ADD PUSH1 0x40 MSTORE DUP1 SWAP3 SWAP2 SWAP1 DUP2 DUP2 MSTORE PUSH1 0x20 ADD DUP3 DUP1 SLOAD DUP1 ISZERO PUSH2 0xDA0 JUMPI PUSH1 0x20 MUL DUP3 ADD SWAP2 SWAP1 PUSH1 0x0 MSTORE PUSH1 0x20 PUSH1 0x0 KECCAK256 SWAP1 JUMPDEST DUP2 SLOAD DUP2 MSTORE PUSH1 0x20 ADD SWAP1 PUSH1 0x1 ADD SWAP1 DUP1 DUP4 GT PUSH2 0xD8C JUMPI JUMPDEST POP POP POP POP POP SWAP1 POP SWAP1 JUMP JUMPDEST PUSH1 0x0 DUP1 PUSH1 0x0 SWAP1 SLOAD SWAP1 PUSH2 0x100 EXP SWAP1 DIV PUSH20 0xFFFFFFFFFFFFFFFFFFFFFFFFFFFFFFFFFFFFFFFF AND PUSH20 0xFFFFFFFFFFFFFFFFFFFFFFFFFFFFFFFFFFFFFFFF AND DUP3 PUSH20 0xFFFFFFFFFFFFFFFFFFFFFFFFFFFFFFFFFFFFFFFF AND EQ PUSH2 0xE3B JUMPI PUSH1 0x40 MLOAD PUSH32 0x8C379A000000000000000000000000000000000000000000000000000000000 DUP2 MSTORE PUSH1 0x4 ADD PUSH2 0xE32 SWAP1 PUSH2 0x29EA JUMP JUMPDEST PUSH1 0x40 MLOAD DUP1 SWAP2 SUB SWAP1 REVERT JUMPDEST PUSH1 0x0 PUSH1 0x7 PUSH1 0x0 DUP6 DUP2 MSTORE PUSH1 0x20 ADD SWAP1 DUP2 MSTORE PUSH1 0x20 ADD PUSH1 0x0 KECCAK256 SWAP1 POP PUSH1 0x0 PUSH1 0x2 DUP2 GT ISZERO PUSH2 0xE66 JUMPI PUSH2 0xE65 PUSH2 0x1F1F JUMP JUMPDEST JUMPDEST DUP2 PUSH1 0x9 ADD PUSH1 0x0 SWAP1 SLOAD SWAP1 PUSH2 0x100 EXP SWAP1 DIV PUSH1 0xFF AND PUSH1 0x2 DUP2 GT ISZERO PUSH2 0xE8A JUMPI PUSH2 0xE89 PUSH2 0x1F1F JUMP JUMPDEST JUMPDEST EQ PUSH2 0xECA JUMPI PUSH1 0x40 MLOAD PUSH32 0x8C379A000000000000000000000000000000000000000000000000000000000 DUP2 MSTORE PUSH1 0x4 ADD PUSH2 0xEC1 SWAP1 PUSH2 0x2A7C JUMP JUMPDEST PUSH1 0x40 MLOAD DUP1 SWAP2 SUB SWAP1 REVERT JUMPDEST PUSH1 0x0 DUP2 PUSH1 0x2 ADD PUSH1 0x0 SWAP1 SLOAD SWAP1 PUSH2 0x100 EXP SWAP1 DIV PUSH20 0xFFFFFFFFFFFFFFFFFFFFFFFFFFFFFFFFFFFFFFFF AND SWAP1 POP DUP1 SWAP3 POP POP POP SWAP3 SWAP2 POP POP JUMP JUMPDEST PUSH1 0x0 DUP1 PUSH1 0x7 PUSH1 0x0 DUP6 DUP2 MSTORE PUSH1 0x20 ADD SWAP1 DUP2 MSTORE PUSH1 0x20 ADD PUSH1 0x0 KECCAK256 SWAP1 POP PUSH1 0x2 DUP1 DUP2 GT ISZERO PUSH2 0xF29 JUMPI PUSH2 0xF28 PUSH2 0x1F1F JUMP JUMPDEST JUMPDEST DUP2 PUSH1 0x9 ADD PUSH1 0x0 SWAP1 SLOAD SWAP1 PUSH2 0x100 EXP SWAP1 DIV PUSH1 0xFF AND PUSH1 0x2 DUP2 GT ISZERO PUSH2 0xF4D JUMPI PUSH2 0xF4C PUSH2 0x1F1F JUMP JUMPDEST JUMPDEST SUB PUSH2 0xF8D JUMPI PUSH1 0x40 MLOAD PUSH32 0x8C379A000000000000000000000000000000000000000000000000000000000 DUP2 MSTORE PUSH1 0x4 ADD PUSH2 0xF84 SWAP1 PUSH2 0x27C8 JUMP JUMPDEST PUSH1 0x40 MLOAD DUP1 SWAP2 SUB SWAP1 REVERT JUMPDEST DUP3 PUSH20 0xFFFFFFFFFFFFFFFFFFFFFFFFFFFFFFFFFFFFFFFF AND DUP2 PUSH1 0x1 ADD PUSH1 0x0 SWAP1 SLOAD SWAP1 PUSH2 0x100 EXP SWAP1 DIV PUSH20 0xFFFFFFFFFFFFFFFFFFFFFFFFFFFFFFFFFFFFFFFF AND PUSH20 0xFFFFFFFFFFFFFFFFFFFFFFFFFFFFFFFFFFFFFFFF AND EQ SWAP2 POP POP SWAP3 SWAP2 POP POP JUMP JUMPDEST PUSH1 0x0 PUSH1 0x7 PUSH1 0x0 DUP4 DUP2 MSTORE PUSH1 0x20 ADD SWAP1 DUP2 MSTORE PUSH1 0x20 ADD PUSH1 0x0 KECCAK256 PUSH1 0x9 ADD PUSH1 0x0 SWAP1 SLOAD SWAP1 PUSH2 0x100 EXP SWAP1 DIV PUSH1 0xFF AND SWAP1 POP SWAP2 SWAP1 POP JUMP JUMPDEST PUSH1 0x60 PUSH1 0x0 PUSH1 0x60 PUSH1 0x0 PUSH1 0x6 PUSH1 0x0 DUP7 PUSH20 0xFFFFFFFFFFFFFFFFFFFFFFFFFFFFFFFFFFFFFFFF AND PUSH20 0xFFFFFFFFFFFFFFFFFFFFFFFFFFFFFFFFFFFFFFFF AND DUP2 MSTORE PUSH1 0x20 ADD SWAP1 DUP2 MSTORE PUSH1 0x20 ADD PUSH1 0x0 KECCAK256 SWAP1 POP PUSH1 0x0 PUSH1 0x6 PUSH1 0x0 DUP9 PUSH20 0xFFFFFFFFFFFFFFFFFFFFFFFFFFFFFFFFFFFFFFFF AND PUSH20 0xFFFFFFFFFFFFFFFFFFFFFFFFFFFFFFFFFFFFFFFF AND DUP2 MSTORE PUSH1 0x20 ADD SWAP1 DUP2 MSTORE PUSH1 0x20 ADD PUSH1 0x0 KECCAK256 SWAP1 POP DUP2 PUSH1 0x1 ADD PUSH1 0x0 SWAP1 SLOAD SWAP1 PUSH2 0x100 EXP SWAP1 DIV PUSH1 0xFF AND DUP1 PUSH2 0x110A JUMPI POP PUSH1 0x0 DUP1 SLOAD SWAP1 PUSH2 0x100 EXP SWAP1 DIV PUSH20 0xFFFFFFFFFFFFFFFFFFFFFFFFFFFFFFFFFFFFFFFF AND PUSH20 0xFFFFFFFFFFFFFFFFFFFFFFFFFFFFFFFFFFFFFFFF AND DUP7 PUSH20 0xFFFFFFFFFFFFFFFFFFFFFFFFFFFFFFFFFFFFFFFF AND EQ JUMPDEST PUSH2 0x1149 JUMPI PUSH1 0x40 MLOAD PUSH32 0x8C379A000000000000000000000000000000000000000000000000000000000 DUP2 MSTORE PUSH1 0x4 ADD PUSH2 0x1140 SWAP1 PUSH2 0x2B0E JUMP JUMPDEST PUSH1 0x40 MLOAD DUP1 SWAP2 SUB SWAP1 REVERT JUMPDEST DUP1 PUSH1 0x0 ADD DUP2 PUSH1 0x1 ADD PUSH1 0x0 SWAP1 SLOAD SWAP1 PUSH2 0x100 EXP SWAP1 DIV PUSH1 0xFF AND DUP3 PUSH1 0x2 ADD DUP3 DUP1 SLOAD PUSH2 0x116F SWAP1 PUSH2 0x2B5D JUMP JUMPDEST DUP1 PUSH1 0x1F ADD PUSH1 0x20 DUP1 SWAP2 DIV MUL PUSH1 0x20 ADD PUSH1 0x40 MLOAD SWAP1 DUP2 ADD PUSH1 0x40 MSTORE DUP1 SWAP3 SWAP2 SWAP1 DUP2 DUP2 MSTORE PUSH1 0x20 ADD DUP3 DUP1 SLOAD PUSH2 0x119B SWAP1 PUSH2 0x2B5D JUMP JUMPDEST DUP1 ISZERO PUSH2 0x11E8 JUMPI DUP1 PUSH1 0x1F LT PUSH2 0x11BD JUMPI PUSH2 0x100 DUP1 DUP4 SLOAD DIV MUL DUP4 MSTORE SWAP2 PUSH1 0x20 ADD SWAP2 PUSH2 0x11E8 JUMP JUMPDEST DUP3 ADD SWAP2 SWAP1 PUSH1 0x0 MSTORE PUSH1 0x20 PUSH1 0x0 KECCAK256 SWAP1 JUMPDEST DUP2 SLOAD DUP2 MSTORE SWAP1 PUSH1 0x1 ADD SWAP1 PUSH1 0x20 ADD DUP1 DUP4 GT PUSH2 0x11CB JUMPI DUP3 SWAP1 SUB PUSH1 0x1F AND DUP3 ADD SWAP2 JUMPDEST POP POP POP POP POP SWAP3 POP DUP1 DUP1 SLOAD DUP1 PUSH1 0x20 MUL PUSH1 0x20 ADD PUSH1 0x40 MLOAD SWAP1 DUP2 ADD PUSH1 0x40 MSTORE DUP1 SWAP3 SWAP2 SWAP1 DUP2 DUP2 MSTORE PUSH1 0x20 ADD DUP3 DUP1 SLOAD DUP1 ISZERO PUSH2 0x123A JUMPI PUSH1 0x20 MUL DUP3 ADD SWAP2 SWAP1 PUSH1 0x0 MSTORE PUSH1 0x20 PUSH1 0x0 KECCAK256 SWAP1 JUMPDEST DUP2 SLOAD DUP2 MSTORE PUSH1 0x20 ADD SWAP1 PUSH1 0x1 ADD SWAP1 DUP1 DUP4 GT PUSH2 0x1226 JUMPI JUMPDEST POP POP POP POP POP SWAP1 POP SWAP5 POP SWAP5 POP SWAP5 POP POP POP SWAP3 POP SWAP3 POP SWAP3 JUMP JUMPDEST PUSH1 0x0 PUSH1 0x6 PUSH1 0x0 DUP4 PUSH20 0xFFFFFFFFFFFFFFFFFFFFFFFFFFFFFFFFFFFFFFFF AND PUSH20 0xFFFFFFFFFFFFFFFFFFFFFFFFFFFFFFFFFFFFFFFF AND DUP2 MSTORE PUSH1 0x20 ADD SWAP1 DUP2 MSTORE PUSH1 0x20 ADD PUSH1 0x0 KECCAK256 PUSH1 0x1 ADD PUSH1 0x0 SWAP1 SLOAD SWAP1 PUSH2 0x100 EXP SWAP1 DIV PUSH1 0xFF AND SWAP1 POP SWAP2 SWAP1 POP JUMP JUMPDEST PUSH1 0x0 DUP2 MLOAD GT PUSH2 0x12ED JUMPI PUSH1 0x40 MLOAD PUSH32 0x8C379A000000000000000000000000000000000000000000000000000000000 DUP2 MSTORE PUSH1 0x4 ADD PUSH2 0x12E4 SWAP1 PUSH2 0x2BDA JUMP JUMPDEST PUSH1 0x40 MLOAD DUP1 SWAP2 SUB SWAP1 REVERT JUMPDEST PUSH1 0x0 PUSH1 0x6 PUSH1 0x0 CALLER PUSH20 0xFFFFFFFFFFFFFFFFFFFFFFFFFFFFFFFFFFFFFFFF AND PUSH20 0xFFFFFFFFFFFFFFFFFFFFFFFFFFFFFFFFFFFFFFFF AND DUP2 MSTORE PUSH1 0x20 ADD SWAP1 DUP2 MSTORE PUSH1 0x20 ADD PUSH1 0x0 KECCAK256 SWAP1 POP DUP2 DUP2 PUSH1 0x0 ADD SWAP1 DUP2 PUSH2 0x1341 SWAP2 SWAP1 PUSH2 0x2DA6 JUMP JUMPDEST POP PUSH1 0x1 DUP2 PUSH1 0x1 ADD PUSH1 0x0 PUSH2 0x100 EXP DUP2 SLOAD DUP2 PUSH1 0xFF MUL NOT AND SWAP1 DUP4 ISZERO ISZERO MUL OR SWAP1 SSTORE POP PUSH1 0x1 DUP1 SLOAD SWAP1 POP PUSH1 0x8 PUSH1 0x0 CALLER PUSH20 0xFFFFFFFFFFFFFFFFFFFFFFFFFFFFFFFFFFFFFFFF AND PUSH20 0xFFFFFFFFFFFFFFFFFFFFFFFFFFFFFFFFFFFFFFFF AND DUP2 MSTORE PUSH1 0x20 ADD SWAP1 DUP2 MSTORE PUSH1 0x20 ADD PUSH1 0x0 KECCAK256 DUP2 SWAP1 SSTORE POP PUSH1 0x1 CALLER SWAP1 DUP1 PUSH1 0x1 DUP2 SLOAD ADD DUP1 DUP3 SSTORE DUP1 SWAP2 POP POP PUSH1 0x1 SWAP1 SUB SWAP1 PUSH1 0x0 MSTORE PUSH1 0x20 PUSH1 0x0 KECCAK256 ADD PUSH1 0x0 SWAP1 SWAP2 SWAP1 SWAP2 SWAP1 SWAP2 PUSH2 0x100 EXP DUP2 SLOAD DUP2 PUSH20 0xFFFFFFFFFFFFFFFFFFFFFFFFFFFFFFFFFFFFFFFF MUL NOT AND SWAP1 DUP4 PUSH20 0xFFFFFFFFFFFFFFFFFFFFFFFFFFFFFFFFFFFFFFFF AND MUL OR SWAP1 SSTORE POP PUSH32 0x82D0829D9D481E4CB9913897F9B9C903271C4DB68C7B3324071D2A7E3B2C5FF0 CALLER PUSH1 0x40 MLOAD PUSH2 0x143A SWAP2 SWAP1 PUSH2 0x20EF JUMP JUMPDEST PUSH1 0x40 MLOAD DUP1 SWAP2 SUB SWAP1 LOG1 POP POP JUMP JUMPDEST PUSH1 0x0 DUP1 PUSH1 0x7 PUSH1 0x0 DUP6 DUP2 MSTORE PUSH1 0x20 ADD SWAP1 DUP2 MSTORE PUSH1 0x20 ADD PUSH1 0x0 KECCAK256 SWAP1 POP CALLER PUSH20 0xFFFFFFFFFFFFFFFFFFFFFFFFFFFFFFFFFFFFFFFF AND DUP2 PUSH1 0x1 ADD PUSH1 0x0 SWAP1 SLOAD SWAP1 PUSH2 0x100 EXP SWAP1 DIV PUSH20 0xFFFFFFFFFFFFFFFFFFFFFFFFFFFFFFFFFFFFFFFF AND PUSH20 0xFFFFFFFFFFFFFFFFFFFFFFFFFFFFFFFFFFFFFFFF AND EQ PUSH2 0x14F0 JUMPI PUSH1 0x40 MLOAD PUSH32 0x8C379A000000000000000000000000000000000000000000000000000000000 DUP2 MSTORE PUSH1 0x4 ADD PUSH2 0x14E7 SWAP1 PUSH2 0x2EEA JUMP JUMPDEST PUSH1 0x40 MLOAD DUP1 SWAP2 SUB SWAP1 REVERT JUMPDEST PUSH1 0x1 PUSH1 0x2 DUP2 GT ISZERO PUSH2 0x1504 JUMPI PUSH2 0x1503 PUSH2 0x1F1F JUMP JUMPDEST JUMPDEST DUP2 PUSH1 0x9 ADD PUSH1 0x0 SWAP1 SLOAD SWAP1 PUSH2 0x100 EXP SWAP1 DIV PUSH1 0xFF AND PUSH1 0x2 DUP2 GT ISZERO PUSH2 0x1528 JUMPI PUSH2 0x1527 PUSH2 0x1F1F JUMP JUMPDEST JUMPDEST EQ PUSH2 0x1568 JUMPI PUSH1 0x40 MLOAD PUSH32 0x8C379A000000000000000000000000000000000000000000000000000000000 DUP2 MSTORE PUSH1 0x4 ADD PUSH2 0x155F SWAP1 PUSH2 0x2F7C JUMP JUMPDEST PUSH1 0x40 MLOAD DUP1 SWAP2 SUB SWAP1 REVERT JUMPDEST PUSH1 0x2 DUP2 PUSH1 0x9 ADD PUSH1 0x0 PUSH2 0x100 EXP DUP2 SLOAD DUP2 PUSH1 0xFF MUL NOT AND SWAP1 DUP4 PUSH1 0x2 DUP2 GT ISZERO PUSH2 0x1590 JUMPI PUSH2 0x158F PUSH2 0x1F1F JUMP JUMPDEST JUMPDEST MUL OR SWAP1 SSTORE POP TIMESTAMP DUP2 PUSH1 0xA ADD DUP2 SWAP1 SSTORE POP PUSH1 0x0 PUSH1 0x6 PUSH1 0x0 DUP4 PUSH1 0x2 ADD PUSH1 0x0 SWAP1 SLOAD SWAP1 PUSH2 0x100 EXP SWAP1 DIV PUSH20 0xFFFFFFFFFFFFFFFFFFFFFFFFFFFFFFFFFFFFFFFF AND PUSH20 0xFFFFFFFFFFFFFFFFFFFFFFFFFFFFFFFFFFFFFFFF AND PUSH20 0xFFFFFFFFFFFFFFFFFFFFFFFFFFFFFFFFFFFFFFFF AND DUP2 MSTORE PUSH1 0x20 ADD SWAP1 DUP2 MSTORE PUSH1 0x20 ADD PUSH1 0x0 KECCAK256 SWAP1 POP DUP4 ISZERO PUSH2 0x16A5 JUMPI PUSH1 0x2 DUP3 PUSH1 0x9 ADD PUSH1 0x1 PUSH2 0x100 EXP DUP2 SLOAD DUP2 PUSH1 0xFF MUL NOT AND SWAP1 DUP4 PUSH1 0x2 DUP2 GT ISZERO PUSH2 0x1633 JUMPI PUSH2 0x1632 PUSH2 0x1F1F JUMP JUMPDEST JUMPDEST MUL OR SWAP1 SSTORE POP TIMESTAMP PUSH1 0x5 PUSH1 0x0 DUP5 PUSH1 0x2 ADD PUSH1 0x0 SWAP1 SLOAD SWAP1 PUSH2 0x100 EXP SWAP1 DIV PUSH20 0xFFFFFFFFFFFFFFFFFFFFFFFFFFFFFFFFFFFFFFFF AND PUSH20 0xFFFFFFFFFFFFFFFFFFFFFFFFFFFFFFFFFFFFFFFF AND PUSH20 0xFFFFFFFFFFFFFFFFFFFFFFFFFFFFFFFFFFFFFFFF AND DUP2 MSTORE PUSH1 0x20 ADD SWAP1 DUP2 MSTORE PUSH1 0x20 ADD PUSH1 0x0 KECCAK256 DUP2 SWAP1 SSTORE POP PUSH2 0x16D3 JUMP JUMPDEST PUSH1 0x1 DUP3 PUSH1 0x9 ADD PUSH1 0x1 PUSH2 0x100 EXP DUP2 SLOAD DUP2 PUSH1 0xFF MUL NOT AND SWAP1 DUP4 PUSH1 0x2 DUP2 GT ISZERO PUSH2 0x16CD JUMPI PUSH2 0x16CC PUSH2 0x1F1F JUMP JUMPDEST JUMPDEST MUL OR SWAP1 SSTORE POP JUMPDEST DUP1 PUSH1 0x2 ADD DUP6 SWAP1 DUP1 PUSH1 0x1 DUP2 SLOAD ADD DUP1 DUP3 SSTORE DUP1 SWAP2 POP POP PUSH1 0x1 SWAP1 SUB SWAP1 PUSH1 0x0 MSTORE PUSH1 0x20 PUSH1 0x0 KECCAK256 ADD PUSH1 0x0 SWAP1 SWAP2 SWAP1 SWAP2 SWAP1 SWAP2 POP SSTORE PUSH1 0x2 DUP6 SWAP1 DUP1 PUSH1 0x1 DUP2 SLOAD ADD DUP1 DUP3 SSTORE DUP1 SWAP2 POP POP PUSH1 0x1 SWAP1 SUB SWAP1 PUSH1 0x0 MSTORE PUSH1 0x20 PUSH1 0x0 KECCAK256 ADD PUSH1 0x0 SWAP1 SWAP2 SWAP1 SWAP2 SWAP1 SWAP2 POP SSTORE PUSH32 0x31A3CF273CD0E82F8DDB4BE15D4B954D7FCD18A4C5D4591CCE32EDD1A4BC417D DUP6 PUSH1 0x40 MLOAD PUSH2 0x1756 SWAP2 SWAP1 PUSH2 0x273B JUMP JUMPDEST PUSH1 0x40 MLOAD DUP1 SWAP2 SUB SWAP1 LOG1 PUSH1 0x1 SWAP3 POP POP POP SWAP3 SWAP2 POP POP JUMP JUMPDEST PUSH2 0x1772 PUSH2 0x1BE2 JUMP JUMPDEST PUSH2 0x177A PUSH2 0x1BE2 JUMP JUMPDEST PUSH1 0x0 PUSH1 0x7 PUSH1 0x0 DUP7 DUP2 MSTORE PUSH1 0x20 ADD SWAP1 DUP2 MSTORE PUSH1 0x20 ADD PUSH1 0x0 KECCAK256 SWAP1 POP DUP4 PUSH20 0xFFFFFFFFFFFFFFFFFFFFFFFFFFFFFFFFFFFFFFFF AND DUP2 PUSH1 0x1 ADD PUSH1 0x0 SWAP1 SLOAD SWAP1 PUSH2 0x100 EXP SWAP1 DIV PUSH20 0xFFFFFFFFFFFFFFFFFFFFFFFFFFFFFFFFFFFFFFFF AND PUSH20 0xFFFFFFFFFFFFFFFFFFFFFFFFFFFFFFFFFFFFFFFF AND EQ PUSH2 0x1823 JUMPI PUSH1 0x40 MLOAD PUSH32 0x8C379A000000000000000000000000000000000000000000000000000000000 DUP2 MSTORE PUSH1 0x4 ADD PUSH2 0x181A SWAP1 PUSH2 0x300E JUMP JUMPDEST PUSH1 0x40 MLOAD DUP1 SWAP2 SUB SWAP1 REVERT JUMPDEST PUSH1 0x1 PUSH1 0x2 DUP2 GT ISZERO PUSH2 0x1837 JUMPI PUSH2 0x1836 PUSH2 0x1F1F JUMP JUMPDEST JUMPDEST DUP2 PUSH1 0x9 ADD PUSH1 0x0 SWAP1 SLOAD SWAP1 PUSH2 0x100 EXP SWAP1 DIV PUSH1 0xFF AND PUSH1 0x2 DUP2 GT ISZERO PUSH2 0x185B JUMPI PUSH2 0x185A PUSH2 0x1F1F JUMP JUMPDEST JUMPDEST EQ PUSH2 0x189B JUMPI PUSH1 0x40 MLOAD PUSH32 0x8C379A000000000000000000000000000000000000000000000000000000000 DUP2 MSTORE PUSH1 0x4 ADD PUSH2 0x1892 SWAP1 PUSH2 0x30A0 JUMP JUMPDEST PUSH1 0x40 MLOAD DUP1 SWAP2 SUB SWAP1 REVERT JUMPDEST DUP1 PUSH1 0x3 ADD DUP2 PUSH1 0x6 ADD DUP2 PUSH1 0x3 DUP1 PUSH1 0x20 MUL PUSH1 0x40 MLOAD SWAP1 DUP2 ADD PUSH1 0x40 MSTORE DUP1 SWAP3 SWAP2 SWAP1 DUP3 PUSH1 0x3 DUP1 ISZERO PUSH2 0x18DB JUMPI PUSH1 0x20 MUL DUP3 ADD SWAP2 JUMPDEST DUP2 SLOAD DUP2 MSTORE PUSH1 0x20 ADD SWAP1 PUSH1 0x1 ADD SWAP1 DUP1 DUP4 GT PUSH2 0x18C7 JUMPI JUMPDEST POP POP POP POP POP SWAP2 POP DUP1 PUSH1 0x3 DUP1 PUSH1 0x20 MUL PUSH1 0x40 MLOAD SWAP1 DUP2 ADD PUSH1 0x40 MSTORE DUP1 SWAP3 SWAP2 SWAP1 DUP3 PUSH1 0x3 DUP1 ISZERO PUSH2 0x191A JUMPI PUSH1 0x20 MUL DUP3 ADD SWAP2 JUMPDEST DUP2 SLOAD DUP2 MSTORE PUSH1 0x20 ADD SWAP1 PUSH1 0x1 ADD SWAP1 DUP1 DUP4 GT PUSH2 0x1906 JUMPI JUMPDEST POP POP POP POP POP SWAP1 POP SWAP3 POP SWAP3 POP POP SWAP3 POP SWAP3 SWAP1 POP JUMP JUMPDEST PUSH1 0x0 DUP1 PUSH1 0x1 DUP1 SLOAD SWAP1 POP PUSH8 0xFFFFFFFFFFFFFFFF DUP2 GT ISZERO PUSH2 0x194F JUMPI PUSH2 0x194E PUSH2 0x1C9E JUMP JUMPDEST JUMPDEST PUSH1 0x40 MLOAD SWAP1 DUP1 DUP3 MSTORE DUP1 PUSH1 0x20 MUL PUSH1 0x20 ADD DUP3 ADD PUSH1 0x40 MSTORE DUP1 ISZERO PUSH2 0x197D JUMPI DUP2 PUSH1 0x20 ADD PUSH1 0x20 DUP3 MUL DUP1 CALLDATASIZE DUP4 CALLDATACOPY DUP1 DUP3 ADD SWAP2 POP POP SWAP1 POP JUMPDEST POP SWAP1 POP PUSH1 0x0 DUP1 JUMPDEST PUSH1 0x1 DUP1 SLOAD SWAP1 POP DUP2 LT ISZERO PUSH2 0x1ABE JUMPI PUSH1 0x0 PUSH1 0x1 DUP3 DUP2 SLOAD DUP2 LT PUSH2 0x19A7 JUMPI PUSH2 0x19A6 PUSH2 0x25AA JUMP JUMPDEST JUMPDEST SWAP1 PUSH1 0x0 MSTORE PUSH1 0x20 PUSH1 0x0 KECCAK256 ADD PUSH1 0x0 SWAP1 SLOAD SWAP1 PUSH2 0x100 EXP SWAP1 DIV PUSH20 0xFFFFFFFFFFFFFFFFFFFFFFFFFFFFFFFFFFFFFFFF AND SWAP1 POP DUP6 PUSH20 0xFFFFFFFFFFFFFFFFFFFFFFFFFFFFFFFFFFFFFFFF AND DUP2 PUSH20 0xFFFFFFFFFFFFFFFFFFFFFFFFFFFFFFFFFFFFFFFF AND EQ ISZERO DUP1 ISZERO PUSH2 0x1A50 JUMPI POP PUSH1 0x0 PUSH1 0x5 PUSH1 0x0 DUP4 PUSH20 0xFFFFFFFFFFFFFFFFFFFFFFFFFFFFFFFFFFFFFFFF AND PUSH20 0xFFFFFFFFFFFFFFFFFFFFFFFFFFFFFFFFFFFFFFFF AND DUP2 MSTORE PUSH1 0x20 ADD SWAP1 DUP2 MSTORE PUSH1 0x20 ADD PUSH1 0x0 KECCAK256 SLOAD EQ ISZERO JUMPDEST ISZERO PUSH2 0x1AB0 JUMPI DUP1 DUP5 DUP5 DUP1 PUSH2 0x1A62 SWAP1 PUSH2 0x30C0 JUMP JUMPDEST SWAP6 POP DUP2 MLOAD DUP2 LT PUSH2 0x1A75 JUMPI PUSH2 0x1A74 PUSH2 0x25AA JUMP JUMPDEST JUMPDEST PUSH1 0x20 MUL PUSH1 0x20 ADD ADD SWAP1 PUSH20 0xFFFFFFFFFFFFFFFFFFFFFFFFFFFFFFFFFFFFFFFF AND SWAP1 DUP2 PUSH20 0xFFFFFFFFFFFFFFFFFFFFFFFFFFFFFFFFFFFFFFFF AND DUP2 MSTORE POP POP JUMPDEST POP DUP1 DUP1 PUSH1 0x1 ADD SWAP2 POP POP PUSH2 0x1984 JUMP JUMPDEST POP PUSH1 0x0 DUP2 SUB PUSH2 0x1AF1 JUMPI PUSH1 0x0 DUP1 SLOAD SWAP1 PUSH2 0x100 EXP SWAP1 DIV PUSH20 0xFFFFFFFFFFFFFFFFFFFFFFFFFFFFFFFFFFFFFFFF AND SWAP3 POP POP POP PUSH2 0x1B3C JUMP JUMPDEST PUSH1 0x0 DUP3 DUP3 PUSH1 0x4 SLOAD PUSH2 0x1B02 SWAP2 SWAP1 PUSH2 0x3137 JUMP JUMPDEST DUP2 MLOAD DUP2 LT PUSH2 0x1B13 JUMPI PUSH2 0x1B12 PUSH2 0x25AA JUMP JUMPDEST JUMPDEST PUSH1 0x20 MUL PUSH1 0x20 ADD ADD MLOAD SWAP1 POP PUSH1 0x4 PUSH1 0x0 DUP2 SLOAD DUP1 SWAP3 SWAP2 SWAP1 PUSH2 0x1B30 SWAP1 PUSH2 0x30C0 JUMP JUMPDEST SWAP2 SWAP1 POP SSTORE POP DUP1 SWAP4 POP POP POP POP JUMPDEST SWAP2 SWAP1 POP JUMP JUMPDEST POP DUP1 SLOAD PUSH1 0x0 DUP3 SSTORE SWAP1 PUSH1 0x0 MSTORE PUSH1 0x20 PUSH1 0x0 KECCAK256 SWAP1 DUP2 ADD SWAP1 PUSH2 0x1B5F SWAP2 SWAP1 PUSH2 0x1C04 JUMP JUMPDEST POP JUMP JUMPDEST POP DUP1 SLOAD PUSH2 0x1B6E SWAP1 PUSH2 0x2B5D JUMP JUMPDEST PUSH1 0x0 DUP3 SSTORE DUP1 PUSH1 0x1F LT PUSH2 0x1B80 JUMPI POP PUSH2 0x1B9F JUMP JUMPDEST PUSH1 0x1F ADD PUSH1 0x20 SWAP1 DIV SWAP1 PUSH1 0x0 MSTORE PUSH1 0x20 PUSH1 0x0 KECCAK256 SWAP1 DUP2 ADD SWAP1 PUSH2 0x1B9E SWAP2 SWAP1 PUSH2 0x1C21 JUMP JUMPDEST JUMPDEST POP JUMP JUMPDEST DUP3 PUSH1 0x3 DUP2 ADD SWAP3 DUP3 ISZERO PUSH2 0x1BD1 JUMPI SWAP2 PUSH1 0x20 MUL DUP3 ADD JUMPDEST DUP3 DUP2 GT ISZERO PUSH2 0x1BD0 JUMPI DUP3 MLOAD DUP3 SSTORE SWAP2 PUSH1 0x20 ADD SWAP2 SWAP1 PUSH1 0x1 ADD SWAP1 PUSH2 0x1BB5 JUMP JUMPDEST JUMPDEST POP SWAP1 POP PUSH2 0x1BDE SWAP2 SWAP1 PUSH2 0x1C04 JUMP JUMPDEST POP SWAP1 JUMP JUMPDEST PUSH1 0x40 MLOAD DUP1 PUSH1 0x60 ADD PUSH1 0x40 MSTORE DUP1 PUSH1 0x3 SWAP1 PUSH1 0x20 DUP3 MUL DUP1 CALLDATASIZE DUP4 CALLDATACOPY DUP1 DUP3 ADD SWAP2 POP POP SWAP1 POP POP SWAP1 JUMP JUMPDEST JUMPDEST DUP1 DUP3 GT ISZERO PUSH2 0x1C1D JUMPI PUSH1 0x0 DUP2 PUSH1 0x0 SWAP1 SSTORE POP PUSH1 0x1 ADD PUSH2 0x1C05 JUMP JUMPDEST POP SWAP1 JUMP JUMPDEST JUMPDEST DUP1 DUP3 GT ISZERO PUSH2 0x1C3A JUMPI PUSH1 0x0 DUP2 PUSH1 0x0 SWAP1 SSTORE POP PUSH1 0x1 ADD PUSH2 0x1C22 JUMP JUMPDEST POP SWAP1 JUMP JUMPDEST PUSH1 0x0 PUSH1 0x40 MLOAD SWAP1 POP SWAP1 JUMP JUMPDEST PUSH1 0x0 DUP1 REVERT JUMPDEST PUSH1 0x0 DUP1 REVERT JUMPDEST PUSH1 0x0 DUP2 SWAP1 POP SWAP2 SWAP1 POP JUMP JUMPDEST PUSH2 0x1C65 DUP2 PUSH2 0x1C52 JUMP JUMPDEST DUP2 EQ PUSH2 0x1C70 JUMPI PUSH1 0x0 DUP1 REVERT JUMPDEST POP JUMP JUMPDEST PUSH1 0x0 DUP2 CALLDATALOAD SWAP1 POP PUSH2 0x1C82 DUP2 PUSH2 0x1C5C JUMP JUMPDEST SWAP3 SWAP2 POP POP JUMP JUMPDEST PUSH1 0x0 DUP1 REVERT JUMPDEST PUSH1 0x0 PUSH1 0x1F NOT PUSH1 0x1F DUP4 ADD AND SWAP1 POP SWAP2 SWAP1 POP JUMP JUMPDEST PUSH32 0x4E487B7100000000000000000000000000000000000000000000000000000000 PUSH1 0x0 MSTORE PUSH1 0x41 PUSH1 0x4 MSTORE PUSH1 0x24 PUSH1 0x0 REVERT JUMPDEST PUSH2 0x1CD6 DUP3 PUSH2 0x1C8D JUMP JUMPDEST DUP2 ADD DUP2 DUP2 LT PUSH8 0xFFFFFFFFFFFFFFFF DUP3 GT OR ISZERO PUSH2 0x1CF5 JUMPI PUSH2 0x1CF4 PUSH2 0x1C9E JUMP JUMPDEST JUMPDEST DUP1 PUSH1 0x40 MSTORE POP POP POP JUMP JUMPDEST PUSH1 0x0 PUSH2 0x1D08 PUSH2 0x1C3E JUMP JUMPDEST SWAP1 POP PUSH2 0x1D14 DUP3 DUP3 PUSH2 0x1CCD JUMP JUMPDEST SWAP2 SWAP1 POP JUMP JUMPDEST PUSH1 0x0 PUSH8 0xFFFFFFFFFFFFFFFF DUP3 GT ISZERO PUSH2 0x1D34 JUMPI PUSH2 0x1D33 PUSH2 0x1C9E JUMP JUMPDEST JUMPDEST PUSH1 0x20 DUP3 MUL SWAP1 POP SWAP2 SWAP1 POP JUMP JUMPDEST PUSH1 0x0 DUP1 REVERT JUMPDEST PUSH1 0x0 PUSH2 0x1D57 PUSH2 0x1D52 DUP5 PUSH2 0x1D19 JUMP JUMPDEST PUSH2 0x1CFE JUMP JUMPDEST SWAP1 POP DUP1 PUSH1 0x20 DUP5 MUL DUP4 ADD DUP6 DUP2 GT ISZERO PUSH2 0x1D71 JUMPI PUSH2 0x1D70 PUSH2 0x1D3F JUMP JUMPDEST JUMPDEST DUP4 JUMPDEST DUP2 DUP2 LT ISZERO PUSH2 0x1D9A JUMPI DUP1 PUSH2 0x1D86 DUP9 DUP3 PUSH2 0x1C73 JUMP JUMPDEST DUP5 MSTORE PUSH1 0x20 DUP5 ADD SWAP4 POP POP PUSH1 0x20 DUP2 ADD SWAP1 POP PUSH2 0x1D73 JUMP JUMPDEST POP POP POP SWAP4 SWAP3 POP POP POP JUMP JUMPDEST PUSH1 0x0 DUP3 PUSH1 0x1F DUP4 ADD SLT PUSH2 0x1DB9 JUMPI PUSH2 0x1DB8 PUSH2 0x1C88 JUMP JUMPDEST JUMPDEST PUSH1 0x3 PUSH2 0x1DC6 DUP5 DUP3 DUP6 PUSH2 0x1D44 JUMP JUMPDEST SWAP2 POP POP SWAP3 SWAP2 POP POP JUMP JUMPDEST PUSH1 0x0 DUP1 PUSH1 0x80 DUP4 DUP6 SUB SLT ISZERO PUSH2 0x1DE6 JUMPI PUSH2 0x1DE5 PUSH2 0x1C48 JUMP JUMPDEST JUMPDEST PUSH1 0x0 PUSH2 0x1DF4 DUP6 DUP3 DUP7 ADD PUSH2 0x1C73 JUMP JUMPDEST SWAP3 POP POP PUSH1 0x20 PUSH2 0x1E05 DUP6 DUP3 DUP7 ADD PUSH2 0x1DA4 JUMP JUMPDEST SWAP2 POP POP SWAP3 POP SWAP3 SWAP1 POP JUMP JUMPDEST PUSH1 0x0 DUP2 ISZERO ISZERO SWAP1 POP SWAP2 SWAP1 POP JUMP JUMPDEST PUSH2 0x1E24 DUP2 PUSH2 0x1E0F JUMP JUMPDEST DUP3 MSTORE POP POP JUMP JUMPDEST PUSH1 0x0 PUSH1 0x20 DUP3 ADD SWAP1 POP PUSH2 0x1E3F PUSH1 0x0 DUP4 ADD DUP5 PUSH2 0x1E1B JUMP JUMPDEST SWAP3 SWAP2 POP POP JUMP JUMPDEST PUSH1 0x0 PUSH20 0xFFFFFFFFFFFFFFFFFFFFFFFFFFFFFFFFFFFFFFFF DUP3 AND SWAP1 POP SWAP2 SWAP1 POP JUMP JUMPDEST PUSH1 0x0 PUSH2 0x1E70 DUP3 PUSH2 0x1E45 JUMP JUMPDEST SWAP1 POP SWAP2 SWAP1 POP JUMP JUMPDEST PUSH2 0x1E80 DUP2 PUSH2 0x1E65 JUMP JUMPDEST DUP2 EQ PUSH2 0x1E8B JUMPI PUSH1 0x0 DUP1 REVERT JUMPDEST POP JUMP JUMPDEST PUSH1 0x0 DUP2 CALLDATALOAD SWAP1 POP PUSH2 0x1E9D DUP2 PUSH2 0x1E77 JUMP JUMPDEST SWAP3 SWAP2 POP POP JUMP JUMPDEST PUSH1 0x0 DUP1 PUSH1 0x40 DUP4 DUP6 SUB SLT ISZERO PUSH2 0x1EBA JUMPI PUSH2 0x1EB9 PUSH2 0x1C48 JUMP JUMPDEST JUMPDEST PUSH1 0x0 PUSH2 0x1EC8 DUP6 DUP3 DUP7 ADD PUSH2 0x1C73 JUMP JUMPDEST SWAP3 POP POP PUSH1 0x20 PUSH2 0x1ED9 DUP6 DUP3 DUP7 ADD PUSH2 0x1E8E JUMP JUMPDEST SWAP2 POP POP SWAP3 POP SWAP3 SWAP1 POP JUMP JUMPDEST PUSH1 0x0 PUSH1 0x20 DUP3 DUP5 SUB SLT ISZERO PUSH2 0x1EF9 JUMPI PUSH2 0x1EF8 PUSH2 0x1C48 JUMP JUMPDEST JUMPDEST PUSH1 0x0 PUSH2 0x1F07 DUP5 DUP3 DUP6 ADD PUSH2 0x1C73 JUMP JUMPDEST SWAP2 POP POP SWAP3 SWAP2 POP POP JUMP JUMPDEST PUSH2 0x1F19 DUP2 PUSH2 0x1E65 JUMP JUMPDEST DUP3 MSTORE POP POP JUMP JUMPDEST PUSH32 0x4E487B7100000000000000000000000000000000000000000000000000000000 PUSH1 0x0 MSTORE PUSH1 0x21 PUSH1 0x4 MSTORE PUSH1 0x24 PUSH1 0x0 REVERT JUMPDEST PUSH1 0x3 DUP2 LT PUSH2 0x1F5F JUMPI PUSH2 0x1F5E PUSH2 0x1F1F JUMP JUMPDEST JUMPDEST POP JUMP JUMPDEST PUSH1 0x0 DUP2 SWAP1 POP PUSH2 0x1F70 DUP3 PUSH2 0x1F4E JUMP JUMPDEST SWAP2 SWAP1 POP JUMP JUMPDEST PUSH1 0x0 PUSH2 0x1F80 DUP3 PUSH2 0x1F62 JUMP JUMPDEST SWAP1 POP SWAP2 SWAP1 POP JUMP JUMPDEST PUSH2 0x1F90 DUP2 PUSH2 0x1F75 JUMP JUMPDEST DUP3 MSTORE POP POP JUMP JUMPDEST PUSH1 0x0 DUP2 SWAP1 POP SWAP2 SWAP1 POP JUMP JUMPDEST PUSH2 0x1FA9 DUP2 PUSH2 0x1F96 JUMP JUMPDEST DUP3 MSTORE POP POP JUMP JUMPDEST PUSH1 0x0 PUSH1 0x80 DUP3 ADD SWAP1 POP PUSH2 0x1FC4 PUSH1 0x0 DUP4 ADD DUP8 PUSH2 0x1F10 JUMP JUMPDEST PUSH2 0x1FD1 PUSH1 0x20 DUP4 ADD DUP7 PUSH2 0x1F10 JUMP JUMPDEST PUSH2 0x1FDE PUSH1 0x40 DUP4 ADD DUP6 PUSH2 0x1F87 JUMP JUMPDEST PUSH2 0x1FEB PUSH1 0x60 DUP4 ADD DUP5 PUSH2 0x1FA0 JUMP JUMPDEST SWAP6 SWAP5 POP POP POP POP POP JUMP JUMPDEST PUSH1 0x0 PUSH1 0x20 DUP3 ADD SWAP1 POP PUSH2 0x2009 PUSH1 0x0 DUP4 ADD DUP5 PUSH2 0x1FA0 JUMP JUMPDEST SWAP3 SWAP2 POP POP JUMP JUMPDEST PUSH1 0x0 DUP2 MLOAD SWAP1 POP SWAP2 SWAP1 POP JUMP JUMPDEST PUSH1 0x0 DUP3 DUP3 MSTORE PUSH1 0x20 DUP3 ADD SWAP1 POP SWAP3 SWAP2 POP POP JUMP JUMPDEST PUSH1 0x0 DUP2 SWAP1 POP PUSH1 0x20 DUP3 ADD SWAP1 POP SWAP2 SWAP1 POP JUMP JUMPDEST PUSH2 0x2044 DUP2 PUSH2 0x1C52 JUMP JUMPDEST DUP3 MSTORE POP POP JUMP JUMPDEST PUSH1 0x0 PUSH2 0x2056 DUP4 DUP4 PUSH2 0x203B JUMP JUMPDEST PUSH1 0x20 DUP4 ADD SWAP1 POP SWAP3 SWAP2 POP POP JUMP JUMPDEST PUSH1 0x0 PUSH1 0x20 DUP3 ADD SWAP1 POP SWAP2 SWAP1 POP JUMP JUMPDEST PUSH1 0x0 PUSH2 0x207A DUP3 PUSH2 0x200F JUMP JUMPDEST PUSH2 0x2084 DUP2 DUP6 PUSH2 0x201A JUMP JUMPDEST SWAP4 POP PUSH2 0x208F DUP4 PUSH2 0x202B JUMP JUMPDEST DUP1 PUSH1 0x0 JUMPDEST DUP4 DUP2 LT ISZERO PUSH2 0x20C0 JUMPI DUP2 MLOAD PUSH2 0x20A7 DUP9 DUP3 PUSH2 0x204A JUMP JUMPDEST SWAP8 POP PUSH2 0x20B2 DUP4 PUSH2 0x2062 JUMP JUMPDEST SWAP3 POP POP PUSH1 0x1 DUP2 ADD SWAP1 POP PUSH2 0x2093 JUMP JUMPDEST POP DUP6 SWAP4 POP POP POP POP SWAP3 SWAP2 POP POP JUMP JUMPDEST PUSH1 0x0 PUSH1 0x20 DUP3 ADD SWAP1 POP DUP2 DUP2 SUB PUSH1 0x0 DUP4 ADD MSTORE PUSH2 0x20E7 DUP2 DUP5 PUSH2 0x206F JUMP JUMPDEST SWAP1 POP SWAP3 SWAP2 POP POP JUMP JUMPDEST PUSH1 0x0 PUSH1 0x20 DUP3 ADD SWAP1 POP PUSH2 0x2104 PUSH1 0x0 DUP4 ADD DUP5 PUSH2 0x1F10 JUMP JUMPDEST SWAP3 SWAP2 POP POP JUMP JUMPDEST PUSH1 0x3 DUP2 LT PUSH2 0x211B JUMPI PUSH2 0x211A PUSH2 0x1F1F JUMP JUMPDEST JUMPDEST POP JUMP JUMPDEST PUSH1 0x0 DUP2 SWAP1 POP PUSH2 0x212C DUP3 PUSH2 0x210A JUMP JUMPDEST SWAP2 SWAP1 POP JUMP JUMPDEST PUSH1 0x0 PUSH2 0x213C DUP3 PUSH2 0x211E JUMP JUMPDEST SWAP1 POP SWAP2 SWAP1 POP JUMP JUMPDEST PUSH2 0x214C DUP2 PUSH2 0x2131 JUMP JUMPDEST DUP3 MSTORE POP POP JUMP JUMPDEST PUSH1 0x0 PUSH1 0x20 DUP3 ADD SWAP1 POP PUSH2 0x2167 PUSH1 0x0 DUP4 ADD DUP5 PUSH2 0x2143 JUMP JUMPDEST SWAP3 SWAP2 POP POP JUMP JUMPDEST PUSH1 0x0 DUP1 PUSH1 0x40 DUP4 DUP6 SUB SLT ISZERO PUSH2 0x2184 JUMPI PUSH2 0x2183 PUSH2 0x1C48 JUMP JUMPDEST JUMPDEST PUSH1 0x0 PUSH2 0x2192 DUP6 DUP3 DUP7 ADD PUSH2 0x1E8E JUMP JUMPDEST SWAP3 POP POP PUSH1 0x20 PUSH2 0x21A3 DUP6 DUP3 DUP7 ADD PUSH2 0x1E8E JUMP JUMPDEST SWAP2 POP POP SWAP3 POP SWAP3 SWAP1 POP JUMP JUMPDEST PUSH1 0x0 DUP2 MLOAD SWAP1 POP SWAP2 SWAP1 POP JUMP JUMPDEST PUSH1 0x0 DUP3 DUP3 MSTORE PUSH1 0x20 DUP3 ADD SWAP1 POP SWAP3 SWAP2 POP POP JUMP JUMPDEST PUSH1 0x0 JUMPDEST DUP4 DUP2 LT ISZERO PUSH2 0x21E7 JUMPI DUP1 DUP3 ADD MLOAD DUP2 DUP5 ADD MSTORE PUSH1 0x20 DUP2 ADD SWAP1 POP PUSH2 0x21CC JUMP JUMPDEST PUSH1 0x0 DUP5 DUP5 ADD MSTORE POP POP POP POP JUMP JUMPDEST PUSH1 0x0 PUSH2 0x21FE DUP3 PUSH2 0x21AD JUMP JUMPDEST PUSH2 0x2208 DUP2 DUP6 PUSH2 0x21B8 JUMP JUMPDEST SWAP4 POP PUSH2 0x2218 DUP2 DUP6 PUSH1 0x20 DUP7 ADD PUSH2 0x21C9 JUMP JUMPDEST PUSH2 0x2221 DUP2 PUSH2 0x1C8D JUMP JUMPDEST DUP5 ADD SWAP2 POP POP SWAP3 SWAP2 POP POP JUMP JUMPDEST PUSH1 0x0 PUSH1 0x60 DUP3 ADD SWAP1 POP DUP2 DUP2 SUB PUSH1 0x0 DUP4 ADD MSTORE PUSH2 0x2246 DUP2 DUP7 PUSH2 0x21F3 JUMP JUMPDEST SWAP1 POP PUSH2 0x2255 PUSH1 0x20 DUP4 ADD DUP6 PUSH2 0x1E1B JUMP JUMPDEST DUP2 DUP2 SUB PUSH1 0x40 DUP4 ADD MSTORE PUSH2 0x2267 DUP2 DUP5 PUSH2 0x206F JUMP JUMPDEST SWAP1 POP SWAP5 SWAP4 POP POP POP POP JUMP JUMPDEST PUSH1 0x0 PUSH1 0x20 DUP3 DUP5 SUB SLT ISZERO PUSH2 0x2287 JUMPI PUSH2 0x2286 PUSH2 0x1C48 JUMP JUMPDEST JUMPDEST PUSH1 0x0 PUSH2 0x2295 DUP5 DUP3 DUP6 ADD PUSH2 0x1E8E JUMP JUMPDEST SWAP2 POP POP SWAP3 SWAP2 POP POP JUMP JUMPDEST PUSH1 0x0 DUP1 REVERT JUMPDEST PUSH1 0x0 PUSH8 0xFFFFFFFFFFFFFFFF DUP3 GT ISZERO PUSH2 0x22BE JUMPI PUSH2 0x22BD PUSH2 0x1C9E JUMP JUMPDEST JUMPDEST PUSH2 0x22C7 DUP3 PUSH2 0x1C8D JUMP JUMPDEST SWAP1 POP PUSH1 0x20 DUP2 ADD SWAP1 POP SWAP2 SWAP1 POP JUMP JUMPDEST DUP3 DUP2 DUP4 CALLDATACOPY PUSH1 0x0 DUP4 DUP4 ADD MSTORE POP POP POP JUMP JUMPDEST PUSH1 0x0 PUSH2 0x22F6 PUSH2 0x22F1 DUP5 PUSH2 0x22A3 JUMP JUMPDEST PUSH2 0x1CFE JUMP JUMPDEST SWAP1 POP DUP3 DUP2 MSTORE PUSH1 0x20 DUP2 ADD DUP5 DUP5 DUP5 ADD GT ISZERO PUSH2 0x2312 JUMPI PUSH2 0x2311 PUSH2 0x229E JUMP JUMPDEST JUMPDEST PUSH2 0x231D DUP5 DUP3 DUP6 PUSH2 0x22D4 JUMP JUMPDEST POP SWAP4 SWAP3 POP POP POP JUMP JUMPDEST PUSH1 0x0 DUP3 PUSH1 0x1F DUP4 ADD SLT PUSH2 0x233A JUMPI PUSH2 0x2339 PUSH2 0x1C88 JUMP JUMPDEST JUMPDEST DUP2 CALLDATALOAD PUSH2 0x234A DUP5 DUP3 PUSH1 0x20 DUP7 ADD PUSH2 0x22E3 JUMP JUMPDEST SWAP2 POP POP SWAP3 SWAP2 POP POP JUMP JUMPDEST PUSH1 0x0 PUSH1 0x20 DUP3 DUP5 SUB SLT ISZERO PUSH2 0x2369 JUMPI PUSH2 0x2368 PUSH2 0x1C48 JUMP JUMPDEST JUMPDEST PUSH1 0x0 DUP3 ADD CALLDATALOAD PUSH8 0xFFFFFFFFFFFFFFFF DUP2 GT ISZERO PUSH2 0x2387 JUMPI PUSH2 0x2386 PUSH2 0x1C4D JUMP JUMPDEST JUMPDEST PUSH2 0x2393 DUP5 DUP3 DUP6 ADD PUSH2 0x2325 JUMP JUMPDEST SWAP2 POP POP SWAP3 SWAP2 POP POP JUMP JUMPDEST PUSH2 0x23A5 DUP2 PUSH2 0x1E0F JUMP JUMPDEST DUP2 EQ PUSH2 0x23B0 JUMPI PUSH1 0x0 DUP1 REVERT JUMPDEST POP JUMP JUMPDEST PUSH1 0x0 DUP2 CALLDATALOAD SWAP1 POP PUSH2 0x23C2 DUP2 PUSH2 0x239C JUMP JUMPDEST SWAP3 SWAP2 POP POP JUMP JUMPDEST PUSH1 0x0 DUP1 PUSH1 0x40 DUP4 DUP6 SUB SLT ISZERO PUSH2 0x23DF JUMPI PUSH2 0x23DE PUSH2 0x1C48 JUMP JUMPDEST JUMPDEST PUSH1 0x0 PUSH2 0x23ED DUP6 DUP3 DUP7 ADD PUSH2 0x1C73 JUMP JUMPDEST SWAP3 POP POP PUSH1 0x20 PUSH2 0x23FE DUP6 DUP3 DUP7 ADD PUSH2 0x23B3 JUMP JUMPDEST SWAP2 POP POP SWAP3 POP SWAP3 SWAP1 POP JUMP JUMPDEST PUSH1 0x0 PUSH1 0x3 SWAP1 POP SWAP2 SWAP1 POP JUMP JUMPDEST PUSH1 0x0 DUP2 SWAP1 POP SWAP3 SWAP2 POP POP JUMP JUMPDEST PUSH1 0x0 DUP2 SWAP1 POP SWAP2 SWAP1 POP JUMP JUMPDEST PUSH1 0x0 PUSH1 0x20 DUP3 ADD SWAP1 POP SWAP2 SWAP1 POP JUMP JUMPDEST PUSH2 0x243E DUP2 PUSH2 0x2408 JUMP JUMPDEST PUSH2 0x2448 DUP2 DUP5 PUSH2 0x2413 JUMP JUMPDEST SWAP3 POP PUSH2 0x2453 DUP3 PUSH2 0x241E JUMP JUMPDEST DUP1 PUSH1 0x0 JUMPDEST DUP4 DUP2 LT ISZERO PUSH2 0x2484 JUMPI DUP2 MLOAD PUSH2 0x246B DUP8 DUP3 PUSH2 0x204A JUMP JUMPDEST SWAP7 POP PUSH2 0x2476 DUP4 PUSH2 0x2428 JUMP JUMPDEST SWAP3 POP POP PUSH1 0x1 DUP2 ADD SWAP1 POP PUSH2 0x2457 JUMP JUMPDEST POP POP POP POP POP POP JUMP JUMPDEST PUSH1 0x0 PUSH1 0xC0 DUP3 ADD SWAP1 POP PUSH2 0x24A1 PUSH1 0x0 DUP4 ADD DUP6 PUSH2 0x2435 JUMP JUMPDEST PUSH2 0x24AE PUSH1 0x60 DUP4 ADD DUP5 PUSH2 0x2435 JUMP JUMPDEST SWAP4 SWAP3 POP POP POP JUMP JUMPDEST PUSH32 0x52656D6F76654167656E74203A204167656E74206973206E6F74207265676973 PUSH1 0x0 DUP3 ADD MSTORE PUSH32 0x7465726564000000000000000000000000000000000000000000000000000000 PUSH1 0x20 DUP3 ADD MSTORE POP JUMP JUMPDEST PUSH1 0x0 PUSH2 0x2511 PUSH1 0x25 DUP4 PUSH2 0x21B8 JUMP JUMPDEST SWAP2 POP PUSH2 0x251C DUP3 PUSH2 0x24B5 JUMP JUMPDEST PUSH1 0x40 DUP3 ADD SWAP1 POP SWAP2 SWAP1 POP JUMP JUMPDEST PUSH1 0x0 PUSH1 0x20 DUP3 ADD SWAP1 POP DUP2 DUP2 SUB PUSH1 0x0 DUP4 ADD MSTORE PUSH2 0x2540 DUP2 PUSH2 0x2504 JUMP JUMPDEST SWAP1 POP SWAP2 SWAP1 POP JUMP JUMPDEST PUSH32 0x4E487B7100000000000000000000000000000000000000000000000000000000 PUSH1 0x0 MSTORE PUSH1 0x11 PUSH1 0x4 MSTORE PUSH1 0x24 PUSH1 0x0 REVERT JUMPDEST PUSH1 0x0 PUSH2 0x2581 DUP3 PUSH2 0x1F96 JUMP JUMPDEST SWAP2 POP PUSH2 0x258C DUP4 PUSH2 0x1F96 JUMP JUMPDEST SWAP3 POP DUP3 DUP3 SUB SWAP1 POP DUP2 DUP2 GT ISZERO PUSH2 0x25A4 JUMPI PUSH2 0x25A3 PUSH2 0x2547 JUMP JUMPDEST JUMPDEST SWAP3 SWAP2 POP POP JUMP JUMPDEST PUSH32 0x4E487B7100000000000000000000000000000000000000000000000000000000 PUSH1 0x0 MSTORE PUSH1 0x32 PUSH1 0x4 MSTORE PUSH1 0x24 PUSH1 0x0 REVERT JUMPDEST PUSH32 0x4E487B7100000000000000000000000000000000000000000000000000000000 PUSH1 0x0 MSTORE PUSH1 0x31 PUSH1 0x4 MSTORE PUSH1 0x24 PUSH1 0x0 REVERT JUMPDEST PUSH32 0x4F6E6C7920746865205345436161532063616E2073656E642074686520726566 PUSH1 0x0 DUP3 ADD MSTORE PUSH32 0x6572656E6365207369676E617475726500000000000000000000000000000000 PUSH1 0x20 DUP3 ADD MSTORE POP JUMP JUMPDEST PUSH1 0x0 PUSH2 0x2664 PUSH1 0x30 DUP4 PUSH2 0x21B8 JUMP JUMPDEST SWAP2 POP PUSH2 0x266F DUP3 PUSH2 0x2608 JUMP JUMPDEST PUSH1 0x40 DUP3 ADD SWAP1 POP SWAP2 SWAP1 POP JUMP JUMPDEST PUSH1 0x0 PUSH1 0x20 DUP3 ADD SWAP1 POP DUP2 DUP2 SUB PUSH1 0x0 DUP4 ADD MSTORE PUSH2 0x2693 DUP2 PUSH2 0x2657 JUMP JUMPDEST SWAP1 POP SWAP2 SWAP1 POP JUMP JUMPDEST PUSH32 0x496E76616C696420737461746520666F722053454361615320726573706F6E73 PUSH1 0x0 DUP3 ADD MSTORE PUSH32 0x6500000000000000000000000000000000000000000000000000000000000000 PUSH1 0x20 DUP3 ADD MSTORE POP JUMP JUMPDEST PUSH1 0x0 PUSH2 0x26F6 PUSH1 0x21 DUP4 PUSH2 0x21B8 JUMP JUMPDEST SWAP2 POP PUSH2 0x2701 DUP3 PUSH2 0x269A JUMP JUMPDEST PUSH1 0x40 DUP3 ADD SWAP1 POP SWAP2 SWAP1 POP JUMP JUMPDEST PUSH1 0x0 PUSH1 0x20 DUP3 ADD SWAP1 POP DUP2 DUP2 SUB PUSH1 0x0 DUP4 ADD MSTORE PUSH2 0x2725 DUP2 PUSH2 0x26E9 JUMP JUMPDEST SWAP1 POP SWAP2 SWAP1 POP JUMP JUMPDEST PUSH2 0x2735 DUP2 PUSH2 0x1C52 JUMP JUMPDEST DUP3 MSTORE POP POP JUMP JUMPDEST PUSH1 0x0 PUSH1 0x20 DUP3 ADD SWAP1 POP PUSH2 0x2750 PUSH1 0x0 DUP4 ADD DUP5 PUSH2 0x272C JUMP JUMPDEST SWAP3 SWAP2 POP POP JUMP JUMPDEST PUSH32 0x4174746573746174696F6E2070726F6365737320697320636C6F736564206F72 PUSH1 0x0 DUP3 ADD MSTORE PUSH32 0x206E6F7420657869737473000000000000000000000000000000000000000000 PUSH1 0x20 DUP3 ADD MSTORE POP JUMP JUMPDEST PUSH1 0x0 PUSH2 0x27B2 PUSH1 0x2B DUP4 PUSH2 0x21B8 JUMP JUMPDEST SWAP2 POP PUSH2 0x27BD DUP3 PUSH2 0x2756 JUMP JUMPDEST PUSH1 0x40 DUP3 ADD SWAP1 POP SWAP2 SWAP1 POP JUMP JUMPDEST PUSH1 0x0 PUSH1 0x20 DUP3 ADD SWAP1 POP DUP2 DUP2 SUB PUSH1 0x0 DUP4 ADD MSTORE PUSH2 0x27E1 DUP2 PUSH2 0x27A5 JUMP JUMPDEST SWAP1 POP SWAP2 SWAP1 POP JUMP JUMPDEST PUSH32 0x53656E6445766964656E6365203A204167656E74206973206E6F742072656769 PUSH1 0x0 DUP3 ADD MSTORE PUSH32 0x7374657265640000000000000000000000000000000000000000000000000000 PUSH1 0x20 DUP3 ADD MSTORE POP JUMP JUMPDEST PUSH1 0x0 PUSH2 0x2844 PUSH1 0x26 DUP4 PUSH2 0x21B8 JUMP JUMPDEST SWAP2 POP PUSH2 0x284F DUP3 PUSH2 0x27E8 JUMP JUMPDEST PUSH1 0x40 DUP3 ADD SWAP1 POP SWAP2 SWAP1 POP JUMP JUMPDEST PUSH1 0x0 PUSH1 0x20 DUP3 ADD SWAP1 POP DUP2 DUP2 SUB PUSH1 0x0 DUP4 ADD MSTORE PUSH2 0x2873 DUP2 PUSH2 0x2837 JUMP JUMPDEST SWAP1 POP SWAP2 SWAP1 POP JUMP JUMPDEST PUSH32 0x4174746573746174696F6E2070726F63657373206973206E6F7420636C6F7365 PUSH1 0x0 DUP3 ADD MSTORE PUSH32 0x6400000000000000000000000000000000000000000000000000000000000000 PUSH1 0x20 DUP3 ADD MSTORE POP JUMP JUMPDEST PUSH1 0x0 PUSH2 0x28D6 PUSH1 0x21 DUP4 PUSH2 0x21B8 JUMP JUMPDEST SWAP2 POP PUSH2 0x28E1 DUP3 PUSH2 0x287A JUMP JUMPDEST PUSH1 0x40 DUP3 ADD SWAP1 POP SWAP2 SWAP1 POP JUMP JUMPDEST PUSH1 0x0 PUSH1 0x20 DUP3 ADD SWAP1 POP DUP2 DUP2 SUB PUSH1 0x0 DUP4 ADD MSTORE PUSH2 0x2905 DUP2 PUSH2 0x28C9 JUMP JUMPDEST SWAP1 POP SWAP2 SWAP1 POP JUMP JUMPDEST PUSH32 0x4F6E6C7920746865205345436161532063616E20726573657420746865206368 PUSH1 0x0 DUP3 ADD MSTORE PUSH32 0x61696E0000000000000000000000000000000000000000000000000000000000 PUSH1 0x20 DUP3 ADD MSTORE POP JUMP JUMPDEST PUSH1 0x0 PUSH2 0x2968 PUSH1 0x23 DUP4 PUSH2 0x21B8 JUMP JUMPDEST SWAP2 POP PUSH2 0x2973 DUP3 PUSH2 0x290C JUMP JUMPDEST PUSH1 0x40 DUP3 ADD SWAP1 POP SWAP2 SWAP1 POP JUMP JUMPDEST PUSH1 0x0 PUSH1 0x20 DUP3 ADD SWAP1 POP DUP2 DUP2 SUB PUSH1 0x0 DUP4 ADD MSTORE PUSH2 0x2997 DUP2 PUSH2 0x295B JUMP JUMPDEST SWAP1 POP SWAP2 SWAP1 POP JUMP JUMPDEST PUSH32 0x596F7520617265206E6F7420746865205345436161532E000000000000000000 PUSH1 0x0 DUP3 ADD MSTORE POP JUMP JUMPDEST PUSH1 0x0 PUSH2 0x29D4 PUSH1 0x17 DUP4 PUSH2 0x21B8 JUMP JUMPDEST SWAP2 POP PUSH2 0x29DF DUP3 PUSH2 0x299E JUMP JUMPDEST PUSH1 0x20 DUP3 ADD SWAP1 POP SWAP2 SWAP1 POP JUMP JUMPDEST PUSH1 0x0 PUSH1 0x20 DUP3 ADD SWAP1 POP DUP2 DUP2 SUB PUSH1 0x0 DUP4 ADD MSTORE PUSH2 0x2A03 DUP2 PUSH2 0x29C7 JUMP JUMPDEST SWAP1 POP SWAP2 SWAP1 POP JUMP JUMPDEST PUSH32 0x4174746573746174696F6E20697320636C6F736564206F72206E6F7420657869 PUSH1 0x0 DUP3 ADD MSTORE PUSH32 0x7374730000000000000000000000000000000000000000000000000000000000 PUSH1 0x20 DUP3 ADD MSTORE POP JUMP JUMPDEST PUSH1 0x0 PUSH2 0x2A66 PUSH1 0x23 DUP4 PUSH2 0x21B8 JUMP JUMPDEST SWAP2 POP PUSH2 0x2A71 DUP3 PUSH2 0x2A0A JUMP JUMPDEST PUSH1 0x40 DUP3 ADD SWAP1 POP SWAP2 SWAP1 POP JUMP JUMPDEST PUSH1 0x0 PUSH1 0x20 DUP3 ADD SWAP1 POP DUP2 DUP2 SUB PUSH1 0x0 DUP4 ADD MSTORE PUSH2 0x2A95 DUP2 PUSH2 0x2A59 JUMP JUMPDEST SWAP1 POP SWAP2 SWAP1 POP JUMP JUMPDEST PUSH32 0x4765744167656E74496E666F203A204167656E74206973206E6F742072656769 PUSH1 0x0 DUP3 ADD MSTORE PUSH32 0x7374657265640000000000000000000000000000000000000000000000000000 PUSH1 0x20 DUP3 ADD MSTORE POP JUMP JUMPDEST PUSH1 0x0 PUSH2 0x2AF8 PUSH1 0x26 DUP4 PUSH2 0x21B8 JUMP JUMPDEST SWAP2 POP PUSH2 0x2B03 DUP3 PUSH2 0x2A9C JUMP JUMPDEST PUSH1 0x40 DUP3 ADD SWAP1 POP SWAP2 SWAP1 POP JUMP JUMPDEST PUSH1 0x0 PUSH1 0x20 DUP3 ADD SWAP1 POP DUP2 DUP2 SUB PUSH1 0x0 DUP4 ADD MSTORE PUSH2 0x2B27 DUP2 PUSH2 0x2AEB JUMP JUMPDEST SWAP1 POP SWAP2 SWAP1 POP JUMP JUMPDEST PUSH32 0x4E487B7100000000000000000000000000000000000000000000000000000000 PUSH1 0x0 MSTORE PUSH1 0x22 PUSH1 0x4 MSTORE PUSH1 0x24 PUSH1 0x0 REVERT JUMPDEST PUSH1 0x0 PUSH1 0x2 DUP3 DIV SWAP1 POP PUSH1 0x1 DUP3 AND DUP1 PUSH2 0x2B75 JUMPI PUSH1 0x7F DUP3 AND SWAP2 POP JUMPDEST PUSH1 0x20 DUP3 LT DUP2 SUB PUSH2 0x2B88 JUMPI PUSH2 0x2B87 PUSH2 0x2B2E JUMP JUMPDEST JUMPDEST POP SWAP2 SWAP1 POP JUMP JUMPDEST PUSH32 0x4E616D65206973206E6F742076616C6964000000000000000000000000000000 PUSH1 0x0 DUP3 ADD MSTORE POP JUMP JUMPDEST PUSH1 0x0 PUSH2 0x2BC4 PUSH1 0x11 DUP4 PUSH2 0x21B8 JUMP JUMPDEST SWAP2 POP PUSH2 0x2BCF DUP3 PUSH2 0x2B8E JUMP JUMPDEST PUSH1 0x20 DUP3 ADD SWAP1 POP SWAP2 SWAP1 POP JUMP JUMPDEST PUSH1 0x0 PUSH1 0x20 DUP3 ADD SWAP1 POP DUP2 DUP2 SUB PUSH1 0x0 DUP4 ADD MSTORE PUSH2 0x2BF3 DUP2 PUSH2 0x2BB7 JUMP JUMPDEST SWAP1 POP SWAP2 SWAP1 POP JUMP JUMPDEST PUSH1 0x0 DUP2 SWAP1 POP DUP2 PUSH1 0x0 MSTORE PUSH1 0x20 PUSH1 0x0 KECCAK256 SWAP1 POP SWAP2 SWAP1 POP JUMP JUMPDEST PUSH1 0x0 PUSH1 0x20 PUSH1 0x1F DUP4 ADD DIV SWAP1 POP SWAP2 SWAP1 POP JUMP JUMPDEST PUSH1 0x0 DUP3 DUP3 SHL SWAP1 POP SWAP3 SWAP2 POP POP JUMP JUMPDEST PUSH1 0x0 PUSH1 0x8 DUP4 MUL PUSH2 0x2C5C PUSH32 0xFFFFFFFFFFFFFFFFFFFFFFFFFFFFFFFFFFFFFFFFFFFFFFFFFFFFFFFFFFFFFFFF DUP3 PUSH2 0x2C1F JUMP JUMPDEST PUSH2 0x2C66 DUP7 DUP4 PUSH2 0x2C1F JUMP JUMPDEST SWAP6 POP DUP1 NOT DUP5 AND SWAP4 POP DUP1 DUP7 AND DUP5 OR SWAP3 POP POP POP SWAP4 SWAP3 POP POP POP JUMP JUMPDEST PUSH1 0x0 DUP2 SWAP1 POP SWAP2 SWAP1 POP JUMP JUMPDEST PUSH1 0x0 PUSH2 0x2CA3 PUSH2 0x2C9E PUSH2 0x2C99 DUP5 PUSH2 0x1F96 JUMP JUMPDEST PUSH2 0x2C7E JUMP JUMPDEST PUSH2 0x1F96 JUMP JUMPDEST SWAP1 POP SWAP2 SWAP1 POP JUMP JUMPDEST PUSH1 0x0 DUP2 SWAP1 POP SWAP2 SWAP1 POP JUMP JUMPDEST PUSH2 0x2CBD DUP4 PUSH2 0x2C88 JUMP JUMPDEST PUSH2 0x2CD1 PUSH2 0x2CC9 DUP3 PUSH2 0x2CAA JUMP JUMPDEST DUP5 DUP5 SLOAD PUSH2 0x2C2C JUMP JUMPDEST DUP3 SSTORE POP POP POP POP JUMP JUMPDEST PUSH1 0x0 SWAP1 JUMP JUMPDEST PUSH2 0x2CE6 PUSH2 0x2CD9 JUMP JUMPDEST PUSH2 0x2CF1 DUP2 DUP5 DUP5 PUSH2 0x2CB4 JUMP JUMPDEST POP POP POP JUMP JUMPDEST JUMPDEST DUP2 DUP2 LT ISZERO PUSH2 0x2D15 JUMPI PUSH2 0x2D0A PUSH1 0x0 DUP3 PUSH2 0x2CDE JUMP JUMPDEST PUSH1 0x1 DUP2 ADD SWAP1 POP PUSH2 0x2CF7 JUMP JUMPDEST POP POP JUMP JUMPDEST PUSH1 0x1F DUP3 GT ISZERO PUSH2 0x2D5A JUMPI PUSH2 0x2D2B DUP2 PUSH2 0x2BFA JUMP JUMPDEST PUSH2 0x2D34 DUP5 PUSH2 0x2C0F JUMP JUMPDEST DUP2 ADD PUSH1 0x20 DUP6 LT ISZERO PUSH2 0x2D43 JUMPI DUP2 SWAP1 POP JUMPDEST PUSH2 0x2D57 PUSH2 0x2D4F DUP6 PUSH2 0x2C0F JUMP JUMPDEST DUP4 ADD DUP3 PUSH2 0x2CF6 JUMP JUMPDEST POP POP JUMPDEST POP POP POP JUMP JUMPDEST PUSH1 0x0 DUP3 DUP3 SHR SWAP1 POP SWAP3 SWAP2 POP POP JUMP JUMPDEST PUSH1 0x0 PUSH2 0x2D7D PUSH1 0x0 NOT DUP5 PUSH1 0x8 MUL PUSH2 0x2D5F JUMP JUMPDEST NOT DUP1 DUP4 AND SWAP2 POP POP SWAP3 SWAP2 POP POP JUMP JUMPDEST PUSH1 0x0 PUSH2 0x2D96 DUP4 DUP4 PUSH2 0x2D6C JUMP JUMPDEST SWAP2 POP DUP3 PUSH1 0x2 MUL DUP3 OR SWAP1 POP SWAP3 SWAP2 POP POP JUMP JUMPDEST PUSH2 0x2DAF DUP3 PUSH2 0x21AD JUMP JUMPDEST PUSH8 0xFFFFFFFFFFFFFFFF DUP2 GT ISZERO PUSH2 0x2DC8 JUMPI PUSH2 0x2DC7 PUSH2 0x1C9E JUMP JUMPDEST JUMPDEST PUSH2 0x2DD2 DUP3 SLOAD PUSH2 0x2B5D JUMP JUMPDEST PUSH2 0x2DDD DUP3 DUP3 DUP6 PUSH2 0x2D19 JUMP JUMPDEST PUSH1 0x0 PUSH1 0x20 SWAP1 POP PUSH1 0x1F DUP4 GT PUSH1 0x1 DUP2 EQ PUSH2 0x2E10 JUMPI PUSH1 0x0 DUP5 ISZERO PUSH2 0x2DFE JUMPI DUP3 DUP8 ADD MLOAD SWAP1 POP JUMPDEST PUSH2 0x2E08 DUP6 DUP3 PUSH2 0x2D8A JUMP JUMPDEST DUP7 SSTORE POP PUSH2 0x2E70 JUMP JUMPDEST PUSH1 0x1F NOT DUP5 AND PUSH2 0x2E1E DUP7 PUSH2 0x2BFA JUMP JUMPDEST PUSH1 0x0 JUMPDEST DUP3 DUP2 LT ISZERO PUSH2 0x2E46 JUMPI DUP5 DUP10 ADD MLOAD DUP3 SSTORE PUSH1 0x1 DUP3 ADD SWAP2 POP PUSH1 0x20 DUP6 ADD SWAP5 POP PUSH1 0x20 DUP2 ADD SWAP1 POP PUSH2 0x2E21 JUMP JUMPDEST DUP7 DUP4 LT ISZERO PUSH2 0x2E63 JUMPI DUP5 DUP10 ADD MLOAD PUSH2 0x2E5F PUSH1 0x1F DUP10 AND DUP3 PUSH2 0x2D6C JUMP JUMPDEST DUP4 SSTORE POP JUMPDEST PUSH1 0x1 PUSH1 0x2 DUP9 MUL ADD DUP9 SSTORE POP POP POP JUMPDEST POP POP POP POP POP POP JUMP JUMPDEST PUSH32 0x4F6E6C79207468652076657269666965722063616E20636C6F73652074686520 PUSH1 0x0 DUP3 ADD MSTORE PUSH32 0x6174746573746174696F6E2070726F6365737300000000000000000000000000 PUSH1 0x20 DUP3 ADD MSTORE POP JUMP JUMPDEST PUSH1 0x0 PUSH2 0x2ED4 PUSH1 0x33 DUP4 PUSH2 0x21B8 JUMP JUMPDEST SWAP2 POP PUSH2 0x2EDF DUP3 PUSH2 0x2E78 JUMP JUMPDEST PUSH1 0x40 DUP3 ADD SWAP1 POP SWAP2 SWAP1 POP JUMP JUMPDEST PUSH1 0x0 PUSH1 0x20 DUP3 ADD SWAP1 POP DUP2 DUP2 SUB PUSH1 0x0 DUP4 ADD MSTORE PUSH2 0x2F03 DUP2 PUSH2 0x2EC7 JUMP JUMPDEST SWAP1 POP SWAP2 SWAP1 POP JUMP JUMPDEST PUSH32 0x4174746573746174696F6E206973206E6F7420726561647920666F7220636C6F PUSH1 0x0 DUP3 ADD MSTORE PUSH32 0x7375726500000000000000000000000000000000000000000000000000000000 PUSH1 0x20 DUP3 ADD MSTORE POP JUMP JUMPDEST PUSH1 0x0 PUSH2 0x2F66 PUSH1 0x24 DUP4 PUSH2 0x21B8 JUMP JUMPDEST SWAP2 POP PUSH2 0x2F71 DUP3 PUSH2 0x2F0A JUMP JUMPDEST PUSH1 0x40 DUP3 ADD SWAP1 POP SWAP2 SWAP1 POP JUMP JUMPDEST PUSH1 0x0 PUSH1 0x20 DUP3 ADD SWAP1 POP DUP2 DUP2 SUB PUSH1 0x0 DUP4 ADD MSTORE PUSH2 0x2F95 DUP2 PUSH2 0x2F59 JUMP JUMPDEST SWAP1 POP SWAP2 SWAP1 POP JUMP JUMPDEST PUSH32 0x4F6E6C79207468652076657269666965722063616E2072657472696576652074 PUSH1 0x0 DUP3 ADD MSTORE PUSH32 0x6865207369676E61747572657300000000000000000000000000000000000000 PUSH1 0x20 DUP3 ADD MSTORE POP JUMP JUMPDEST PUSH1 0x0 PUSH2 0x2FF8 PUSH1 0x2D DUP4 PUSH2 0x21B8 JUMP JUMPDEST SWAP2 POP PUSH2 0x3003 DUP3 PUSH2 0x2F9C JUMP JUMPDEST PUSH1 0x40 DUP3 ADD SWAP1 POP SWAP2 SWAP1 POP JUMP JUMPDEST PUSH1 0x0 PUSH1 0x20 DUP3 ADD SWAP1 POP DUP2 DUP2 SUB PUSH1 0x0 DUP4 ADD MSTORE PUSH2 0x3027 DUP2 PUSH2 0x2FEB JUMP JUMPDEST SWAP1 POP SWAP2 SWAP1 POP JUMP JUMPDEST PUSH32 0x4174746573746174696F6E2070726F63657373206973206E6F7420636F6D706C PUSH1 0x0 DUP3 ADD MSTORE PUSH32 0x6574656400000000000000000000000000000000000000000000000000000000 PUSH1 0x20 DUP3 ADD MSTORE POP JUMP JUMPDEST PUSH1 0x0 PUSH2 0x308A PUSH1 0x24 DUP4 PUSH2 0x21B8 JUMP JUMPDEST SWAP2 POP PUSH2 0x3095 DUP3 PUSH2 0x302E JUMP JUMPDEST PUSH1 0x40 DUP3 ADD SWAP1 POP SWAP2 SWAP1 POP JUMP JUMPDEST PUSH1 0x0 PUSH1 0x20 DUP3 ADD SWAP1 POP DUP2 DUP2 SUB PUSH1 0x0 DUP4 ADD MSTORE PUSH2 0x30B9 DUP2 PUSH2 0x307D JUMP JUMPDEST SWAP1 POP SWAP2 SWAP1 POP JUMP JUMPDEST PUSH1 0x0 PUSH2 0x30CB DUP3 PUSH2 0x1F96 JUMP JUMPDEST SWAP2 POP PUSH32 0xFFFFFFFFFFFFFFFFFFFFFFFFFFFFFFFFFFFFFFFFFFFFFFFFFFFFFFFFFFFFFFFF DUP3 SUB PUSH2 0x30FD JUMPI PUSH2 0x30FC PUSH2 0x2547 JUMP JUMPDEST JUMPDEST PUSH1 0x1 DUP3 ADD SWAP1 POP SWAP2 SWAP1 POP JUMP JUMPDEST PUSH32 0x4E487B7100000000000000000000000000000000000000000000000000000000 PUSH1 0x0 MSTORE PUSH1 0x12 PUSH1 0x4 MSTORE PUSH1 0x24 PUSH1 0x0 REVERT JUMPDEST PUSH1 0x0 PUSH2 0x3142 DUP3 PUSH2 0x1F96 JUMP JUMPDEST SWAP2 POP PUSH2 0x314D DUP4 PUSH2 0x1F96 JUMP JUMPDEST SWAP3 POP DUP3 PUSH2 0x315D JUMPI PUSH2 0x315C PUSH2 0x3108 JUMP JUMPDEST JUMPDEST DUP3 DUP3 MOD SWAP1 POP SWAP3 SWAP2 POP POP JUMP INVALID LOG2 PUSH5 0x6970667358 0x22 SLT KECCAK256 PUSH12 0x592CD7955F34DDF7DC074488 MOD PUSH18 0x3F8831D8F4A432DBD72A14C26810820D7364 PUSH20 0x6F6C634300081C00330000000000000000000000 "},"methodIdentifiers":{"CloseAttestationProcess(bytes32,bool)":"cb2a0348","GetAgentInfo(address,address)":"bc1a097e","GetAttestationChain()":"96efe852","GetAttestationInfo(bytes32)":"5f3d4220","GetAttestationSignatures(bytes32,address)":"e1a94c83","GetAttestationState(bytes32)":"b8df8f98","GetProverAddress(bytes32,address)":"9cb65fa1","IsProver(bytes32,address)":"395d719b","IsRegistered(address)":"c224122d","IsVerifier(bytes32,address)":"b46ca81a","RegisterAgent(string)":"c984f8db","RemoveAgent()":"1d995a0e","ResetChain()":"78caad49","SendEvidence(bytes32,bytes32[3])":"5e8b3622","SendRefSignaures(bytes32,bytes32[3])":"32facfb7","freshnessWindow()":"81880fd3","rrIndex()":"93506aa6"}}}}}