{
  "_format": "hh-sol-artifact-1",
  "contractName": "AttestationManagerLV",
  "sourceName": "contracts/AttestationManagerLV.sol",
  "abi": [
    {
      "inputs": [],
      "stateMutability": "nonpayable",
      "type": "constructor"
    },
    {
      "anonymous": false,
      "inputs": [
        {
          "indexed": false,
          "internalType": "address",
          "name": "agent",
          "type": "address"
        }
      ],
      "name": "AgentRegistered",
      "type": "event"
    },
    {
      "anonymous": false,
      "inputs": [
        {
          "indexed": false,
          "internalType": "address",
          "name": "agent",
          "type": "address"
        }
      ],
      "name": "AgentRemoved",
      "type": "event"
    },
    {
      "anonymous": false,
      "inputs": [
        {
          "indexed": false,
          "internalType": "bytes32",
          "name": "id",
          "type": "bytes32"
        }
      ],
      "name": "AttestationCompleted",
      "type": "event"
    },
    {
      "anonymous": false,
      "inputs": [
        {
          "indexed": false,
          "internalType": "bytes32",
          "name": "id",
          "type": "bytes32"
        },
        {
          "indexed": false,
          "internalType": "uint32",
          "name": "iterCount",
          "type": "uint32"
        }
      ],
      "name": "AttestationStarted",
      "type": "event"
    },
    {
      "anonymous": false,
      "inputs": [],
      "name": "ChainReset",
      "type": "event"
    },
    {
      "anonymous": false,
      "inputs": [
        {
          "indexed": false,
          "internalType": "bytes32",
          "name": "id",
          "type": "bytes32"
        }
      ],
      "name": "ReadyForEvaluation",
      "type": "event"
    },
    {
      "inputs": [
        {
          "internalType": "bytes32",
          "name": "id",
          "type": "bytes32"
        },
        {
          "internalType": "bool",
          "name": "verified",
          "type": "bool"
        }
      ],
      "name": "CloseAttestationProcess",
      "outputs": [
        {
          "internalType": "bool",
          "name": "",
          "type": "bool"
        }
      ],
      "stateMutability": "nonpayable",
      "type": "function"
    },
    {
      "inputs": [
        {
          "internalType": "address",
          "name": "agentAddress",
          "type": "address"
        },
        {
          "internalType": "address",
          "name": "callAddress",
          "type": "address"
        }
      ],
      "name": "GetAgentInfo",
      "outputs": [
        {
          "internalType": "string",
          "name": "",
          "type": "string"
        },
        {
          "internalType": "bool",
          "name": "",
          "type": "bool"
        },
        {
          "internalType": "bytes32[]",
          "name": "",
          "type": "bytes32[]"
        }
      ],
      "stateMutability": "view",
      "type": "function"
    },
    {
      "inputs": [],
      "name": "GetAttestationChain",
      "outputs": [
        {
          "internalType": "bytes32[]",
          "name": "",
          "type": "bytes32[]"
        }
      ],
      "stateMutability": "pure",
      "type": "function"
    },
    {
      "inputs": [
        {
          "internalType": "bytes32",
          "name": "id",
          "type": "bytes32"
        }
      ],
      "name": "GetAttestationInfo",
      "outputs": [
        {
          "internalType": "address",
          "name": "",
          "type": "address"
        },
        {
          "internalType": "address",
          "name": "",
          "type": "address"
        },
        {
          "internalType": "enum AttestationManagerLV.AttestationResult",
          "name": "",
          "type": "uint8"
        },
        {
          "internalType": "uint256",
          "name": "",
          "type": "uint256"
        }
      ],
      "stateMutability": "view",
      "type": "function"
    },
    {
      "inputs": [
        {
          "internalType": "bytes32",
          "name": "id",
          "type": "bytes32"
        },
        {
          "internalType": "address",
          "name": "callAddress",
          "type": "address"
        }
      ],
      "name": "GetAttestationSignatures",
      "outputs": [
        {
          "internalType": "bytes32",
          "name": "",
          "type": "bytes32"
        },
        {
          "internalType": "bytes32",
          "name": "",
          "type": "bytes32"
        },
        {
          "internalType": "uint32",
          "name": "",
          "type": "uint32"
        }
      ],
      "stateMutability": "view",
      "type": "function"
    },
    {
      "inputs": [
        {
          "internalType": "bytes32",
          "name": "id",
          "type": "bytes32"
        }
      ],
      "name": "GetAttestationState",
      "outputs": [
        {
          "internalType": "enum AttestationManagerLV.AttestationState",
          "name": "",
          "type": "uint8"
        }
      ],
      "stateMutability": "view",
      "type": "function"
    },
    {
      "inputs": [],
      "name": "GetCurrentVerifier",
      "outputs": [
        {
          "internalType": "address",
          "name": "",
          "type": "address"
        }
      ],
      "stateMutability": "view",
      "type": "function"
    },
    {
      "inputs": [
        {
          "internalType": "bytes32",
          "name": "id",
          "type": "bytes32"
        },
        {
          "internalType": "address",
          "name": "callAddress",
          "type": "address"
        }
      ],
      "name": "GetProverAddress",
      "outputs": [
        {
          "internalType": "address",
          "name": "",
          "type": "address"
        }
      ],
      "stateMutability": "view",
      "type": "function"
    },
    {
      "inputs": [
        {
          "internalType": "bytes32",
          "name": "id",
          "type": "bytes32"
        },
        {
          "internalType": "address",
          "name": "callAddress",
          "type": "address"
        }
      ],
      "name": "IsProver",
      "outputs": [
        {
          "internalType": "bool",
          "name": "",
          "type": "bool"
        }
      ],
      "stateMutability": "view",
      "type": "function"
    },
    {
      "inputs": [
        {
          "internalType": "address",
          "name": "callAddress",
          "type": "address"
        }
      ],
      "name": "IsRegistered",
      "outputs": [
        {
          "internalType": "bool",
          "name": "",
          "type": "bool"
        }
      ],
      "stateMutability": "view",
      "type": "function"
    },
    {
      "inputs": [
        {
          "internalType": "bytes32",
          "name": "id",
          "type": "bytes32"
        },
        {
          "internalType": "address",
          "name": "callAddress",
          "type": "address"
        }
      ],
      "name": "IsVerifier",
      "outputs": [
        {
          "internalType": "bool",
          "name": "",
          "type": "bool"
        }
      ],
      "stateMutability": "view",
      "type": "function"
    },
    {
      "inputs": [],
      "name": "MAX_ITER_COUNT",
      "outputs": [
        {
          "internalType": "uint32",
          "name": "",
          "type": "uint32"
        }
      ],
      "stateMutability": "view",
      "type": "function"
    },
    {
      "inputs": [
        {
          "internalType": "string",
          "name": "name",
          "type": "string"
        }
      ],
      "name": "RegisterAgent",
      "outputs": [],
      "stateMutability": "nonpayable",
      "type": "function"
    },
    {
      "inputs": [],
      "name": "RemoveAgent",
      "outputs": [],
      "stateMutability": "nonpayable",
      "type": "function"
    },
    {
      "inputs": [],
      "name": "ResetChain",
      "outputs": [],
      "stateMutability": "nonpayable",
      "type": "function"
    },
    {
      "inputs": [
        {
          "internalType": "bytes32",
          "name": "id",
          "type": "bytes32"
        },
        {
          "internalType": "bool",
          "name": "verified",
          "type": "bool"
        }
      ],
      "name": "ResolveAttestationSECaaS",
      "outputs": [],
      "stateMutability": "nonpayable",
      "type": "function"
    },
    {
      "inputs": [
        {
          "internalType": "bytes32",
          "name": "id",
          "type": "bytes32"
        },
        {
          "internalType": "bytes32",
          "name": "freshMeasurement",
          "type": "bytes32"
        },
        {
          "internalType": "uint32",
          "name": "iterCount",
          "type": "uint32"
        }
      ],
      "name": "SendEvidence",
      "outputs": [],
      "stateMutability": "nonpayable",
      "type": "function"
    },
    {
      "inputs": [
        {
          "internalType": "bytes32",
          "name": "id",
          "type": "bytes32"
        },
        {
          "internalType": "bytes32",
          "name": "refMeasurement",
          "type": "bytes32"
        }
      ],
      "name": "SendRefSignature",
      "outputs": [
        {
          "internalType": "bool",
          "name": "",
          "type": "bool"
        }
      ],
      "stateMutability": "nonpayable",
      "type": "function"
    }
  ],
  "bytecode": "0x608060405234801561001057600080fd5b50336000806101000a81548173ffffffffffffffffffffffffffffffffffffffff021916908373ffffffffffffffffffffffffffffffffffffffff160217905550600160008054906101000a900473ffffffffffffffffffffffffffffffffffffffff169080600181540180825580915050600190039060005260206000200160009091909190916101000a81548173ffffffffffffffffffffffffffffffffffffffff021916908373ffffffffffffffffffffffffffffffffffffffff1602179055506000600560008060009054906101000a900473ffffffffffffffffffffffffffffffffffffffff1673ffffffffffffffffffffffffffffffffffffffff1673ffffffffffffffffffffffffffffffffffffffff1681526020019081526020016000208190555060008054906101000a900473ffffffffffffffffffffffffffffffffffffffff16600260006101000a81548173ffffffffffffffffffffffffffffffffffffffff021916908373ffffffffffffffffffffffffffffffffffffffff160217905550613558806101aa6000396000f3fe608060405234801561001057600080fd5b50600436106101165760003560e01c80639cb65fa1116100a2578063c224122d11610071578063c224122d146102fa578063c2694a041461032a578063c984f8db14610346578063cb2a034814610362578063e1a94c831461039257610116565b80639cb65fa114610238578063b46ca81a14610268578063b8df8f9814610298578063bc1a097e146102c857610116565b80635f3d4220116100e95780635f3d42201461018f57806378caad49146101c25780637cb98689146101cc57806396efe852146101ea578063986bed881461020857610116565b80631d995a0e1461011b5780632e44aacd14610125578063357baf8c14610141578063395d719b1461015f575b600080fd5b6101236103c4565b005b61013f600480360381019061013a9190611efd565b610772565b005b6101496109f4565b6040516101569190611f5f565b60405180910390f35b61017960048036038101906101749190611fd8565b6109fa565b6040516101869190612033565b60405180910390f35b6101a960048036038101906101a4919061204e565b610ae5565b6040516101b9949392919061211a565b60405180910390f35b6101ca610bea565b005b6101d4610d07565b6040516101e1919061215f565b60405180910390f35b6101f2610dc0565b6040516101ff9190612238565b60405180910390f35b610222600480360381019061021d919061225a565b610e11565b60405161022f9190612033565b60405180910390f35b610252600480360381019061024d9190611fd8565b610fa9565b60405161025f919061215f565b60405180910390f35b610282600480360381019061027d9190611fd8565b6110f7565b60405161028f9190612033565b60405180910390f35b6102b260048036038101906102ad919061204e565b6111e2565b6040516102bf91906122e2565b60405180910390f35b6102e260048036038101906102dd91906122fd565b61120f565b6040516102f1939291906123cd565b60405180910390f35b610314600480360381019061030f9190612412565b61143d565b6040516103219190612033565b60405180910390f35b610344600480360381019061033f919061246b565b611496565b005b610360600480360381019061035b91906125e0565b6117a2565b005b61037c6004803603810190610377919061246b565b61193f565b6040516103899190612033565b60405180910390f35b6103ac60048036038101906103a79190611fd8565b611ba4565b6040516103bb93929190612638565b60405180910390f35b6000600360003373ffffffffffffffffffffffffffffffffffffffff1673ffffffffffffffffffffffffffffffffffffffff16815260200190815260200160002090508060010160009054906101000a900460ff16610458576040517f08c379a000000000000000000000000000000000000000000000000000000000815260040161044f906126e1565b60405180910390fd5b600260009054906101000a900473ffffffffffffffffffffffffffffffffffffffff1673ffffffffffffffffffffffffffffffffffffffff163373ffffffffffffffffffffffffffffffffffffffff160361050f5760008054906101000a900473ffffffffffffffffffffffffffffffffffffffff16600260006101000a81548173ffffffffffffffffffffffffffffffffffffffff021916908373ffffffffffffffffffffffffffffffffffffffff1602179055505b6000600560003373ffffffffffffffffffffffffffffffffffffffff1673ffffffffffffffffffffffffffffffffffffffff168152602001908152602001600020549050600060018080805490506105679190612730565b8154811061057857610577612764565b5b9060005260206000200160009054906101000a900473ffffffffffffffffffffffffffffffffffffffff16905080600183815481106105ba576105b9612764565b5b9060005260206000200160006101000a81548173ffffffffffffffffffffffffffffffffffffffff021916908373ffffffffffffffffffffffffffffffffffffffff16021790555081600560008373ffffffffffffffffffffffffffffffffffffffff1673ffffffffffffffffffffffffffffffffffffffff16815260200190815260200160002081905550600180548061065857610657612793565b5b6001900381819060005260206000200160006101000a81549073ffffffffffffffffffffffffffffffffffffffff02191690559055600560003373ffffffffffffffffffffffffffffffffffffffff1673ffffffffffffffffffffffffffffffffffffffff16815260200190815260200160002060009055600360003373ffffffffffffffffffffffffffffffffffffffff1673ffffffffffffffffffffffffffffffffffffffff168152602001908152602001600020600080820160006107209190611e1a565b6001820160006101000a81549060ff021916905550507fed9c8ad8d5a0a66898ea49d2956929c93ae2e8bd50281b2ed897c5d1a6737e0b33604051610765919061215f565b60405180910390a1505050565b6000600360003373ffffffffffffffffffffffffffffffffffffffff1673ffffffffffffffffffffffffffffffffffffffff16815260200190815260200160002090508060010160009054906101000a900460ff16610806576040517f08c379a00000000000000000000000000000000000000000000000000000000081526004016107fd90612834565b60405180910390fd5b60018263ffffffff161015801561082b575061271063ffffffff168263ffffffff1611155b61086a576040517f08c379a0000000000000000000000000000000000000000000000000000000008152600401610861906128c6565b60405180910390fd5b600060046000868152602001908152602001600020905084816000018190555061089333611d70565b8160010160006101000a81548173ffffffffffffffffffffffffffffffffffffffff021916908373ffffffffffffffffffffffffffffffffffffffff160217905550338160020160006101000a81548173ffffffffffffffffffffffffffffffffffffffff021916908373ffffffffffffffffffffffffffffffffffffffff1602179055508381600301819055506000801b816004018190555060008160050160006101000a81548160ff021916908360028111156109555761095461208a565b5b021790555060008160050160016101000a81548160ff021916908360028111156109825761098161208a565b5b021790555060008160060181905550828160070160006101000a81548163ffffffff021916908363ffffffff1602179055507f6aa34f034d08ce6962560c4805f8d0ea14020343310408c935a7354c772f2d3885846040516109e59291906128e6565b60405180910390a15050505050565b61271081565b600080600460008581526020019081526020016000209050600280811115610a2557610a2461208a565b5b8160050160009054906101000a900460ff166002811115610a4957610a4861208a565b5b03610a89576040517f08c379a0000000000000000000000000000000000000000000000000000000008152600401610a8090612981565b60405180910390fd5b8273ffffffffffffffffffffffffffffffffffffffff168160020160009054906101000a900473ffffffffffffffffffffffffffffffffffffffff1673ffffffffffffffffffffffffffffffffffffffff161491505092915050565b6000806000806000600460008781526020019081526020016000209050600280811115610b1557610b1461208a565b5b8160050160009054906101000a900460ff166002811115610b3957610b3861208a565b5b14610b79576040517f08c379a0000000000000000000000000000000000000000000000000000000008152600401610b7090612a13565b60405180910390fd5b8060020160009054906101000a900473ffffffffffffffffffffffffffffffffffffffff168160010160009054906101000a900473ffffffffffffffffffffffffffffffffffffffff168260050160019054906101000a900460ff1683600601549450945094509450509193509193565b60008054906101000a900473ffffffffffffffffffffffffffffffffffffffff1673ffffffffffffffffffffffffffffffffffffffff163373ffffffffffffffffffffffffffffffffffffffff1614610c78576040517f08c379a0000000000000000000000000000000000000000000000000000000008152600401610c6f90612aa5565b60405180910390fd5b60008054906101000a900473ffffffffffffffffffffffffffffffffffffffff16600260006101000a81548173ffffffffffffffffffffffffffffffffffffffff021916908373ffffffffffffffffffffffffffffffffffffffff1602179055507f8e1dda8e7ca889ef4bd70f2ff6dd48a9b896b1d89703a08b6385333045af148960405160405180910390a1565b60008060009054906101000a900473ffffffffffffffffffffffffffffffffffffffff1673ffffffffffffffffffffffffffffffffffffffff163373ffffffffffffffffffffffffffffffffffffffff1614610d98576040517f08c379a0000000000000000000000000000000000000000000000000000000008152600401610d8f90612b37565b60405180910390fd5b600260009054906101000a900473ffffffffffffffffffffffffffffffffffffffff16905090565b6060600067ffffffffffffffff811115610ddd57610ddc6124b5565b5b604051908082528060200260200182016040528015610e0b5781602001602082028036833780820191505090505b50905090565b60008060009054906101000a900473ffffffffffffffffffffffffffffffffffffffff1673ffffffffffffffffffffffffffffffffffffffff163373ffffffffffffffffffffffffffffffffffffffff1614610ea2576040517f08c379a0000000000000000000000000000000000000000000000000000000008152600401610e9990612bc9565b60405180910390fd5b600060046000858152602001908152602001600020905060006002811115610ecd57610ecc61208a565b5b8160050160009054906101000a900460ff166002811115610ef157610ef061208a565b5b14610f31576040517f08c379a0000000000000000000000000000000000000000000000000000000008152600401610f2890612c5b565b60405180910390fd5b82816004018190555060018160050160006101000a81548160ff02191690836002811115610f6257610f6161208a565b5b02179055507f6781e8d3c07e87e938ec28a5435aa7862779fb9c7d01b7315eca91430b2a464384604051610f969190612c7b565b60405180910390a1600191505092915050565b60008060009054906101000a900473ffffffffffffffffffffffffffffffffffffffff1673ffffffffffffffffffffffffffffffffffffffff168273ffffffffffffffffffffffffffffffffffffffff161461103a576040517f08c379a000000000000000000000000000000000000000000000000000000000815260040161103190612ce2565b60405180910390fd5b6000600460008581526020019081526020016000209050600060028111156110655761106461208a565b5b8160050160009054906101000a900460ff1660028111156110895761108861208a565b5b146110c9576040517f08c379a00000000000000000000000000000000000000000000000000000000081526004016110c090612d74565b60405180910390fd5b8060020160009054906101000a900473ffffffffffffffffffffffffffffffffffffffff1691505092915050565b6000806004600085815260200190815260200160002090506002808111156111225761112161208a565b5b8160050160009054906101000a900460ff1660028111156111465761114561208a565b5b03611186576040517f08c379a000000000000000000000000000000000000000000000000000000000815260040161117d90612981565b60405180910390fd5b8273ffffffffffffffffffffffffffffffffffffffff168160010160009054906101000a900473ffffffffffffffffffffffffffffffffffffffff1673ffffffffffffffffffffffffffffffffffffffff161491505092915050565b60006004600083815260200190815260200160002060050160009054906101000a900460ff169050919050565b6060600060606000600360008673ffffffffffffffffffffffffffffffffffffffff1673ffffffffffffffffffffffffffffffffffffffff16815260200190815260200160002090506000600360008873ffffffffffffffffffffffffffffffffffffffff1673ffffffffffffffffffffffffffffffffffffffff16815260200190815260200160002090508160010160009054906101000a900460ff1680611303575060008054906101000a900473ffffffffffffffffffffffffffffffffffffffff1673ffffffffffffffffffffffffffffffffffffffff168673ffffffffffffffffffffffffffffffffffffffff16145b611342576040517f08c379a000000000000000000000000000000000000000000000000000000000815260040161133990612e06565b60405180910390fd5b806000018160010160009054906101000a900460ff16600067ffffffffffffffff811115611373576113726124b5565b5b6040519080825280602002602001820160405280156113a15781602001602082028036833780820191505090505b508280546113ae90612e55565b80601f01602080910402602001604051908101604052809291908181526020018280546113da90612e55565b80156114275780601f106113fc57610100808354040283529160200191611427565b820191906000526020600020905b81548152906001019060200180831161140a57829003601f168201915b5050505050925094509450945050509250925092565b6000600360008373ffffffffffffffffffffffffffffffffffffffff1673ffffffffffffffffffffffffffffffffffffffff16815260200190815260200160002060010160009054906101000a900460ff169050919050565b60008054906101000a900473ffffffffffffffffffffffffffffffffffffffff1673ffffffffffffffffffffffffffffffffffffffff163373ffffffffffffffffffffffffffffffffffffffff1614611524576040517f08c379a000000000000000000000000000000000000000000000000000000000815260040161151b90612ef8565b60405180910390fd5b60006004600084815260200190815260200160002090506000600281111561154f5761154e61208a565b5b8160050160009054906101000a900460ff1660028111156115735761157261208a565b5b146115b3576040517f08c379a00000000000000000000000000000000000000000000000000000000081526004016115aa90612f64565b60405180910390fd5b60008054906101000a900473ffffffffffffffffffffffffffffffffffffffff1673ffffffffffffffffffffffffffffffffffffffff168160010160009054906101000a900473ffffffffffffffffffffffffffffffffffffffff1673ffffffffffffffffffffffffffffffffffffffff1614611665576040517f08c379a000000000000000000000000000000000000000000000000000000000815260040161165c90612fd0565b60405180910390fd5b60028160050160006101000a81548160ff0219169083600281111561168d5761168c61208a565b5b021790555042816006018190555081156117385760028160050160016101000a81548160ff021916908360028111156116c9576116c861208a565b5b02179055508060020160009054906101000a900473ffffffffffffffffffffffffffffffffffffffff16600260006101000a81548173ffffffffffffffffffffffffffffffffffffffff021916908373ffffffffffffffffffffffffffffffffffffffff160217905550611766565b60018160050160016101000a81548160ff021916908360028111156117605761175f61208a565b5b02179055505b7f31a3cf273cd0e82f8ddb4be15d4b954d7fcd18a4c5d4591cce32edd1a4bc417d836040516117959190612c7b565b60405180910390a1505050565b60008151116117e6576040517f08c379a00000000000000000000000000000000000000000000000000000000081526004016117dd9061303c565b60405180910390fd5b6000600360003373ffffffffffffffffffffffffffffffffffffffff1673ffffffffffffffffffffffffffffffffffffffff16815260200190815260200160002090508181600001908161183a9190613208565b5060018160010160006101000a81548160ff021916908315150217905550600180549050600560003373ffffffffffffffffffffffffffffffffffffffff1673ffffffffffffffffffffffffffffffffffffffff168152602001908152602001600020819055506001339080600181540180825580915050600190039060005260206000200160009091909190916101000a81548173ffffffffffffffffffffffffffffffffffffffff021916908373ffffffffffffffffffffffffffffffffffffffff1602179055507f82d0829d9d481e4cb9913897f9b9c903271c4db68c7b3324071d2a7e3b2c5ff033604051611933919061215f565b60405180910390a15050565b6000806004600085815260200190815260200160002090503373ffffffffffffffffffffffffffffffffffffffff168160010160009054906101000a900473ffffffffffffffffffffffffffffffffffffffff1673ffffffffffffffffffffffffffffffffffffffff16146119e9576040517f08c379a00000000000000000000000000000000000000000000000000000000081526004016119e09061334c565b60405180910390fd5b600160028111156119fd576119fc61208a565b5b8160050160009054906101000a900460ff166002811115611a2157611a2061208a565b5b14611a61576040517f08c379a0000000000000000000000000000000000000000000000000000000008152600401611a58906133de565b60405180910390fd5b60028160050160006101000a81548160ff02191690836002811115611a8957611a8861208a565b5b02179055504281600601819055508215611b345760028160050160016101000a81548160ff02191690836002811115611ac557611ac461208a565b5b02179055508060020160009054906101000a900473ffffffffffffffffffffffffffffffffffffffff16600260006101000a81548173ffffffffffffffffffffffffffffffffffffffff021916908373ffffffffffffffffffffffffffffffffffffffff160217905550611b62565b60018160050160016101000a81548160ff02191690836002811115611b5c57611b5b61208a565b5b02179055505b7f31a3cf273cd0e82f8ddb4be15d4b954d7fcd18a4c5d4591cce32edd1a4bc417d84604051611b919190612c7b565b60405180910390a1600191505092915050565b6000806000806004600087815260200190815260200160002090508473ffffffffffffffffffffffffffffffffffffffff168160010160009054906101000a900473ffffffffffffffffffffffffffffffffffffffff1673ffffffffffffffffffffffffffffffffffffffff1614611c51576040517f08c379a0000000000000000000000000000000000000000000000000000000008152600401611c4890613470565b60405180910390fd5b60016002811115611c6557611c6461208a565b5b8160050160009054906101000a900460ff166002811115611c8957611c8861208a565b5b1480611d04575060008054906101000a900473ffffffffffffffffffffffffffffffffffffffff1673ffffffffffffffffffffffffffffffffffffffff168160010160009054906101000a900473ffffffffffffffffffffffffffffffffffffffff1673ffffffffffffffffffffffffffffffffffffffff16145b611d43576040517f08c379a0000000000000000000000000000000000000000000000000000000008152600401611d3a90613502565b60405180910390fd5b806003015481600401548260070160009054906101000a900463ffffffff16935093509350509250925092565b60008173ffffffffffffffffffffffffffffffffffffffff16600260009054906101000a900473ffffffffffffffffffffffffffffffffffffffff1673ffffffffffffffffffffffffffffffffffffffff1614611df157600260009054906101000a900473ffffffffffffffffffffffffffffffffffffffff169050611e15565b60008054906101000a900473ffffffffffffffffffffffffffffffffffffffff1690505b919050565b508054611e2690612e55565b6000825580601f10611e385750611e57565b601f016020900490600052602060002090810190611e569190611e5a565b5b50565b5b80821115611e73576000816000905550600101611e5b565b5090565b6000604051905090565b600080fd5b600080fd5b6000819050919050565b611e9e81611e8b565b8114611ea957600080fd5b50565b600081359050611ebb81611e95565b92915050565b600063ffffffff82169050919050565b611eda81611ec1565b8114611ee557600080fd5b50565b600081359050611ef781611ed1565b92915050565b600080600060608486031215611f1657611f15611e81565b5b6000611f2486828701611eac565b9350506020611f3586828701611eac565b9250506040611f4686828701611ee8565b9150509250925092565b611f5981611ec1565b82525050565b6000602082019050611f746000830184611f50565b92915050565b600073ffffffffffffffffffffffffffffffffffffffff82169050919050565b6000611fa582611f7a565b9050919050565b611fb581611f9a565b8114611fc057600080fd5b50565b600081359050611fd281611fac565b92915050565b60008060408385031215611fef57611fee611e81565b5b6000611ffd85828601611eac565b925050602061200e85828601611fc3565b9150509250929050565b60008115159050919050565b61202d81612018565b82525050565b60006020820190506120486000830184612024565b92915050565b60006020828403121561206457612063611e81565b5b600061207284828501611eac565b91505092915050565b61208481611f9a565b82525050565b7f4e487b7100000000000000000000000000000000000000000000000000000000600052602160045260246000fd5b600381106120ca576120c961208a565b5b50565b60008190506120db826120b9565b919050565b60006120eb826120cd565b9050919050565b6120fb816120e0565b82525050565b6000819050919050565b61211481612101565b82525050565b600060808201905061212f600083018761207b565b61213c602083018661207b565b61214960408301856120f2565b612156606083018461210b565b95945050505050565b6000602082019050612174600083018461207b565b92915050565b600081519050919050565b600082825260208201905092915050565b6000819050602082019050919050565b6121af81611e8b565b82525050565b60006121c183836121a6565b60208301905092915050565b6000602082019050919050565b60006121e58261217a565b6121ef8185612185565b93506121fa83612196565b8060005b8381101561222b57815161221288826121b5565b975061221d836121cd565b9250506001810190506121fe565b5085935050505092915050565b6000602082019050818103600083015261225281846121da565b905092915050565b6000806040838503121561227157612270611e81565b5b600061227f85828601611eac565b925050602061229085828601611eac565b9150509250929050565b600381106122ab576122aa61208a565b5b50565b60008190506122bc8261229a565b919050565b60006122cc826122ae565b9050919050565b6122dc816122c1565b82525050565b60006020820190506122f760008301846122d3565b92915050565b6000806040838503121561231457612313611e81565b5b600061232285828601611fc3565b925050602061233385828601611fc3565b9150509250929050565b600081519050919050565b600082825260208201905092915050565b60005b8381101561237757808201518184015260208101905061235c565b60008484015250505050565b6000601f19601f8301169050919050565b600061239f8261233d565b6123a98185612348565b93506123b9818560208601612359565b6123c281612383565b840191505092915050565b600060608201905081810360008301526123e78186612394565b90506123f66020830185612024565b818103604083015261240881846121da565b9050949350505050565b60006020828403121561242857612427611e81565b5b600061243684828501611fc3565b91505092915050565b61244881612018565b811461245357600080fd5b50565b6000813590506124658161243f565b92915050565b6000806040838503121561248257612481611e81565b5b600061249085828601611eac565b92505060206124a185828601612456565b9150509250929050565b600080fd5b600080fd5b7f4e487b7100000000000000000000000000000000000000000000000000000000600052604160045260246000fd5b6124ed82612383565b810181811067ffffffffffffffff8211171561250c5761250b6124b5565b5b80604052505050565b600061251f611e77565b905061252b82826124e4565b919050565b600067ffffffffffffffff82111561254b5761254a6124b5565b5b61255482612383565b9050602081019050919050565b82818337600083830152505050565b600061258361257e84612530565b612515565b90508281526020810184848401111561259f5761259e6124b0565b5b6125aa848285612561565b509392505050565b600082601f8301126125c7576125c66124ab565b5b81356125d7848260208601612570565b91505092915050565b6000602082840312156125f6576125f5611e81565b5b600082013567ffffffffffffffff81111561261457612613611e86565b5b612620848285016125b2565b91505092915050565b61263281611e8b565b82525050565b600060608201905061264d6000830186612629565b61265a6020830185612629565b6126676040830184611f50565b949350505050565b7f52656d6f76654167656e74203a204167656e74206973206e6f7420726567697360008201527f7465726564000000000000000000000000000000000000000000000000000000602082015250565b60006126cb602583612348565b91506126d68261266f565b604082019050919050565b600060208201905081810360008301526126fa816126be565b9050919050565b7f4e487b7100000000000000000000000000000000000000000000000000000000600052601160045260246000fd5b600061273b82612101565b915061274683612101565b925082820390508181111561275e5761275d612701565b5b92915050565b7f4e487b7100000000000000000000000000000000000000000000000000000000600052603260045260246000fd5b7f4e487b7100000000000000000000000000000000000000000000000000000000600052603160045260246000fd5b7f53656e6445766964656e6365203a204167656e74206973206e6f74207265676960008201527f7374657265640000000000000000000000000000000000000000000000000000602082015250565b600061281e602683612348565b9150612829826127c2565b604082019050919050565b6000602082019050818103600083015261284d81612811565b9050919050565b7f53656e6445766964656e6365203a2069746572436f756e74206f7574206f662060008201527f72616e6765000000000000000000000000000000000000000000000000000000602082015250565b60006128b0602583612348565b91506128bb82612854565b604082019050919050565b600060208201905081810360008301526128df816128a3565b9050919050565b60006040820190506128fb6000830185612629565b6129086020830184611f50565b9392505050565b7f4174746573746174696f6e2070726f6365737320697320636c6f736564206f7260008201527f206e6f7420657869737473000000000000000000000000000000000000000000602082015250565b600061296b602b83612348565b91506129768261290f565b604082019050919050565b6000602082019050818103600083015261299a8161295e565b9050919050565b7f4174746573746174696f6e2070726f63657373206973206e6f7420636c6f736560008201527f6400000000000000000000000000000000000000000000000000000000000000602082015250565b60006129fd602183612348565b9150612a08826129a1565b604082019050919050565b60006020820190508181036000830152612a2c816129f0565b9050919050565b7f4f6e6c7920746865205345436161532063616e2072657365742074686520636860008201527f61696e0000000000000000000000000000000000000000000000000000000000602082015250565b6000612a8f602383612348565b9150612a9a82612a33565b604082019050919050565b60006020820190508181036000830152612abe81612a82565b9050919050565b7f4f6e6c7920746865205345436161532063616e2071756572792074686520637560008201527f7272656e74207665726966696572000000000000000000000000000000000000602082015250565b6000612b21602e83612348565b9150612b2c82612ac5565b604082019050919050565b60006020820190508181036000830152612b5081612b14565b9050919050565b7f4f6e6c7920746865205345436161532063616e2073656e64207468652072656660008201527f6572656e6365207369676e617475726500000000000000000000000000000000602082015250565b6000612bb3603083612348565b9150612bbe82612b57565b604082019050919050565b60006020820190508181036000830152612be281612ba6565b9050919050565b7f496e76616c696420737461746520666f722053454361615320726573706f6e7360008201527f6500000000000000000000000000000000000000000000000000000000000000602082015250565b6000612c45602183612348565b9150612c5082612be9565b604082019050919050565b60006020820190508181036000830152612c7481612c38565b9050919050565b6000602082019050612c906000830184612629565b92915050565b7f596f7520617265206e6f7420746865205345436161532e000000000000000000600082015250565b6000612ccc601783612348565b9150612cd782612c96565b602082019050919050565b60006020820190508181036000830152612cfb81612cbf565b9050919050565b7f4174746573746174696f6e20697320636c6f736564206f72206e6f742065786960008201527f7374730000000000000000000000000000000000000000000000000000000000602082015250565b6000612d5e602383612348565b9150612d6982612d02565b604082019050919050565b60006020820190508181036000830152612d8d81612d51565b9050919050565b7f4765744167656e74496e666f203a204167656e74206973206e6f74207265676960008201527f7374657265640000000000000000000000000000000000000000000000000000602082015250565b6000612df0602683612348565b9150612dfb82612d94565b604082019050919050565b60006020820190508181036000830152612e1f81612de3565b9050919050565b7f4e487b7100000000000000000000000000000000000000000000000000000000600052602260045260246000fd5b60006002820490506001821680612e6d57607f821691505b602082108103612e8057612e7f612e26565b5b50919050565b7f4f6e6c7920746865205345436161532063616e207265736f6c7665206174746560008201527f73746174696f6e73000000000000000000000000000000000000000000000000602082015250565b6000612ee2602883612348565b9150612eed82612e86565b604082019050919050565b60006020820190508181036000830152612f1181612ed5565b9050919050565b7f4e6f7420696e204f70656e207374617465000000000000000000000000000000600082015250565b6000612f4e601183612348565b9150612f5982612f18565b602082019050919050565b60006020820190508181036000830152612f7d81612f41565b9050919050565b7f534543616153206e6f7420656c65637465642061732076657269666965720000600082015250565b6000612fba601e83612348565b9150612fc582612f84565b602082019050919050565b60006020820190508181036000830152612fe981612fad565b9050919050565b7f4e616d65206973206e6f742076616c6964000000000000000000000000000000600082015250565b6000613026601183612348565b915061303182612ff0565b602082019050919050565b6000602082019050818103600083015261305581613019565b9050919050565b60008190508160005260206000209050919050565b60006020601f8301049050919050565b600082821b905092915050565b6000600883026130be7fffffffffffffffffffffffffffffffffffffffffffffffffffffffffffffffff82613081565b6130c88683613081565b95508019841693508086168417925050509392505050565b6000819050919050565b60006131056131006130fb84612101565b6130e0565b612101565b9050919050565b6000819050919050565b61311f836130ea565b61313361312b8261310c565b84845461308e565b825550505050565b600090565b61314861313b565b613153818484613116565b505050565b5b818110156131775761316c600082613140565b600181019050613159565b5050565b601f8211156131bc5761318d8161305c565b61319684613071565b810160208510156131a5578190505b6131b96131b185613071565b830182613158565b50505b505050565b600082821c905092915050565b60006131df600019846008026131c1565b1980831691505092915050565b60006131f883836131ce565b9150826002028217905092915050565b6132118261233d565b67ffffffffffffffff81111561322a576132296124b5565b5b6132348254612e55565b61323f82828561317b565b600060209050601f8311600181146132725760008415613260578287015190505b61326a85826131ec565b8655506132d2565b601f1984166132808661305c565b60005b828110156132a857848901518255600182019150602085019450602081019050613283565b868310156132c557848901516132c1601f8916826131ce565b8355505b6001600288020188555050505b505050505050565b7f4f6e6c79207468652076657269666965722063616e20636c6f7365207468652060008201527f6174746573746174696f6e2070726f6365737300000000000000000000000000602082015250565b6000613336603383612348565b9150613341826132da565b604082019050919050565b6000602082019050818103600083015261336581613329565b9050919050565b7f4174746573746174696f6e206973206e6f7420726561647920666f7220636c6f60008201527f7375726500000000000000000000000000000000000000000000000000000000602082015250565b60006133c8602483612348565b91506133d38261336c565b604082019050919050565b600060208201905081810360008301526133f7816133bb565b9050919050565b7f4f6e6c79207468652076657269666965722063616e207265747269657665207460008201527f6865207369676e61747572657300000000000000000000000000000000000000602082015250565b600061345a602d83612348565b9150613465826133fe565b604082019050919050565b600060208201905081810360008301526134898161344d565b9050919050565b7f4174746573746174696f6e206e6f7420726561647920666f72206576616c756160008201527f74696f6e00000000000000000000000000000000000000000000000000000000602082015250565b60006134ec602483612348565b91506134f782613490565b604082019050919050565b6000602082019050818103600083015261351b816134df565b905091905056fea26469706673582212208036bd58a01b13e0a9a719f200d2bc34258c7bc049f0179eb0c8589bce78a22c64736f6c634300081c0033",
  "linkReferences": {},
  "deployedLinkReferences": {}
}