{
  "_format": "hh-sol-artifact-1",
  "contractName": "AttestationManagerOptimized",
  "sourceName": "contracts/AttestationManagerOptimized.sol",
  "abi": [
    {
      "inputs": [
        {
          "internalType": "uint256",
          "name": "_vrp",
          "type": "uint256"
        }
      ],
      "stateMutability": "nonpayable",
      "type": "constructor"
    },
    {
      "anonymous": false,
      "inputs": [
        {
          "indexed": false,
          "internalType": "address",
          "name": "agent",
          "type": "address"
        }
      ],
      "name": "AgentRegistered",
      "type": "event"
    },
    {
      "anonymous": false,
      "inputs": [
        {
          "indexed": false,
          "internalType": "address",
          "name": "agent",
          "type": "address"
        }
      ],
      "name": "AgentRemoved",
      "type": "event"
    },
    {
      "anonymous": false,
      "inputs": [
        {
          "indexed": true,
          "internalType": "bytes32",
          "name": "id",
          "type": "bytes32"
        },
        {
          "indexed": false,
          "internalType": "bool",
          "name": "verified",
          "type": "bool"
        }
      ],
      "name": "AttestationCompleted",
      "type": "event"
    },
    {
      "anonymous": false,
      "inputs": [
        {
          "indexed": false,
          "internalType": "bytes32",
          "name": "id",
          "type": "bytes32"
        },
        {
          "indexed": false,
          "internalType": "uint32",
          "name": "iterCount",
          "type": "uint32"
        }
      ],
      "name": "AttestationStarted",
      "type": "event"
    },
    {
      "anonymous": false,
      "inputs": [],
      "name": "ChainReset",
      "type": "event"
    },
    {
      "anonymous": false,
      "inputs": [
        {
          "indexed": false,
          "internalType": "bytes32",
          "name": "id",
          "type": "bytes32"
        }
      ],
      "name": "ReadyForEvaluation",
      "type": "event"
    },
    {
      "anonymous": false,
      "inputs": [
        {
          "indexed": true,
          "internalType": "address",
          "name": "newVerifier",
          "type": "address"
        }
      ],
      "name": "VerifierRotated",
      "type": "event"
    },
    {
      "inputs": [
        {
          "internalType": "bytes32",
          "name": "id",
          "type": "bytes32"
        },
        {
          "internalType": "bool",
          "name": "verified",
          "type": "bool"
        }
      ],
      "name": "CloseAttestationProcess",
      "outputs": [
        {
          "internalType": "bool",
          "name": "",
          "type": "bool"
        }
      ],
      "stateMutability": "nonpayable",
      "type": "function"
    },
    {
      "inputs": [
        {
          "internalType": "address",
          "name": "agentAddress",
          "type": "address"
        },
        {
          "internalType": "address",
          "name": "callAddress",
          "type": "address"
        }
      ],
      "name": "GetAgentInfo",
      "outputs": [
        {
          "internalType": "string",
          "name": "",
          "type": "string"
        },
        {
          "internalType": "bool",
          "name": "",
          "type": "bool"
        }
      ],
      "stateMutability": "view",
      "type": "function"
    },
    {
      "inputs": [
        {
          "internalType": "bytes32",
          "name": "id",
          "type": "bytes32"
        }
      ],
      "name": "GetAttestationInfo",
      "outputs": [
        {
          "internalType": "address",
          "name": "",
          "type": "address"
        },
        {
          "internalType": "address",
          "name": "",
          "type": "address"
        },
        {
          "internalType": "enum AttestationManagerOptimized.AttestationResult",
          "name": "",
          "type": "uint8"
        },
        {
          "internalType": "uint256",
          "name": "",
          "type": "uint256"
        }
      ],
      "stateMutability": "view",
      "type": "function"
    },
    {
      "inputs": [
        {
          "internalType": "bytes32",
          "name": "id",
          "type": "bytes32"
        },
        {
          "internalType": "address",
          "name": "callAddress",
          "type": "address"
        }
      ],
      "name": "GetAttestationSignatures",
      "outputs": [
        {
          "internalType": "bytes32",
          "name": "",
          "type": "bytes32"
        },
        {
          "internalType": "bytes32",
          "name": "",
          "type": "bytes32"
        },
        {
          "internalType": "uint32",
          "name": "",
          "type": "uint32"
        }
      ],
      "stateMutability": "view",
      "type": "function"
    },
    {
      "inputs": [
        {
          "internalType": "bytes32",
          "name": "id",
          "type": "bytes32"
        }
      ],
      "name": "GetAttestationState",
      "outputs": [
        {
          "internalType": "enum AttestationManagerOptimized.AttestationState",
          "name": "",
          "type": "uint8"
        }
      ],
      "stateMutability": "view",
      "type": "function"
    },
    {
      "inputs": [],
      "name": "GetCurrentVerifier",
      "outputs": [
        {
          "internalType": "address",
          "name": "",
          "type": "address"
        }
      ],
      "stateMutability": "view",
      "type": "function"
    },
    {
      "inputs": [
        {
          "internalType": "bytes32",
          "name": "id",
          "type": "bytes32"
        },
        {
          "internalType": "address",
          "name": "callAddress",
          "type": "address"
        }
      ],
      "name": "GetProverAddress",
      "outputs": [
        {
          "internalType": "address",
          "name": "",
          "type": "address"
        }
      ],
      "stateMutability": "view",
      "type": "function"
    },
    {
      "inputs": [],
      "name": "GetVRP",
      "outputs": [
        {
          "internalType": "uint256",
          "name": "",
          "type": "uint256"
        }
      ],
      "stateMutability": "view",
      "type": "function"
    },
    {
      "inputs": [
        {
          "internalType": "bytes32",
          "name": "id",
          "type": "bytes32"
        },
        {
          "internalType": "address",
          "name": "callAddress",
          "type": "address"
        }
      ],
      "name": "IsProver",
      "outputs": [
        {
          "internalType": "bool",
          "name": "",
          "type": "bool"
        }
      ],
      "stateMutability": "view",
      "type": "function"
    },
    {
      "inputs": [
        {
          "internalType": "address",
          "name": "callAddress",
          "type": "address"
        }
      ],
      "name": "IsRegistered",
      "outputs": [
        {
          "internalType": "bool",
          "name": "",
          "type": "bool"
        }
      ],
      "stateMutability": "view",
      "type": "function"
    },
    {
      "inputs": [
        {
          "internalType": "bytes32",
          "name": "id",
          "type": "bytes32"
        },
        {
          "internalType": "address",
          "name": "callAddress",
          "type": "address"
        }
      ],
      "name": "IsVerifier",
      "outputs": [
        {
          "internalType": "bool",
          "name": "",
          "type": "bool"
        }
      ],
      "stateMutability": "view",
      "type": "function"
    },
    {
      "inputs": [],
      "name": "MAX_ITER_COUNT",
      "outputs": [
        {
          "internalType": "uint32",
          "name": "",
          "type": "uint32"
        }
      ],
      "stateMutability": "view",
      "type": "function"
    },
    {
      "inputs": [
        {
          "internalType": "string",
          "name": "name",
          "type": "string"
        }
      ],
      "name": "RegisterAgent",
      "outputs": [],
      "stateMutability": "nonpayable",
      "type": "function"
    },
    {
      "inputs": [],
      "name": "RemoveAgent",
      "outputs": [],
      "stateMutability": "nonpayable",
      "type": "function"
    },
    {
      "inputs": [],
      "name": "ResetChain",
      "outputs": [],
      "stateMutability": "nonpayable",
      "type": "function"
    },
    {
      "inputs": [
        {
          "internalType": "bytes32",
          "name": "id",
          "type": "bytes32"
        },
        {
          "internalType": "bool",
          "name": "verified",
          "type": "bool"
        }
      ],
      "name": "ResolveAttestationSECaaS",
      "outputs": [],
      "stateMutability": "nonpayable",
      "type": "function"
    },
    {
      "inputs": [
        {
          "internalType": "bytes32",
          "name": "id",
          "type": "bytes32"
        },
        {
          "internalType": "bytes32",
          "name": "freshMeasurement",
          "type": "bytes32"
        },
        {
          "internalType": "uint32",
          "name": "iterCount",
          "type": "uint32"
        }
      ],
      "name": "SendEvidence",
      "outputs": [],
      "stateMutability": "nonpayable",
      "type": "function"
    },
    {
      "inputs": [
        {
          "internalType": "bytes32",
          "name": "id",
          "type": "bytes32"
        },
        {
          "internalType": "bytes32",
          "name": "refMeasurement",
          "type": "bytes32"
        }
      ],
      "name": "SendRefSignature",
      "outputs": [
        {
          "internalType": "bool",
          "name": "",
          "type": "bool"
        }
      ],
      "stateMutability": "nonpayable",
      "type": "function"
    }
  ],
  "bytecode": "0x608060405234801561001057600080fd5b506040516137dd3803806137dd8339818101604052810190610032919061021c565b336000806101000a81548173ffffffffffffffffffffffffffffffffffffffff021916908373ffffffffffffffffffffffffffffffffffffffff160217905550600160008054906101000a900473ffffffffffffffffffffffffffffffffffffffff169080600181540180825580915050600190039060005260206000200160009091909190916101000a81548173ffffffffffffffffffffffffffffffffffffffff021916908373ffffffffffffffffffffffffffffffffffffffff1602179055506000600760008060009054906101000a900473ffffffffffffffffffffffffffffffffffffffff1673ffffffffffffffffffffffffffffffffffffffff1673ffffffffffffffffffffffffffffffffffffffff1681526020019081526020016000208190555060008114610169578061016c565b60015b60028190555060008054906101000a900473ffffffffffffffffffffffffffffffffffffffff16600360006101000a81548173ffffffffffffffffffffffffffffffffffffffff021916908373ffffffffffffffffffffffffffffffffffffffff160217905550600060048190555050610249565b600080fd5b6000819050919050565b6101f9816101e6565b811461020457600080fd5b50565b600081519050610216816101f0565b92915050565b600060208284031215610232576102316101e1565b5b600061024084828501610207565b91505092915050565b613585806102586000396000f3fe608060405234801561001057600080fd5b50600436106101165760003560e01c8063b46ca81a116100a2578063c224122d11610071578063c224122d146102f9578063c2694a0414610329578063c984f8db14610345578063cb2a034814610361578063e1a94c831461039157610116565b8063b46ca81a1461024a578063b8df8f981461027a578063bb7b8c0c146102aa578063bc1a097e146102c857610116565b80635f3d4220116100e95780635f3d42201461018f57806378caad49146101c25780637cb98689146101cc578063986bed88146101ea5780639cb65fa11461021a57610116565b80631d995a0e1461011b5780632e44aacd14610125578063357baf8c14610141578063395d719b1461015f575b600080fd5b6101236103c3565b005b61013f600480360381019061013a919061204e565b610779565b005b6101496109fb565b60405161015691906120b0565b60405180910390f35b61017960048036038101906101749190612129565b610a01565b6040516101869190612184565b60405180910390f35b6101a960048036038101906101a4919061219f565b610aec565b6040516101b9949392919061226b565b60405180910390f35b6101ca610bf1565b005b6101d4610d16565b6040516101e191906122b0565b60405180910390f35b61020460048036038101906101ff91906122cb565b610d40565b6040516102119190612184565b60405180910390f35b610234600480360381019061022f9190612129565b610ed8565b60405161024191906122b0565b60405180910390f35b610264600480360381019061025f9190612129565b611026565b6040516102719190612184565b60405180910390f35b610294600480360381019061028f919061219f565b611111565b6040516102a19190612353565b60405180910390f35b6102b261113e565b6040516102bf919061236e565b60405180910390f35b6102e260048036038101906102dd9190612389565b611148565b6040516102f0929190612459565b60405180910390f35b610313600480360381019061030e9190612489565b611327565b6040516103209190612184565b60405180910390f35b610343600480360381019061033e91906124e2565b611380565b005b61035f600480360381019061035a9190612657565b611778565b005b61037b600480360381019061037691906124e2565b611915565b6040516103889190612184565b60405180910390f35b6103ab60048036038101906103a69190612129565b611c66565b6040516103ba939291906126af565b60405180910390f35b6000600560003373ffffffffffffffffffffffffffffffffffffffff1673ffffffffffffffffffffffffffffffffffffffff16815260200190815260200160002090508060010160009054906101000a900460ff16610457576040517f08c379a000000000000000000000000000000000000000000000000000000000815260040161044e90612758565b60405180910390fd5b600360009054906101000a900473ffffffffffffffffffffffffffffffffffffffff1673ffffffffffffffffffffffffffffffffffffffff163373ffffffffffffffffffffffffffffffffffffffff16036105165760008054906101000a900473ffffffffffffffffffffffffffffffffffffffff16600360006101000a81548173ffffffffffffffffffffffffffffffffffffffff021916908373ffffffffffffffffffffffffffffffffffffffff16021790555060006004819055505b6000600760003373ffffffffffffffffffffffffffffffffffffffff1673ffffffffffffffffffffffffffffffffffffffff1681526020019081526020016000205490506000600180808054905061056e91906127a7565b8154811061057f5761057e6127db565b5b9060005260206000200160009054906101000a900473ffffffffffffffffffffffffffffffffffffffff16905080600183815481106105c1576105c06127db565b5b9060005260206000200160006101000a81548173ffffffffffffffffffffffffffffffffffffffff021916908373ffffffffffffffffffffffffffffffffffffffff16021790555081600760008373ffffffffffffffffffffffffffffffffffffffff1673ffffffffffffffffffffffffffffffffffffffff16815260200190815260200160002081905550600180548061065f5761065e61280a565b5b6001900381819060005260206000200160006101000a81549073ffffffffffffffffffffffffffffffffffffffff02191690559055600760003373ffffffffffffffffffffffffffffffffffffffff1673ffffffffffffffffffffffffffffffffffffffff16815260200190815260200160002060009055600560003373ffffffffffffffffffffffffffffffffffffffff1673ffffffffffffffffffffffffffffffffffffffff168152602001908152602001600020600080820160006107279190611f6b565b6001820160006101000a81549060ff021916905550507fed9c8ad8d5a0a66898ea49d2956929c93ae2e8bd50281b2ed897c5d1a6737e0b3360405161076c91906122b0565b60405180910390a1505050565b6000600560003373ffffffffffffffffffffffffffffffffffffffff1673ffffffffffffffffffffffffffffffffffffffff16815260200190815260200160002090508060010160009054906101000a900460ff1661080d576040517f08c379a0000000000000000000000000000000000000000000000000000000008152600401610804906128ab565b60405180910390fd5b60018263ffffffff1610158015610832575061271063ffffffff168263ffffffff1611155b610871576040517f08c379a00000000000000000000000000000000000000000000000000000000081526004016108689061293d565b60405180910390fd5b600060066000868152602001908152602001600020905084816000018190555061089a33611e32565b8160010160006101000a81548173ffffffffffffffffffffffffffffffffffffffff021916908373ffffffffffffffffffffffffffffffffffffffff160217905550338160020160006101000a81548173ffffffffffffffffffffffffffffffffffffffff021916908373ffffffffffffffffffffffffffffffffffffffff1602179055508381600301819055506000801b816004018190555060008160050160006101000a81548160ff0219169083600281111561095c5761095b6121db565b5b021790555060008160050160016101000a81548160ff02191690836002811115610989576109886121db565b5b021790555060008160060181905550828160070160006101000a81548163ffffffff021916908363ffffffff1602179055507f6aa34f034d08ce6962560c4805f8d0ea14020343310408c935a7354c772f2d3885846040516109ec92919061295d565b60405180910390a15050505050565b61271081565b600080600660008581526020019081526020016000209050600280811115610a2c57610a2b6121db565b5b8160050160009054906101000a900460ff166002811115610a5057610a4f6121db565b5b03610a90576040517f08c379a0000000000000000000000000000000000000000000000000000000008152600401610a87906129f8565b60405180910390fd5b8273ffffffffffffffffffffffffffffffffffffffff168160020160009054906101000a900473ffffffffffffffffffffffffffffffffffffffff1673ffffffffffffffffffffffffffffffffffffffff161491505092915050565b6000806000806000600660008781526020019081526020016000209050600280811115610b1c57610b1b6121db565b5b8160050160009054906101000a900460ff166002811115610b4057610b3f6121db565b5b14610b80576040517f08c379a0000000000000000000000000000000000000000000000000000000008152600401610b7790612a8a565b60405180910390fd5b8060020160009054906101000a900473ffffffffffffffffffffffffffffffffffffffff168160010160009054906101000a900473ffffffffffffffffffffffffffffffffffffffff168260050160019054906101000a900460ff1683600601549450945094509450509193509193565b60008054906101000a900473ffffffffffffffffffffffffffffffffffffffff1673ffffffffffffffffffffffffffffffffffffffff163373ffffffffffffffffffffffffffffffffffffffff1614610c7f576040517f08c379a0000000000000000000000000000000000000000000000000000000008152600401610c7690612b1c565b60405180910390fd5b60008054906101000a900473ffffffffffffffffffffffffffffffffffffffff16600360006101000a81548173ffffffffffffffffffffffffffffffffffffffff021916908373ffffffffffffffffffffffffffffffffffffffff16021790555060006004819055507f8e1dda8e7ca889ef4bd70f2ff6dd48a9b896b1d89703a08b6385333045af148960405160405180910390a1565b6000600360009054906101000a900473ffffffffffffffffffffffffffffffffffffffff16905090565b60008060009054906101000a900473ffffffffffffffffffffffffffffffffffffffff1673ffffffffffffffffffffffffffffffffffffffff163373ffffffffffffffffffffffffffffffffffffffff1614610dd1576040517f08c379a0000000000000000000000000000000000000000000000000000000008152600401610dc890612bae565b60405180910390fd5b600060066000858152602001908152602001600020905060006002811115610dfc57610dfb6121db565b5b8160050160009054906101000a900460ff166002811115610e2057610e1f6121db565b5b14610e60576040517f08c379a0000000000000000000000000000000000000000000000000000000008152600401610e5790612c40565b60405180910390fd5b82816004018190555060018160050160006101000a81548160ff02191690836002811115610e9157610e906121db565b5b02179055507f6781e8d3c07e87e938ec28a5435aa7862779fb9c7d01b7315eca91430b2a464384604051610ec59190612c60565b60405180910390a1600191505092915050565b60008060009054906101000a900473ffffffffffffffffffffffffffffffffffffffff1673ffffffffffffffffffffffffffffffffffffffff168273ffffffffffffffffffffffffffffffffffffffff1614610f69576040517f08c379a0000000000000000000000000000000000000000000000000000000008152600401610f6090612cc7565b60405180910390fd5b600060066000858152602001908152602001600020905060006002811115610f9457610f936121db565b5b8160050160009054906101000a900460ff166002811115610fb857610fb76121db565b5b14610ff8576040517f08c379a0000000000000000000000000000000000000000000000000000000008152600401610fef90612d59565b60405180910390fd5b8060020160009054906101000a900473ffffffffffffffffffffffffffffffffffffffff1691505092915050565b600080600660008581526020019081526020016000209050600280811115611051576110506121db565b5b8160050160009054906101000a900460ff166002811115611075576110746121db565b5b036110b5576040517f08c379a00000000000000000000000000000000000000000000000000000000081526004016110ac906129f8565b60405180910390fd5b8273ffffffffffffffffffffffffffffffffffffffff168160010160009054906101000a900473ffffffffffffffffffffffffffffffffffffffff1673ffffffffffffffffffffffffffffffffffffffff161491505092915050565b60006006600083815260200190815260200160002060050160009054906101000a900460ff169050919050565b6000600254905090565b6060600080600560008573ffffffffffffffffffffffffffffffffffffffff1673ffffffffffffffffffffffffffffffffffffffff16815260200190815260200160002090506000600560008773ffffffffffffffffffffffffffffffffffffffff1673ffffffffffffffffffffffffffffffffffffffff16815260200190815260200160002090508160010160009054906101000a900460ff1680611239575060008054906101000a900473ffffffffffffffffffffffffffffffffffffffff1673ffffffffffffffffffffffffffffffffffffffff168573ffffffffffffffffffffffffffffffffffffffff16145b611278576040517f08c379a000000000000000000000000000000000000000000000000000000000815260040161126f90612deb565b60405180910390fd5b806000018160010160009054906101000a900460ff1681805461129a90612e3a565b80601f01602080910402602001604051908101604052809291908181526020018280546112c690612e3a565b80156113135780601f106112e857610100808354040283529160200191611313565b820191906000526020600020905b8154815290600101906020018083116112f657829003601f168201915b505050505091509350935050509250929050565b6000600560008373ffffffffffffffffffffffffffffffffffffffff1673ffffffffffffffffffffffffffffffffffffffff16815260200190815260200160002060010160009054906101000a900460ff169050919050565b60008054906101000a900473ffffffffffffffffffffffffffffffffffffffff1673ffffffffffffffffffffffffffffffffffffffff163373ffffffffffffffffffffffffffffffffffffffff161461140e576040517f08c379a000000000000000000000000000000000000000000000000000000000815260040161140590612edd565b60405180910390fd5b600060066000848152602001908152602001600020905060006002811115611439576114386121db565b5b8160050160009054906101000a900460ff16600281111561145d5761145c6121db565b5b1461149d576040517f08c379a000000000000000000000000000000000000000000000000000000000815260040161149490612f49565b60405180910390fd5b60008054906101000a900473ffffffffffffffffffffffffffffffffffffffff1673ffffffffffffffffffffffffffffffffffffffff168160010160009054906101000a900473ffffffffffffffffffffffffffffffffffffffff1673ffffffffffffffffffffffffffffffffffffffff161461154f576040517f08c379a000000000000000000000000000000000000000000000000000000000815260040161154690612fb5565b60405180910390fd5b6004600081548092919061156290612fd5565b9190505550600060025460045410159050600083158061157f5750815b905060008461158f576001611592565b60025b905081156116735760008460020160009054906101000a900473ffffffffffffffffffffffffffffffffffffffff16905060028560050160006101000a81548160ff021916908360028111156115eb576115ea6121db565b5b0217905550428560060181905550818560050160016101000a81548160ff021916908360028111156116205761161f6121db565b5b0217905550867f02d0717bc91617bee67bd08dfacab8f3b5e93100bd242984d1e60ce2758ea475876040516116559190612184565b60405180910390a2831561166d5761166c81611edc565b5b50611770565b600660008781526020019081526020016000206000808201600090556001820160006101000a81549073ffffffffffffffffffffffffffffffffffffffff02191690556002820160006101000a81549073ffffffffffffffffffffffffffffffffffffffff0219169055600382016000905560048201600090556005820160006101000a81549060ff02191690556005820160016101000a81549060ff021916905560068201600090556007820160006101000a81549063ffffffff02191690555050857f02d0717bc91617bee67bd08dfacab8f3b5e93100bd242984d1e60ce2758ea47560016040516117679190612184565b60405180910390a25b505050505050565b60008151116117bc576040517f08c379a00000000000000000000000000000000000000000000000000000000081526004016117b390613069565b60405180910390fd5b6000600560003373ffffffffffffffffffffffffffffffffffffffff1673ffffffffffffffffffffffffffffffffffffffff1681526020019081526020016000209050818160000190816118109190613235565b5060018160010160006101000a81548160ff021916908315150217905550600180549050600760003373ffffffffffffffffffffffffffffffffffffffff1673ffffffffffffffffffffffffffffffffffffffff168152602001908152602001600020819055506001339080600181540180825580915050600190039060005260206000200160009091909190916101000a81548173ffffffffffffffffffffffffffffffffffffffff021916908373ffffffffffffffffffffffffffffffffffffffff1602179055507f82d0829d9d481e4cb9913897f9b9c903271c4db68c7b3324071d2a7e3b2c5ff03360405161190991906122b0565b60405180910390a15050565b6000806006600085815260200190815260200160002090503373ffffffffffffffffffffffffffffffffffffffff168160010160009054906101000a900473ffffffffffffffffffffffffffffffffffffffff1673ffffffffffffffffffffffffffffffffffffffff16146119bf576040517f08c379a00000000000000000000000000000000000000000000000000000000081526004016119b690613379565b60405180910390fd5b600160028111156119d3576119d26121db565b5b8160050160009054906101000a900460ff1660028111156119f7576119f66121db565b5b14611a37576040517f08c379a0000000000000000000000000000000000000000000000000000000008152600401611a2e9061340b565b60405180910390fd5b60046000815480929190611a4a90612fd5565b91905055506000600254600454101590506000841580611a675750815b9050600085611a77576001611a7a565b60025b90508115611b5b5760008460020160009054906101000a900473ffffffffffffffffffffffffffffffffffffffff16905060028560050160006101000a81548160ff02191690836002811115611ad357611ad26121db565b5b0217905550428560060181905550818560050160016101000a81548160ff02191690836002811115611b0857611b076121db565b5b0217905550877f02d0717bc91617bee67bd08dfacab8f3b5e93100bd242984d1e60ce2758ea47588604051611b3d9190612184565b60405180910390a28315611b5557611b5481611edc565b5b50611c58565b600660008881526020019081526020016000206000808201600090556001820160006101000a81549073ffffffffffffffffffffffffffffffffffffffff02191690556002820160006101000a81549073ffffffffffffffffffffffffffffffffffffffff0219169055600382016000905560048201600090556005820160006101000a81549060ff02191690556005820160016101000a81549060ff021916905560068201600090556007820160006101000a81549063ffffffff02191690555050867f02d0717bc91617bee67bd08dfacab8f3b5e93100bd242984d1e60ce2758ea4756001604051611c4f9190612184565b60405180910390a25b600194505050505092915050565b6000806000806006600087815260200190815260200160002090508473ffffffffffffffffffffffffffffffffffffffff168160010160009054906101000a900473ffffffffffffffffffffffffffffffffffffffff1673ffffffffffffffffffffffffffffffffffffffff1614611d13576040517f08c379a0000000000000000000000000000000000000000000000000000000008152600401611d0a9061349d565b60405180910390fd5b60016002811115611d2757611d266121db565b5b8160050160009054906101000a900460ff166002811115611d4b57611d4a6121db565b5b1480611dc6575060008054906101000a900473ffffffffffffffffffffffffffffffffffffffff1673ffffffffffffffffffffffffffffffffffffffff168160010160009054906101000a900473ffffffffffffffffffffffffffffffffffffffff1673ffffffffffffffffffffffffffffffffffffffff16145b611e05576040517f08c379a0000000000000000000000000000000000000000000000000000000008152600401611dfc9061352f565b60405180910390fd5b806003015481600401548260070160009054906101000a900463ffffffff16935093509350509250925092565b60008173ffffffffffffffffffffffffffffffffffffffff16600360009054906101000a900473ffffffffffffffffffffffffffffffffffffffff1673ffffffffffffffffffffffffffffffffffffffff1614611eb357600360009054906101000a900473ffffffffffffffffffffffffffffffffffffffff169050611ed7565b60008054906101000a900473ffffffffffffffffffffffffffffffffffffffff1690505b919050565b80600360006101000a81548173ffffffffffffffffffffffffffffffffffffffff021916908373ffffffffffffffffffffffffffffffffffffffff16021790555060006004819055508073ffffffffffffffffffffffffffffffffffffffff167ffcc2be04bc026cce0c24562eefa6383157a6bed7617873597fdd1bbcdeb2b76360405160405180910390a250565b508054611f7790612e3a565b6000825580601f10611f895750611fa8565b601f016020900490600052602060002090810190611fa79190611fab565b5b50565b5b80821115611fc4576000816000905550600101611fac565b5090565b6000604051905090565b600080fd5b600080fd5b6000819050919050565b611fef81611fdc565b8114611ffa57600080fd5b50565b60008135905061200c81611fe6565b92915050565b600063ffffffff82169050919050565b61202b81612012565b811461203657600080fd5b50565b60008135905061204881612022565b92915050565b60008060006060848603121561206757612066611fd2565b5b600061207586828701611ffd565b935050602061208686828701611ffd565b925050604061209786828701612039565b9150509250925092565b6120aa81612012565b82525050565b60006020820190506120c560008301846120a1565b92915050565b600073ffffffffffffffffffffffffffffffffffffffff82169050919050565b60006120f6826120cb565b9050919050565b612106816120eb565b811461211157600080fd5b50565b600081359050612123816120fd565b92915050565b600080604083850312156121405761213f611fd2565b5b600061214e85828601611ffd565b925050602061215f85828601612114565b9150509250929050565b60008115159050919050565b61217e81612169565b82525050565b60006020820190506121996000830184612175565b92915050565b6000602082840312156121b5576121b4611fd2565b5b60006121c384828501611ffd565b91505092915050565b6121d5816120eb565b82525050565b7f4e487b7100000000000000000000000000000000000000000000000000000000600052602160045260246000fd5b6003811061221b5761221a6121db565b5b50565b600081905061222c8261220a565b919050565b600061223c8261221e565b9050919050565b61224c81612231565b82525050565b6000819050919050565b61226581612252565b82525050565b600060808201905061228060008301876121cc565b61228d60208301866121cc565b61229a6040830185612243565b6122a7606083018461225c565b95945050505050565b60006020820190506122c560008301846121cc565b92915050565b600080604083850312156122e2576122e1611fd2565b5b60006122f085828601611ffd565b925050602061230185828601611ffd565b9150509250929050565b6003811061231c5761231b6121db565b5b50565b600081905061232d8261230b565b919050565b600061233d8261231f565b9050919050565b61234d81612332565b82525050565b60006020820190506123686000830184612344565b92915050565b6000602082019050612383600083018461225c565b92915050565b600080604083850312156123a05761239f611fd2565b5b60006123ae85828601612114565b92505060206123bf85828601612114565b9150509250929050565b600081519050919050565b600082825260208201905092915050565b60005b838110156124035780820151818401526020810190506123e8565b60008484015250505050565b6000601f19601f8301169050919050565b600061242b826123c9565b61243581856123d4565b93506124458185602086016123e5565b61244e8161240f565b840191505092915050565b600060408201905081810360008301526124738185612420565b90506124826020830184612175565b9392505050565b60006020828403121561249f5761249e611fd2565b5b60006124ad84828501612114565b91505092915050565b6124bf81612169565b81146124ca57600080fd5b50565b6000813590506124dc816124b6565b92915050565b600080604083850312156124f9576124f8611fd2565b5b600061250785828601611ffd565b9250506020612518858286016124cd565b9150509250929050565b600080fd5b600080fd5b7f4e487b7100000000000000000000000000000000000000000000000000000000600052604160045260246000fd5b6125648261240f565b810181811067ffffffffffffffff821117156125835761258261252c565b5b80604052505050565b6000612596611fc8565b90506125a2828261255b565b919050565b600067ffffffffffffffff8211156125c2576125c161252c565b5b6125cb8261240f565b9050602081019050919050565b82818337600083830152505050565b60006125fa6125f5846125a7565b61258c565b90508281526020810184848401111561261657612615612527565b5b6126218482856125d8565b509392505050565b600082601f83011261263e5761263d612522565b5b813561264e8482602086016125e7565b91505092915050565b60006020828403121561266d5761266c611fd2565b5b600082013567ffffffffffffffff81111561268b5761268a611fd7565b5b61269784828501612629565b91505092915050565b6126a981611fdc565b82525050565b60006060820190506126c460008301866126a0565b6126d160208301856126a0565b6126de60408301846120a1565b949350505050565b7f52656d6f76654167656e74203a204167656e74206973206e6f7420726567697360008201527f7465726564000000000000000000000000000000000000000000000000000000602082015250565b60006127426025836123d4565b915061274d826126e6565b604082019050919050565b6000602082019050818103600083015261277181612735565b9050919050565b7f4e487b7100000000000000000000000000000000000000000000000000000000600052601160045260246000fd5b60006127b282612252565b91506127bd83612252565b92508282039050818111156127d5576127d4612778565b5b92915050565b7f4e487b7100000000000000000000000000000000000000000000000000000000600052603260045260246000fd5b7f4e487b7100000000000000000000000000000000000000000000000000000000600052603160045260246000fd5b7f53656e6445766964656e6365203a204167656e74206973206e6f74207265676960008201527f7374657265640000000000000000000000000000000000000000000000000000602082015250565b60006128956026836123d4565b91506128a082612839565b604082019050919050565b600060208201905081810360008301526128c481612888565b9050919050565b7f53656e6445766964656e6365203a2069746572436f756e74206f7574206f662060008201527f72616e6765000000000000000000000000000000000000000000000000000000602082015250565b60006129276025836123d4565b9150612932826128cb565b604082019050919050565b600060208201905081810360008301526129568161291a565b9050919050565b600060408201905061297260008301856126a0565b61297f60208301846120a1565b9392505050565b7f4174746573746174696f6e2070726f6365737320697320636c6f736564206f7260008201527f206e6f7420657869737473000000000000000000000000000000000000000000602082015250565b60006129e2602b836123d4565b91506129ed82612986565b604082019050919050565b60006020820190508181036000830152612a11816129d5565b9050919050565b7f4174746573746174696f6e2070726f63657373206973206e6f7420636c6f736560008201527f6400000000000000000000000000000000000000000000000000000000000000602082015250565b6000612a746021836123d4565b9150612a7f82612a18565b604082019050919050565b60006020820190508181036000830152612aa381612a67565b9050919050565b7f4f6e6c7920746865205345436161532063616e2072657365742074686520636860008201527f61696e0000000000000000000000000000000000000000000000000000000000602082015250565b6000612b066023836123d4565b9150612b1182612aaa565b604082019050919050565b60006020820190508181036000830152612b3581612af9565b9050919050565b7f4f6e6c7920746865205345436161532063616e2073656e64207468652072656660008201527f6572656e6365207369676e617475726500000000000000000000000000000000602082015250565b6000612b986030836123d4565b9150612ba382612b3c565b604082019050919050565b60006020820190508181036000830152612bc781612b8b565b9050919050565b7f496e76616c696420737461746520666f722053454361615320726573706f6e7360008201527f6500000000000000000000000000000000000000000000000000000000000000602082015250565b6000612c2a6021836123d4565b9150612c3582612bce565b604082019050919050565b60006020820190508181036000830152612c5981612c1d565b9050919050565b6000602082019050612c7560008301846126a0565b92915050565b7f596f7520617265206e6f7420746865205345436161532e000000000000000000600082015250565b6000612cb16017836123d4565b9150612cbc82612c7b565b602082019050919050565b60006020820190508181036000830152612ce081612ca4565b9050919050565b7f4174746573746174696f6e20697320636c6f736564206f72206e6f742065786960008201527f7374730000000000000000000000000000000000000000000000000000000000602082015250565b6000612d436023836123d4565b9150612d4e82612ce7565b604082019050919050565b60006020820190508181036000830152612d7281612d36565b9050919050565b7f4765744167656e74496e666f203a204167656e74206973206e6f74207265676960008201527f7374657265640000000000000000000000000000000000000000000000000000602082015250565b6000612dd56026836123d4565b9150612de082612d79565b604082019050919050565b60006020820190508181036000830152612e0481612dc8565b9050919050565b7f4e487b7100000000000000000000000000000000000000000000000000000000600052602260045260246000fd5b60006002820490506001821680612e5257607f821691505b602082108103612e6557612e64612e0b565b5b50919050565b7f4f6e6c7920746865205345436161532063616e207265736f6c7665206174746560008201527f73746174696f6e73000000000000000000000000000000000000000000000000602082015250565b6000612ec76028836123d4565b9150612ed282612e6b565b604082019050919050565b60006020820190508181036000830152612ef681612eba565b9050919050565b7f4e6f7420696e204f70656e207374617465000000000000000000000000000000600082015250565b6000612f336011836123d4565b9150612f3e82612efd565b602082019050919050565b60006020820190508181036000830152612f6281612f26565b9050919050565b7f534543616153206e6f7420656c65637465642061732076657269666965720000600082015250565b6000612f9f601e836123d4565b9150612faa82612f69565b602082019050919050565b60006020820190508181036000830152612fce81612f92565b9050919050565b6000612fe082612252565b91507fffffffffffffffffffffffffffffffffffffffffffffffffffffffffffffffff820361301257613011612778565b5b600182019050919050565b7f4e616d65206973206e6f742076616c6964000000000000000000000000000000600082015250565b60006130536011836123d4565b915061305e8261301d565b602082019050919050565b6000602082019050818103600083015261308281613046565b9050919050565b60008190508160005260206000209050919050565b60006020601f8301049050919050565b600082821b905092915050565b6000600883026130eb7fffffffffffffffffffffffffffffffffffffffffffffffffffffffffffffffff826130ae565b6130f586836130ae565b95508019841693508086168417925050509392505050565b6000819050919050565b600061313261312d61312884612252565b61310d565b612252565b9050919050565b6000819050919050565b61314c83613117565b61316061315882613139565b8484546130bb565b825550505050565b600090565b613175613168565b613180818484613143565b505050565b5b818110156131a45761319960008261316d565b600181019050613186565b5050565b601f8211156131e9576131ba81613089565b6131c38461309e565b810160208510156131d2578190505b6131e66131de8561309e565b830182613185565b50505b505050565b600082821c905092915050565b600061320c600019846008026131ee565b1980831691505092915050565b600061322583836131fb565b9150826002028217905092915050565b61323e826123c9565b67ffffffffffffffff8111156132575761325661252c565b5b6132618254612e3a565b61326c8282856131a8565b600060209050601f83116001811461329f576000841561328d578287015190505b6132978582613219565b8655506132ff565b601f1984166132ad86613089565b60005b828110156132d5578489015182556001820191506020850194506020810190506132b0565b868310156132f257848901516132ee601f8916826131fb565b8355505b6001600288020188555050505b505050505050565b7f4f6e6c79207468652076657269666965722063616e20636c6f7365207468652060008201527f6174746573746174696f6e2070726f6365737300000000000000000000000000602082015250565b60006133636033836123d4565b915061336e82613307565b604082019050919050565b6000602082019050818103600083015261339281613356565b9050919050565b7f4174746573746174696f6e206973206e6f7420726561647920666f7220636c6f60008201527f7375726500000000000000000000000000000000000000000000000000000000602082015250565b60006133f56024836123d4565b915061340082613399565b604082019050919050565b60006020820190508181036000830152613424816133e8565b9050919050565b7f4f6e6c79207468652076657269666965722063616e207265747269657665207460008201527f6865207369676e61747572657300000000000000000000000000000000000000602082015250565b6000613487602d836123d4565b91506134928261342b565b604082019050919050565b600060208201905081810360008301526134b68161347a565b9050919050565b7f4174746573746174696f6e206e6f7420726561647920666f72206576616c756160008201527f74696f6e00000000000000000000000000000000000000000000000000000000602082015250565b60006135196024836123d4565b9150613524826134bd565b604082019050919050565b600060208201905081810360008301526135488161350c565b905091905056fea26469706673582212209c347cd3f53fbe82a188212c4632a3910e09d06ce77d9017c9b2f2bf9ab0558e64736f6c634300081c0033",
  "linkReferences": {},
  "deployedLinkReferences": {}
}