{
  "_format": "hh-sol-artifact-1",
  "contractName": "AttestationManagerOptimized",
  "sourceName": "contracts/AttestationManagerOptimized.sol",
  "abi": [
    {
      "inputs": [
        {
          "internalType": "uint256",
          "name": "_vrp",
          "type": "uint256"
        }
      ],
      "stateMutability": "nonpayable",
      "type": "constructor"
    },
    {
      "anonymous": false,
      "inputs": [
        {
          "indexed": false,
          "internalType": "address",
          "name": "agent",
          "type": "address"
        }
      ],
      "name": "AgentRegistered",
      "type": "event"
    },
    {
      "anonymous": false,
      "inputs": [
        {
          "indexed": false,
          "internalType": "address",
          "name": "agent",
          "type": "address"
        }
      ],
      "name": "AgentRemoved",
      "type": "event"
    },
    {
      "anonymous": false,
      "inputs": [
        {
          "indexed": true,
          "internalType": "bytes32",
          "name": "id",
          "type": "bytes32"
        },
        {
          "indexed": false,
          "internalType": "bool",
          "name": "verified",
          "type": "bool"
        }
      ],
      "name": "AttestationCompleted",
      "type": "event"
    },
    {
      "anonymous": false,
      "inputs": [
        {
          "indexed": false,
          "internalType": "bytes32",
          "name": "id",
          "type": "bytes32"
        }
      ],
      "name": "AttestationStarted",
      "type": "event"
    },
    {
      "anonymous": false,
      "inputs": [],
      "name": "ChainReset",
      "type": "event"
    },
    {
      "anonymous": false,
      "inputs": [
        {
          "indexed": false,
          "internalType": "bytes32",
          "name": "id",
          "type": "bytes32"
        }
      ],
      "name": "ReadyForEvaluation",
      "type": "event"
    },
    {
      "anonymous": false,
      "inputs": [
        {
          "indexed": true,
          "internalType": "address",
          "name": "newVerifier",
          "type": "address"
        }
      ],
      "name": "VerifierRotated",
      "type": "event"
    },
    {
      "inputs": [
        {
          "internalType": "bytes32",
          "name": "id",
          "type": "bytes32"
        },
        {
          "internalType": "bool",
          "name": "verified",
          "type": "bool"
        }
      ],
      "name": "CloseAttestationProcess",
      "outputs": [
        {
          "internalType": "bool",
          "name": "",
          "type": "bool"
        }
      ],
      "stateMutability": "nonpayable",
      "type": "function"
    },
    {
      "inputs": [
        {
          "internalType": "address",
          "name": "agentAddress",
          "type": "address"
        },
        {
          "internalType": "address",
          "name": "callAddress",
          "type": "address"
        }
      ],
      "name": "GetAgentInfo",
      "outputs": [
        {
          "internalType": "string",
          "name": "",
          "type": "string"
        },
        {
          "internalType": "bool",
          "name": "",
          "type": "bool"
        }
      ],
      "stateMutability": "view",
      "type": "function"
    },
    {
      "inputs": [
        {
          "internalType": "bytes32",
          "name": "id",
          "type": "bytes32"
        }
      ],
      "name": "GetAttestationInfo",
      "outputs": [
        {
          "internalType": "address",
          "name": "",
          "type": "address"
        },
        {
          "internalType": "address",
          "name": "",
          "type": "address"
        },
        {
          "internalType": "enum AttestationManagerOptimized.AttestationResult",
          "name": "",
          "type": "uint8"
        },
        {
          "internalType": "uint256",
          "name": "",
          "type": "uint256"
        }
      ],
      "stateMutability": "view",
      "type": "function"
    },
    {
      "inputs": [
        {
          "internalType": "bytes32",
          "name": "id",
          "type": "bytes32"
        },
        {
          "internalType": "address",
          "name": "callAddress",
          "type": "address"
        }
      ],
      "name": "GetAttestationSignatures",
      "outputs": [
        {
          "internalType": "bytes32",
          "name": "",
          "type": "bytes32"
        },
        {
          "internalType": "bytes32",
          "name": "",
          "type": "bytes32"
        }
      ],
      "stateMutability": "view",
      "type": "function"
    },
    {
      "inputs": [
        {
          "internalType": "bytes32",
          "name": "id",
          "type": "bytes32"
        }
      ],
      "name": "GetAttestationState",
      "outputs": [
        {
          "internalType": "enum AttestationManagerOptimized.AttestationState",
          "name": "",
          "type": "uint8"
        }
      ],
      "stateMutability": "view",
      "type": "function"
    },
    {
      "inputs": [],
      "name": "GetCurrentVerifier",
      "outputs": [
        {
          "internalType": "address",
          "name": "",
          "type": "address"
        }
      ],
      "stateMutability": "view",
      "type": "function"
    },
    {
      "inputs": [
        {
          "internalType": "bytes32",
          "name": "id",
          "type": "bytes32"
        },
        {
          "internalType": "address",
          "name": "callAddress",
          "type": "address"
        }
      ],
      "name": "GetProverAddress",
      "outputs": [
        {
          "internalType": "address",
          "name": "",
          "type": "address"
        }
      ],
      "stateMutability": "view",
      "type": "function"
    },
    {
      "inputs": [],
      "name": "GetVRP",
      "outputs": [
        {
          "internalType": "uint256",
          "name": "",
          "type": "uint256"
        }
      ],
      "stateMutability": "view",
      "type": "function"
    },
    {
      "inputs": [
        {
          "internalType": "bytes32",
          "name": "id",
          "type": "bytes32"
        },
        {
          "internalType": "address",
          "name": "callAddress",
          "type": "address"
        }
      ],
      "name": "IsProver",
      "outputs": [
        {
          "internalType": "bool",
          "name": "",
          "type": "bool"
        }
      ],
      "stateMutability": "view",
      "type": "function"
    },
    {
      "inputs": [
        {
          "internalType": "address",
          "name": "callAddress",
          "type": "address"
        }
      ],
      "name": "IsRegistered",
      "outputs": [
        {
          "internalType": "bool",
          "name": "",
          "type": "bool"
        }
      ],
      "stateMutability": "view",
      "type": "function"
    },
    {
      "inputs": [
        {
          "internalType": "bytes32",
          "name": "id",
          "type": "bytes32"
        },
        {
          "internalType": "address",
          "name": "callAddress",
          "type": "address"
        }
      ],
      "name": "IsVerifier",
      "outputs": [
        {
          "internalType": "bool",
          "name": "",
          "type": "bool"
        }
      ],
      "stateMutability": "view",
      "type": "function"
    },
    {
      "inputs": [
        {
          "internalType": "string",
          "name": "name",
          "type": "string"
        }
      ],
      "name": "RegisterAgent",
      "outputs": [],
      "stateMutability": "nonpayable",
      "type": "function"
    },
    {
      "inputs": [],
      "name": "RemoveAgent",
      "outputs": [],
      "stateMutability": "nonpayable",
      "type": "function"
    },
    {
      "inputs": [],
      "name": "ResetChain",
      "outputs": [],
      "stateMutability": "nonpayable",
      "type": "function"
    },
    {
      "inputs": [
        {
          "internalType": "bytes32",
          "name": "id",
          "type": "bytes32"
        },
        {
          "internalType": "bool",
          "name": "verified",
          "type": "bool"
        }
      ],
      "name": "ResolveAttestationSECaaS",
      "outputs": [],
      "stateMutability": "nonpayable",
      "type": "function"
    },
    {
      "inputs": [
        {
          "internalType": "bytes32",
          "name": "id",
          "type": "bytes32"
        },
        {
          "internalType": "bytes32",
          "name": "freshMeasurement",
          "type": "bytes32"
        }
      ],
      "name": "SendEvidence",
      "outputs": [],
      "stateMutability": "nonpayable",
      "type": "function"
    },
    {
      "inputs": [
        {
          "internalType": "bytes32",
          "name": "id",
          "type": "bytes32"
        },
        {
          "internalType": "bytes32",
          "name": "refMeasurement",
          "type": "bytes32"
        }
      ],
      "name": "SendRefSignature",
      "outputs": [
        {
          "internalType": "bool",
          "name": "",
          "type": "bool"
        }
      ],
      "stateMutability": "nonpayable",
      "type": "function"
    }
  ],
  "bytecode": "0x608060405234801561001057600080fd5b5060405161355b38038061355b8339818101604052810190610032919061021c565b336000806101000a81548173ffffffffffffffffffffffffffffffffffffffff021916908373ffffffffffffffffffffffffffffffffffffffff160217905550600160008054906101000a900473ffffffffffffffffffffffffffffffffffffffff169080600181540180825580915050600190039060005260206000200160009091909190916101000a81548173ffffffffffffffffffffffffffffffffffffffff021916908373ffffffffffffffffffffffffffffffffffffffff1602179055506000600760008060009054906101000a900473ffffffffffffffffffffffffffffffffffffffff1673ffffffffffffffffffffffffffffffffffffffff1673ffffffffffffffffffffffffffffffffffffffff1681526020019081526020016000208190555060008114610169578061016c565b60015b60028190555060008054906101000a900473ffffffffffffffffffffffffffffffffffffffff16600360006101000a81548173ffffffffffffffffffffffffffffffffffffffff021916908373ffffffffffffffffffffffffffffffffffffffff160217905550600060048190555050610249565b600080fd5b6000819050919050565b6101f9816101e6565b811461020457600080fd5b50565b600081519050610216816101f0565b92915050565b600060208284031215610232576102316101e1565b5b600061024084828501610207565b91505092915050565b613303806102586000396000f3fe608060405234801561001057600080fd5b506004361061010b5760003560e01c8063b46ca81a116100a2578063c224122d11610071578063c224122d146102d0578063c2694a0414610300578063c984f8db1461031c578063cb2a034814610338578063e1a94c83146103685761010b565b8063b46ca81a14610221578063b8df8f9814610251578063bb7b8c0c14610281578063bc1a097e1461029f5761010b565b806378caad49116100de57806378caad49146101995780637cb98689146101a3578063986bed88146101c15780639cb65fa1146101f15761010b565b80631d995a0e14610110578063395d719b1461011a5780635f3d42201461014a57806371ea6e671461017d575b600080fd5b610118610399565b005b610134600480360381019061012f9190611f70565b61074f565b6040516101419190611fcb565b60405180910390f35b610164600480360381019061015f9190611fe6565b61083a565b60405161017494939291906120b2565b60405180910390f35b610197600480360381019061019291906120f7565b61093f565b005b6101a1610b37565b005b6101ab610c5c565b6040516101b89190612137565b60405180910390f35b6101db60048036038101906101d691906120f7565b610c86565b6040516101e89190611fcb565b60405180910390f35b61020b60048036038101906102069190611f70565b610e1e565b6040516102189190612137565b60405180910390f35b61023b60048036038101906102369190611f70565b610f6c565b6040516102489190611fcb565b60405180910390f35b61026b60048036038101906102669190611fe6565b611057565b604051610278919061219a565b60405180910390f35b610289611084565b60405161029691906121b5565b60405180910390f35b6102b960048036038101906102b491906121d0565b61108e565b6040516102c79291906122a0565b60405180910390f35b6102ea60048036038101906102e591906122d0565b61126d565b6040516102f79190611fcb565b60405180910390f35b61031a60048036038101906103159190612329565b6112c6565b005b6103366004803603810190610331919061249e565b6116a7565b005b610352600480360381019061034d9190612329565b611844565b60405161035f9190611fcb565b60405180910390f35b610382600480360381019061037d9190611f70565b611b7e565b6040516103909291906124f6565b60405180910390f35b6000600560003373ffffffffffffffffffffffffffffffffffffffff1673ffffffffffffffffffffffffffffffffffffffff16815260200190815260200160002090508060010160009054906101000a900460ff1661042d576040517f08c379a000000000000000000000000000000000000000000000000000000000815260040161042490612591565b60405180910390fd5b600360009054906101000a900473ffffffffffffffffffffffffffffffffffffffff1673ffffffffffffffffffffffffffffffffffffffff163373ffffffffffffffffffffffffffffffffffffffff16036104ec5760008054906101000a900473ffffffffffffffffffffffffffffffffffffffff16600360006101000a81548173ffffffffffffffffffffffffffffffffffffffff021916908373ffffffffffffffffffffffffffffffffffffffff16021790555060006004819055505b6000600760003373ffffffffffffffffffffffffffffffffffffffff1673ffffffffffffffffffffffffffffffffffffffff1681526020019081526020016000205490506000600180808054905061054491906125e0565b8154811061055557610554612614565b5b9060005260206000200160009054906101000a900473ffffffffffffffffffffffffffffffffffffffff169050806001838154811061059757610596612614565b5b9060005260206000200160006101000a81548173ffffffffffffffffffffffffffffffffffffffff021916908373ffffffffffffffffffffffffffffffffffffffff16021790555081600760008373ffffffffffffffffffffffffffffffffffffffff1673ffffffffffffffffffffffffffffffffffffffff16815260200190815260200160002081905550600180548061063557610634612643565b5b6001900381819060005260206000200160006101000a81549073ffffffffffffffffffffffffffffffffffffffff02191690559055600760003373ffffffffffffffffffffffffffffffffffffffff1673ffffffffffffffffffffffffffffffffffffffff16815260200190815260200160002060009055600560003373ffffffffffffffffffffffffffffffffffffffff1673ffffffffffffffffffffffffffffffffffffffff168152602001908152602001600020600080820160006106fd9190611e6b565b6001820160006101000a81549060ff021916905550507fed9c8ad8d5a0a66898ea49d2956929c93ae2e8bd50281b2ed897c5d1a6737e0b336040516107429190612137565b60405180910390a1505050565b60008060066000858152602001908152602001600020905060028081111561077a57610779612022565b5b8160050160009054906101000a900460ff16600281111561079e5761079d612022565b5b036107de576040517f08c379a00000000000000000000000000000000000000000000000000000000081526004016107d5906126e4565b60405180910390fd5b8273ffffffffffffffffffffffffffffffffffffffff168160020160009054906101000a900473ffffffffffffffffffffffffffffffffffffffff1673ffffffffffffffffffffffffffffffffffffffff161491505092915050565b600080600080600060066000878152602001908152602001600020905060028081111561086a57610869612022565b5b8160050160009054906101000a900460ff16600281111561088e5761088d612022565b5b146108ce576040517f08c379a00000000000000000000000000000000000000000000000000000000081526004016108c590612776565b60405180910390fd5b8060020160009054906101000a900473ffffffffffffffffffffffffffffffffffffffff168160010160009054906101000a900473ffffffffffffffffffffffffffffffffffffffff168260050160019054906101000a900460ff1683600601549450945094509450509193509193565b6000600560003373ffffffffffffffffffffffffffffffffffffffff1673ffffffffffffffffffffffffffffffffffffffff16815260200190815260200160002090508060010160009054906101000a900460ff166109d3576040517f08c379a00000000000000000000000000000000000000000000000000000000081526004016109ca90612808565b60405180910390fd5b60006006600085815260200190815260200160002090508381600001819055506109fc33611d32565b8160010160006101000a81548173ffffffffffffffffffffffffffffffffffffffff021916908373ffffffffffffffffffffffffffffffffffffffff160217905550338160020160006101000a81548173ffffffffffffffffffffffffffffffffffffffff021916908373ffffffffffffffffffffffffffffffffffffffff1602179055508281600301819055506000801b816004018190555060008160050160006101000a81548160ff02191690836002811115610abe57610abd612022565b5b021790555060008160050160016101000a81548160ff02191690836002811115610aeb57610aea612022565b5b0217905550600081600601819055507fd32f85071e05721b8a1c63d5cad1fe3525ec0a11fd5b7760b6a82d7f6be7d28384604051610b299190612828565b60405180910390a150505050565b60008054906101000a900473ffffffffffffffffffffffffffffffffffffffff1673ffffffffffffffffffffffffffffffffffffffff163373ffffffffffffffffffffffffffffffffffffffff1614610bc5576040517f08c379a0000000000000000000000000000000000000000000000000000000008152600401610bbc906128b5565b60405180910390fd5b60008054906101000a900473ffffffffffffffffffffffffffffffffffffffff16600360006101000a81548173ffffffffffffffffffffffffffffffffffffffff021916908373ffffffffffffffffffffffffffffffffffffffff16021790555060006004819055507f8e1dda8e7ca889ef4bd70f2ff6dd48a9b896b1d89703a08b6385333045af148960405160405180910390a1565b6000600360009054906101000a900473ffffffffffffffffffffffffffffffffffffffff16905090565b60008060009054906101000a900473ffffffffffffffffffffffffffffffffffffffff1673ffffffffffffffffffffffffffffffffffffffff163373ffffffffffffffffffffffffffffffffffffffff1614610d17576040517f08c379a0000000000000000000000000000000000000000000000000000000008152600401610d0e90612947565b60405180910390fd5b600060066000858152602001908152602001600020905060006002811115610d4257610d41612022565b5b8160050160009054906101000a900460ff166002811115610d6657610d65612022565b5b14610da6576040517f08c379a0000000000000000000000000000000000000000000000000000000008152600401610d9d906129d9565b60405180910390fd5b82816004018190555060018160050160006101000a81548160ff02191690836002811115610dd757610dd6612022565b5b02179055507f6781e8d3c07e87e938ec28a5435aa7862779fb9c7d01b7315eca91430b2a464384604051610e0b9190612828565b60405180910390a1600191505092915050565b60008060009054906101000a900473ffffffffffffffffffffffffffffffffffffffff1673ffffffffffffffffffffffffffffffffffffffff168273ffffffffffffffffffffffffffffffffffffffff1614610eaf576040517f08c379a0000000000000000000000000000000000000000000000000000000008152600401610ea690612a45565b60405180910390fd5b600060066000858152602001908152602001600020905060006002811115610eda57610ed9612022565b5b8160050160009054906101000a900460ff166002811115610efe57610efd612022565b5b14610f3e576040517f08c379a0000000000000000000000000000000000000000000000000000000008152600401610f3590612ad7565b60405180910390fd5b8060020160009054906101000a900473ffffffffffffffffffffffffffffffffffffffff1691505092915050565b600080600660008581526020019081526020016000209050600280811115610f9757610f96612022565b5b8160050160009054906101000a900460ff166002811115610fbb57610fba612022565b5b03610ffb576040517f08c379a0000000000000000000000000000000000000000000000000000000008152600401610ff2906126e4565b60405180910390fd5b8273ffffffffffffffffffffffffffffffffffffffff168160010160009054906101000a900473ffffffffffffffffffffffffffffffffffffffff1673ffffffffffffffffffffffffffffffffffffffff161491505092915050565b60006006600083815260200190815260200160002060050160009054906101000a900460ff169050919050565b6000600254905090565b6060600080600560008573ffffffffffffffffffffffffffffffffffffffff1673ffffffffffffffffffffffffffffffffffffffff16815260200190815260200160002090506000600560008773ffffffffffffffffffffffffffffffffffffffff1673ffffffffffffffffffffffffffffffffffffffff16815260200190815260200160002090508160010160009054906101000a900460ff168061117f575060008054906101000a900473ffffffffffffffffffffffffffffffffffffffff1673ffffffffffffffffffffffffffffffffffffffff168573ffffffffffffffffffffffffffffffffffffffff16145b6111be576040517f08c379a00000000000000000000000000000000000000000000000000000000081526004016111b590612b69565b60405180910390fd5b806000018160010160009054906101000a900460ff168180546111e090612bb8565b80601f016020809104026020016040519081016040528092919081815260200182805461120c90612bb8565b80156112595780601f1061122e57610100808354040283529160200191611259565b820191906000526020600020905b81548152906001019060200180831161123c57829003601f168201915b505050505091509350935050509250929050565b6000600560008373ffffffffffffffffffffffffffffffffffffffff1673ffffffffffffffffffffffffffffffffffffffff16815260200190815260200160002060010160009054906101000a900460ff169050919050565b60008054906101000a900473ffffffffffffffffffffffffffffffffffffffff1673ffffffffffffffffffffffffffffffffffffffff163373ffffffffffffffffffffffffffffffffffffffff1614611354576040517f08c379a000000000000000000000000000000000000000000000000000000000815260040161134b90612c5b565b60405180910390fd5b60006006600084815260200190815260200160002090506000600281111561137f5761137e612022565b5b8160050160009054906101000a900460ff1660028111156113a3576113a2612022565b5b146113e3576040517f08c379a00000000000000000000000000000000000000000000000000000000081526004016113da90612cc7565b60405180910390fd5b60008054906101000a900473ffffffffffffffffffffffffffffffffffffffff1673ffffffffffffffffffffffffffffffffffffffff168160010160009054906101000a900473ffffffffffffffffffffffffffffffffffffffff1673ffffffffffffffffffffffffffffffffffffffff1614611495576040517f08c379a000000000000000000000000000000000000000000000000000000000815260040161148c90612d33565b60405180910390fd5b600460008154809291906114a890612d53565b919050555060006002546004541015905060008315806114c55750815b90506000846114d55760016114d8565b60025b905081156115b95760008460020160009054906101000a900473ffffffffffffffffffffffffffffffffffffffff16905060028560050160006101000a81548160ff0219169083600281111561153157611530612022565b5b0217905550428560060181905550818560050160016101000a81548160ff0219169083600281111561156657611565612022565b5b0217905550867f02d0717bc91617bee67bd08dfacab8f3b5e93100bd242984d1e60ce2758ea4758760405161159b9190611fcb565b60405180910390a283156115b3576115b281611ddc565b5b5061169f565b600660008781526020019081526020016000206000808201600090556001820160006101000a81549073ffffffffffffffffffffffffffffffffffffffff02191690556002820160006101000a81549073ffffffffffffffffffffffffffffffffffffffff0219169055600382016000905560048201600090556005820160006101000a81549060ff02191690556005820160016101000a81549060ff021916905560068201600090555050857f02d0717bc91617bee67bd08dfacab8f3b5e93100bd242984d1e60ce2758ea47560016040516116969190611fcb565b60405180910390a25b505050505050565b60008151116116eb576040517f08c379a00000000000000000000000000000000000000000000000000000000081526004016116e290612de7565b60405180910390fd5b6000600560003373ffffffffffffffffffffffffffffffffffffffff1673ffffffffffffffffffffffffffffffffffffffff16815260200190815260200160002090508181600001908161173f9190612fb3565b5060018160010160006101000a81548160ff021916908315150217905550600180549050600760003373ffffffffffffffffffffffffffffffffffffffff1673ffffffffffffffffffffffffffffffffffffffff168152602001908152602001600020819055506001339080600181540180825580915050600190039060005260206000200160009091909190916101000a81548173ffffffffffffffffffffffffffffffffffffffff021916908373ffffffffffffffffffffffffffffffffffffffff1602179055507f82d0829d9d481e4cb9913897f9b9c903271c4db68c7b3324071d2a7e3b2c5ff0336040516118389190612137565b60405180910390a15050565b6000806006600085815260200190815260200160002090503373ffffffffffffffffffffffffffffffffffffffff168160010160009054906101000a900473ffffffffffffffffffffffffffffffffffffffff1673ffffffffffffffffffffffffffffffffffffffff16146118ee576040517f08c379a00000000000000000000000000000000000000000000000000000000081526004016118e5906130f7565b60405180910390fd5b6001600281111561190257611901612022565b5b8160050160009054906101000a900460ff16600281111561192657611925612022565b5b14611966576040517f08c379a000000000000000000000000000000000000000000000000000000000815260040161195d90613189565b60405180910390fd5b6004600081548092919061197990612d53565b919050555060006002546004541015905060008415806119965750815b90506000856119a65760016119a9565b60025b90508115611a8a5760008460020160009054906101000a900473ffffffffffffffffffffffffffffffffffffffff16905060028560050160006101000a81548160ff02191690836002811115611a0257611a01612022565b5b0217905550428560060181905550818560050160016101000a81548160ff02191690836002811115611a3757611a36612022565b5b0217905550877f02d0717bc91617bee67bd08dfacab8f3b5e93100bd242984d1e60ce2758ea47588604051611a6c9190611fcb565b60405180910390a28315611a8457611a8381611ddc565b5b50611b70565b600660008881526020019081526020016000206000808201600090556001820160006101000a81549073ffffffffffffffffffffffffffffffffffffffff02191690556002820160006101000a81549073ffffffffffffffffffffffffffffffffffffffff0219169055600382016000905560048201600090556005820160006101000a81549060ff02191690556005820160016101000a81549060ff021916905560068201600090555050867f02d0717bc91617bee67bd08dfacab8f3b5e93100bd242984d1e60ce2758ea4756001604051611b679190611fcb565b60405180910390a25b600194505050505092915050565b60008060006006600086815260200190815260200160002090508373ffffffffffffffffffffffffffffffffffffffff168160010160009054906101000a900473ffffffffffffffffffffffffffffffffffffffff1673ffffffffffffffffffffffffffffffffffffffff1614611c2a576040517f08c379a0000000000000000000000000000000000000000000000000000000008152600401611c219061321b565b60405180910390fd5b60016002811115611c3e57611c3d612022565b5b8160050160009054906101000a900460ff166002811115611c6257611c61612022565b5b1480611cdd575060008054906101000a900473ffffffffffffffffffffffffffffffffffffffff1673ffffffffffffffffffffffffffffffffffffffff168160010160009054906101000a900473ffffffffffffffffffffffffffffffffffffffff1673ffffffffffffffffffffffffffffffffffffffff16145b611d1c576040517f08c379a0000000000000000000000000000000000000000000000000000000008152600401611d13906132ad565b60405180910390fd5b8060030154816004015492509250509250929050565b60008173ffffffffffffffffffffffffffffffffffffffff16600360009054906101000a900473ffffffffffffffffffffffffffffffffffffffff1673ffffffffffffffffffffffffffffffffffffffff1614611db357600360009054906101000a900473ffffffffffffffffffffffffffffffffffffffff169050611dd7565b60008054906101000a900473ffffffffffffffffffffffffffffffffffffffff1690505b919050565b80600360006101000a81548173ffffffffffffffffffffffffffffffffffffffff021916908373ffffffffffffffffffffffffffffffffffffffff16021790555060006004819055508073ffffffffffffffffffffffffffffffffffffffff167ffcc2be04bc026cce0c24562eefa6383157a6bed7617873597fdd1bbcdeb2b76360405160405180910390a250565b508054611e7790612bb8565b6000825580601f10611e895750611ea8565b601f016020900490600052602060002090810190611ea79190611eab565b5b50565b5b80821115611ec4576000816000905550600101611eac565b5090565b6000604051905090565b600080fd5b600080fd5b6000819050919050565b611eef81611edc565b8114611efa57600080fd5b50565b600081359050611f0c81611ee6565b92915050565b600073ffffffffffffffffffffffffffffffffffffffff82169050919050565b6000611f3d82611f12565b9050919050565b611f4d81611f32565b8114611f5857600080fd5b50565b600081359050611f6a81611f44565b92915050565b60008060408385031215611f8757611f86611ed2565b5b6000611f9585828601611efd565b9250506020611fa685828601611f5b565b9150509250929050565b60008115159050919050565b611fc581611fb0565b82525050565b6000602082019050611fe06000830184611fbc565b92915050565b600060208284031215611ffc57611ffb611ed2565b5b600061200a84828501611efd565b91505092915050565b61201c81611f32565b82525050565b7f4e487b7100000000000000000000000000000000000000000000000000000000600052602160045260246000fd5b6003811061206257612061612022565b5b50565b600081905061207382612051565b919050565b600061208382612065565b9050919050565b61209381612078565b82525050565b6000819050919050565b6120ac81612099565b82525050565b60006080820190506120c76000830187612013565b6120d46020830186612013565b6120e1604083018561208a565b6120ee60608301846120a3565b95945050505050565b6000806040838503121561210e5761210d611ed2565b5b600061211c85828601611efd565b925050602061212d85828601611efd565b9150509250929050565b600060208201905061214c6000830184612013565b92915050565b6003811061216357612162612022565b5b50565b600081905061217482612152565b919050565b600061218482612166565b9050919050565b61219481612179565b82525050565b60006020820190506121af600083018461218b565b92915050565b60006020820190506121ca60008301846120a3565b92915050565b600080604083850312156121e7576121e6611ed2565b5b60006121f585828601611f5b565b925050602061220685828601611f5b565b9150509250929050565b600081519050919050565b600082825260208201905092915050565b60005b8381101561224a57808201518184015260208101905061222f565b60008484015250505050565b6000601f19601f8301169050919050565b600061227282612210565b61227c818561221b565b935061228c81856020860161222c565b61229581612256565b840191505092915050565b600060408201905081810360008301526122ba8185612267565b90506122c96020830184611fbc565b9392505050565b6000602082840312156122e6576122e5611ed2565b5b60006122f484828501611f5b565b91505092915050565b61230681611fb0565b811461231157600080fd5b50565b600081359050612323816122fd565b92915050565b600080604083850312156123405761233f611ed2565b5b600061234e85828601611efd565b925050602061235f85828601612314565b9150509250929050565b600080fd5b600080fd5b7f4e487b7100000000000000000000000000000000000000000000000000000000600052604160045260246000fd5b6123ab82612256565b810181811067ffffffffffffffff821117156123ca576123c9612373565b5b80604052505050565b60006123dd611ec8565b90506123e982826123a2565b919050565b600067ffffffffffffffff82111561240957612408612373565b5b61241282612256565b9050602081019050919050565b82818337600083830152505050565b600061244161243c846123ee565b6123d3565b90508281526020810184848401111561245d5761245c61236e565b5b61246884828561241f565b509392505050565b600082601f83011261248557612484612369565b5b813561249584826020860161242e565b91505092915050565b6000602082840312156124b4576124b3611ed2565b5b600082013567ffffffffffffffff8111156124d2576124d1611ed7565b5b6124de84828501612470565b91505092915050565b6124f081611edc565b82525050565b600060408201905061250b60008301856124e7565b61251860208301846124e7565b9392505050565b7f52656d6f76654167656e74203a204167656e74206973206e6f7420726567697360008201527f7465726564000000000000000000000000000000000000000000000000000000602082015250565b600061257b60258361221b565b91506125868261251f565b604082019050919050565b600060208201905081810360008301526125aa8161256e565b9050919050565b7f4e487b7100000000000000000000000000000000000000000000000000000000600052601160045260246000fd5b60006125eb82612099565b91506125f683612099565b925082820390508181111561260e5761260d6125b1565b5b92915050565b7f4e487b7100000000000000000000000000000000000000000000000000000000600052603260045260246000fd5b7f4e487b7100000000000000000000000000000000000000000000000000000000600052603160045260246000fd5b7f4174746573746174696f6e2070726f6365737320697320636c6f736564206f7260008201527f206e6f7420657869737473000000000000000000000000000000000000000000602082015250565b60006126ce602b8361221b565b91506126d982612672565b604082019050919050565b600060208201905081810360008301526126fd816126c1565b9050919050565b7f4174746573746174696f6e2070726f63657373206973206e6f7420636c6f736560008201527f6400000000000000000000000000000000000000000000000000000000000000602082015250565b600061276060218361221b565b915061276b82612704565b604082019050919050565b6000602082019050818103600083015261278f81612753565b9050919050565b7f53656e6445766964656e6365203a204167656e74206973206e6f74207265676960008201527f7374657265640000000000000000000000000000000000000000000000000000602082015250565b60006127f260268361221b565b91506127fd82612796565b604082019050919050565b60006020820190508181036000830152612821816127e5565b9050919050565b600060208201905061283d60008301846124e7565b92915050565b7f4f6e6c7920746865205345436161532063616e2072657365742074686520636860008201527f61696e0000000000000000000000000000000000000000000000000000000000602082015250565b600061289f60238361221b565b91506128aa82612843565b604082019050919050565b600060208201905081810360008301526128ce81612892565b9050919050565b7f4f6e6c7920746865205345436161532063616e2073656e64207468652072656660008201527f6572656e6365207369676e617475726500000000000000000000000000000000602082015250565b600061293160308361221b565b915061293c826128d5565b604082019050919050565b6000602082019050818103600083015261296081612924565b9050919050565b7f496e76616c696420737461746520666f722053454361615320726573706f6e7360008201527f6500000000000000000000000000000000000000000000000000000000000000602082015250565b60006129c360218361221b565b91506129ce82612967565b604082019050919050565b600060208201905081810360008301526129f2816129b6565b9050919050565b7f596f7520617265206e6f7420746865205345436161532e000000000000000000600082015250565b6000612a2f60178361221b565b9150612a3a826129f9565b602082019050919050565b60006020820190508181036000830152612a5e81612a22565b9050919050565b7f4174746573746174696f6e20697320636c6f736564206f72206e6f742065786960008201527f7374730000000000000000000000000000000000000000000000000000000000602082015250565b6000612ac160238361221b565b9150612acc82612a65565b604082019050919050565b60006020820190508181036000830152612af081612ab4565b9050919050565b7f4765744167656e74496e666f203a204167656e74206973206e6f74207265676960008201527f7374657265640000000000000000000000000000000000000000000000000000602082015250565b6000612b5360268361221b565b9150612b5e82612af7565b604082019050919050565b60006020820190508181036000830152612b8281612b46565b9050919050565b7f4e487b7100000000000000000000000000000000000000000000000000000000600052602260045260246000fd5b60006002820490506001821680612bd057607f821691505b602082108103612be357612be2612b89565b5b50919050565b7f4f6e6c7920746865205345436161532063616e207265736f6c7665206174746560008201527f73746174696f6e73000000000000000000000000000000000000000000000000602082015250565b6000612c4560288361221b565b9150612c5082612be9565b604082019050919050565b60006020820190508181036000830152612c7481612c38565b9050919050565b7f4e6f7420696e204f70656e207374617465000000000000000000000000000000600082015250565b6000612cb160118361221b565b9150612cbc82612c7b565b602082019050919050565b60006020820190508181036000830152612ce081612ca4565b9050919050565b7f534543616153206e6f7420656c65637465642061732076657269666965720000600082015250565b6000612d1d601e8361221b565b9150612d2882612ce7565b602082019050919050565b60006020820190508181036000830152612d4c81612d10565b9050919050565b6000612d5e82612099565b91507fffffffffffffffffffffffffffffffffffffffffffffffffffffffffffffffff8203612d9057612d8f6125b1565b5b600182019050919050565b7f4e616d65206973206e6f742076616c6964000000000000000000000000000000600082015250565b6000612dd160118361221b565b9150612ddc82612d9b565b602082019050919050565b60006020820190508181036000830152612e0081612dc4565b9050919050565b60008190508160005260206000209050919050565b60006020601f8301049050919050565b600082821b905092915050565b600060088302612e697fffffffffffffffffffffffffffffffffffffffffffffffffffffffffffffffff82612e2c565b612e738683612e2c565b95508019841693508086168417925050509392505050565b6000819050919050565b6000612eb0612eab612ea684612099565b612e8b565b612099565b9050919050565b6000819050919050565b612eca83612e95565b612ede612ed682612eb7565b848454612e39565b825550505050565b600090565b612ef3612ee6565b612efe818484612ec1565b505050565b5b81811015612f2257612f17600082612eeb565b600181019050612f04565b5050565b601f821115612f6757612f3881612e07565b612f4184612e1c565b81016020851015612f50578190505b612f64612f5c85612e1c565b830182612f03565b50505b505050565b600082821c905092915050565b6000612f8a60001984600802612f6c565b1980831691505092915050565b6000612fa38383612f79565b9150826002028217905092915050565b612fbc82612210565b67ffffffffffffffff811115612fd557612fd4612373565b5b612fdf8254612bb8565b612fea828285612f26565b600060209050601f83116001811461301d576000841561300b578287015190505b6130158582612f97565b86555061307d565b601f19841661302b86612e07565b60005b828110156130535784890151825560018201915060208501945060208101905061302e565b86831015613070578489015161306c601f891682612f79565b8355505b6001600288020188555050505b505050505050565b7f4f6e6c79207468652076657269666965722063616e20636c6f7365207468652060008201527f6174746573746174696f6e2070726f6365737300000000000000000000000000602082015250565b60006130e160338361221b565b91506130ec82613085565b604082019050919050565b60006020820190508181036000830152613110816130d4565b9050919050565b7f4174746573746174696f6e206973206e6f7420726561647920666f7220636c6f60008201527f7375726500000000000000000000000000000000000000000000000000000000602082015250565b600061317360248361221b565b915061317e82613117565b604082019050919050565b600060208201905081810360008301526131a281613166565b9050919050565b7f4f6e6c79207468652076657269666965722063616e207265747269657665207460008201527f6865207369676e61747572657300000000000000000000000000000000000000602082015250565b6000613205602d8361221b565b9150613210826131a9565b604082019050919050565b60006020820190508181036000830152613234816131f8565b9050919050565b7f4174746573746174696f6e206e6f7420726561647920666f72206576616c756160008201527f74696f6e00000000000000000000000000000000000000000000000000000000602082015250565b600061329760248361221b565b91506132a28261323b565b604082019050919050565b600060208201905081810360008301526132c68161328a565b905091905056fea264697066735822122081b01d7cc165189ca7b071ae299eaee6bf7445c5c6369003bac89a88b5274b1564736f6c634300081c0033",
  "linkReferences": {},
  "deployedLinkReferences": {}
}