{
  "_format": "hh-sol-artifact-1",
  "contractName": "AttestationManagerRR",
  "sourceName": "contracts/AttestationManagerRR.sol",
  "abi": [
    {
      "inputs": [],
      "stateMutability": "nonpayable",
      "type": "constructor"
    },
    {
      "anonymous": false,
      "inputs": [
        {
          "indexed": false,
          "internalType": "address",
          "name": "agent",
          "type": "address"
        }
      ],
      "name": "AgentRegistered",
      "type": "event"
    },
    {
      "anonymous": false,
      "inputs": [
        {
          "indexed": false,
          "internalType": "address",
          "name": "agent",
          "type": "address"
        }
      ],
      "name": "AgentRemoved",
      "type": "event"
    },
    {
      "anonymous": false,
      "inputs": [
        {
          "indexed": false,
          "internalType": "bytes32",
          "name": "id",
          "type": "bytes32"
        }
      ],
      "name": "AttestationCompleted",
      "type": "event"
    },
    {
      "anonymous": false,
      "inputs": [
        {
          "indexed": false,
          "internalType": "bytes32",
          "name": "id",
          "type": "bytes32"
        },
        {
          "indexed": false,
          "internalType": "uint32",
          "name": "iterCount",
          "type": "uint32"
        }
      ],
      "name": "AttestationStarted",
      "type": "event"
    },
    {
      "anonymous": false,
      "inputs": [],
      "name": "ChainReset",
      "type": "event"
    },
    {
      "anonymous": false,
      "inputs": [
        {
          "indexed": false,
          "internalType": "bytes32",
          "name": "id",
          "type": "bytes32"
        }
      ],
      "name": "ReadyForEvaluation",
      "type": "event"
    },
    {
      "inputs": [
        {
          "internalType": "bytes32",
          "name": "id",
          "type": "bytes32"
        },
        {
          "internalType": "bool",
          "name": "verified",
          "type": "bool"
        }
      ],
      "name": "CloseAttestationProcess",
      "outputs": [
        {
          "internalType": "bool",
          "name": "",
          "type": "bool"
        }
      ],
      "stateMutability": "nonpayable",
      "type": "function"
    },
    {
      "inputs": [
        {
          "internalType": "address",
          "name": "agentAddress",
          "type": "address"
        },
        {
          "internalType": "address",
          "name": "callAddress",
          "type": "address"
        }
      ],
      "name": "GetAgentInfo",
      "outputs": [
        {
          "internalType": "string",
          "name": "",
          "type": "string"
        },
        {
          "internalType": "bool",
          "name": "",
          "type": "bool"
        },
        {
          "internalType": "bytes32[]",
          "name": "",
          "type": "bytes32[]"
        }
      ],
      "stateMutability": "view",
      "type": "function"
    },
    {
      "inputs": [],
      "name": "GetAttestationChain",
      "outputs": [
        {
          "internalType": "bytes32[]",
          "name": "",
          "type": "bytes32[]"
        }
      ],
      "stateMutability": "view",
      "type": "function"
    },
    {
      "inputs": [
        {
          "internalType": "bytes32",
          "name": "id",
          "type": "bytes32"
        }
      ],
      "name": "GetAttestationInfo",
      "outputs": [
        {
          "internalType": "address",
          "name": "",
          "type": "address"
        },
        {
          "internalType": "address",
          "name": "",
          "type": "address"
        },
        {
          "internalType": "enum AttestationManagerRR.AttestationResult",
          "name": "",
          "type": "uint8"
        },
        {
          "internalType": "uint256",
          "name": "",
          "type": "uint256"
        }
      ],
      "stateMutability": "view",
      "type": "function"
    },
    {
      "inputs": [
        {
          "internalType": "bytes32",
          "name": "id",
          "type": "bytes32"
        },
        {
          "internalType": "address",
          "name": "callAddress",
          "type": "address"
        }
      ],
      "name": "GetAttestationSignatures",
      "outputs": [
        {
          "internalType": "bytes32",
          "name": "",
          "type": "bytes32"
        },
        {
          "internalType": "bytes32",
          "name": "",
          "type": "bytes32"
        },
        {
          "internalType": "uint32",
          "name": "",
          "type": "uint32"
        }
      ],
      "stateMutability": "view",
      "type": "function"
    },
    {
      "inputs": [
        {
          "internalType": "bytes32",
          "name": "id",
          "type": "bytes32"
        }
      ],
      "name": "GetAttestationState",
      "outputs": [
        {
          "internalType": "enum AttestationManagerRR.AttestationState",
          "name": "",
          "type": "uint8"
        }
      ],
      "stateMutability": "view",
      "type": "function"
    },
    {
      "inputs": [
        {
          "internalType": "bytes32",
          "name": "id",
          "type": "bytes32"
        },
        {
          "internalType": "address",
          "name": "callAddress",
          "type": "address"
        }
      ],
      "name": "GetProverAddress",
      "outputs": [
        {
          "internalType": "address",
          "name": "",
          "type": "address"
        }
      ],
      "stateMutability": "view",
      "type": "function"
    },
    {
      "inputs": [
        {
          "internalType": "bytes32",
          "name": "id",
          "type": "bytes32"
        },
        {
          "internalType": "address",
          "name": "callAddress",
          "type": "address"
        }
      ],
      "name": "IsProver",
      "outputs": [
        {
          "internalType": "bool",
          "name": "",
          "type": "bool"
        }
      ],
      "stateMutability": "view",
      "type": "function"
    },
    {
      "inputs": [
        {
          "internalType": "address",
          "name": "callAddress",
          "type": "address"
        }
      ],
      "name": "IsRegistered",
      "outputs": [
        {
          "internalType": "bool",
          "name": "",
          "type": "bool"
        }
      ],
      "stateMutability": "view",
      "type": "function"
    },
    {
      "inputs": [
        {
          "internalType": "bytes32",
          "name": "id",
          "type": "bytes32"
        },
        {
          "internalType": "address",
          "name": "callAddress",
          "type": "address"
        }
      ],
      "name": "IsVerifier",
      "outputs": [
        {
          "internalType": "bool",
          "name": "",
          "type": "bool"
        }
      ],
      "stateMutability": "view",
      "type": "function"
    },
    {
      "inputs": [],
      "name": "MAX_ITER_COUNT",
      "outputs": [
        {
          "internalType": "uint32",
          "name": "",
          "type": "uint32"
        }
      ],
      "stateMutability": "view",
      "type": "function"
    },
    {
      "inputs": [
        {
          "internalType": "string",
          "name": "name",
          "type": "string"
        }
      ],
      "name": "RegisterAgent",
      "outputs": [],
      "stateMutability": "nonpayable",
      "type": "function"
    },
    {
      "inputs": [],
      "name": "RemoveAgent",
      "outputs": [],
      "stateMutability": "nonpayable",
      "type": "function"
    },
    {
      "inputs": [],
      "name": "ResetChain",
      "outputs": [],
      "stateMutability": "nonpayable",
      "type": "function"
    },
    {
      "inputs": [
        {
          "internalType": "bytes32",
          "name": "id",
          "type": "bytes32"
        },
        {
          "internalType": "bool",
          "name": "verified",
          "type": "bool"
        }
      ],
      "name": "ResolveAttestationSECaaS",
      "outputs": [],
      "stateMutability": "nonpayable",
      "type": "function"
    },
    {
      "inputs": [
        {
          "internalType": "bytes32",
          "name": "id",
          "type": "bytes32"
        },
        {
          "internalType": "bytes32",
          "name": "freshMeasurement",
          "type": "bytes32"
        },
        {
          "internalType": "uint32",
          "name": "iterCount",
          "type": "uint32"
        }
      ],
      "name": "SendEvidence",
      "outputs": [],
      "stateMutability": "nonpayable",
      "type": "function"
    },
    {
      "inputs": [
        {
          "internalType": "bytes32",
          "name": "id",
          "type": "bytes32"
        },
        {
          "internalType": "bytes32",
          "name": "refMeasurement",
          "type": "bytes32"
        }
      ],
      "name": "SendRefSignature",
      "outputs": [
        {
          "internalType": "bool",
          "name": "",
          "type": "bool"
        }
      ],
      "stateMutability": "nonpayable",
      "type": "function"
    },
    {
      "inputs": [
        {
          "internalType": "bool",
          "name": "mode",
          "type": "bool"
        }
      ],
      "name": "SetSecaasOnly",
      "outputs": [],
      "stateMutability": "nonpayable",
      "type": "function"
    },
    {
      "inputs": [],
      "name": "freshnessWindow",
      "outputs": [
        {
          "internalType": "uint256",
          "name": "",
          "type": "uint256"
        }
      ],
      "stateMutability": "view",
      "type": "function"
    },
    {
      "inputs": [],
      "name": "rrIndex",
      "outputs": [
        {
          "internalType": "uint256",
          "name": "",
          "type": "uint256"
        }
      ],
      "stateMutability": "view",
      "type": "function"
    }
  ],
  "bytecode": "0x6080604052610e106003556000600560006101000a81548160ff02191690831515021790555034801561003157600080fd5b50336000806101000a81548173ffffffffffffffffffffffffffffffffffffffff021916908373ffffffffffffffffffffffffffffffffffffffff160217905550600160008054906101000a900473ffffffffffffffffffffffffffffffffffffffff169080600181540180825580915050600190039060005260206000200160009091909190916101000a81548173ffffffffffffffffffffffffffffffffffffffff021916908373ffffffffffffffffffffffffffffffffffffffff1602179055506000600960008060009054906101000a900473ffffffffffffffffffffffffffffffffffffffff1673ffffffffffffffffffffffffffffffffffffffff1673ffffffffffffffffffffffffffffffffffffffff168152602001908152602001600020819055506139c18061016a6000396000f3fe608060405234801561001057600080fd5b506004361061012c5760003560e01c8063986bed88116100ad578063c224122d11610071578063c224122d1461034a578063c2694a041461037a578063c984f8db14610396578063cb2a0348146103b2578063e1a94c83146103e25761012c565b8063986bed88146102585780639cb65fa114610288578063b46ca81a146102b8578063b8df8f98146102e8578063bc1a097e146103185761012c565b80635f3d4220116100f45780635f3d4220146101c157806378caad49146101f457806381880fd3146101fe57806393506aa61461021c57806396efe8521461023a5761012c565b806313f24064146101315780631d995a0e1461014d5780632e44aacd14610157578063357baf8c14610173578063395d719b14610191575b600080fd5b61014b60048036038101906101469190612262565b610414565b005b6101556104bf565b005b610171600480360381019061016c9190612301565b6107d6565b005b61017b610a58565b6040516101889190612363565b60405180910390f35b6101ab60048036038101906101a691906123dc565b610a5e565b6040516101b8919061242b565b60405180910390f35b6101db60048036038101906101d69190612446565b610b49565b6040516101eb9493929190612512565b60405180910390f35b6101fc610c4e565b005b610206610ddc565b6040516102139190612557565b60405180910390f35b610224610de2565b6040516102319190612557565b60405180910390f35b610242610de8565b60405161024f9190612630565b60405180910390f35b610272600480360381019061026d9190612652565b610e40565b60405161027f919061242b565b60405180910390f35b6102a2600480360381019061029d91906123dc565b610fd8565b6040516102af9190612692565b60405180910390f35b6102d260048036038101906102cd91906123dc565b61112c565b6040516102df919061242b565b60405180910390f35b61030260048036038101906102fd9190612446565b611217565b60405161030f91906126f5565b60405180910390f35b610332600480360381019061032d9190612710565b611244565b604051610341939291906127e0565b60405180910390f35b610364600480360381019061035f9190612825565b61147e565b604051610371919061242b565b60405180910390f35b610394600480360381019061038f9190612852565b6114d7565b005b6103b060048036038101906103ab91906129c7565b61189c565b005b6103cc60048036038101906103c79190612852565b611a39565b6040516103d9919061242b565b60405180910390f35b6103fc60048036038101906103f791906123dc565b611d5d565b60405161040b93929190612a1f565b60405180910390f35b60008054906101000a900473ffffffffffffffffffffffffffffffffffffffff1673ffffffffffffffffffffffffffffffffffffffff163373ffffffffffffffffffffffffffffffffffffffff16146104a2576040517f08c379a000000000000000000000000000000000000000000000000000000000815260040161049990612aa2565b60405180910390fd5b80600560006101000a81548160ff02191690831515021790555050565b6000600760003373ffffffffffffffffffffffffffffffffffffffff1673ffffffffffffffffffffffffffffffffffffffff16815260200190815260200160002090508060010160009054906101000a900460ff16610553576040517f08c379a000000000000000000000000000000000000000000000000000000000815260040161054a90612b34565b60405180910390fd5b6000600960003373ffffffffffffffffffffffffffffffffffffffff1673ffffffffffffffffffffffffffffffffffffffff168152602001908152602001600020549050600060018080805490506105ab9190612b83565b815481106105bc576105bb612bb7565b5b9060005260206000200160009054906101000a900473ffffffffffffffffffffffffffffffffffffffff16905080600183815481106105fe576105fd612bb7565b5b9060005260206000200160006101000a81548173ffffffffffffffffffffffffffffffffffffffff021916908373ffffffffffffffffffffffffffffffffffffffff16021790555081600960008373ffffffffffffffffffffffffffffffffffffffff1673ffffffffffffffffffffffffffffffffffffffff16815260200190815260200160002081905550600180548061069c5761069b612be6565b5b6001900381819060005260206000200160006101000a81549073ffffffffffffffffffffffffffffffffffffffff02191690559055600960003373ffffffffffffffffffffffffffffffffffffffff1673ffffffffffffffffffffffffffffffffffffffff16815260200190815260200160002060009055826002016000610724919061217b565b600760003373ffffffffffffffffffffffffffffffffffffffff1673ffffffffffffffffffffffffffffffffffffffff16815260200190815260200160002060008082016000610774919061219c565b6001820160006101000a81549060ff0219169055600282016000610798919061217b565b50507fed9c8ad8d5a0a66898ea49d2956929c93ae2e8bd50281b2ed897c5d1a6737e0b336040516107c99190612692565b60405180910390a1505050565b6000600760003373ffffffffffffffffffffffffffffffffffffffff1673ffffffffffffffffffffffffffffffffffffffff16815260200190815260200160002090508060010160009054906101000a900460ff1661086a576040517f08c379a000000000000000000000000000000000000000000000000000000000815260040161086190612c87565b60405180910390fd5b60018263ffffffff161015801561088f575061271063ffffffff168263ffffffff1611155b6108ce576040517f08c379a00000000000000000000000000000000000000000000000000000000081526004016108c590612d19565b60405180910390fd5b60006008600086815260200190815260200160002090508481600001819055506108f733611f29565b8160010160006101000a81548173ffffffffffffffffffffffffffffffffffffffff021916908373ffffffffffffffffffffffffffffffffffffffff160217905550338160020160006101000a81548173ffffffffffffffffffffffffffffffffffffffff021916908373ffffffffffffffffffffffffffffffffffffffff1602179055508381600301819055506000801b8160040181905550828160050160006101000a81548163ffffffff021916908363ffffffff16021790555060008160050160046101000a81548160ff021916908360028111156109dc576109db612482565b5b021790555060008160050160056101000a81548160ff02191690836002811115610a0957610a08612482565b5b0217905550600081600601819055507f6aa34f034d08ce6962560c4805f8d0ea14020343310408c935a7354c772f2d388584604051610a49929190612d39565b60405180910390a15050505050565b61271081565b600080600860008581526020019081526020016000209050600280811115610a8957610a88612482565b5b8160050160049054906101000a900460ff166002811115610aad57610aac612482565b5b03610aed576040517f08c379a0000000000000000000000000000000000000000000000000000000008152600401610ae490612dd4565b60405180910390fd5b8273ffffffffffffffffffffffffffffffffffffffff168160020160009054906101000a900473ffffffffffffffffffffffffffffffffffffffff1673ffffffffffffffffffffffffffffffffffffffff161491505092915050565b6000806000806000600860008781526020019081526020016000209050600280811115610b7957610b78612482565b5b8160050160049054906101000a900460ff166002811115610b9d57610b9c612482565b5b14610bdd576040517f08c379a0000000000000000000000000000000000000000000000000000000008152600401610bd490612e66565b60405180910390fd5b8060020160009054906101000a900473ffffffffffffffffffffffffffffffffffffffff168160010160009054906101000a900473ffffffffffffffffffffffffffffffffffffffff168260050160059054906101000a900460ff1683600601549450945094509450509193509193565b60008054906101000a900473ffffffffffffffffffffffffffffffffffffffff1673ffffffffffffffffffffffffffffffffffffffff163373ffffffffffffffffffffffffffffffffffffffff1614610cdc576040517f08c379a0000000000000000000000000000000000000000000000000000000008152600401610cd390612ef8565b60405180910390fd5b60026000610cea919061217b565b60006004819055506001600560006101000a81548160ff02191690831515021790555060005b600180549050811015610dad5760006006600060018481548110610d3757610d36612bb7565b5b9060005260206000200160009054906101000a900473ffffffffffffffffffffffffffffffffffffffff1673ffffffffffffffffffffffffffffffffffffffff1673ffffffffffffffffffffffffffffffffffffffff168152602001908152602001600020819055508080600101915050610d10565b507f8e1dda8e7ca889ef4bd70f2ff6dd48a9b896b1d89703a08b6385333045af148960405160405180910390a1565b60035481565b60045481565b60606002805480602002602001604051908101604052809291908181526020018280548015610e3657602002820191906000526020600020905b815481526020019060010190808311610e22575b5050505050905090565b60008060009054906101000a900473ffffffffffffffffffffffffffffffffffffffff1673ffffffffffffffffffffffffffffffffffffffff163373ffffffffffffffffffffffffffffffffffffffff1614610ed1576040517f08c379a0000000000000000000000000000000000000000000000000000000008152600401610ec890612f8a565b60405180910390fd5b600060086000858152602001908152602001600020905060006002811115610efc57610efb612482565b5b8160050160049054906101000a900460ff166002811115610f2057610f1f612482565b5b14610f60576040517f08c379a0000000000000000000000000000000000000000000000000000000008152600401610f579061301c565b60405180910390fd5b82816004018190555060018160050160046101000a81548160ff02191690836002811115610f9157610f90612482565b5b02179055507f6781e8d3c07e87e938ec28a5435aa7862779fb9c7d01b7315eca91430b2a464384604051610fc5919061303c565b60405180910390a1600191505092915050565b60008060009054906101000a900473ffffffffffffffffffffffffffffffffffffffff1673ffffffffffffffffffffffffffffffffffffffff168273ffffffffffffffffffffffffffffffffffffffff1614611069576040517f08c379a0000000000000000000000000000000000000000000000000000000008152600401611060906130a3565b60405180910390fd5b60006008600085815260200190815260200160002090506000600281111561109457611093612482565b5b8160050160049054906101000a900460ff1660028111156110b8576110b7612482565b5b146110f8576040517f08c379a00000000000000000000000000000000000000000000000000000000081526004016110ef90613135565b60405180910390fd5b60008160020160009054906101000a900473ffffffffffffffffffffffffffffffffffffffff169050809250505092915050565b60008060086000858152602001908152602001600020905060028081111561115757611156612482565b5b8160050160049054906101000a900460ff16600281111561117b5761117a612482565b5b036111bb576040517f08c379a00000000000000000000000000000000000000000000000000000000081526004016111b290612dd4565b60405180910390fd5b8273ffffffffffffffffffffffffffffffffffffffff168160010160009054906101000a900473ffffffffffffffffffffffffffffffffffffffff1673ffffffffffffffffffffffffffffffffffffffff161491505092915050565b60006008600083815260200190815260200160002060050160049054906101000a900460ff169050919050565b6060600060606000600760008673ffffffffffffffffffffffffffffffffffffffff1673ffffffffffffffffffffffffffffffffffffffff16815260200190815260200160002090506000600760008873ffffffffffffffffffffffffffffffffffffffff1673ffffffffffffffffffffffffffffffffffffffff16815260200190815260200160002090508160010160009054906101000a900460ff1680611338575060008054906101000a900473ffffffffffffffffffffffffffffffffffffffff1673ffffffffffffffffffffffffffffffffffffffff168673ffffffffffffffffffffffffffffffffffffffff16145b611377576040517f08c379a000000000000000000000000000000000000000000000000000000000815260040161136e906131c7565b60405180910390fd5b806000018160010160009054906101000a900460ff168260020182805461139d90613216565b80601f01602080910402602001604051908101604052809291908181526020018280546113c990613216565b80156114165780601f106113eb57610100808354040283529160200191611416565b820191906000526020600020905b8154815290600101906020018083116113f957829003601f168201915b505050505092508080548060200260200160405190810160405280929190818152602001828054801561146857602002820191906000526020600020905b815481526020019060010190808311611454575b5050505050905094509450945050509250925092565b6000600760008373ffffffffffffffffffffffffffffffffffffffff1673ffffffffffffffffffffffffffffffffffffffff16815260200190815260200160002060010160009054906101000a900460ff169050919050565b60008054906101000a900473ffffffffffffffffffffffffffffffffffffffff1673ffffffffffffffffffffffffffffffffffffffff163373ffffffffffffffffffffffffffffffffffffffff1614611565576040517f08c379a000000000000000000000000000000000000000000000000000000000815260040161155c906132b9565b60405180910390fd5b6000600860008481526020019081526020016000209050600060028111156115905761158f612482565b5b8160050160049054906101000a900460ff1660028111156115b4576115b3612482565b5b146115f4576040517f08c379a00000000000000000000000000000000000000000000000000000000081526004016115eb90613325565b60405180910390fd5b60008054906101000a900473ffffffffffffffffffffffffffffffffffffffff1673ffffffffffffffffffffffffffffffffffffffff168160010160009054906101000a900473ffffffffffffffffffffffffffffffffffffffff1673ffffffffffffffffffffffffffffffffffffffff16146116a6576040517f08c379a000000000000000000000000000000000000000000000000000000000815260040161169d90613391565b60405180910390fd5b60028160050160046101000a81548160ff021916908360028111156116ce576116cd612482565b5b0217905550428160060181905550811561177c5760028160050160056101000a81548160ff0219169083600281111561170a57611709612482565b5b021790555042600660008360020160009054906101000a900473ffffffffffffffffffffffffffffffffffffffff1673ffffffffffffffffffffffffffffffffffffffff1673ffffffffffffffffffffffffffffffffffffffff168152602001908152602001600020819055506117aa565b60018160050160056101000a81548160ff021916908360028111156117a4576117a3612482565b5b02179055505b600760008260020160009054906101000a900473ffffffffffffffffffffffffffffffffffffffff1673ffffffffffffffffffffffffffffffffffffffff1673ffffffffffffffffffffffffffffffffffffffff16815260200190815260200160002060020183908060018154018082558091505060019003906000526020600020016000909190919091505560028390806001815401808255809150506001900390600052602060002001600090919091909150557f31a3cf273cd0e82f8ddb4be15d4b954d7fcd18a4c5d4591cce32edd1a4bc417d8360405161188f919061303c565b60405180910390a1505050565b60008151116118e0576040517f08c379a00000000000000000000000000000000000000000000000000000000081526004016118d7906133fd565b60405180910390fd5b6000600760003373ffffffffffffffffffffffffffffffffffffffff1673ffffffffffffffffffffffffffffffffffffffff16815260200190815260200160002090508181600001908161193491906135c9565b5060018160010160006101000a81548160ff021916908315150217905550600180549050600960003373ffffffffffffffffffffffffffffffffffffffff1673ffffffffffffffffffffffffffffffffffffffff168152602001908152602001600020819055506001339080600181540180825580915050600190039060005260206000200160009091909190916101000a81548173ffffffffffffffffffffffffffffffffffffffff021916908373ffffffffffffffffffffffffffffffffffffffff1602179055507f82d0829d9d481e4cb9913897f9b9c903271c4db68c7b3324071d2a7e3b2c5ff033604051611a2d9190612692565b60405180910390a15050565b6000806008600085815260200190815260200160002090503373ffffffffffffffffffffffffffffffffffffffff168160010160009054906101000a900473ffffffffffffffffffffffffffffffffffffffff1673ffffffffffffffffffffffffffffffffffffffff1614611ae3576040517f08c379a0000000000000000000000000000000000000000000000000000000008152600401611ada9061370d565b60405180910390fd5b60016002811115611af757611af6612482565b5b8160050160049054906101000a900460ff166002811115611b1b57611b1a612482565b5b14611b5b576040517f08c379a0000000000000000000000000000000000000000000000000000000008152600401611b529061379f565b60405180910390fd5b60028160050160046101000a81548160ff02191690836002811115611b8357611b82612482565b5b02179055504281600601819055506000600760008360020160009054906101000a900473ffffffffffffffffffffffffffffffffffffffff1673ffffffffffffffffffffffffffffffffffffffff1673ffffffffffffffffffffffffffffffffffffffff16815260200190815260200160002090508315611c985760028260050160056101000a81548160ff02191690836002811115611c2657611c25612482565b5b021790555042600660008460020160009054906101000a900473ffffffffffffffffffffffffffffffffffffffff1673ffffffffffffffffffffffffffffffffffffffff1673ffffffffffffffffffffffffffffffffffffffff16815260200190815260200160002081905550611cc6565b60018260050160056101000a81548160ff02191690836002811115611cc057611cbf612482565b5b02179055505b8060020185908060018154018082558091505060019003906000526020600020016000909190919091505560028590806001815401808255809150506001900390600052602060002001600090919091909150557f31a3cf273cd0e82f8ddb4be15d4b954d7fcd18a4c5d4591cce32edd1a4bc417d85604051611d49919061303c565b60405180910390a160019250505092915050565b6000806000806008600087815260200190815260200160002090508473ffffffffffffffffffffffffffffffffffffffff168160010160009054906101000a900473ffffffffffffffffffffffffffffffffffffffff1673ffffffffffffffffffffffffffffffffffffffff1614611e0a576040517f08c379a0000000000000000000000000000000000000000000000000000000008152600401611e0190613831565b60405180910390fd5b60016002811115611e1e57611e1d612482565b5b8160050160049054906101000a900460ff166002811115611e4257611e41612482565b5b1480611ebd575060008054906101000a900473ffffffffffffffffffffffffffffffffffffffff1673ffffffffffffffffffffffffffffffffffffffff168160010160009054906101000a900473ffffffffffffffffffffffffffffffffffffffff1673ffffffffffffffffffffffffffffffffffffffff16145b611efc576040517f08c379a0000000000000000000000000000000000000000000000000000000008152600401611ef3906138c3565b60405180910390fd5b806003015481600401548260050160009054906101000a900463ffffffff16935093509350509250925092565b6000600560009054906101000a900460ff1615611f685760008054906101000a900473ffffffffffffffffffffffffffffffffffffffff169050612176565b600060018054905067ffffffffffffffff811115611f8957611f8861289c565b5b604051908082528060200260200182016040528015611fb75781602001602082028036833780820191505090505b5090506000805b6001805490508110156120f857600060018281548110611fe157611fe0612bb7565b5b9060005260206000200160009054906101000a900473ffffffffffffffffffffffffffffffffffffffff1690508573ffffffffffffffffffffffffffffffffffffffff168173ffffffffffffffffffffffffffffffffffffffff161415801561208a57506000600660008373ffffffffffffffffffffffffffffffffffffffff1673ffffffffffffffffffffffffffffffffffffffff1681526020019081526020016000205414155b156120ea578084848061209c906138e3565b9550815181106120af576120ae612bb7565b5b602002602001019073ffffffffffffffffffffffffffffffffffffffff16908173ffffffffffffffffffffffffffffffffffffffff16815250505b508080600101915050611fbe565b506000810361212b5760008054906101000a900473ffffffffffffffffffffffffffffffffffffffff1692505050612176565b6000828260045461213c919061395a565b8151811061214d5761214c612bb7565b5b602002602001015190506004600081548092919061216a906138e3565b91905055508093505050505b919050565b508054600082559060005260206000209081019061219991906121dc565b50565b5080546121a890613216565b6000825580601f106121ba57506121d9565b601f0160209004906000526020600020908101906121d891906121f9565b5b50565b5b808211156121f55760008160009055506001016121dd565b5090565b5b808211156122125760008160009055506001016121fa565b5090565b6000604051905090565b600080fd5b600080fd5b60008115159050919050565b61223f8161222a565b811461224a57600080fd5b50565b60008135905061225c81612236565b92915050565b60006020828403121561227857612277612220565b5b60006122868482850161224d565b91505092915050565b6000819050919050565b6122a28161228f565b81146122ad57600080fd5b50565b6000813590506122bf81612299565b92915050565b600063ffffffff82169050919050565b6122de816122c5565b81146122e957600080fd5b50565b6000813590506122fb816122d5565b92915050565b60008060006060848603121561231a57612319612220565b5b6000612328868287016122b0565b9350506020612339868287016122b0565b925050604061234a868287016122ec565b9150509250925092565b61235d816122c5565b82525050565b60006020820190506123786000830184612354565b92915050565b600073ffffffffffffffffffffffffffffffffffffffff82169050919050565b60006123a98261237e565b9050919050565b6123b98161239e565b81146123c457600080fd5b50565b6000813590506123d6816123b0565b92915050565b600080604083850312156123f3576123f2612220565b5b6000612401858286016122b0565b9250506020612412858286016123c7565b9150509250929050565b6124258161222a565b82525050565b6000602082019050612440600083018461241c565b92915050565b60006020828403121561245c5761245b612220565b5b600061246a848285016122b0565b91505092915050565b61247c8161239e565b82525050565b7f4e487b7100000000000000000000000000000000000000000000000000000000600052602160045260246000fd5b600381106124c2576124c1612482565b5b50565b60008190506124d3826124b1565b919050565b60006124e3826124c5565b9050919050565b6124f3816124d8565b82525050565b6000819050919050565b61250c816124f9565b82525050565b60006080820190506125276000830187612473565b6125346020830186612473565b61254160408301856124ea565b61254e6060830184612503565b95945050505050565b600060208201905061256c6000830184612503565b92915050565b600081519050919050565b600082825260208201905092915050565b6000819050602082019050919050565b6125a78161228f565b82525050565b60006125b9838361259e565b60208301905092915050565b6000602082019050919050565b60006125dd82612572565b6125e7818561257d565b93506125f28361258e565b8060005b8381101561262357815161260a88826125ad565b9750612615836125c5565b9250506001810190506125f6565b5085935050505092915050565b6000602082019050818103600083015261264a81846125d2565b905092915050565b6000806040838503121561266957612668612220565b5b6000612677858286016122b0565b9250506020612688858286016122b0565b9150509250929050565b60006020820190506126a76000830184612473565b92915050565b600381106126be576126bd612482565b5b50565b60008190506126cf826126ad565b919050565b60006126df826126c1565b9050919050565b6126ef816126d4565b82525050565b600060208201905061270a60008301846126e6565b92915050565b6000806040838503121561272757612726612220565b5b6000612735858286016123c7565b9250506020612746858286016123c7565b9150509250929050565b600081519050919050565b600082825260208201905092915050565b60005b8381101561278a57808201518184015260208101905061276f565b60008484015250505050565b6000601f19601f8301169050919050565b60006127b282612750565b6127bc818561275b565b93506127cc81856020860161276c565b6127d581612796565b840191505092915050565b600060608201905081810360008301526127fa81866127a7565b9050612809602083018561241c565b818103604083015261281b81846125d2565b9050949350505050565b60006020828403121561283b5761283a612220565b5b6000612849848285016123c7565b91505092915050565b6000806040838503121561286957612868612220565b5b6000612877858286016122b0565b92505060206128888582860161224d565b9150509250929050565b600080fd5b600080fd5b7f4e487b7100000000000000000000000000000000000000000000000000000000600052604160045260246000fd5b6128d482612796565b810181811067ffffffffffffffff821117156128f3576128f261289c565b5b80604052505050565b6000612906612216565b905061291282826128cb565b919050565b600067ffffffffffffffff8211156129325761293161289c565b5b61293b82612796565b9050602081019050919050565b82818337600083830152505050565b600061296a61296584612917565b6128fc565b90508281526020810184848401111561298657612985612897565b5b612991848285612948565b509392505050565b600082601f8301126129ae576129ad612892565b5b81356129be848260208601612957565b91505092915050565b6000602082840312156129dd576129dc612220565b5b600082013567ffffffffffffffff8111156129fb576129fa612225565b5b612a0784828501612999565b91505092915050565b612a198161228f565b82525050565b6000606082019050612a346000830186612a10565b612a416020830185612a10565b612a4e6040830184612354565b949350505050565b7f4f6e6c79205345436161532063616e2063616c6c207468697300000000000000600082015250565b6000612a8c60198361275b565b9150612a9782612a56565b602082019050919050565b60006020820190508181036000830152612abb81612a7f565b9050919050565b7f52656d6f76654167656e74203a204167656e74206973206e6f7420726567697360008201527f7465726564000000000000000000000000000000000000000000000000000000602082015250565b6000612b1e60258361275b565b9150612b2982612ac2565b604082019050919050565b60006020820190508181036000830152612b4d81612b11565b9050919050565b7f4e487b7100000000000000000000000000000000000000000000000000000000600052601160045260246000fd5b6000612b8e826124f9565b9150612b99836124f9565b9250828203905081811115612bb157612bb0612b54565b5b92915050565b7f4e487b7100000000000000000000000000000000000000000000000000000000600052603260045260246000fd5b7f4e487b7100000000000000000000000000000000000000000000000000000000600052603160045260246000fd5b7f53656e6445766964656e6365203a204167656e74206973206e6f74207265676960008201527f7374657265640000000000000000000000000000000000000000000000000000602082015250565b6000612c7160268361275b565b9150612c7c82612c15565b604082019050919050565b60006020820190508181036000830152612ca081612c64565b9050919050565b7f53656e6445766964656e6365203a2069746572436f756e74206f7574206f662060008201527f72616e6765000000000000000000000000000000000000000000000000000000602082015250565b6000612d0360258361275b565b9150612d0e82612ca7565b604082019050919050565b60006020820190508181036000830152612d3281612cf6565b9050919050565b6000604082019050612d4e6000830185612a10565b612d5b6020830184612354565b9392505050565b7f4174746573746174696f6e2070726f6365737320697320636c6f736564206f7260008201527f206e6f7420657869737473000000000000000000000000000000000000000000602082015250565b6000612dbe602b8361275b565b9150612dc982612d62565b604082019050919050565b60006020820190508181036000830152612ded81612db1565b9050919050565b7f4174746573746174696f6e2070726f63657373206973206e6f7420636c6f736560008201527f6400000000000000000000000000000000000000000000000000000000000000602082015250565b6000612e5060218361275b565b9150612e5b82612df4565b604082019050919050565b60006020820190508181036000830152612e7f81612e43565b9050919050565b7f4f6e6c7920746865205345436161532063616e2072657365742074686520636860008201527f61696e0000000000000000000000000000000000000000000000000000000000602082015250565b6000612ee260238361275b565b9150612eed82612e86565b604082019050919050565b60006020820190508181036000830152612f1181612ed5565b9050919050565b7f4f6e6c7920746865205345436161532063616e2073656e64207468652072656660008201527f6572656e6365207369676e617475726500000000000000000000000000000000602082015250565b6000612f7460308361275b565b9150612f7f82612f18565b604082019050919050565b60006020820190508181036000830152612fa381612f67565b9050919050565b7f496e76616c696420737461746520666f722053454361615320726573706f6e7360008201527f6500000000000000000000000000000000000000000000000000000000000000602082015250565b600061300660218361275b565b915061301182612faa565b604082019050919050565b6000602082019050818103600083015261303581612ff9565b9050919050565b60006020820190506130516000830184612a10565b92915050565b7f596f7520617265206e6f7420746865205345436161532e000000000000000000600082015250565b600061308d60178361275b565b915061309882613057565b602082019050919050565b600060208201905081810360008301526130bc81613080565b9050919050565b7f4174746573746174696f6e20697320636c6f736564206f72206e6f742065786960008201527f7374730000000000000000000000000000000000000000000000000000000000602082015250565b600061311f60238361275b565b915061312a826130c3565b604082019050919050565b6000602082019050818103600083015261314e81613112565b9050919050565b7f4765744167656e74496e666f203a204167656e74206973206e6f74207265676960008201527f7374657265640000000000000000000000000000000000000000000000000000602082015250565b60006131b160268361275b565b91506131bc82613155565b604082019050919050565b600060208201905081810360008301526131e0816131a4565b9050919050565b7f4e487b7100000000000000000000000000000000000000000000000000000000600052602260045260246000fd5b6000600282049050600182168061322e57607f821691505b602082108103613241576132406131e7565b5b50919050565b7f4f6e6c7920746865205345436161532063616e207265736f6c7665206174746560008201527f73746174696f6e73000000000000000000000000000000000000000000000000602082015250565b60006132a360288361275b565b91506132ae82613247565b604082019050919050565b600060208201905081810360008301526132d281613296565b9050919050565b7f4e6f7420696e204f70656e207374617465000000000000000000000000000000600082015250565b600061330f60118361275b565b915061331a826132d9565b602082019050919050565b6000602082019050818103600083015261333e81613302565b9050919050565b7f534543616153206e6f7420656c65637465642061732076657269666965720000600082015250565b600061337b601e8361275b565b915061338682613345565b602082019050919050565b600060208201905081810360008301526133aa8161336e565b9050919050565b7f4e616d65206973206e6f742076616c6964000000000000000000000000000000600082015250565b60006133e760118361275b565b91506133f2826133b1565b602082019050919050565b60006020820190508181036000830152613416816133da565b9050919050565b60008190508160005260206000209050919050565b60006020601f8301049050919050565b600082821b905092915050565b60006008830261347f7fffffffffffffffffffffffffffffffffffffffffffffffffffffffffffffffff82613442565b6134898683613442565b95508019841693508086168417925050509392505050565b6000819050919050565b60006134c66134c16134bc846124f9565b6134a1565b6124f9565b9050919050565b6000819050919050565b6134e0836134ab565b6134f46134ec826134cd565b84845461344f565b825550505050565b600090565b6135096134fc565b6135148184846134d7565b505050565b5b818110156135385761352d600082613501565b60018101905061351a565b5050565b601f82111561357d5761354e8161341d565b61355784613432565b81016020851015613566578190505b61357a61357285613432565b830182613519565b50505b505050565b600082821c905092915050565b60006135a060001984600802613582565b1980831691505092915050565b60006135b9838361358f565b9150826002028217905092915050565b6135d282612750565b67ffffffffffffffff8111156135eb576135ea61289c565b5b6135f58254613216565b61360082828561353c565b600060209050601f8311600181146136335760008415613621578287015190505b61362b85826135ad565b865550613693565b601f1984166136418661341d565b60005b8281101561366957848901518255600182019150602085019450602081019050613644565b868310156136865784890151613682601f89168261358f565b8355505b6001600288020188555050505b505050505050565b7f4f6e6c79207468652076657269666965722063616e20636c6f7365207468652060008201527f6174746573746174696f6e2070726f6365737300000000000000000000000000602082015250565b60006136f760338361275b565b91506137028261369b565b604082019050919050565b60006020820190508181036000830152613726816136ea565b9050919050565b7f4174746573746174696f6e206973206e6f7420726561647920666f7220636c6f60008201527f7375726500000000000000000000000000000000000000000000000000000000602082015250565b600061378960248361275b565b91506137948261372d565b604082019050919050565b600060208201905081810360008301526137b88161377c565b9050919050565b7f4f6e6c79207468652076657269666965722063616e207265747269657665207460008201527f6865207369676e61747572657300000000000000000000000000000000000000602082015250565b600061381b602d8361275b565b9150613826826137bf565b604082019050919050565b6000602082019050818103600083015261384a8161380e565b9050919050565b7f4174746573746174696f6e206e6f7420636f6d706c657465642028756e6c657360008201527f7320766572696669657220697320736563616173290000000000000000000000602082015250565b60006138ad60358361275b565b91506138b882613851565b604082019050919050565b600060208201905081810360008301526138dc816138a0565b9050919050565b60006138ee826124f9565b91507fffffffffffffffffffffffffffffffffffffffffffffffffffffffffffffffff82036139205761391f612b54565b5b600182019050919050565b7f4e487b7100000000000000000000000000000000000000000000000000000000600052601260045260246000fd5b6000613965826124f9565b9150613970836124f9565b9250826139805761397f61392b565b5b82820690509291505056fea2646970667358221220f9b0d82ad52c423fab120b0f0e4db42c87d0da5858d08ef036dc960ba10530a964736f6c634300081c0033",
  "linkReferences": {},
  "deployedLinkReferences": {}
}