{
  "_format": "hh-sol-artifact-1",
  "contractName": "AttestationManagerRR",
  "sourceName": "contracts/AttestationManagerRR.sol",
  "abi": [
    {
      "inputs": [],
      "stateMutability": "nonpayable",
      "type": "constructor"
    },
    {
      "anonymous": false,
      "inputs": [
        {
          "indexed": false,
          "internalType": "address",
          "name": "agent",
          "type": "address"
        }
      ],
      "name": "AgentRegistered",
      "type": "event"
    },
    {
      "anonymous": false,
      "inputs": [
        {
          "indexed": false,
          "internalType": "address",
          "name": "agent",
          "type": "address"
        }
      ],
      "name": "AgentRemoved",
      "type": "event"
    },
    {
      "anonymous": false,
      "inputs": [
        {
          "indexed": false,
          "internalType": "bytes32",
          "name": "id",
          "type": "bytes32"
        }
      ],
      "name": "AttestationCompleted",
      "type": "event"
    },
    {
      "anonymous": false,
      "inputs": [
        {
          "indexed": false,
          "internalType": "bytes32",
          "name": "id",
          "type": "bytes32"
        },
        {
          "indexed": false,
          "internalType": "uint32",
          "name": "iterCount",
          "type": "uint32"
        }
      ],
      "name": "AttestationStarted",
      "type": "event"
    },
    {
      "anonymous": false,
      "inputs": [],
      "name": "ChainReset",
      "type": "event"
    },
    {
      "anonymous": false,
      "inputs": [
        {
          "indexed": false,
          "internalType": "bytes32",
          "name": "id",
          "type": "bytes32"
        }
      ],
      "name": "ReadyForEvaluation",
      "type": "event"
    },
    {
      "inputs": [
        {
          "internalType": "bytes32",
          "name": "id",
          "type": "bytes32"
        },
        {
          "internalType": "bool",
          "name": "verified",
          "type": "bool"
        }
      ],
      "name": "CloseAttestationProcess",
      "outputs": [
        {
          "internalType": "bool",
          "name": "",
          "type": "bool"
        }
      ],
      "stateMutability": "nonpayable",
      "type": "function"
    },
    {
      "inputs": [
        {
          "internalType": "address",
          "name": "agentAddress",
          "type": "address"
        },
        {
          "internalType": "address",
          "name": "callAddress",
          "type": "address"
        }
      ],
      "name": "GetAgentInfo",
      "outputs": [
        {
          "internalType": "string",
          "name": "",
          "type": "string"
        },
        {
          "internalType": "bool",
          "name": "",
          "type": "bool"
        },
        {
          "internalType": "bytes32[]",
          "name": "",
          "type": "bytes32[]"
        }
      ],
      "stateMutability": "view",
      "type": "function"
    },
    {
      "inputs": [],
      "name": "GetAttestationChain",
      "outputs": [
        {
          "internalType": "bytes32[]",
          "name": "",
          "type": "bytes32[]"
        }
      ],
      "stateMutability": "view",
      "type": "function"
    },
    {
      "inputs": [
        {
          "internalType": "bytes32",
          "name": "id",
          "type": "bytes32"
        }
      ],
      "name": "GetAttestationInfo",
      "outputs": [
        {
          "internalType": "address",
          "name": "",
          "type": "address"
        },
        {
          "internalType": "address",
          "name": "",
          "type": "address"
        },
        {
          "internalType": "enum AttestationManagerRR.AttestationResult",
          "name": "",
          "type": "uint8"
        },
        {
          "internalType": "uint256",
          "name": "",
          "type": "uint256"
        }
      ],
      "stateMutability": "view",
      "type": "function"
    },
    {
      "inputs": [
        {
          "internalType": "bytes32",
          "name": "id",
          "type": "bytes32"
        },
        {
          "internalType": "address",
          "name": "callAddress",
          "type": "address"
        }
      ],
      "name": "GetAttestationSignatures",
      "outputs": [
        {
          "internalType": "bytes32",
          "name": "",
          "type": "bytes32"
        },
        {
          "internalType": "bytes32",
          "name": "",
          "type": "bytes32"
        },
        {
          "internalType": "uint32",
          "name": "",
          "type": "uint32"
        }
      ],
      "stateMutability": "view",
      "type": "function"
    },
    {
      "inputs": [
        {
          "internalType": "bytes32",
          "name": "id",
          "type": "bytes32"
        }
      ],
      "name": "GetAttestationState",
      "outputs": [
        {
          "internalType": "enum AttestationManagerRR.AttestationState",
          "name": "",
          "type": "uint8"
        }
      ],
      "stateMutability": "view",
      "type": "function"
    },
    {
      "inputs": [
        {
          "internalType": "bytes32",
          "name": "id",
          "type": "bytes32"
        },
        {
          "internalType": "address",
          "name": "callAddress",
          "type": "address"
        }
      ],
      "name": "GetProverAddress",
      "outputs": [
        {
          "internalType": "address",
          "name": "",
          "type": "address"
        }
      ],
      "stateMutability": "view",
      "type": "function"
    },
    {
      "inputs": [
        {
          "internalType": "bytes32",
          "name": "id",
          "type": "bytes32"
        },
        {
          "internalType": "address",
          "name": "callAddress",
          "type": "address"
        }
      ],
      "name": "IsProver",
      "outputs": [
        {
          "internalType": "bool",
          "name": "",
          "type": "bool"
        }
      ],
      "stateMutability": "view",
      "type": "function"
    },
    {
      "inputs": [
        {
          "internalType": "address",
          "name": "callAddress",
          "type": "address"
        }
      ],
      "name": "IsRegistered",
      "outputs": [
        {
          "internalType": "bool",
          "name": "",
          "type": "bool"
        }
      ],
      "stateMutability": "view",
      "type": "function"
    },
    {
      "inputs": [
        {
          "internalType": "bytes32",
          "name": "id",
          "type": "bytes32"
        },
        {
          "internalType": "address",
          "name": "callAddress",
          "type": "address"
        }
      ],
      "name": "IsVerifier",
      "outputs": [
        {
          "internalType": "bool",
          "name": "",
          "type": "bool"
        }
      ],
      "stateMutability": "view",
      "type": "function"
    },
    {
      "inputs": [],
      "name": "MAX_ITER_COUNT",
      "outputs": [
        {
          "internalType": "uint32",
          "name": "",
          "type": "uint32"
        }
      ],
      "stateMutability": "view",
      "type": "function"
    },
    {
      "inputs": [
        {
          "internalType": "string",
          "name": "name",
          "type": "string"
        }
      ],
      "name": "RegisterAgent",
      "outputs": [],
      "stateMutability": "nonpayable",
      "type": "function"
    },
    {
      "inputs": [],
      "name": "RemoveAgent",
      "outputs": [],
      "stateMutability": "nonpayable",
      "type": "function"
    },
    {
      "inputs": [],
      "name": "ResetChain",
      "outputs": [],
      "stateMutability": "nonpayable",
      "type": "function"
    },
    {
      "inputs": [
        {
          "internalType": "bytes32",
          "name": "id",
          "type": "bytes32"
        },
        {
          "internalType": "bool",
          "name": "verified",
          "type": "bool"
        }
      ],
      "name": "ResolveAttestationSECaaS",
      "outputs": [],
      "stateMutability": "nonpayable",
      "type": "function"
    },
    {
      "inputs": [
        {
          "internalType": "bytes32",
          "name": "id",
          "type": "bytes32"
        },
        {
          "internalType": "bytes32",
          "name": "freshMeasurement",
          "type": "bytes32"
        },
        {
          "internalType": "uint32",
          "name": "iterCount",
          "type": "uint32"
        }
      ],
      "name": "SendEvidence",
      "outputs": [],
      "stateMutability": "nonpayable",
      "type": "function"
    },
    {
      "inputs": [
        {
          "internalType": "bytes32",
          "name": "id",
          "type": "bytes32"
        },
        {
          "internalType": "bytes32",
          "name": "refMeasurement",
          "type": "bytes32"
        }
      ],
      "name": "SendRefSignature",
      "outputs": [
        {
          "internalType": "bool",
          "name": "",
          "type": "bool"
        }
      ],
      "stateMutability": "nonpayable",
      "type": "function"
    },
    {
      "inputs": [],
      "name": "freshnessWindow",
      "outputs": [
        {
          "internalType": "uint256",
          "name": "",
          "type": "uint256"
        }
      ],
      "stateMutability": "view",
      "type": "function"
    },
    {
      "inputs": [],
      "name": "rrIndex",
      "outputs": [
        {
          "internalType": "uint256",
          "name": "",
          "type": "uint256"
        }
      ],
      "stateMutability": "view",
      "type": "function"
    }
  ],
  "bytecode": "0x6080604052610e1060035534801561001657600080fd5b50336000806101000a81548173ffffffffffffffffffffffffffffffffffffffff021916908373ffffffffffffffffffffffffffffffffffffffff160217905550600160008054906101000a900473ffffffffffffffffffffffffffffffffffffffff169080600181540180825580915050600190039060005260206000200160009091909190916101000a81548173ffffffffffffffffffffffffffffffffffffffff021916908373ffffffffffffffffffffffffffffffffffffffff1602179055506000600860008060009054906101000a900473ffffffffffffffffffffffffffffffffffffffff1673ffffffffffffffffffffffffffffffffffffffff1673ffffffffffffffffffffffffffffffffffffffff168152602001908152602001600020819055506137fd8061014f6000396000f3fe608060405234801561001057600080fd5b50600436106101215760003560e01c8063986bed88116100ad578063c224122d11610071578063c224122d14610323578063c2694a0414610353578063c984f8db1461036f578063cb2a03481461038b578063e1a94c83146103bb57610121565b8063986bed88146102315780639cb65fa114610261578063b46ca81a14610291578063b8df8f98146102c1578063bc1a097e146102f157610121565b80635f3d4220116100f45780635f3d42201461019a57806378caad49146101cd57806381880fd3146101d757806393506aa6146101f557806396efe8521461021357610121565b80631d995a0e146101265780632e44aacd14610130578063357baf8c1461014c578063395d719b1461016a575b600080fd5b61012e6103ed565b005b61014a60048036038101906101459190612171565b610704565b005b610154610986565b60405161016191906121d3565b60405180910390f35b610184600480360381019061017f919061224c565b61098c565b60405161019191906122a7565b60405180910390f35b6101b460048036038101906101af91906122c2565b610a77565b6040516101c4949392919061238e565b60405180910390f35b6101d5610b7c565b005b6101df610cef565b6040516101ec91906123d3565b60405180910390f35b6101fd610cf5565b60405161020a91906123d3565b60405180910390f35b61021b610cfb565b60405161022891906124ac565b60405180910390f35b61024b600480360381019061024691906124ce565b610d53565b60405161025891906122a7565b60405180910390f35b61027b6004803603810190610276919061224c565b610eeb565b604051610288919061250e565b60405180910390f35b6102ab60048036038101906102a6919061224c565b61103f565b6040516102b891906122a7565b60405180910390f35b6102db60048036038101906102d691906122c2565b61112a565b6040516102e89190612571565b60405180910390f35b61030b6004803603810190610306919061258c565b611157565b60405161031a9392919061265c565b60405180910390f35b61033d600480360381019061033891906126a1565b611391565b60405161034a91906122a7565b60405180910390f35b61036d600480360381019061036891906126fa565b6113ea565b005b6103896004803603810190610384919061286f565b6117af565b005b6103a560048036038101906103a091906126fa565b61194c565b6040516103b291906122a7565b60405180910390f35b6103d560048036038101906103d0919061224c565b611c70565b6040516103e4939291906128c7565b60405180910390f35b6000600660003373ffffffffffffffffffffffffffffffffffffffff1673ffffffffffffffffffffffffffffffffffffffff16815260200190815260200160002090508060010160009054906101000a900460ff16610481576040517f08c379a000000000000000000000000000000000000000000000000000000000815260040161047890612970565b60405180910390fd5b6000600860003373ffffffffffffffffffffffffffffffffffffffff1673ffffffffffffffffffffffffffffffffffffffff168152602001908152602001600020549050600060018080805490506104d991906129bf565b815481106104ea576104e96129f3565b5b9060005260206000200160009054906101000a900473ffffffffffffffffffffffffffffffffffffffff169050806001838154811061052c5761052b6129f3565b5b9060005260206000200160006101000a81548173ffffffffffffffffffffffffffffffffffffffff021916908373ffffffffffffffffffffffffffffffffffffffff16021790555081600860008373ffffffffffffffffffffffffffffffffffffffff1673ffffffffffffffffffffffffffffffffffffffff1681526020019081526020016000208190555060018054806105ca576105c9612a22565b5b6001900381819060005260206000200160006101000a81549073ffffffffffffffffffffffffffffffffffffffff02191690559055600860003373ffffffffffffffffffffffffffffffffffffffff1673ffffffffffffffffffffffffffffffffffffffff168152602001908152602001600020600090558260020160006106529190612050565b600660003373ffffffffffffffffffffffffffffffffffffffff1673ffffffffffffffffffffffffffffffffffffffff168152602001908152602001600020600080820160006106a29190612071565b6001820160006101000a81549060ff02191690556002820160006106c69190612050565b50507fed9c8ad8d5a0a66898ea49d2956929c93ae2e8bd50281b2ed897c5d1a6737e0b336040516106f7919061250e565b60405180910390a1505050565b6000600660003373ffffffffffffffffffffffffffffffffffffffff1673ffffffffffffffffffffffffffffffffffffffff16815260200190815260200160002090508060010160009054906101000a900460ff16610798576040517f08c379a000000000000000000000000000000000000000000000000000000000815260040161078f90612ac3565b60405180910390fd5b60018263ffffffff16101580156107bd575061271063ffffffff168263ffffffff1611155b6107fc576040517f08c379a00000000000000000000000000000000000000000000000000000000081526004016107f390612b55565b60405180910390fd5b600060076000868152602001908152602001600020905084816000018190555061082533611e3c565b8160010160006101000a81548173ffffffffffffffffffffffffffffffffffffffff021916908373ffffffffffffffffffffffffffffffffffffffff160217905550338160020160006101000a81548173ffffffffffffffffffffffffffffffffffffffff021916908373ffffffffffffffffffffffffffffffffffffffff1602179055508381600301819055506000801b8160040181905550828160050160006101000a81548163ffffffff021916908363ffffffff16021790555060008160050160046101000a81548160ff0219169083600281111561090a576109096122fe565b5b021790555060008160050160056101000a81548160ff02191690836002811115610937576109366122fe565b5b0217905550600081600601819055507f6aa34f034d08ce6962560c4805f8d0ea14020343310408c935a7354c772f2d388584604051610977929190612b75565b60405180910390a15050505050565b61271081565b6000806007600085815260200190815260200160002090506002808111156109b7576109b66122fe565b5b8160050160049054906101000a900460ff1660028111156109db576109da6122fe565b5b03610a1b576040517f08c379a0000000000000000000000000000000000000000000000000000000008152600401610a1290612c10565b60405180910390fd5b8273ffffffffffffffffffffffffffffffffffffffff168160020160009054906101000a900473ffffffffffffffffffffffffffffffffffffffff1673ffffffffffffffffffffffffffffffffffffffff161491505092915050565b6000806000806000600760008781526020019081526020016000209050600280811115610aa757610aa66122fe565b5b8160050160049054906101000a900460ff166002811115610acb57610aca6122fe565b5b14610b0b576040517f08c379a0000000000000000000000000000000000000000000000000000000008152600401610b0290612ca2565b60405180910390fd5b8060020160009054906101000a900473ffffffffffffffffffffffffffffffffffffffff168160010160009054906101000a900473ffffffffffffffffffffffffffffffffffffffff168260050160059054906101000a900460ff1683600601549450945094509450509193509193565b60008054906101000a900473ffffffffffffffffffffffffffffffffffffffff1673ffffffffffffffffffffffffffffffffffffffff163373ffffffffffffffffffffffffffffffffffffffff1614610c0a576040517f08c379a0000000000000000000000000000000000000000000000000000000008152600401610c0190612d34565b60405180910390fd5b60026000610c189190612050565b600060048190555060005b600180549050811015610cc05760006005600060018481548110610c4a57610c496129f3565b5b9060005260206000200160009054906101000a900473ffffffffffffffffffffffffffffffffffffffff1673ffffffffffffffffffffffffffffffffffffffff1673ffffffffffffffffffffffffffffffffffffffff168152602001908152602001600020819055508080600101915050610c23565b507f8e1dda8e7ca889ef4bd70f2ff6dd48a9b896b1d89703a08b6385333045af148960405160405180910390a1565b60035481565b60045481565b60606002805480602002602001604051908101604052809291908181526020018280548015610d4957602002820191906000526020600020905b815481526020019060010190808311610d35575b5050505050905090565b60008060009054906101000a900473ffffffffffffffffffffffffffffffffffffffff1673ffffffffffffffffffffffffffffffffffffffff163373ffffffffffffffffffffffffffffffffffffffff1614610de4576040517f08c379a0000000000000000000000000000000000000000000000000000000008152600401610ddb90612dc6565b60405180910390fd5b600060076000858152602001908152602001600020905060006002811115610e0f57610e0e6122fe565b5b8160050160049054906101000a900460ff166002811115610e3357610e326122fe565b5b14610e73576040517f08c379a0000000000000000000000000000000000000000000000000000000008152600401610e6a90612e58565b60405180910390fd5b82816004018190555060018160050160046101000a81548160ff02191690836002811115610ea457610ea36122fe565b5b02179055507f6781e8d3c07e87e938ec28a5435aa7862779fb9c7d01b7315eca91430b2a464384604051610ed89190612e78565b60405180910390a1600191505092915050565b60008060009054906101000a900473ffffffffffffffffffffffffffffffffffffffff1673ffffffffffffffffffffffffffffffffffffffff168273ffffffffffffffffffffffffffffffffffffffff1614610f7c576040517f08c379a0000000000000000000000000000000000000000000000000000000008152600401610f7390612edf565b60405180910390fd5b600060076000858152602001908152602001600020905060006002811115610fa757610fa66122fe565b5b8160050160049054906101000a900460ff166002811115610fcb57610fca6122fe565b5b1461100b576040517f08c379a000000000000000000000000000000000000000000000000000000000815260040161100290612f71565b60405180910390fd5b60008160020160009054906101000a900473ffffffffffffffffffffffffffffffffffffffff169050809250505092915050565b60008060076000858152602001908152602001600020905060028081111561106a576110696122fe565b5b8160050160049054906101000a900460ff16600281111561108e5761108d6122fe565b5b036110ce576040517f08c379a00000000000000000000000000000000000000000000000000000000081526004016110c590612c10565b60405180910390fd5b8273ffffffffffffffffffffffffffffffffffffffff168160010160009054906101000a900473ffffffffffffffffffffffffffffffffffffffff1673ffffffffffffffffffffffffffffffffffffffff161491505092915050565b60006007600083815260200190815260200160002060050160049054906101000a900460ff169050919050565b6060600060606000600660008673ffffffffffffffffffffffffffffffffffffffff1673ffffffffffffffffffffffffffffffffffffffff16815260200190815260200160002090506000600660008873ffffffffffffffffffffffffffffffffffffffff1673ffffffffffffffffffffffffffffffffffffffff16815260200190815260200160002090508160010160009054906101000a900460ff168061124b575060008054906101000a900473ffffffffffffffffffffffffffffffffffffffff1673ffffffffffffffffffffffffffffffffffffffff168673ffffffffffffffffffffffffffffffffffffffff16145b61128a576040517f08c379a000000000000000000000000000000000000000000000000000000000815260040161128190613003565b60405180910390fd5b806000018160010160009054906101000a900460ff16826002018280546112b090613052565b80601f01602080910402602001604051908101604052809291908181526020018280546112dc90613052565b80156113295780601f106112fe57610100808354040283529160200191611329565b820191906000526020600020905b81548152906001019060200180831161130c57829003601f168201915b505050505092508080548060200260200160405190810160405280929190818152602001828054801561137b57602002820191906000526020600020905b815481526020019060010190808311611367575b5050505050905094509450945050509250925092565b6000600660008373ffffffffffffffffffffffffffffffffffffffff1673ffffffffffffffffffffffffffffffffffffffff16815260200190815260200160002060010160009054906101000a900460ff169050919050565b60008054906101000a900473ffffffffffffffffffffffffffffffffffffffff1673ffffffffffffffffffffffffffffffffffffffff163373ffffffffffffffffffffffffffffffffffffffff1614611478576040517f08c379a000000000000000000000000000000000000000000000000000000000815260040161146f906130f5565b60405180910390fd5b6000600760008481526020019081526020016000209050600060028111156114a3576114a26122fe565b5b8160050160049054906101000a900460ff1660028111156114c7576114c66122fe565b5b14611507576040517f08c379a00000000000000000000000000000000000000000000000000000000081526004016114fe90613161565b60405180910390fd5b60008054906101000a900473ffffffffffffffffffffffffffffffffffffffff1673ffffffffffffffffffffffffffffffffffffffff168160010160009054906101000a900473ffffffffffffffffffffffffffffffffffffffff1673ffffffffffffffffffffffffffffffffffffffff16146115b9576040517f08c379a00000000000000000000000000000000000000000000000000000000081526004016115b0906131cd565b60405180910390fd5b60028160050160046101000a81548160ff021916908360028111156115e1576115e06122fe565b5b0217905550428160060181905550811561168f5760028160050160056101000a81548160ff0219169083600281111561161d5761161c6122fe565b5b021790555042600560008360020160009054906101000a900473ffffffffffffffffffffffffffffffffffffffff1673ffffffffffffffffffffffffffffffffffffffff1673ffffffffffffffffffffffffffffffffffffffff168152602001908152602001600020819055506116bd565b60018160050160056101000a81548160ff021916908360028111156116b7576116b66122fe565b5b02179055505b600660008260020160009054906101000a900473ffffffffffffffffffffffffffffffffffffffff1673ffffffffffffffffffffffffffffffffffffffff1673ffffffffffffffffffffffffffffffffffffffff16815260200190815260200160002060020183908060018154018082558091505060019003906000526020600020016000909190919091505560028390806001815401808255809150506001900390600052602060002001600090919091909150557f31a3cf273cd0e82f8ddb4be15d4b954d7fcd18a4c5d4591cce32edd1a4bc417d836040516117a29190612e78565b60405180910390a1505050565b60008151116117f3576040517f08c379a00000000000000000000000000000000000000000000000000000000081526004016117ea90613239565b60405180910390fd5b6000600660003373ffffffffffffffffffffffffffffffffffffffff1673ffffffffffffffffffffffffffffffffffffffff1681526020019081526020016000209050818160000190816118479190613405565b5060018160010160006101000a81548160ff021916908315150217905550600180549050600860003373ffffffffffffffffffffffffffffffffffffffff1673ffffffffffffffffffffffffffffffffffffffff168152602001908152602001600020819055506001339080600181540180825580915050600190039060005260206000200160009091909190916101000a81548173ffffffffffffffffffffffffffffffffffffffff021916908373ffffffffffffffffffffffffffffffffffffffff1602179055507f82d0829d9d481e4cb9913897f9b9c903271c4db68c7b3324071d2a7e3b2c5ff033604051611940919061250e565b60405180910390a15050565b6000806007600085815260200190815260200160002090503373ffffffffffffffffffffffffffffffffffffffff168160010160009054906101000a900473ffffffffffffffffffffffffffffffffffffffff1673ffffffffffffffffffffffffffffffffffffffff16146119f6576040517f08c379a00000000000000000000000000000000000000000000000000000000081526004016119ed90613549565b60405180910390fd5b60016002811115611a0a57611a096122fe565b5b8160050160049054906101000a900460ff166002811115611a2e57611a2d6122fe565b5b14611a6e576040517f08c379a0000000000000000000000000000000000000000000000000000000008152600401611a65906135db565b60405180910390fd5b60028160050160046101000a81548160ff02191690836002811115611a9657611a956122fe565b5b02179055504281600601819055506000600660008360020160009054906101000a900473ffffffffffffffffffffffffffffffffffffffff1673ffffffffffffffffffffffffffffffffffffffff1673ffffffffffffffffffffffffffffffffffffffff16815260200190815260200160002090508315611bab5760028260050160056101000a81548160ff02191690836002811115611b3957611b386122fe565b5b021790555042600560008460020160009054906101000a900473ffffffffffffffffffffffffffffffffffffffff1673ffffffffffffffffffffffffffffffffffffffff1673ffffffffffffffffffffffffffffffffffffffff16815260200190815260200160002081905550611bd9565b60018260050160056101000a81548160ff02191690836002811115611bd357611bd26122fe565b5b02179055505b8060020185908060018154018082558091505060019003906000526020600020016000909190919091505560028590806001815401808255809150506001900390600052602060002001600090919091909150557f31a3cf273cd0e82f8ddb4be15d4b954d7fcd18a4c5d4591cce32edd1a4bc417d85604051611c5c9190612e78565b60405180910390a160019250505092915050565b6000806000806007600087815260200190815260200160002090508473ffffffffffffffffffffffffffffffffffffffff168160010160009054906101000a900473ffffffffffffffffffffffffffffffffffffffff1673ffffffffffffffffffffffffffffffffffffffff1614611d1d576040517f08c379a0000000000000000000000000000000000000000000000000000000008152600401611d149061366d565b60405180910390fd5b60016002811115611d3157611d306122fe565b5b8160050160049054906101000a900460ff166002811115611d5557611d546122fe565b5b1480611dd0575060008054906101000a900473ffffffffffffffffffffffffffffffffffffffff1673ffffffffffffffffffffffffffffffffffffffff168160010160009054906101000a900473ffffffffffffffffffffffffffffffffffffffff1673ffffffffffffffffffffffffffffffffffffffff16145b611e0f576040517f08c379a0000000000000000000000000000000000000000000000000000000008152600401611e06906136ff565b60405180910390fd5b806003015481600401548260050160009054906101000a900463ffffffff16935093509350509250925092565b60008060018054905067ffffffffffffffff811115611e5e57611e5d612744565b5b604051908082528060200260200182016040528015611e8c5781602001602082028036833780820191505090505b5090506000805b600180549050811015611fcd57600060018281548110611eb657611eb56129f3565b5b9060005260206000200160009054906101000a900473ffffffffffffffffffffffffffffffffffffffff1690508573ffffffffffffffffffffffffffffffffffffffff168173ffffffffffffffffffffffffffffffffffffffff1614158015611f5f57506000600560008373ffffffffffffffffffffffffffffffffffffffff1673ffffffffffffffffffffffffffffffffffffffff1681526020019081526020016000205414155b15611fbf5780848480611f719061371f565b955081518110611f8457611f836129f3565b5b602002602001019073ffffffffffffffffffffffffffffffffffffffff16908173ffffffffffffffffffffffffffffffffffffffff16815250505b508080600101915050611e93565b50600081036120005760008054906101000a900473ffffffffffffffffffffffffffffffffffffffff169250505061204b565b600082826004546120119190613796565b81518110612022576120216129f3565b5b602002602001015190506004600081548092919061203f9061371f565b91905055508093505050505b919050565b508054600082559060005260206000209081019061206e91906120b1565b50565b50805461207d90613052565b6000825580601f1061208f57506120ae565b601f0160209004906000526020600020908101906120ad91906120ce565b5b50565b5b808211156120ca5760008160009055506001016120b2565b5090565b5b808211156120e75760008160009055506001016120cf565b5090565b6000604051905090565b600080fd5b600080fd5b6000819050919050565b612112816120ff565b811461211d57600080fd5b50565b60008135905061212f81612109565b92915050565b600063ffffffff82169050919050565b61214e81612135565b811461215957600080fd5b50565b60008135905061216b81612145565b92915050565b60008060006060848603121561218a576121896120f5565b5b600061219886828701612120565b93505060206121a986828701612120565b92505060406121ba8682870161215c565b9150509250925092565b6121cd81612135565b82525050565b60006020820190506121e860008301846121c4565b92915050565b600073ffffffffffffffffffffffffffffffffffffffff82169050919050565b6000612219826121ee565b9050919050565b6122298161220e565b811461223457600080fd5b50565b60008135905061224681612220565b92915050565b60008060408385031215612263576122626120f5565b5b600061227185828601612120565b925050602061228285828601612237565b9150509250929050565b60008115159050919050565b6122a18161228c565b82525050565b60006020820190506122bc6000830184612298565b92915050565b6000602082840312156122d8576122d76120f5565b5b60006122e684828501612120565b91505092915050565b6122f88161220e565b82525050565b7f4e487b7100000000000000000000000000000000000000000000000000000000600052602160045260246000fd5b6003811061233e5761233d6122fe565b5b50565b600081905061234f8261232d565b919050565b600061235f82612341565b9050919050565b61236f81612354565b82525050565b6000819050919050565b61238881612375565b82525050565b60006080820190506123a360008301876122ef565b6123b060208301866122ef565b6123bd6040830185612366565b6123ca606083018461237f565b95945050505050565b60006020820190506123e8600083018461237f565b92915050565b600081519050919050565b600082825260208201905092915050565b6000819050602082019050919050565b612423816120ff565b82525050565b6000612435838361241a565b60208301905092915050565b6000602082019050919050565b6000612459826123ee565b61246381856123f9565b935061246e8361240a565b8060005b8381101561249f5781516124868882612429565b975061249183612441565b925050600181019050612472565b5085935050505092915050565b600060208201905081810360008301526124c6818461244e565b905092915050565b600080604083850312156124e5576124e46120f5565b5b60006124f385828601612120565b925050602061250485828601612120565b9150509250929050565b600060208201905061252360008301846122ef565b92915050565b6003811061253a576125396122fe565b5b50565b600081905061254b82612529565b919050565b600061255b8261253d565b9050919050565b61256b81612550565b82525050565b60006020820190506125866000830184612562565b92915050565b600080604083850312156125a3576125a26120f5565b5b60006125b185828601612237565b92505060206125c285828601612237565b9150509250929050565b600081519050919050565b600082825260208201905092915050565b60005b838110156126065780820151818401526020810190506125eb565b60008484015250505050565b6000601f19601f8301169050919050565b600061262e826125cc565b61263881856125d7565b93506126488185602086016125e8565b61265181612612565b840191505092915050565b600060608201905081810360008301526126768186612623565b90506126856020830185612298565b8181036040830152612697818461244e565b9050949350505050565b6000602082840312156126b7576126b66120f5565b5b60006126c584828501612237565b91505092915050565b6126d78161228c565b81146126e257600080fd5b50565b6000813590506126f4816126ce565b92915050565b60008060408385031215612711576127106120f5565b5b600061271f85828601612120565b9250506020612730858286016126e5565b9150509250929050565b600080fd5b600080fd5b7f4e487b7100000000000000000000000000000000000000000000000000000000600052604160045260246000fd5b61277c82612612565b810181811067ffffffffffffffff8211171561279b5761279a612744565b5b80604052505050565b60006127ae6120eb565b90506127ba8282612773565b919050565b600067ffffffffffffffff8211156127da576127d9612744565b5b6127e382612612565b9050602081019050919050565b82818337600083830152505050565b600061281261280d846127bf565b6127a4565b90508281526020810184848401111561282e5761282d61273f565b5b6128398482856127f0565b509392505050565b600082601f8301126128565761285561273a565b5b81356128668482602086016127ff565b91505092915050565b600060208284031215612885576128846120f5565b5b600082013567ffffffffffffffff8111156128a3576128a26120fa565b5b6128af84828501612841565b91505092915050565b6128c1816120ff565b82525050565b60006060820190506128dc60008301866128b8565b6128e960208301856128b8565b6128f660408301846121c4565b949350505050565b7f52656d6f76654167656e74203a204167656e74206973206e6f7420726567697360008201527f7465726564000000000000000000000000000000000000000000000000000000602082015250565b600061295a6025836125d7565b9150612965826128fe565b604082019050919050565b600060208201905081810360008301526129898161294d565b9050919050565b7f4e487b7100000000000000000000000000000000000000000000000000000000600052601160045260246000fd5b60006129ca82612375565b91506129d583612375565b92508282039050818111156129ed576129ec612990565b5b92915050565b7f4e487b7100000000000000000000000000000000000000000000000000000000600052603260045260246000fd5b7f4e487b7100000000000000000000000000000000000000000000000000000000600052603160045260246000fd5b7f53656e6445766964656e6365203a204167656e74206973206e6f74207265676960008201527f7374657265640000000000000000000000000000000000000000000000000000602082015250565b6000612aad6026836125d7565b9150612ab882612a51565b604082019050919050565b60006020820190508181036000830152612adc81612aa0565b9050919050565b7f53656e6445766964656e6365203a2069746572436f756e74206f7574206f662060008201527f72616e6765000000000000000000000000000000000000000000000000000000602082015250565b6000612b3f6025836125d7565b9150612b4a82612ae3565b604082019050919050565b60006020820190508181036000830152612b6e81612b32565b9050919050565b6000604082019050612b8a60008301856128b8565b612b9760208301846121c4565b9392505050565b7f4174746573746174696f6e2070726f6365737320697320636c6f736564206f7260008201527f206e6f7420657869737473000000000000000000000000000000000000000000602082015250565b6000612bfa602b836125d7565b9150612c0582612b9e565b604082019050919050565b60006020820190508181036000830152612c2981612bed565b9050919050565b7f4174746573746174696f6e2070726f63657373206973206e6f7420636c6f736560008201527f6400000000000000000000000000000000000000000000000000000000000000602082015250565b6000612c8c6021836125d7565b9150612c9782612c30565b604082019050919050565b60006020820190508181036000830152612cbb81612c7f565b9050919050565b7f4f6e6c7920746865205345436161532063616e2072657365742074686520636860008201527f61696e0000000000000000000000000000000000000000000000000000000000602082015250565b6000612d1e6023836125d7565b9150612d2982612cc2565b604082019050919050565b60006020820190508181036000830152612d4d81612d11565b9050919050565b7f4f6e6c7920746865205345436161532063616e2073656e64207468652072656660008201527f6572656e6365207369676e617475726500000000000000000000000000000000602082015250565b6000612db06030836125d7565b9150612dbb82612d54565b604082019050919050565b60006020820190508181036000830152612ddf81612da3565b9050919050565b7f496e76616c696420737461746520666f722053454361615320726573706f6e7360008201527f6500000000000000000000000000000000000000000000000000000000000000602082015250565b6000612e426021836125d7565b9150612e4d82612de6565b604082019050919050565b60006020820190508181036000830152612e7181612e35565b9050919050565b6000602082019050612e8d60008301846128b8565b92915050565b7f596f7520617265206e6f7420746865205345436161532e000000000000000000600082015250565b6000612ec96017836125d7565b9150612ed482612e93565b602082019050919050565b60006020820190508181036000830152612ef881612ebc565b9050919050565b7f4174746573746174696f6e20697320636c6f736564206f72206e6f742065786960008201527f7374730000000000000000000000000000000000000000000000000000000000602082015250565b6000612f5b6023836125d7565b9150612f6682612eff565b604082019050919050565b60006020820190508181036000830152612f8a81612f4e565b9050919050565b7f4765744167656e74496e666f203a204167656e74206973206e6f74207265676960008201527f7374657265640000000000000000000000000000000000000000000000000000602082015250565b6000612fed6026836125d7565b9150612ff882612f91565b604082019050919050565b6000602082019050818103600083015261301c81612fe0565b9050919050565b7f4e487b7100000000000000000000000000000000000000000000000000000000600052602260045260246000fd5b6000600282049050600182168061306a57607f821691505b60208210810361307d5761307c613023565b5b50919050565b7f4f6e6c7920746865205345436161532063616e207265736f6c7665206174746560008201527f73746174696f6e73000000000000000000000000000000000000000000000000602082015250565b60006130df6028836125d7565b91506130ea82613083565b604082019050919050565b6000602082019050818103600083015261310e816130d2565b9050919050565b7f4e6f7420696e204f70656e207374617465000000000000000000000000000000600082015250565b600061314b6011836125d7565b915061315682613115565b602082019050919050565b6000602082019050818103600083015261317a8161313e565b9050919050565b7f534543616153206e6f7420656c65637465642061732076657269666965720000600082015250565b60006131b7601e836125d7565b91506131c282613181565b602082019050919050565b600060208201905081810360008301526131e6816131aa565b9050919050565b7f4e616d65206973206e6f742076616c6964000000000000000000000000000000600082015250565b60006132236011836125d7565b915061322e826131ed565b602082019050919050565b6000602082019050818103600083015261325281613216565b9050919050565b60008190508160005260206000209050919050565b60006020601f8301049050919050565b600082821b905092915050565b6000600883026132bb7fffffffffffffffffffffffffffffffffffffffffffffffffffffffffffffffff8261327e565b6132c5868361327e565b95508019841693508086168417925050509392505050565b6000819050919050565b60006133026132fd6132f884612375565b6132dd565b612375565b9050919050565b6000819050919050565b61331c836132e7565b61333061332882613309565b84845461328b565b825550505050565b600090565b613345613338565b613350818484613313565b505050565b5b818110156133745761336960008261333d565b600181019050613356565b5050565b601f8211156133b95761338a81613259565b6133938461326e565b810160208510156133a2578190505b6133b66133ae8561326e565b830182613355565b50505b505050565b600082821c905092915050565b60006133dc600019846008026133be565b1980831691505092915050565b60006133f583836133cb565b9150826002028217905092915050565b61340e826125cc565b67ffffffffffffffff81111561342757613426612744565b5b6134318254613052565b61343c828285613378565b600060209050601f83116001811461346f576000841561345d578287015190505b61346785826133e9565b8655506134cf565b601f19841661347d86613259565b60005b828110156134a557848901518255600182019150602085019450602081019050613480565b868310156134c257848901516134be601f8916826133cb565b8355505b6001600288020188555050505b505050505050565b7f4f6e6c79207468652076657269666965722063616e20636c6f7365207468652060008201527f6174746573746174696f6e2070726f6365737300000000000000000000000000602082015250565b60006135336033836125d7565b915061353e826134d7565b604082019050919050565b6000602082019050818103600083015261356281613526565b9050919050565b7f4174746573746174696f6e206973206e6f7420726561647920666f7220636c6f60008201527f7375726500000000000000000000000000000000000000000000000000000000602082015250565b60006135c56024836125d7565b91506135d082613569565b604082019050919050565b600060208201905081810360008301526135f4816135b8565b9050919050565b7f4f6e6c79207468652076657269666965722063616e207265747269657665207460008201527f6865207369676e61747572657300000000000000000000000000000000000000602082015250565b6000613657602d836125d7565b9150613662826135fb565b604082019050919050565b600060208201905081810360008301526136868161364a565b9050919050565b7f4174746573746174696f6e206e6f7420636f6d706c657465642028756e6c657360008201527f7320766572696669657220697320736563616173290000000000000000000000602082015250565b60006136e96035836125d7565b91506136f48261368d565b604082019050919050565b60006020820190508181036000830152613718816136dc565b9050919050565b600061372a82612375565b91507fffffffffffffffffffffffffffffffffffffffffffffffffffffffffffffffff820361375c5761375b612990565b5b600182019050919050565b7f4e487b7100000000000000000000000000000000000000000000000000000000600052601260045260246000fd5b60006137a182612375565b91506137ac83612375565b9250826137bc576137bb613767565b5b82820690509291505056fea264697066735822122054f20de404ae924a037a0a0f818fd61360de231c6fd47b2653c562b8c24c2aff64736f6c634300081c0033",
  "linkReferences": {},
  "deployedLinkReferences": {}
}