{
  "_format": "hh-sol-artifact-1",
  "contractName": "MasMutualAttestation",
  "sourceName": "contracts/MasMutualAttestation.sol",
  "abi": [
    {
      "inputs": [],
      "stateMutability": "nonpayable",
      "type": "constructor"
    },
    {
      "anonymous": false,
      "inputs": [
        {
          "indexed": false,
          "internalType": "address",
          "name": "agent",
          "type": "address"
        }
      ],
      "name": "AgentRegistered",
      "type": "event"
    },
    {
      "anonymous": false,
      "inputs": [
        {
          "indexed": false,
          "internalType": "address",
          "name": "agent",
          "type": "address"
        }
      ],
      "name": "AgentRemoved",
      "type": "event"
    },
    {
      "anonymous": false,
      "inputs": [
        {
          "indexed": false,
          "internalType": "bytes32",
          "name": "id",
          "type": "bytes32"
        }
      ],
      "name": "AttestationCompleted",
      "type": "event"
    },
    {
      "anonymous": false,
      "inputs": [
        {
          "indexed": false,
          "internalType": "bytes32",
          "name": "id",
          "type": "bytes32"
        }
      ],
      "name": "AttestationStarted",
      "type": "event"
    },
    {
      "anonymous": false,
      "inputs": [],
      "name": "ChainReset",
      "type": "event"
    },
    {
      "anonymous": false,
      "inputs": [
        {
          "indexed": false,
          "internalType": "bytes32",
          "name": "id",
          "type": "bytes32"
        }
      ],
      "name": "ReadyForEvaluation",
      "type": "event"
    },
    {
      "inputs": [
        {
          "internalType": "bytes32",
          "name": "id",
          "type": "bytes32"
        },
        {
          "internalType": "bool",
          "name": "verified",
          "type": "bool"
        }
      ],
      "name": "CloseAttestationProcess",
      "outputs": [
        {
          "internalType": "bool",
          "name": "",
          "type": "bool"
        }
      ],
      "stateMutability": "nonpayable",
      "type": "function"
    },
    {
      "inputs": [
        {
          "internalType": "address",
          "name": "agentAddress",
          "type": "address"
        },
        {
          "internalType": "address",
          "name": "callAddress",
          "type": "address"
        }
      ],
      "name": "GetAgentInfo",
      "outputs": [
        {
          "internalType": "bytes16",
          "name": "",
          "type": "bytes16"
        },
        {
          "internalType": "bool",
          "name": "",
          "type": "bool"
        },
        {
          "internalType": "bytes32[]",
          "name": "",
          "type": "bytes32[]"
        }
      ],
      "stateMutability": "view",
      "type": "function"
    },
    {
      "inputs": [],
      "name": "GetAttestationChain",
      "outputs": [
        {
          "internalType": "bytes32[]",
          "name": "",
          "type": "bytes32[]"
        }
      ],
      "stateMutability": "view",
      "type": "function"
    },
    {
      "inputs": [
        {
          "internalType": "bytes32",
          "name": "id",
          "type": "bytes32"
        }
      ],
      "name": "GetAttestationInfo",
      "outputs": [
        {
          "internalType": "address",
          "name": "",
          "type": "address"
        },
        {
          "internalType": "address",
          "name": "",
          "type": "address"
        },
        {
          "internalType": "enum MasMutualAttestation.AttestationResult",
          "name": "",
          "type": "uint8"
        },
        {
          "internalType": "uint256",
          "name": "",
          "type": "uint256"
        }
      ],
      "stateMutability": "view",
      "type": "function"
    },
    {
      "inputs": [
        {
          "internalType": "bytes32",
          "name": "id",
          "type": "bytes32"
        },
        {
          "internalType": "address",
          "name": "callAddress",
          "type": "address"
        }
      ],
      "name": "GetAttestationMeasurements",
      "outputs": [
        {
          "internalType": "bytes32",
          "name": "",
          "type": "bytes32"
        },
        {
          "internalType": "bytes32",
          "name": "",
          "type": "bytes32"
        }
      ],
      "stateMutability": "view",
      "type": "function"
    },
    {
      "inputs": [
        {
          "internalType": "bytes32",
          "name": "id",
          "type": "bytes32"
        }
      ],
      "name": "GetAttestationState",
      "outputs": [
        {
          "internalType": "enum MasMutualAttestation.AttestationState",
          "name": "",
          "type": "uint8"
        }
      ],
      "stateMutability": "view",
      "type": "function"
    },
    {
      "inputs": [
        {
          "internalType": "bytes32",
          "name": "id",
          "type": "bytes32"
        },
        {
          "internalType": "address",
          "name": "callAddress",
          "type": "address"
        }
      ],
      "name": "GetProverUUID",
      "outputs": [
        {
          "internalType": "bytes16",
          "name": "",
          "type": "bytes16"
        }
      ],
      "stateMutability": "view",
      "type": "function"
    },
    {
      "inputs": [
        {
          "internalType": "bytes32",
          "name": "id",
          "type": "bytes32"
        },
        {
          "internalType": "address",
          "name": "callAddress",
          "type": "address"
        }
      ],
      "name": "IsProver",
      "outputs": [
        {
          "internalType": "bool",
          "name": "",
          "type": "bool"
        }
      ],
      "stateMutability": "view",
      "type": "function"
    },
    {
      "inputs": [
        {
          "internalType": "bytes32",
          "name": "id",
          "type": "bytes32"
        },
        {
          "internalType": "address",
          "name": "callAddress",
          "type": "address"
        }
      ],
      "name": "IsVerifier",
      "outputs": [
        {
          "internalType": "bool",
          "name": "",
          "type": "bool"
        }
      ],
      "stateMutability": "view",
      "type": "function"
    },
    {
      "inputs": [
        {
          "internalType": "bytes16",
          "name": "uuid",
          "type": "bytes16"
        }
      ],
      "name": "RegisterAgent",
      "outputs": [],
      "stateMutability": "nonpayable",
      "type": "function"
    },
    {
      "inputs": [],
      "name": "RemoveAgent",
      "outputs": [],
      "stateMutability": "nonpayable",
      "type": "function"
    },
    {
      "inputs": [
        {
          "internalType": "bytes32",
          "name": "id",
          "type": "bytes32"
        },
        {
          "internalType": "bytes32",
          "name": "freshMeasurement",
          "type": "bytes32"
        }
      ],
      "name": "RequestAttestation",
      "outputs": [],
      "stateMutability": "nonpayable",
      "type": "function"
    },
    {
      "inputs": [],
      "name": "ResetChain",
      "outputs": [],
      "stateMutability": "nonpayable",
      "type": "function"
    },
    {
      "inputs": [
        {
          "internalType": "bytes32",
          "name": "id",
          "type": "bytes32"
        },
        {
          "internalType": "bytes32",
          "name": "measurement",
          "type": "bytes32"
        }
      ],
      "name": "SendRefSignaure",
      "outputs": [
        {
          "internalType": "bool",
          "name": "",
          "type": "bool"
        }
      ],
      "stateMutability": "nonpayable",
      "type": "function"
    },
    {
      "inputs": [],
      "name": "freshnessWindow",
      "outputs": [
        {
          "internalType": "uint256",
          "name": "",
          "type": "uint256"
        }
      ],
      "stateMutability": "view",
      "type": "function"
    },
    {
      "inputs": [],
      "name": "rrIndex",
      "outputs": [
        {
          "internalType": "uint256",
          "name": "",
          "type": "uint256"
        }
      ],
      "stateMutability": "view",
      "type": "function"
    }
  ],
  "bytecode": "0x6080604052610e1060035534801561001657600080fd5b50336000806101000a81548173ffffffffffffffffffffffffffffffffffffffff021916908373ffffffffffffffffffffffffffffffffffffffff160217905550600160008054906101000a900473ffffffffffffffffffffffffffffffffffffffff169080600181540180825580915050600190039060005260206000200160009091909190916101000a81548173ffffffffffffffffffffffffffffffffffffffff021916908373ffffffffffffffffffffffffffffffffffffffff1602179055506000600860008060009054906101000a900473ffffffffffffffffffffffffffffffffffffffff1673ffffffffffffffffffffffffffffffffffffffff1673ffffffffffffffffffffffffffffffffffffffff16815260200190815260200160002081905550612a328061014f6000396000f3fe608060405234801561001057600080fd5b50600436106101005760003560e01c806393506aa611610097578063bc1a097e11610066578063bc1a097e146102b3578063cb2a0348146102e5578063d5dd167b14610315578063e2021cf91461034557610100565b806393506aa61461021757806396efe85214610235578063b46ca81a14610253578063b8df8f981461028357610100565b80635f3d4220116100d35780635f3d4220146101a0578063699922c3146101d357806378caad49146101ef57806381880fd3146101f957610100565b80631d995a0e146101055780632562f1c61461010f578063395d719b146101405780635455cddd14610170575b600080fd5b61010d610361565b005b61012960048036038101906101249190611ae5565b61068b565b604051610137929190611b34565b60405180910390f35b61015a60048036038101906101559190611ae5565b6107c5565b6040516101679190611b78565b60405180910390f35b61018a60048036038101906101859190611b93565b6108b0565b6040516101979190611b78565b60405180910390f35b6101ba60048036038101906101b59190611bd3565b610a48565b6040516101ca9493929190611c9f565b60405180910390f35b6101ed60048036038101906101e89190611b93565b610b4d565b005b6101f7610d45565b005b610201610e17565b60405161020e9190611ce4565b60405180910390f35b61021f610e1d565b60405161022c9190611ce4565b60405180910390f35b61023d610e23565b60405161024a9190611dbd565b60405180910390f35b61026d60048036038101906102689190611ae5565b610e7b565b60405161027a9190611b78565b60405180910390f35b61029d60048036038101906102989190611bd3565b610f66565b6040516102aa9190611e27565b60405180910390f35b6102cd60048036038101906102c89190611e42565b610f93565b6040516102dc93929190611ebd565b60405180910390f35b6102ff60048036038101906102fa9190611f27565b61114e565b60405161030c9190611b78565b60405180910390f35b61032f600480360381019061032a9190611ae5565b611472565b60405161033c9190611f67565b60405180910390f35b61035f600480360381019061035a9190611fae565b61161b565b005b6000600660003373ffffffffffffffffffffffffffffffffffffffff1673ffffffffffffffffffffffffffffffffffffffff16815260200190815260200160002090508060000160109054906101000a900460ff166103f5576040517f08c379a00000000000000000000000000000000000000000000000000000000081526004016103ec9061205e565b60405180910390fd5b6000600860003373ffffffffffffffffffffffffffffffffffffffff1673ffffffffffffffffffffffffffffffffffffffff1681526020019081526020016000205490506000600180808054905061044d91906120ad565b8154811061045e5761045d6120e1565b5b9060005260206000200160009054906101000a900473ffffffffffffffffffffffffffffffffffffffff16905080600183815481106104a05761049f6120e1565b5b9060005260206000200160006101000a81548173ffffffffffffffffffffffffffffffffffffffff021916908373ffffffffffffffffffffffffffffffffffffffff16021790555081600860008373ffffffffffffffffffffffffffffffffffffffff1673ffffffffffffffffffffffffffffffffffffffff16815260200190815260200160002081905550600180548061053e5761053d612110565b5b6001900381819060005260206000200160006101000a81549073ffffffffffffffffffffffffffffffffffffffff02191690559055600860003373ffffffffffffffffffffffffffffffffffffffff1673ffffffffffffffffffffffffffffffffffffffff168152602001908152602001600020600090558260010160006105c69190611a0e565b600660003373ffffffffffffffffffffffffffffffffffffffff1673ffffffffffffffffffffffffffffffffffffffff168152602001908152602001600020600080820160006101000a8154906fffffffffffffffffffffffffffffffff02191690556000820160106101000a81549060ff021916905560018201600061064d9190611a0e565b50507fed9c8ad8d5a0a66898ea49d2956929c93ae2e8bd50281b2ed897c5d1a6737e0b3360405161067e919061213f565b60405180910390a1505050565b60008060006007600086815260200190815260200160002090508373ffffffffffffffffffffffffffffffffffffffff168160010160009054906101000a900473ffffffffffffffffffffffffffffffffffffffff1673ffffffffffffffffffffffffffffffffffffffff1614610737576040517f08c379a000000000000000000000000000000000000000000000000000000000815260040161072e906121cc565b60405180910390fd5b6001600281111561074b5761074a611c0f565b5b8160050160009054906101000a900460ff16600281111561076f5761076e611c0f565b5b146107af576040517f08c379a00000000000000000000000000000000000000000000000000000000081526004016107a69061225e565b60405180910390fd5b8060030154816004015492509250509250929050565b6000806007600085815260200190815260200160002090506002808111156107f0576107ef611c0f565b5b8160050160009054906101000a900460ff16600281111561081457610813611c0f565b5b03610854576040517f08c379a000000000000000000000000000000000000000000000000000000000815260040161084b906122f0565b60405180910390fd5b8273ffffffffffffffffffffffffffffffffffffffff168160020160009054906101000a900473ffffffffffffffffffffffffffffffffffffffff1673ffffffffffffffffffffffffffffffffffffffff161491505092915050565b60008060009054906101000a900473ffffffffffffffffffffffffffffffffffffffff1673ffffffffffffffffffffffffffffffffffffffff163373ffffffffffffffffffffffffffffffffffffffff1614610941576040517f08c379a000000000000000000000000000000000000000000000000000000000815260040161093890612382565b60405180910390fd5b60006007600085815260200190815260200160002090506000600281111561096c5761096b611c0f565b5b8160050160009054906101000a900460ff1660028111156109905761098f611c0f565b5b146109d0576040517f08c379a00000000000000000000000000000000000000000000000000000000081526004016109c790612414565b60405180910390fd5b82816004018190555060018160050160006101000a81548160ff02191690836002811115610a0157610a00611c0f565b5b02179055507f6781e8d3c07e87e938ec28a5435aa7862779fb9c7d01b7315eca91430b2a464384604051610a359190612434565b60405180910390a1600191505092915050565b6000806000806000600760008781526020019081526020016000209050600280811115610a7857610a77611c0f565b5b8160050160009054906101000a900460ff166002811115610a9c57610a9b611c0f565b5b14610adc576040517f08c379a0000000000000000000000000000000000000000000000000000000008152600401610ad3906124c1565b60405180910390fd5b8060020160009054906101000a900473ffffffffffffffffffffffffffffffffffffffff168160010160009054906101000a900473ffffffffffffffffffffffffffffffffffffffff168260050160019054906101000a900460ff1683600601549450945094509450509193509193565b6000600660003373ffffffffffffffffffffffffffffffffffffffff1673ffffffffffffffffffffffffffffffffffffffff16815260200190815260200160002090508060000160109054906101000a900460ff16610be1576040517f08c379a0000000000000000000000000000000000000000000000000000000008152600401610bd890612553565b60405180910390fd5b6000600760008581526020019081526020016000209050838160000181905550610c0a336117fa565b8160010160006101000a81548173ffffffffffffffffffffffffffffffffffffffff021916908373ffffffffffffffffffffffffffffffffffffffff160217905550338160020160006101000a81548173ffffffffffffffffffffffffffffffffffffffff021916908373ffffffffffffffffffffffffffffffffffffffff1602179055508281600301819055506000801b816004018190555060008160050160006101000a81548160ff02191690836002811115610ccc57610ccb611c0f565b5b021790555060008160050160016101000a81548160ff02191690836002811115610cf957610cf8611c0f565b5b0217905550600081600601819055507fd32f85071e05721b8a1c63d5cad1fe3525ec0a11fd5b7760b6a82d7f6be7d28384604051610d379190612434565b60405180910390a150505050565b60008054906101000a900473ffffffffffffffffffffffffffffffffffffffff1673ffffffffffffffffffffffffffffffffffffffff163373ffffffffffffffffffffffffffffffffffffffff1614610dd3576040517f08c379a0000000000000000000000000000000000000000000000000000000008152600401610dca906125e5565b60405180910390fd5b60026000610de19190611a0e565b60006004819055507f8e1dda8e7ca889ef4bd70f2ff6dd48a9b896b1d89703a08b6385333045af148960405160405180910390a1565b60035481565b60045481565b60606002805480602002602001604051908101604052809291908181526020018280548015610e7157602002820191906000526020600020905b815481526020019060010190808311610e5d575b5050505050905090565b600080600760008581526020019081526020016000209050600280811115610ea657610ea5611c0f565b5b8160050160009054906101000a900460ff166002811115610eca57610ec9611c0f565b5b03610f0a576040517f08c379a0000000000000000000000000000000000000000000000000000000008152600401610f01906122f0565b60405180910390fd5b8273ffffffffffffffffffffffffffffffffffffffff168160010160009054906101000a900473ffffffffffffffffffffffffffffffffffffffff1673ffffffffffffffffffffffffffffffffffffffff161491505092915050565b60006007600083815260200190815260200160002060050160009054906101000a900460ff169050919050565b60008060606000600660008673ffffffffffffffffffffffffffffffffffffffff1673ffffffffffffffffffffffffffffffffffffffff16815260200190815260200160002090506000600660008873ffffffffffffffffffffffffffffffffffffffff1673ffffffffffffffffffffffffffffffffffffffff16815260200190815260200160002090508160000160109054906101000a900460ff1680611086575060008054906101000a900473ffffffffffffffffffffffffffffffffffffffff1673ffffffffffffffffffffffffffffffffffffffff168673ffffffffffffffffffffffffffffffffffffffff16145b6110c5576040517f08c379a00000000000000000000000000000000000000000000000000000000081526004016110bc90612677565b60405180910390fd5b8060000160009054906101000a900460801b8160000160109054906101000a900460ff16826001018080548060200260200160405190810160405280929190818152602001828054801561113857602002820191906000526020600020905b815481526020019060010190808311611124575b5050505050905094509450945050509250925092565b6000806007600085815260200190815260200160002090503373ffffffffffffffffffffffffffffffffffffffff168160010160009054906101000a900473ffffffffffffffffffffffffffffffffffffffff1673ffffffffffffffffffffffffffffffffffffffff16146111f8576040517f08c379a00000000000000000000000000000000000000000000000000000000081526004016111ef90612709565b60405180910390fd5b6001600281111561120c5761120b611c0f565b5b8160050160009054906101000a900460ff1660028111156112305761122f611c0f565b5b14611270576040517f08c379a00000000000000000000000000000000000000000000000000000000081526004016112679061279b565b60405180910390fd5b60028160050160006101000a81548160ff0219169083600281111561129857611297611c0f565b5b02179055504281600601819055506000600660008360020160009054906101000a900473ffffffffffffffffffffffffffffffffffffffff1673ffffffffffffffffffffffffffffffffffffffff1673ffffffffffffffffffffffffffffffffffffffff168152602001908152602001600020905083156113ad5760028260050160016101000a81548160ff0219169083600281111561133b5761133a611c0f565b5b021790555042600560008460020160009054906101000a900473ffffffffffffffffffffffffffffffffffffffff1673ffffffffffffffffffffffffffffffffffffffff1673ffffffffffffffffffffffffffffffffffffffff168152602001908152602001600020819055506113db565b60018260050160016101000a81548160ff021916908360028111156113d5576113d4611c0f565b5b02179055505b8060010185908060018154018082558091505060019003906000526020600020016000909190919091505560028590806001815401808255809150506001900390600052602060002001600090919091909150557f31a3cf273cd0e82f8ddb4be15d4b954d7fcd18a4c5d4591cce32edd1a4bc417d8560405161145e9190612434565b60405180910390a160019250505092915050565b60008060009054906101000a900473ffffffffffffffffffffffffffffffffffffffff1673ffffffffffffffffffffffffffffffffffffffff168273ffffffffffffffffffffffffffffffffffffffff1614611503576040517f08c379a00000000000000000000000000000000000000000000000000000000081526004016114fa90612807565b60405180910390fd5b60006007600085815260200190815260200160002090506000600281111561152e5761152d611c0f565b5b8160050160009054906101000a900460ff16600281111561155257611551611c0f565b5b14611592576040517f08c379a000000000000000000000000000000000000000000000000000000000815260040161158990612899565b60405180910390fd5b60008160020160009054906101000a900473ffffffffffffffffffffffffffffffffffffffff1690506000600660008373ffffffffffffffffffffffffffffffffffffffff1673ffffffffffffffffffffffffffffffffffffffff16815260200190815260200160002090508060000160009054906101000a900460801b935050505092915050565b600060801b6fffffffffffffffffffffffffffffffff1916816fffffffffffffffffffffffffffffffff191603611687576040517f08c379a000000000000000000000000000000000000000000000000000000000815260040161167e90612905565b60405180910390fd5b6000600660003373ffffffffffffffffffffffffffffffffffffffff1673ffffffffffffffffffffffffffffffffffffffff1681526020019081526020016000209050818160000160006101000a8154816fffffffffffffffffffffffffffffffff021916908360801c021790555060018160000160106101000a81548160ff021916908315150217905550600180549050600860003373ffffffffffffffffffffffffffffffffffffffff1673ffffffffffffffffffffffffffffffffffffffff168152602001908152602001600020819055506001339080600181540180825580915050600190039060005260206000200160009091909190916101000a81548173ffffffffffffffffffffffffffffffffffffffff021916908373ffffffffffffffffffffffffffffffffffffffff1602179055507f82d0829d9d481e4cb9913897f9b9c903271c4db68c7b3324071d2a7e3b2c5ff0336040516117ee919061213f565b60405180910390a15050565b60008060018054905067ffffffffffffffff81111561181c5761181b612925565b5b60405190808252806020026020018201604052801561184a5781602001602082028036833780820191505090505b5090506000805b60018054905081101561198b57600060018281548110611874576118736120e1565b5b9060005260206000200160009054906101000a900473ffffffffffffffffffffffffffffffffffffffff1690508573ffffffffffffffffffffffffffffffffffffffff168173ffffffffffffffffffffffffffffffffffffffff161415801561191d57506000600560008373ffffffffffffffffffffffffffffffffffffffff1673ffffffffffffffffffffffffffffffffffffffff1681526020019081526020016000205414155b1561197d578084848061192f90612954565b955081518110611942576119416120e1565b5b602002602001019073ffffffffffffffffffffffffffffffffffffffff16908173ffffffffffffffffffffffffffffffffffffffff16815250505b508080600101915050611851565b50600081036119be5760008054906101000a900473ffffffffffffffffffffffffffffffffffffffff1692505050611a09565b600082826004546119cf91906129cb565b815181106119e0576119df6120e1565b5b60200260200101519050600460008154809291906119fd90612954565b91905055508093505050505b919050565b5080546000825590600052602060002090810190611a2c9190611a2f565b50565b5b80821115611a48576000816000905550600101611a30565b5090565b600080fd5b6000819050919050565b611a6481611a51565b8114611a6f57600080fd5b50565b600081359050611a8181611a5b565b92915050565b600073ffffffffffffffffffffffffffffffffffffffff82169050919050565b6000611ab282611a87565b9050919050565b611ac281611aa7565b8114611acd57600080fd5b50565b600081359050611adf81611ab9565b92915050565b60008060408385031215611afc57611afb611a4c565b5b6000611b0a85828601611a72565b9250506020611b1b85828601611ad0565b9150509250929050565b611b2e81611a51565b82525050565b6000604082019050611b496000830185611b25565b611b566020830184611b25565b9392505050565b60008115159050919050565b611b7281611b5d565b82525050565b6000602082019050611b8d6000830184611b69565b92915050565b60008060408385031215611baa57611ba9611a4c565b5b6000611bb885828601611a72565b9250506020611bc985828601611a72565b9150509250929050565b600060208284031215611be957611be8611a4c565b5b6000611bf784828501611a72565b91505092915050565b611c0981611aa7565b82525050565b7f4e487b7100000000000000000000000000000000000000000000000000000000600052602160045260246000fd5b60038110611c4f57611c4e611c0f565b5b50565b6000819050611c6082611c3e565b919050565b6000611c7082611c52565b9050919050565b611c8081611c65565b82525050565b6000819050919050565b611c9981611c86565b82525050565b6000608082019050611cb46000830187611c00565b611cc16020830186611c00565b611cce6040830185611c77565b611cdb6060830184611c90565b95945050505050565b6000602082019050611cf96000830184611c90565b92915050565b600081519050919050565b600082825260208201905092915050565b6000819050602082019050919050565b611d3481611a51565b82525050565b6000611d468383611d2b565b60208301905092915050565b6000602082019050919050565b6000611d6a82611cff565b611d748185611d0a565b9350611d7f83611d1b565b8060005b83811015611db0578151611d978882611d3a565b9750611da283611d52565b925050600181019050611d83565b5085935050505092915050565b60006020820190508181036000830152611dd78184611d5f565b905092915050565b60038110611df057611def611c0f565b5b50565b6000819050611e0182611ddf565b919050565b6000611e1182611df3565b9050919050565b611e2181611e06565b82525050565b6000602082019050611e3c6000830184611e18565b92915050565b60008060408385031215611e5957611e58611a4c565b5b6000611e6785828601611ad0565b9250506020611e7885828601611ad0565b9150509250929050565b60007fffffffffffffffffffffffffffffffff0000000000000000000000000000000082169050919050565b611eb781611e82565b82525050565b6000606082019050611ed26000830186611eae565b611edf6020830185611b69565b8181036040830152611ef18184611d5f565b9050949350505050565b611f0481611b5d565b8114611f0f57600080fd5b50565b600081359050611f2181611efb565b92915050565b60008060408385031215611f3e57611f3d611a4c565b5b6000611f4c85828601611a72565b9250506020611f5d85828601611f12565b9150509250929050565b6000602082019050611f7c6000830184611eae565b92915050565b611f8b81611e82565b8114611f9657600080fd5b50565b600081359050611fa881611f82565b92915050565b600060208284031215611fc457611fc3611a4c565b5b6000611fd284828501611f99565b91505092915050565b600082825260208201905092915050565b7f52656d6f76654167656e74203a204167656e74206973206e6f7420726567697360008201527f7465726564000000000000000000000000000000000000000000000000000000602082015250565b6000612048602583611fdb565b915061205382611fec565b604082019050919050565b600060208201905081810360008301526120778161203b565b9050919050565b7f4e487b7100000000000000000000000000000000000000000000000000000000600052601160045260246000fd5b60006120b882611c86565b91506120c383611c86565b92508282039050818111156120db576120da61207e565b5b92915050565b7f4e487b7100000000000000000000000000000000000000000000000000000000600052603260045260246000fd5b7f4e487b7100000000000000000000000000000000000000000000000000000000600052603160045260246000fd5b60006020820190506121546000830184611c00565b92915050565b7f4f6e6c79207468652076657269666965722063616e207265747269657665207460008201527f6865207369676e61747572657300000000000000000000000000000000000000602082015250565b60006121b6602d83611fdb565b91506121c18261215a565b604082019050919050565b600060208201905081810360008301526121e5816121a9565b9050919050565b7f4174746573746174696f6e2070726f63657373206973206e6f7420636f6d706c60008201527f6574656400000000000000000000000000000000000000000000000000000000602082015250565b6000612248602483611fdb565b9150612253826121ec565b604082019050919050565b600060208201905081810360008301526122778161223b565b9050919050565b7f4174746573746174696f6e2070726f6365737320697320636c6f736564206f7260008201527f206e6f7420657869737473000000000000000000000000000000000000000000602082015250565b60006122da602b83611fdb565b91506122e58261227e565b604082019050919050565b60006020820190508181036000830152612309816122cd565b9050919050565b7f4f6e6c7920746865205345436161532063616e2073656e64207468652072656660008201527f6572656e6365207369676e617475726500000000000000000000000000000000602082015250565b600061236c603083611fdb565b915061237782612310565b604082019050919050565b6000602082019050818103600083015261239b8161235f565b9050919050565b7f496e76616c696420737461746520666f722053454361615320726573706f6e7360008201527f6500000000000000000000000000000000000000000000000000000000000000602082015250565b60006123fe602183611fdb565b9150612409826123a2565b604082019050919050565b6000602082019050818103600083015261242d816123f1565b9050919050565b60006020820190506124496000830184611b25565b92915050565b7f4174746573746174696f6e2070726f63657373206973206e6f7420636c6f736560008201527f6400000000000000000000000000000000000000000000000000000000000000602082015250565b60006124ab602183611fdb565b91506124b68261244f565b604082019050919050565b600060208201905081810360008301526124da8161249e565b9050919050565b7f526571756573744174746573746174696f6e203a204167656e74206973206e6f60008201527f7420726567697374657265640000000000000000000000000000000000000000602082015250565b600061253d602c83611fdb565b9150612548826124e1565b604082019050919050565b6000602082019050818103600083015261256c81612530565b9050919050565b7f4f6e6c7920746865205345436161532063616e2072657365742074686520636860008201527f61696e0000000000000000000000000000000000000000000000000000000000602082015250565b60006125cf602383611fdb565b91506125da82612573565b604082019050919050565b600060208201905081810360008301526125fe816125c2565b9050919050565b7f4765744167656e74496e666f203a204167656e74206973206e6f74207265676960008201527f7374657265640000000000000000000000000000000000000000000000000000602082015250565b6000612661602683611fdb565b915061266c82612605565b604082019050919050565b6000602082019050818103600083015261269081612654565b9050919050565b7f4f6e6c79207468652076657269666965722063616e20636c6f7365207468652060008201527f6174746573746174696f6e2070726f6365737300000000000000000000000000602082015250565b60006126f3603383611fdb565b91506126fe82612697565b604082019050919050565b60006020820190508181036000830152612722816126e6565b9050919050565b7f4174746573746174696f6e206973206e6f7420726561647920666f7220636c6f60008201527f7375726500000000000000000000000000000000000000000000000000000000602082015250565b6000612785602483611fdb565b915061279082612729565b604082019050919050565b600060208201905081810360008301526127b481612778565b9050919050565b7f596f7520617265206e6f7420746865205345436161532e000000000000000000600082015250565b60006127f1601783611fdb565b91506127fc826127bb565b602082019050919050565b60006020820190508181036000830152612820816127e4565b9050919050565b7f4174746573746174696f6e20697320636c6f736564206f72206e6f742065786960008201527f7374730000000000000000000000000000000000000000000000000000000000602082015250565b6000612883602383611fdb565b915061288e82612827565b604082019050919050565b600060208201905081810360008301526128b281612876565b9050919050565b7f55554944206973206e6f742076616c6964000000000000000000000000000000600082015250565b60006128ef601183611fdb565b91506128fa826128b9565b602082019050919050565b6000602082019050818103600083015261291e816128e2565b9050919050565b7f4e487b7100000000000000000000000000000000000000000000000000000000600052604160045260246000fd5b600061295f82611c86565b91507fffffffffffffffffffffffffffffffffffffffffffffffffffffffffffffffff82036129915761299061207e565b5b600182019050919050565b7f4e487b7100000000000000000000000000000000000000000000000000000000600052601260045260246000fd5b60006129d682611c86565b91506129e183611c86565b9250826129f1576129f061299c565b5b82820690509291505056fea26469706673582212206ddd17f501163c0345f359d4117ea5b587cf2875177abd34e16afd9c5cc9aa9664736f6c634300081c0033",
  "linkReferences": {},
  "deployedLinkReferences": {}
}