{
  "_format": "hh-sol-artifact-1",
  "contractName": "MasMutualAttestation",
  "sourceName": "contracts/MasMutualAttestation.sol",
  "abi": [
    {
      "inputs": [],
      "stateMutability": "nonpayable",
      "type": "constructor"
    },
    {
      "anonymous": false,
      "inputs": [
        {
          "indexed": false,
          "internalType": "address",
          "name": "agent",
          "type": "address"
        }
      ],
      "name": "AgentRegistered",
      "type": "event"
    },
    {
      "anonymous": false,
      "inputs": [
        {
          "indexed": false,
          "internalType": "address",
          "name": "agent",
          "type": "address"
        }
      ],
      "name": "AgentRemoved",
      "type": "event"
    },
    {
      "anonymous": false,
      "inputs": [
        {
          "indexed": false,
          "internalType": "bytes32",
          "name": "id",
          "type": "bytes32"
        }
      ],
      "name": "AttestationCompleted",
      "type": "event"
    },
    {
      "anonymous": false,
      "inputs": [
        {
          "indexed": false,
          "internalType": "bytes32",
          "name": "id",
          "type": "bytes32"
        }
      ],
      "name": "AttestationStarted",
      "type": "event"
    },
    {
      "anonymous": false,
      "inputs": [],
      "name": "ChainReset",
      "type": "event"
    },
    {
      "anonymous": false,
      "inputs": [
        {
          "indexed": false,
          "internalType": "bytes32",
          "name": "id",
          "type": "bytes32"
        }
      ],
      "name": "ReadyForEvaluation",
      "type": "event"
    },
    {
      "inputs": [
        {
          "internalType": "bytes32",
          "name": "id",
          "type": "bytes32"
        },
        {
          "internalType": "bool",
          "name": "verified",
          "type": "bool"
        }
      ],
      "name": "CloseAttestationProcess",
      "outputs": [
        {
          "internalType": "bool",
          "name": "",
          "type": "bool"
        }
      ],
      "stateMutability": "nonpayable",
      "type": "function"
    },
    {
      "inputs": [
        {
          "internalType": "address",
          "name": "agentAddress",
          "type": "address"
        },
        {
          "internalType": "address",
          "name": "callAddress",
          "type": "address"
        }
      ],
      "name": "GetAgentInfo",
      "outputs": [
        {
          "internalType": "string",
          "name": "",
          "type": "string"
        },
        {
          "internalType": "bool",
          "name": "",
          "type": "bool"
        },
        {
          "internalType": "bytes32[]",
          "name": "",
          "type": "bytes32[]"
        }
      ],
      "stateMutability": "view",
      "type": "function"
    },
    {
      "inputs": [],
      "name": "GetAttestationChain",
      "outputs": [
        {
          "internalType": "bytes32[]",
          "name": "",
          "type": "bytes32[]"
        }
      ],
      "stateMutability": "view",
      "type": "function"
    },
    {
      "inputs": [
        {
          "internalType": "bytes32",
          "name": "id",
          "type": "bytes32"
        }
      ],
      "name": "GetAttestationInfo",
      "outputs": [
        {
          "internalType": "address",
          "name": "",
          "type": "address"
        },
        {
          "internalType": "address",
          "name": "",
          "type": "address"
        },
        {
          "internalType": "enum MasMutualAttestation.AttestationResult",
          "name": "",
          "type": "uint8"
        },
        {
          "internalType": "uint256",
          "name": "",
          "type": "uint256"
        }
      ],
      "stateMutability": "view",
      "type": "function"
    },
    {
      "inputs": [
        {
          "internalType": "bytes32",
          "name": "id",
          "type": "bytes32"
        },
        {
          "internalType": "address",
          "name": "callAddress",
          "type": "address"
        }
      ],
      "name": "GetAttestationSignatures",
      "outputs": [
        {
          "internalType": "bytes32[3]",
          "name": "",
          "type": "bytes32[3]"
        },
        {
          "internalType": "bytes32[3]",
          "name": "",
          "type": "bytes32[3]"
        }
      ],
      "stateMutability": "view",
      "type": "function"
    },
    {
      "inputs": [
        {
          "internalType": "bytes32",
          "name": "id",
          "type": "bytes32"
        }
      ],
      "name": "GetAttestationState",
      "outputs": [
        {
          "internalType": "enum MasMutualAttestation.AttestationState",
          "name": "",
          "type": "uint8"
        }
      ],
      "stateMutability": "view",
      "type": "function"
    },
    {
      "inputs": [
        {
          "internalType": "bytes32",
          "name": "id",
          "type": "bytes32"
        },
        {
          "internalType": "address",
          "name": "callAddress",
          "type": "address"
        }
      ],
      "name": "GetProverAddress",
      "outputs": [
        {
          "internalType": "address",
          "name": "",
          "type": "address"
        }
      ],
      "stateMutability": "view",
      "type": "function"
    },
    {
      "inputs": [
        {
          "internalType": "bytes32",
          "name": "id",
          "type": "bytes32"
        },
        {
          "internalType": "address",
          "name": "callAddress",
          "type": "address"
        }
      ],
      "name": "IsProver",
      "outputs": [
        {
          "internalType": "bool",
          "name": "",
          "type": "bool"
        }
      ],
      "stateMutability": "view",
      "type": "function"
    },
    {
      "inputs": [
        {
          "internalType": "address",
          "name": "callAddress",
          "type": "address"
        }
      ],
      "name": "IsRegistered",
      "outputs": [
        {
          "internalType": "bool",
          "name": "",
          "type": "bool"
        }
      ],
      "stateMutability": "view",
      "type": "function"
    },
    {
      "inputs": [
        {
          "internalType": "bytes32",
          "name": "id",
          "type": "bytes32"
        },
        {
          "internalType": "address",
          "name": "callAddress",
          "type": "address"
        }
      ],
      "name": "IsVerifier",
      "outputs": [
        {
          "internalType": "bool",
          "name": "",
          "type": "bool"
        }
      ],
      "stateMutability": "view",
      "type": "function"
    },
    {
      "inputs": [
        {
          "internalType": "string",
          "name": "name",
          "type": "string"
        }
      ],
      "name": "RegisterAgent",
      "outputs": [],
      "stateMutability": "nonpayable",
      "type": "function"
    },
    {
      "inputs": [],
      "name": "RemoveAgent",
      "outputs": [],
      "stateMutability": "nonpayable",
      "type": "function"
    },
    {
      "inputs": [],
      "name": "ResetChain",
      "outputs": [],
      "stateMutability": "nonpayable",
      "type": "function"
    },
    {
      "inputs": [
        {
          "internalType": "bytes32",
          "name": "id",
          "type": "bytes32"
        },
        {
          "internalType": "bytes32[3]",
          "name": "freshMeasurements",
          "type": "bytes32[3]"
        }
      ],
      "name": "SendEvidence",
      "outputs": [],
      "stateMutability": "nonpayable",
      "type": "function"
    },
    {
      "inputs": [
        {
          "internalType": "bytes32",
          "name": "id",
          "type": "bytes32"
        },
        {
          "internalType": "bytes32[3]",
          "name": "refMeasurements",
          "type": "bytes32[3]"
        }
      ],
      "name": "SendRefSignaures",
      "outputs": [
        {
          "internalType": "bool",
          "name": "",
          "type": "bool"
        }
      ],
      "stateMutability": "nonpayable",
      "type": "function"
    },
    {
      "inputs": [],
      "name": "freshnessWindow",
      "outputs": [
        {
          "internalType": "uint256",
          "name": "",
          "type": "uint256"
        }
      ],
      "stateMutability": "view",
      "type": "function"
    },
    {
      "inputs": [],
      "name": "rrIndex",
      "outputs": [
        {
          "internalType": "uint256",
          "name": "",
          "type": "uint256"
        }
      ],
      "stateMutability": "view",
      "type": "function"
    }
  ],
  "bytecode": "0x6080604052610e1060035534801561001657600080fd5b50336000806101000a81548173ffffffffffffffffffffffffffffffffffffffff021916908373ffffffffffffffffffffffffffffffffffffffff160217905550600160008054906101000a900473ffffffffffffffffffffffffffffffffffffffff169080600181540180825580915050600190039060005260206000200160009091909190916101000a81548173ffffffffffffffffffffffffffffffffffffffff021916908373ffffffffffffffffffffffffffffffffffffffff1602179055506000600860008060009054906101000a900473ffffffffffffffffffffffffffffffffffffffff1673ffffffffffffffffffffffffffffffffffffffff1673ffffffffffffffffffffffffffffffffffffffff1681526020019081526020016000208190555061319e8061014f6000396000f3fe608060405234801561001057600080fd5b506004361061010b5760003560e01c806396efe852116100a2578063bc1a097e11610071578063bc1a097e146102bd578063c224122d146102ef578063c984f8db1461031f578063cb2a03481461033b578063e1a94c831461036b5761010b565b806396efe8521461020f5780639cb65fa11461022d578063b46ca81a1461025d578063b8df8f981461028d5761010b565b80635f3d4220116100de5780635f3d42201461019657806378caad49146101c957806381880fd3146101d357806393506aa6146101f15761010b565b80631d995a0e1461011057806332facfb71461011a578063395d719b1461014a5780635e8b36221461017a575b600080fd5b61011861039c565b005b610134600480360381019061012f9190611dcf565b6106b3565b6040516101419190611e2a565b60405180910390f35b610164600480360381019061015f9190611ea3565b610856565b6040516101719190611e2a565b60405180910390f35b610194600480360381019061018f9190611dcf565b610941565b005b6101b060048036038101906101ab9190611ee3565b610b6f565b6040516101c09493929190611faf565b60405180910390f35b6101d1610c74565b005b6101db610d46565b6040516101e89190611ff4565b60405180910390f35b6101f9610d4c565b6040516102069190611ff4565b60405180910390f35b610217610d52565b60405161022491906120cd565b60405180910390f35b61024760048036038101906102429190611ea3565b610daa565b60405161025491906120ef565b60405180910390f35b61027760048036038101906102729190611ea3565b610efe565b6040516102849190611e2a565b60405180910390f35b6102a760048036038101906102a29190611ee3565b610fe9565b6040516102b49190612152565b60405180910390f35b6102d760048036038101906102d2919061216d565b611016565b6040516102e69392919061222c565b60405180910390f35b61030960048036038101906103049190612271565b611250565b6040516103169190611e2a565b60405180910390f35b61033960048036038101906103349190612353565b6112a9565b005b610355600480360381019061035091906123c8565b611446565b6040516103629190611e2a565b60405180910390f35b61038560048036038101906103809190611ea3565b61176a565b60405161039392919061248c565b60405180910390f35b6000600660003373ffffffffffffffffffffffffffffffffffffffff1673ffffffffffffffffffffffffffffffffffffffff16815260200190815260200160002090508060010160009054906101000a900460ff16610430576040517f08c379a000000000000000000000000000000000000000000000000000000000815260040161042790612527565b60405180910390fd5b6000600860003373ffffffffffffffffffffffffffffffffffffffff1673ffffffffffffffffffffffffffffffffffffffff168152602001908152602001600020549050600060018080805490506104889190612576565b81548110610499576104986125aa565b5b9060005260206000200160009054906101000a900473ffffffffffffffffffffffffffffffffffffffff16905080600183815481106104db576104da6125aa565b5b9060005260206000200160006101000a81548173ffffffffffffffffffffffffffffffffffffffff021916908373ffffffffffffffffffffffffffffffffffffffff16021790555081600860008373ffffffffffffffffffffffffffffffffffffffff1673ffffffffffffffffffffffffffffffffffffffff168152602001908152602001600020819055506001805480610579576105786125d9565b5b6001900381819060005260206000200160006101000a81549073ffffffffffffffffffffffffffffffffffffffff02191690559055600860003373ffffffffffffffffffffffffffffffffffffffff1673ffffffffffffffffffffffffffffffffffffffff168152602001908152602001600020600090558260020160006106019190611b41565b600660003373ffffffffffffffffffffffffffffffffffffffff1673ffffffffffffffffffffffffffffffffffffffff168152602001908152602001600020600080820160006106519190611b62565b6001820160006101000a81549060ff02191690556002820160006106759190611b41565b50507fed9c8ad8d5a0a66898ea49d2956929c93ae2e8bd50281b2ed897c5d1a6737e0b336040516106a691906120ef565b60405180910390a1505050565b60008060009054906101000a900473ffffffffffffffffffffffffffffffffffffffff1673ffffffffffffffffffffffffffffffffffffffff163373ffffffffffffffffffffffffffffffffffffffff1614610744576040517f08c379a000000000000000000000000000000000000000000000000000000000815260040161073b9061267a565b60405180910390fd5b60006007600085815260200190815260200160002090506000600281111561076f5761076e611f1f565b5b8160090160009054906101000a900460ff16600281111561079357610792611f1f565b5b146107d3576040517f08c379a00000000000000000000000000000000000000000000000000000000081526004016107ca9061270c565b60405180910390fd5b82816006019060036107e6929190611ba2565b5060018160090160006101000a81548160ff0219169083600281111561080f5761080e611f1f565b5b02179055507f6781e8d3c07e87e938ec28a5435aa7862779fb9c7d01b7315eca91430b2a464384604051610843919061273b565b60405180910390a1600191505092915050565b60008060076000858152602001908152602001600020905060028081111561088157610880611f1f565b5b8160090160009054906101000a900460ff1660028111156108a5576108a4611f1f565b5b036108e5576040517f08c379a00000000000000000000000000000000000000000000000000000000081526004016108dc906127c8565b60405180910390fd5b8273ffffffffffffffffffffffffffffffffffffffff168160020160009054906101000a900473ffffffffffffffffffffffffffffffffffffffff1673ffffffffffffffffffffffffffffffffffffffff161491505092915050565b6000600660003373ffffffffffffffffffffffffffffffffffffffff1673ffffffffffffffffffffffffffffffffffffffff16815260200190815260200160002090508060010160009054906101000a900460ff166109d5576040517f08c379a00000000000000000000000000000000000000000000000000000000081526004016109cc9061285a565b60405180910390fd5b60006007600085815260200190815260200160002090508381600001819055506109fe3361192d565b8160010160006101000a81548173ffffffffffffffffffffffffffffffffffffffff021916908373ffffffffffffffffffffffffffffffffffffffff160217905550338160020160006101000a81548173ffffffffffffffffffffffffffffffffffffffff021916908373ffffffffffffffffffffffffffffffffffffffff1602179055508281600301906003610a96929190611ba2565b5060405180606001604052806000801b81526020016000801b81526020016000801b81525081600601906003610acd929190611ba2565b5060008160090160006101000a81548160ff02191690836002811115610af657610af5611f1f565b5b021790555060008160090160016101000a81548160ff02191690836002811115610b2357610b22611f1f565b5b0217905550600081600a01819055507fd32f85071e05721b8a1c63d5cad1fe3525ec0a11fd5b7760b6a82d7f6be7d28384604051610b61919061273b565b60405180910390a150505050565b6000806000806000600760008781526020019081526020016000209050600280811115610b9f57610b9e611f1f565b5b8160090160009054906101000a900460ff166002811115610bc357610bc2611f1f565b5b14610c03576040517f08c379a0000000000000000000000000000000000000000000000000000000008152600401610bfa906128ec565b60405180910390fd5b8060020160009054906101000a900473ffffffffffffffffffffffffffffffffffffffff168160010160009054906101000a900473ffffffffffffffffffffffffffffffffffffffff168260090160019054906101000a900460ff1683600a01549450945094509450509193509193565b60008054906101000a900473ffffffffffffffffffffffffffffffffffffffff1673ffffffffffffffffffffffffffffffffffffffff163373ffffffffffffffffffffffffffffffffffffffff1614610d02576040517f08c379a0000000000000000000000000000000000000000000000000000000008152600401610cf99061297e565b60405180910390fd5b60026000610d109190611b41565b60006004819055507f8e1dda8e7ca889ef4bd70f2ff6dd48a9b896b1d89703a08b6385333045af148960405160405180910390a1565b60035481565b60045481565b60606002805480602002602001604051908101604052809291908181526020018280548015610da057602002820191906000526020600020905b815481526020019060010190808311610d8c575b5050505050905090565b60008060009054906101000a900473ffffffffffffffffffffffffffffffffffffffff1673ffffffffffffffffffffffffffffffffffffffff168273ffffffffffffffffffffffffffffffffffffffff1614610e3b576040517f08c379a0000000000000000000000000000000000000000000000000000000008152600401610e32906129ea565b60405180910390fd5b600060076000858152602001908152602001600020905060006002811115610e6657610e65611f1f565b5b8160090160009054906101000a900460ff166002811115610e8a57610e89611f1f565b5b14610eca576040517f08c379a0000000000000000000000000000000000000000000000000000000008152600401610ec190612a7c565b60405180910390fd5b60008160020160009054906101000a900473ffffffffffffffffffffffffffffffffffffffff169050809250505092915050565b600080600760008581526020019081526020016000209050600280811115610f2957610f28611f1f565b5b8160090160009054906101000a900460ff166002811115610f4d57610f4c611f1f565b5b03610f8d576040517f08c379a0000000000000000000000000000000000000000000000000000000008152600401610f84906127c8565b60405180910390fd5b8273ffffffffffffffffffffffffffffffffffffffff168160010160009054906101000a900473ffffffffffffffffffffffffffffffffffffffff1673ffffffffffffffffffffffffffffffffffffffff161491505092915050565b60006007600083815260200190815260200160002060090160009054906101000a900460ff169050919050565b6060600060606000600660008673ffffffffffffffffffffffffffffffffffffffff1673ffffffffffffffffffffffffffffffffffffffff16815260200190815260200160002090506000600660008873ffffffffffffffffffffffffffffffffffffffff1673ffffffffffffffffffffffffffffffffffffffff16815260200190815260200160002090508160010160009054906101000a900460ff168061110a575060008054906101000a900473ffffffffffffffffffffffffffffffffffffffff1673ffffffffffffffffffffffffffffffffffffffff168673ffffffffffffffffffffffffffffffffffffffff16145b611149576040517f08c379a000000000000000000000000000000000000000000000000000000000815260040161114090612b0e565b60405180910390fd5b806000018160010160009054906101000a900460ff168260020182805461116f90612b5d565b80601f016020809104026020016040519081016040528092919081815260200182805461119b90612b5d565b80156111e85780601f106111bd576101008083540402835291602001916111e8565b820191906000526020600020905b8154815290600101906020018083116111cb57829003601f168201915b505050505092508080548060200260200160405190810160405280929190818152602001828054801561123a57602002820191906000526020600020905b815481526020019060010190808311611226575b5050505050905094509450945050509250925092565b6000600660008373ffffffffffffffffffffffffffffffffffffffff1673ffffffffffffffffffffffffffffffffffffffff16815260200190815260200160002060010160009054906101000a900460ff169050919050565b60008151116112ed576040517f08c379a00000000000000000000000000000000000000000000000000000000081526004016112e490612bda565b60405180910390fd5b6000600660003373ffffffffffffffffffffffffffffffffffffffff1673ffffffffffffffffffffffffffffffffffffffff1681526020019081526020016000209050818160000190816113419190612da6565b5060018160010160006101000a81548160ff021916908315150217905550600180549050600860003373ffffffffffffffffffffffffffffffffffffffff1673ffffffffffffffffffffffffffffffffffffffff168152602001908152602001600020819055506001339080600181540180825580915050600190039060005260206000200160009091909190916101000a81548173ffffffffffffffffffffffffffffffffffffffff021916908373ffffffffffffffffffffffffffffffffffffffff1602179055507f82d0829d9d481e4cb9913897f9b9c903271c4db68c7b3324071d2a7e3b2c5ff03360405161143a91906120ef565b60405180910390a15050565b6000806007600085815260200190815260200160002090503373ffffffffffffffffffffffffffffffffffffffff168160010160009054906101000a900473ffffffffffffffffffffffffffffffffffffffff1673ffffffffffffffffffffffffffffffffffffffff16146114f0576040517f08c379a00000000000000000000000000000000000000000000000000000000081526004016114e790612eea565b60405180910390fd5b6001600281111561150457611503611f1f565b5b8160090160009054906101000a900460ff16600281111561152857611527611f1f565b5b14611568576040517f08c379a000000000000000000000000000000000000000000000000000000000815260040161155f90612f7c565b60405180910390fd5b60028160090160006101000a81548160ff021916908360028111156115905761158f611f1f565b5b02179055504281600a01819055506000600660008360020160009054906101000a900473ffffffffffffffffffffffffffffffffffffffff1673ffffffffffffffffffffffffffffffffffffffff1673ffffffffffffffffffffffffffffffffffffffff168152602001908152602001600020905083156116a55760028260090160016101000a81548160ff0219169083600281111561163357611632611f1f565b5b021790555042600560008460020160009054906101000a900473ffffffffffffffffffffffffffffffffffffffff1673ffffffffffffffffffffffffffffffffffffffff1673ffffffffffffffffffffffffffffffffffffffff168152602001908152602001600020819055506116d3565b60018260090160016101000a81548160ff021916908360028111156116cd576116cc611f1f565b5b02179055505b8060020185908060018154018082558091505060019003906000526020600020016000909190919091505560028590806001815401808255809150506001900390600052602060002001600090919091909150557f31a3cf273cd0e82f8ddb4be15d4b954d7fcd18a4c5d4591cce32edd1a4bc417d85604051611756919061273b565b60405180910390a160019250505092915050565b611772611be2565b61177a611be2565b60006007600086815260200190815260200160002090508373ffffffffffffffffffffffffffffffffffffffff168160010160009054906101000a900473ffffffffffffffffffffffffffffffffffffffff1673ffffffffffffffffffffffffffffffffffffffff1614611823576040517f08c379a000000000000000000000000000000000000000000000000000000000815260040161181a9061300e565b60405180910390fd5b6001600281111561183757611836611f1f565b5b8160090160009054906101000a900460ff16600281111561185b5761185a611f1f565b5b1461189b576040517f08c379a0000000000000000000000000000000000000000000000000000000008152600401611892906130a0565b60405180910390fd5b8060030181600601816003806020026040519081016040528092919082600380156118db576020028201915b8154815260200190600101908083116118c7575b505050505091508060038060200260405190810160405280929190826003801561191a576020028201915b815481526020019060010190808311611906575b5050505050905092509250509250929050565b60008060018054905067ffffffffffffffff81111561194f5761194e611c9e565b5b60405190808252806020026020018201604052801561197d5781602001602082028036833780820191505090505b5090506000805b600180549050811015611abe576000600182815481106119a7576119a66125aa565b5b9060005260206000200160009054906101000a900473ffffffffffffffffffffffffffffffffffffffff1690508573ffffffffffffffffffffffffffffffffffffffff168173ffffffffffffffffffffffffffffffffffffffff1614158015611a5057506000600560008373ffffffffffffffffffffffffffffffffffffffff1673ffffffffffffffffffffffffffffffffffffffff1681526020019081526020016000205414155b15611ab05780848480611a62906130c0565b955081518110611a7557611a746125aa565b5b602002602001019073ffffffffffffffffffffffffffffffffffffffff16908173ffffffffffffffffffffffffffffffffffffffff16815250505b508080600101915050611984565b5060008103611af15760008054906101000a900473ffffffffffffffffffffffffffffffffffffffff1692505050611b3c565b60008282600454611b029190613137565b81518110611b1357611b126125aa565b5b6020026020010151905060046000815480929190611b30906130c0565b91905055508093505050505b919050565b5080546000825590600052602060002090810190611b5f9190611c04565b50565b508054611b6e90612b5d565b6000825580601f10611b805750611b9f565b601f016020900490600052602060002090810190611b9e9190611c21565b5b50565b8260038101928215611bd1579160200282015b82811115611bd0578251825591602001919060010190611bb5565b5b509050611bde9190611c04565b5090565b6040518060600160405280600390602082028036833780820191505090505090565b5b80821115611c1d576000816000905550600101611c05565b5090565b5b80821115611c3a576000816000905550600101611c22565b5090565b6000604051905090565b600080fd5b600080fd5b6000819050919050565b611c6581611c52565b8114611c7057600080fd5b50565b600081359050611c8281611c5c565b92915050565b600080fd5b6000601f19601f8301169050919050565b7f4e487b7100000000000000000000000000000000000000000000000000000000600052604160045260246000fd5b611cd682611c8d565b810181811067ffffffffffffffff82111715611cf557611cf4611c9e565b5b80604052505050565b6000611d08611c3e565b9050611d148282611ccd565b919050565b600067ffffffffffffffff821115611d3457611d33611c9e565b5b602082029050919050565b600080fd5b6000611d57611d5284611d19565b611cfe565b90508060208402830185811115611d7157611d70611d3f565b5b835b81811015611d9a5780611d868882611c73565b845260208401935050602081019050611d73565b5050509392505050565b600082601f830112611db957611db8611c88565b5b6003611dc6848285611d44565b91505092915050565b60008060808385031215611de657611de5611c48565b5b6000611df485828601611c73565b9250506020611e0585828601611da4565b9150509250929050565b60008115159050919050565b611e2481611e0f565b82525050565b6000602082019050611e3f6000830184611e1b565b92915050565b600073ffffffffffffffffffffffffffffffffffffffff82169050919050565b6000611e7082611e45565b9050919050565b611e8081611e65565b8114611e8b57600080fd5b50565b600081359050611e9d81611e77565b92915050565b60008060408385031215611eba57611eb9611c48565b5b6000611ec885828601611c73565b9250506020611ed985828601611e8e565b9150509250929050565b600060208284031215611ef957611ef8611c48565b5b6000611f0784828501611c73565b91505092915050565b611f1981611e65565b82525050565b7f4e487b7100000000000000000000000000000000000000000000000000000000600052602160045260246000fd5b60038110611f5f57611f5e611f1f565b5b50565b6000819050611f7082611f4e565b919050565b6000611f8082611f62565b9050919050565b611f9081611f75565b82525050565b6000819050919050565b611fa981611f96565b82525050565b6000608082019050611fc46000830187611f10565b611fd16020830186611f10565b611fde6040830185611f87565b611feb6060830184611fa0565b95945050505050565b60006020820190506120096000830184611fa0565b92915050565b600081519050919050565b600082825260208201905092915050565b6000819050602082019050919050565b61204481611c52565b82525050565b6000612056838361203b565b60208301905092915050565b6000602082019050919050565b600061207a8261200f565b612084818561201a565b935061208f8361202b565b8060005b838110156120c05781516120a7888261204a565b97506120b283612062565b925050600181019050612093565b5085935050505092915050565b600060208201905081810360008301526120e7818461206f565b905092915050565b60006020820190506121046000830184611f10565b92915050565b6003811061211b5761211a611f1f565b5b50565b600081905061212c8261210a565b919050565b600061213c8261211e565b9050919050565b61214c81612131565b82525050565b60006020820190506121676000830184612143565b92915050565b6000806040838503121561218457612183611c48565b5b600061219285828601611e8e565b92505060206121a385828601611e8e565b9150509250929050565b600081519050919050565b600082825260208201905092915050565b60005b838110156121e75780820151818401526020810190506121cc565b60008484015250505050565b60006121fe826121ad565b61220881856121b8565b93506122188185602086016121c9565b61222181611c8d565b840191505092915050565b6000606082019050818103600083015261224681866121f3565b90506122556020830185611e1b565b8181036040830152612267818461206f565b9050949350505050565b60006020828403121561228757612286611c48565b5b600061229584828501611e8e565b91505092915050565b600080fd5b600067ffffffffffffffff8211156122be576122bd611c9e565b5b6122c782611c8d565b9050602081019050919050565b82818337600083830152505050565b60006122f66122f1846122a3565b611cfe565b9050828152602081018484840111156123125761231161229e565b5b61231d8482856122d4565b509392505050565b600082601f83011261233a57612339611c88565b5b813561234a8482602086016122e3565b91505092915050565b60006020828403121561236957612368611c48565b5b600082013567ffffffffffffffff81111561238757612386611c4d565b5b61239384828501612325565b91505092915050565b6123a581611e0f565b81146123b057600080fd5b50565b6000813590506123c28161239c565b92915050565b600080604083850312156123df576123de611c48565b5b60006123ed85828601611c73565b92505060206123fe858286016123b3565b9150509250929050565b600060039050919050565b600081905092915050565b6000819050919050565b6000602082019050919050565b61243e81612408565b6124488184612413565b92506124538261241e565b8060005b8381101561248457815161246b878261204a565b965061247683612428565b925050600181019050612457565b505050505050565b600060c0820190506124a16000830185612435565b6124ae6060830184612435565b9392505050565b7f52656d6f76654167656e74203a204167656e74206973206e6f7420726567697360008201527f7465726564000000000000000000000000000000000000000000000000000000602082015250565b60006125116025836121b8565b915061251c826124b5565b604082019050919050565b6000602082019050818103600083015261254081612504565b9050919050565b7f4e487b7100000000000000000000000000000000000000000000000000000000600052601160045260246000fd5b600061258182611f96565b915061258c83611f96565b92508282039050818111156125a4576125a3612547565b5b92915050565b7f4e487b7100000000000000000000000000000000000000000000000000000000600052603260045260246000fd5b7f4e487b7100000000000000000000000000000000000000000000000000000000600052603160045260246000fd5b7f4f6e6c7920746865205345436161532063616e2073656e64207468652072656660008201527f6572656e6365207369676e617475726500000000000000000000000000000000602082015250565b60006126646030836121b8565b915061266f82612608565b604082019050919050565b6000602082019050818103600083015261269381612657565b9050919050565b7f496e76616c696420737461746520666f722053454361615320726573706f6e7360008201527f6500000000000000000000000000000000000000000000000000000000000000602082015250565b60006126f66021836121b8565b91506127018261269a565b604082019050919050565b60006020820190508181036000830152612725816126e9565b9050919050565b61273581611c52565b82525050565b6000602082019050612750600083018461272c565b92915050565b7f4174746573746174696f6e2070726f6365737320697320636c6f736564206f7260008201527f206e6f7420657869737473000000000000000000000000000000000000000000602082015250565b60006127b2602b836121b8565b91506127bd82612756565b604082019050919050565b600060208201905081810360008301526127e1816127a5565b9050919050565b7f53656e6445766964656e6365203a204167656e74206973206e6f74207265676960008201527f7374657265640000000000000000000000000000000000000000000000000000602082015250565b60006128446026836121b8565b915061284f826127e8565b604082019050919050565b6000602082019050818103600083015261287381612837565b9050919050565b7f4174746573746174696f6e2070726f63657373206973206e6f7420636c6f736560008201527f6400000000000000000000000000000000000000000000000000000000000000602082015250565b60006128d66021836121b8565b91506128e18261287a565b604082019050919050565b60006020820190508181036000830152612905816128c9565b9050919050565b7f4f6e6c7920746865205345436161532063616e2072657365742074686520636860008201527f61696e0000000000000000000000000000000000000000000000000000000000602082015250565b60006129686023836121b8565b91506129738261290c565b604082019050919050565b600060208201905081810360008301526129978161295b565b9050919050565b7f596f7520617265206e6f7420746865205345436161532e000000000000000000600082015250565b60006129d46017836121b8565b91506129df8261299e565b602082019050919050565b60006020820190508181036000830152612a03816129c7565b9050919050565b7f4174746573746174696f6e20697320636c6f736564206f72206e6f742065786960008201527f7374730000000000000000000000000000000000000000000000000000000000602082015250565b6000612a666023836121b8565b9150612a7182612a0a565b604082019050919050565b60006020820190508181036000830152612a9581612a59565b9050919050565b7f4765744167656e74496e666f203a204167656e74206973206e6f74207265676960008201527f7374657265640000000000000000000000000000000000000000000000000000602082015250565b6000612af86026836121b8565b9150612b0382612a9c565b604082019050919050565b60006020820190508181036000830152612b2781612aeb565b9050919050565b7f4e487b7100000000000000000000000000000000000000000000000000000000600052602260045260246000fd5b60006002820490506001821680612b7557607f821691505b602082108103612b8857612b87612b2e565b5b50919050565b7f4e616d65206973206e6f742076616c6964000000000000000000000000000000600082015250565b6000612bc46011836121b8565b9150612bcf82612b8e565b602082019050919050565b60006020820190508181036000830152612bf381612bb7565b9050919050565b60008190508160005260206000209050919050565b60006020601f8301049050919050565b600082821b905092915050565b600060088302612c5c7fffffffffffffffffffffffffffffffffffffffffffffffffffffffffffffffff82612c1f565b612c668683612c1f565b95508019841693508086168417925050509392505050565b6000819050919050565b6000612ca3612c9e612c9984611f96565b612c7e565b611f96565b9050919050565b6000819050919050565b612cbd83612c88565b612cd1612cc982612caa565b848454612c2c565b825550505050565b600090565b612ce6612cd9565b612cf1818484612cb4565b505050565b5b81811015612d1557612d0a600082612cde565b600181019050612cf7565b5050565b601f821115612d5a57612d2b81612bfa565b612d3484612c0f565b81016020851015612d43578190505b612d57612d4f85612c0f565b830182612cf6565b50505b505050565b600082821c905092915050565b6000612d7d60001984600802612d5f565b1980831691505092915050565b6000612d968383612d6c565b9150826002028217905092915050565b612daf826121ad565b67ffffffffffffffff811115612dc857612dc7611c9e565b5b612dd28254612b5d565b612ddd828285612d19565b600060209050601f831160018114612e105760008415612dfe578287015190505b612e088582612d8a565b865550612e70565b601f198416612e1e86612bfa565b60005b82811015612e4657848901518255600182019150602085019450602081019050612e21565b86831015612e635784890151612e5f601f891682612d6c565b8355505b6001600288020188555050505b505050505050565b7f4f6e6c79207468652076657269666965722063616e20636c6f7365207468652060008201527f6174746573746174696f6e2070726f6365737300000000000000000000000000602082015250565b6000612ed46033836121b8565b9150612edf82612e78565b604082019050919050565b60006020820190508181036000830152612f0381612ec7565b9050919050565b7f4174746573746174696f6e206973206e6f7420726561647920666f7220636c6f60008201527f7375726500000000000000000000000000000000000000000000000000000000602082015250565b6000612f666024836121b8565b9150612f7182612f0a565b604082019050919050565b60006020820190508181036000830152612f9581612f59565b9050919050565b7f4f6e6c79207468652076657269666965722063616e207265747269657665207460008201527f6865207369676e61747572657300000000000000000000000000000000000000602082015250565b6000612ff8602d836121b8565b915061300382612f9c565b604082019050919050565b6000602082019050818103600083015261302781612feb565b9050919050565b7f4174746573746174696f6e2070726f63657373206973206e6f7420636f6d706c60008201527f6574656400000000000000000000000000000000000000000000000000000000602082015250565b600061308a6024836121b8565b91506130958261302e565b604082019050919050565b600060208201905081810360008301526130b98161307d565b9050919050565b60006130cb82611f96565b91507fffffffffffffffffffffffffffffffffffffffffffffffffffffffffffffffff82036130fd576130fc612547565b5b600182019050919050565b7f4e487b7100000000000000000000000000000000000000000000000000000000600052601260045260246000fd5b600061314282611f96565b915061314d83611f96565b92508261315d5761315c613108565b5b82820690509291505056fea26469706673582212206b592cd7955f34ddf7dc07448806713f8831d8f4a432dbd72a14c26810820d7364736f6c634300081c0033",
  "linkReferences": {},
  "deployedLinkReferences": {}
}