{
  "_format": "hh-sol-artifact-1",
  "contractName": "MasMutualAttestation",
  "sourceName": "contracts/MasMutualAttestation.sol",
  "abi": [
    {
      "inputs": [],
      "stateMutability": "nonpayable",
      "type": "constructor"
    },
    {
      "anonymous": false,
      "inputs": [
        {
          "indexed": false,
          "internalType": "address",
          "name": "agent",
          "type": "address"
        }
      ],
      "name": "AgentRegistered",
      "type": "event"
    },
    {
      "anonymous": false,
      "inputs": [
        {
          "indexed": false,
          "internalType": "address",
          "name": "agent",
          "type": "address"
        }
      ],
      "name": "AgentRemoved",
      "type": "event"
    },
    {
      "anonymous": false,
      "inputs": [
        {
          "indexed": false,
          "internalType": "bytes32",
          "name": "id",
          "type": "bytes32"
        }
      ],
      "name": "AttestationCompleted",
      "type": "event"
    },
    {
      "anonymous": false,
      "inputs": [
        {
          "indexed": false,
          "internalType": "bytes32",
          "name": "id",
          "type": "bytes32"
        }
      ],
      "name": "AttestationStarted",
      "type": "event"
    },
    {
      "anonymous": false,
      "inputs": [],
      "name": "ChainReset",
      "type": "event"
    },
    {
      "anonymous": false,
      "inputs": [
        {
          "indexed": false,
          "internalType": "bytes32",
          "name": "id",
          "type": "bytes32"
        }
      ],
      "name": "ReadyForEvaluation",
      "type": "event"
    },
    {
      "inputs": [
        {
          "internalType": "bytes32",
          "name": "id",
          "type": "bytes32"
        },
        {
          "internalType": "bool",
          "name": "verified",
          "type": "bool"
        }
      ],
      "name": "CloseAttestationProcess",
      "outputs": [
        {
          "internalType": "bool",
          "name": "",
          "type": "bool"
        }
      ],
      "stateMutability": "nonpayable",
      "type": "function"
    },
    {
      "inputs": [
        {
          "internalType": "address",
          "name": "agentAddress",
          "type": "address"
        },
        {
          "internalType": "address",
          "name": "callAddress",
          "type": "address"
        }
      ],
      "name": "GetAgentInfo",
      "outputs": [
        {
          "internalType": "string",
          "name": "",
          "type": "string"
        },
        {
          "internalType": "bool",
          "name": "",
          "type": "bool"
        },
        {
          "internalType": "bytes32[]",
          "name": "",
          "type": "bytes32[]"
        }
      ],
      "stateMutability": "view",
      "type": "function"
    },
    {
      "inputs": [],
      "name": "GetAttestationChain",
      "outputs": [
        {
          "internalType": "bytes32[]",
          "name": "",
          "type": "bytes32[]"
        }
      ],
      "stateMutability": "view",
      "type": "function"
    },
    {
      "inputs": [
        {
          "internalType": "bytes32",
          "name": "id",
          "type": "bytes32"
        }
      ],
      "name": "GetAttestationInfo",
      "outputs": [
        {
          "internalType": "address",
          "name": "",
          "type": "address"
        },
        {
          "internalType": "address",
          "name": "",
          "type": "address"
        },
        {
          "internalType": "enum MasMutualAttestation.AttestationResult",
          "name": "",
          "type": "uint8"
        },
        {
          "internalType": "uint256",
          "name": "",
          "type": "uint256"
        }
      ],
      "stateMutability": "view",
      "type": "function"
    },
    {
      "inputs": [
        {
          "internalType": "bytes32",
          "name": "id",
          "type": "bytes32"
        },
        {
          "internalType": "address",
          "name": "callAddress",
          "type": "address"
        }
      ],
      "name": "GetAttestationSignatures",
      "outputs": [
        {
          "internalType": "bytes32",
          "name": "",
          "type": "bytes32"
        },
        {
          "internalType": "bytes32",
          "name": "",
          "type": "bytes32"
        }
      ],
      "stateMutability": "view",
      "type": "function"
    },
    {
      "inputs": [
        {
          "internalType": "bytes32",
          "name": "id",
          "type": "bytes32"
        }
      ],
      "name": "GetAttestationState",
      "outputs": [
        {
          "internalType": "enum MasMutualAttestation.AttestationState",
          "name": "",
          "type": "uint8"
        }
      ],
      "stateMutability": "view",
      "type": "function"
    },
    {
      "inputs": [
        {
          "internalType": "bytes32",
          "name": "id",
          "type": "bytes32"
        },
        {
          "internalType": "address",
          "name": "callAddress",
          "type": "address"
        }
      ],
      "name": "GetProverAddress",
      "outputs": [
        {
          "internalType": "address",
          "name": "",
          "type": "address"
        }
      ],
      "stateMutability": "view",
      "type": "function"
    },
    {
      "inputs": [
        {
          "internalType": "bytes32",
          "name": "id",
          "type": "bytes32"
        },
        {
          "internalType": "address",
          "name": "callAddress",
          "type": "address"
        }
      ],
      "name": "IsProver",
      "outputs": [
        {
          "internalType": "bool",
          "name": "",
          "type": "bool"
        }
      ],
      "stateMutability": "view",
      "type": "function"
    },
    {
      "inputs": [
        {
          "internalType": "address",
          "name": "callAddress",
          "type": "address"
        }
      ],
      "name": "IsRegistered",
      "outputs": [
        {
          "internalType": "bool",
          "name": "",
          "type": "bool"
        }
      ],
      "stateMutability": "view",
      "type": "function"
    },
    {
      "inputs": [
        {
          "internalType": "bytes32",
          "name": "id",
          "type": "bytes32"
        },
        {
          "internalType": "address",
          "name": "callAddress",
          "type": "address"
        }
      ],
      "name": "IsVerifier",
      "outputs": [
        {
          "internalType": "bool",
          "name": "",
          "type": "bool"
        }
      ],
      "stateMutability": "view",
      "type": "function"
    },
    {
      "inputs": [
        {
          "internalType": "string",
          "name": "name",
          "type": "string"
        }
      ],
      "name": "RegisterAgent",
      "outputs": [],
      "stateMutability": "nonpayable",
      "type": "function"
    },
    {
      "inputs": [],
      "name": "RemoveAgent",
      "outputs": [],
      "stateMutability": "nonpayable",
      "type": "function"
    },
    {
      "inputs": [],
      "name": "ResetChain",
      "outputs": [],
      "stateMutability": "nonpayable",
      "type": "function"
    },
    {
      "inputs": [
        {
          "internalType": "bytes32",
          "name": "id",
          "type": "bytes32"
        },
        {
          "internalType": "bool",
          "name": "verified",
          "type": "bool"
        }
      ],
      "name": "ResolveAttestationSECaaS",
      "outputs": [],
      "stateMutability": "nonpayable",
      "type": "function"
    },
    {
      "inputs": [
        {
          "internalType": "bytes32",
          "name": "id",
          "type": "bytes32"
        },
        {
          "internalType": "bytes32",
          "name": "freshMeasurement",
          "type": "bytes32"
        }
      ],
      "name": "SendEvidence",
      "outputs": [],
      "stateMutability": "nonpayable",
      "type": "function"
    },
    {
      "inputs": [
        {
          "internalType": "bytes32",
          "name": "id",
          "type": "bytes32"
        },
        {
          "internalType": "bytes32",
          "name": "refMeasurement",
          "type": "bytes32"
        }
      ],
      "name": "SendRefSignature",
      "outputs": [
        {
          "internalType": "bool",
          "name": "",
          "type": "bool"
        }
      ],
      "stateMutability": "nonpayable",
      "type": "function"
    },
    {
      "inputs": [],
      "name": "freshnessWindow",
      "outputs": [
        {
          "internalType": "uint256",
          "name": "",
          "type": "uint256"
        }
      ],
      "stateMutability": "view",
      "type": "function"
    },
    {
      "inputs": [],
      "name": "rrIndex",
      "outputs": [
        {
          "internalType": "uint256",
          "name": "",
          "type": "uint256"
        }
      ],
      "stateMutability": "view",
      "type": "function"
    }
  ],
  "bytecode": "0x6080604052610e1060035534801561001657600080fd5b50336000806101000a81548173ffffffffffffffffffffffffffffffffffffffff021916908373ffffffffffffffffffffffffffffffffffffffff160217905550600160008054906101000a900473ffffffffffffffffffffffffffffffffffffffff169080600181540180825580915050600190039060005260206000200160009091909190916101000a81548173ffffffffffffffffffffffffffffffffffffffff021916908373ffffffffffffffffffffffffffffffffffffffff1602179055506000600860008060009054906101000a900473ffffffffffffffffffffffffffffffffffffffff1673ffffffffffffffffffffffffffffffffffffffff1673ffffffffffffffffffffffffffffffffffffffff168152602001908152602001600020819055506135a98061014f6000396000f3fe608060405234801561001057600080fd5b50600436106101165760003560e01c80639cb65fa1116100a2578063c224122d11610071578063c224122d146102fa578063c2694a041461032a578063c984f8db14610346578063cb2a034814610362578063e1a94c831461039257610116565b80639cb65fa114610238578063b46ca81a14610268578063b8df8f9814610298578063bc1a097e146102c857610116565b806378caad49116100e957806378caad49146101a457806381880fd3146101ae57806393506aa6146101cc57806396efe852146101ea578063986bed881461020857610116565b80631d995a0e1461011b578063395d719b146101255780635f3d42201461015557806371ea6e6714610188575b600080fd5b6101236103c3565b005b61013f600480360381019061013a91906120c1565b6106da565b60405161014c919061211c565b60405180910390f35b61016f600480360381019061016a9190612137565b6107c5565b60405161017f9493929190612203565b60405180910390f35b6101a2600480360381019061019d9190612248565b6108ca565b005b6101ac610ac2565b005b6101b6610c35565b6040516101c39190612288565b60405180910390f35b6101d4610c3b565b6040516101e19190612288565b60405180910390f35b6101f2610c41565b6040516101ff9190612361565b60405180910390f35b610222600480360381019061021d9190612248565b610c99565b60405161022f919061211c565b60405180910390f35b610252600480360381019061024d91906120c1565b610e31565b60405161025f9190612383565b60405180910390f35b610282600480360381019061027d91906120c1565b610f85565b60405161028f919061211c565b60405180910390f35b6102b260048036038101906102ad9190612137565b611070565b6040516102bf91906123e6565b60405180910390f35b6102e260048036038101906102dd9190612401565b61109d565b6040516102f1939291906124d1565b60405180910390f35b610314600480360381019061030f9190612516565b6112d7565b604051610321919061211c565b60405180910390f35b610344600480360381019061033f919061256f565b611330565b005b610360600480360381019061035b91906126e4565b6116f5565b005b61037c6004803603810190610377919061256f565b611892565b604051610389919061211c565b60405180910390f35b6103ac60048036038101906103a791906120c1565b611bb6565b6040516103ba92919061273c565b60405180910390f35b6000600660003373ffffffffffffffffffffffffffffffffffffffff1673ffffffffffffffffffffffffffffffffffffffff16815260200190815260200160002090508060010160009054906101000a900460ff16610457576040517f08c379a000000000000000000000000000000000000000000000000000000000815260040161044e906127d7565b60405180910390fd5b6000600860003373ffffffffffffffffffffffffffffffffffffffff1673ffffffffffffffffffffffffffffffffffffffff168152602001908152602001600020549050600060018080805490506104af9190612826565b815481106104c0576104bf61285a565b5b9060005260206000200160009054906101000a900473ffffffffffffffffffffffffffffffffffffffff16905080600183815481106105025761050161285a565b5b9060005260206000200160006101000a81548173ffffffffffffffffffffffffffffffffffffffff021916908373ffffffffffffffffffffffffffffffffffffffff16021790555081600860008373ffffffffffffffffffffffffffffffffffffffff1673ffffffffffffffffffffffffffffffffffffffff1681526020019081526020016000208190555060018054806105a05761059f612889565b5b6001900381819060005260206000200160006101000a81549073ffffffffffffffffffffffffffffffffffffffff02191690559055600860003373ffffffffffffffffffffffffffffffffffffffff1673ffffffffffffffffffffffffffffffffffffffff168152602001908152602001600020600090558260020160006106289190611f7e565b600660003373ffffffffffffffffffffffffffffffffffffffff1673ffffffffffffffffffffffffffffffffffffffff168152602001908152602001600020600080820160006106789190611f9f565b6001820160006101000a81549060ff021916905560028201600061069c9190611f7e565b50507fed9c8ad8d5a0a66898ea49d2956929c93ae2e8bd50281b2ed897c5d1a6737e0b336040516106cd9190612383565b60405180910390a1505050565b60008060076000858152602001908152602001600020905060028081111561070557610704612173565b5b8160050160009054906101000a900460ff16600281111561072957610728612173565b5b03610769576040517f08c379a00000000000000000000000000000000000000000000000000000000081526004016107609061292a565b60405180910390fd5b8273ffffffffffffffffffffffffffffffffffffffff168160020160009054906101000a900473ffffffffffffffffffffffffffffffffffffffff1673ffffffffffffffffffffffffffffffffffffffff161491505092915050565b60008060008060006007600087815260200190815260200160002090506002808111156107f5576107f4612173565b5b8160050160009054906101000a900460ff16600281111561081957610818612173565b5b14610859576040517f08c379a0000000000000000000000000000000000000000000000000000000008152600401610850906129bc565b60405180910390fd5b8060020160009054906101000a900473ffffffffffffffffffffffffffffffffffffffff168160010160009054906101000a900473ffffffffffffffffffffffffffffffffffffffff168260050160019054906101000a900460ff1683600601549450945094509450509193509193565b6000600660003373ffffffffffffffffffffffffffffffffffffffff1673ffffffffffffffffffffffffffffffffffffffff16815260200190815260200160002090508060010160009054906101000a900460ff1661095e576040517f08c379a000000000000000000000000000000000000000000000000000000000815260040161095590612a4e565b60405180910390fd5b600060076000858152602001908152602001600020905083816000018190555061098733611d6a565b8160010160006101000a81548173ffffffffffffffffffffffffffffffffffffffff021916908373ffffffffffffffffffffffffffffffffffffffff160217905550338160020160006101000a81548173ffffffffffffffffffffffffffffffffffffffff021916908373ffffffffffffffffffffffffffffffffffffffff1602179055508281600301819055506000801b816004018190555060008160050160006101000a81548160ff02191690836002811115610a4957610a48612173565b5b021790555060008160050160016101000a81548160ff02191690836002811115610a7657610a75612173565b5b0217905550600081600601819055507fd32f85071e05721b8a1c63d5cad1fe3525ec0a11fd5b7760b6a82d7f6be7d28384604051610ab49190612a6e565b60405180910390a150505050565b60008054906101000a900473ffffffffffffffffffffffffffffffffffffffff1673ffffffffffffffffffffffffffffffffffffffff163373ffffffffffffffffffffffffffffffffffffffff1614610b50576040517f08c379a0000000000000000000000000000000000000000000000000000000008152600401610b4790612afb565b60405180910390fd5b60026000610b5e9190611f7e565b600060048190555060005b600180549050811015610c065760006005600060018481548110610b9057610b8f61285a565b5b9060005260206000200160009054906101000a900473ffffffffffffffffffffffffffffffffffffffff1673ffffffffffffffffffffffffffffffffffffffff1673ffffffffffffffffffffffffffffffffffffffff168152602001908152602001600020819055508080600101915050610b69565b507f8e1dda8e7ca889ef4bd70f2ff6dd48a9b896b1d89703a08b6385333045af148960405160405180910390a1565b60035481565b60045481565b60606002805480602002602001604051908101604052809291908181526020018280548015610c8f57602002820191906000526020600020905b815481526020019060010190808311610c7b575b5050505050905090565b60008060009054906101000a900473ffffffffffffffffffffffffffffffffffffffff1673ffffffffffffffffffffffffffffffffffffffff163373ffffffffffffffffffffffffffffffffffffffff1614610d2a576040517f08c379a0000000000000000000000000000000000000000000000000000000008152600401610d2190612b8d565b60405180910390fd5b600060076000858152602001908152602001600020905060006002811115610d5557610d54612173565b5b8160050160009054906101000a900460ff166002811115610d7957610d78612173565b5b14610db9576040517f08c379a0000000000000000000000000000000000000000000000000000000008152600401610db090612c1f565b60405180910390fd5b82816004018190555060018160050160006101000a81548160ff02191690836002811115610dea57610de9612173565b5b02179055507f6781e8d3c07e87e938ec28a5435aa7862779fb9c7d01b7315eca91430b2a464384604051610e1e9190612a6e565b60405180910390a1600191505092915050565b60008060009054906101000a900473ffffffffffffffffffffffffffffffffffffffff1673ffffffffffffffffffffffffffffffffffffffff168273ffffffffffffffffffffffffffffffffffffffff1614610ec2576040517f08c379a0000000000000000000000000000000000000000000000000000000008152600401610eb990612c8b565b60405180910390fd5b600060076000858152602001908152602001600020905060006002811115610eed57610eec612173565b5b8160050160009054906101000a900460ff166002811115610f1157610f10612173565b5b14610f51576040517f08c379a0000000000000000000000000000000000000000000000000000000008152600401610f4890612d1d565b60405180910390fd5b60008160020160009054906101000a900473ffffffffffffffffffffffffffffffffffffffff169050809250505092915050565b600080600760008581526020019081526020016000209050600280811115610fb057610faf612173565b5b8160050160009054906101000a900460ff166002811115610fd457610fd3612173565b5b03611014576040517f08c379a000000000000000000000000000000000000000000000000000000000815260040161100b9061292a565b60405180910390fd5b8273ffffffffffffffffffffffffffffffffffffffff168160010160009054906101000a900473ffffffffffffffffffffffffffffffffffffffff1673ffffffffffffffffffffffffffffffffffffffff161491505092915050565b60006007600083815260200190815260200160002060050160009054906101000a900460ff169050919050565b6060600060606000600660008673ffffffffffffffffffffffffffffffffffffffff1673ffffffffffffffffffffffffffffffffffffffff16815260200190815260200160002090506000600660008873ffffffffffffffffffffffffffffffffffffffff1673ffffffffffffffffffffffffffffffffffffffff16815260200190815260200160002090508160010160009054906101000a900460ff1680611191575060008054906101000a900473ffffffffffffffffffffffffffffffffffffffff1673ffffffffffffffffffffffffffffffffffffffff168673ffffffffffffffffffffffffffffffffffffffff16145b6111d0576040517f08c379a00000000000000000000000000000000000000000000000000000000081526004016111c790612daf565b60405180910390fd5b806000018160010160009054906101000a900460ff16826002018280546111f690612dfe565b80601f016020809104026020016040519081016040528092919081815260200182805461122290612dfe565b801561126f5780601f106112445761010080835404028352916020019161126f565b820191906000526020600020905b81548152906001019060200180831161125257829003601f168201915b50505050509250808054806020026020016040519081016040528092919081815260200182805480156112c157602002820191906000526020600020905b8154815260200190600101908083116112ad575b5050505050905094509450945050509250925092565b6000600660008373ffffffffffffffffffffffffffffffffffffffff1673ffffffffffffffffffffffffffffffffffffffff16815260200190815260200160002060010160009054906101000a900460ff169050919050565b60008054906101000a900473ffffffffffffffffffffffffffffffffffffffff1673ffffffffffffffffffffffffffffffffffffffff163373ffffffffffffffffffffffffffffffffffffffff16146113be576040517f08c379a00000000000000000000000000000000000000000000000000000000081526004016113b590612ea1565b60405180910390fd5b6000600760008481526020019081526020016000209050600060028111156113e9576113e8612173565b5b8160050160009054906101000a900460ff16600281111561140d5761140c612173565b5b1461144d576040517f08c379a000000000000000000000000000000000000000000000000000000000815260040161144490612f0d565b60405180910390fd5b60008054906101000a900473ffffffffffffffffffffffffffffffffffffffff1673ffffffffffffffffffffffffffffffffffffffff168160010160009054906101000a900473ffffffffffffffffffffffffffffffffffffffff1673ffffffffffffffffffffffffffffffffffffffff16146114ff576040517f08c379a00000000000000000000000000000000000000000000000000000000081526004016114f690612f79565b60405180910390fd5b60028160050160006101000a81548160ff0219169083600281111561152757611526612173565b5b021790555042816006018190555081156115d55760028160050160016101000a81548160ff0219169083600281111561156357611562612173565b5b021790555042600560008360020160009054906101000a900473ffffffffffffffffffffffffffffffffffffffff1673ffffffffffffffffffffffffffffffffffffffff1673ffffffffffffffffffffffffffffffffffffffff16815260200190815260200160002081905550611603565b60018160050160016101000a81548160ff021916908360028111156115fd576115fc612173565b5b02179055505b600660008260020160009054906101000a900473ffffffffffffffffffffffffffffffffffffffff1673ffffffffffffffffffffffffffffffffffffffff1673ffffffffffffffffffffffffffffffffffffffff16815260200190815260200160002060020183908060018154018082558091505060019003906000526020600020016000909190919091505560028390806001815401808255809150506001900390600052602060002001600090919091909150557f31a3cf273cd0e82f8ddb4be15d4b954d7fcd18a4c5d4591cce32edd1a4bc417d836040516116e89190612a6e565b60405180910390a1505050565b6000815111611739576040517f08c379a000000000000000000000000000000000000000000000000000000000815260040161173090612fe5565b60405180910390fd5b6000600660003373ffffffffffffffffffffffffffffffffffffffff1673ffffffffffffffffffffffffffffffffffffffff16815260200190815260200160002090508181600001908161178d91906131b1565b5060018160010160006101000a81548160ff021916908315150217905550600180549050600860003373ffffffffffffffffffffffffffffffffffffffff1673ffffffffffffffffffffffffffffffffffffffff168152602001908152602001600020819055506001339080600181540180825580915050600190039060005260206000200160009091909190916101000a81548173ffffffffffffffffffffffffffffffffffffffff021916908373ffffffffffffffffffffffffffffffffffffffff1602179055507f82d0829d9d481e4cb9913897f9b9c903271c4db68c7b3324071d2a7e3b2c5ff0336040516118869190612383565b60405180910390a15050565b6000806007600085815260200190815260200160002090503373ffffffffffffffffffffffffffffffffffffffff168160010160009054906101000a900473ffffffffffffffffffffffffffffffffffffffff1673ffffffffffffffffffffffffffffffffffffffff161461193c576040517f08c379a0000000000000000000000000000000000000000000000000000000008152600401611933906132f5565b60405180910390fd5b600160028111156119505761194f612173565b5b8160050160009054906101000a900460ff16600281111561197457611973612173565b5b146119b4576040517f08c379a00000000000000000000000000000000000000000000000000000000081526004016119ab90613387565b60405180910390fd5b60028160050160006101000a81548160ff021916908360028111156119dc576119db612173565b5b02179055504281600601819055506000600660008360020160009054906101000a900473ffffffffffffffffffffffffffffffffffffffff1673ffffffffffffffffffffffffffffffffffffffff1673ffffffffffffffffffffffffffffffffffffffff16815260200190815260200160002090508315611af15760028260050160016101000a81548160ff02191690836002811115611a7f57611a7e612173565b5b021790555042600560008460020160009054906101000a900473ffffffffffffffffffffffffffffffffffffffff1673ffffffffffffffffffffffffffffffffffffffff1673ffffffffffffffffffffffffffffffffffffffff16815260200190815260200160002081905550611b1f565b60018260050160016101000a81548160ff02191690836002811115611b1957611b18612173565b5b02179055505b8060020185908060018154018082558091505060019003906000526020600020016000909190919091505560028590806001815401808255809150506001900390600052602060002001600090919091909150557f31a3cf273cd0e82f8ddb4be15d4b954d7fcd18a4c5d4591cce32edd1a4bc417d85604051611ba29190612a6e565b60405180910390a160019250505092915050565b60008060006007600086815260200190815260200160002090508373ffffffffffffffffffffffffffffffffffffffff168160010160009054906101000a900473ffffffffffffffffffffffffffffffffffffffff1673ffffffffffffffffffffffffffffffffffffffff1614611c62576040517f08c379a0000000000000000000000000000000000000000000000000000000008152600401611c5990613419565b60405180910390fd5b60016002811115611c7657611c75612173565b5b8160050160009054906101000a900460ff166002811115611c9a57611c99612173565b5b1480611d15575060008054906101000a900473ffffffffffffffffffffffffffffffffffffffff1673ffffffffffffffffffffffffffffffffffffffff168160010160009054906101000a900473ffffffffffffffffffffffffffffffffffffffff1673ffffffffffffffffffffffffffffffffffffffff16145b611d54576040517f08c379a0000000000000000000000000000000000000000000000000000000008152600401611d4b906134ab565b60405180910390fd5b8060030154816004015492509250509250929050565b60008060018054905067ffffffffffffffff811115611d8c57611d8b6125b9565b5b604051908082528060200260200182016040528015611dba5781602001602082028036833780820191505090505b5090506000805b600180549050811015611efb57600060018281548110611de457611de361285a565b5b9060005260206000200160009054906101000a900473ffffffffffffffffffffffffffffffffffffffff1690508573ffffffffffffffffffffffffffffffffffffffff168173ffffffffffffffffffffffffffffffffffffffff1614158015611e8d57506000600560008373ffffffffffffffffffffffffffffffffffffffff1673ffffffffffffffffffffffffffffffffffffffff1681526020019081526020016000205414155b15611eed5780848480611e9f906134cb565b955081518110611eb257611eb161285a565b5b602002602001019073ffffffffffffffffffffffffffffffffffffffff16908173ffffffffffffffffffffffffffffffffffffffff16815250505b508080600101915050611dc1565b5060008103611f2e5760008054906101000a900473ffffffffffffffffffffffffffffffffffffffff1692505050611f79565b60008282600454611f3f9190613542565b81518110611f5057611f4f61285a565b5b6020026020010151905060046000815480929190611f6d906134cb565b91905055508093505050505b919050565b5080546000825590600052602060002090810190611f9c9190611fdf565b50565b508054611fab90612dfe565b6000825580601f10611fbd5750611fdc565b601f016020900490600052602060002090810190611fdb9190611ffc565b5b50565b5b80821115611ff8576000816000905550600101611fe0565b5090565b5b80821115612015576000816000905550600101611ffd565b5090565b6000604051905090565b600080fd5b600080fd5b6000819050919050565b6120408161202d565b811461204b57600080fd5b50565b60008135905061205d81612037565b92915050565b600073ffffffffffffffffffffffffffffffffffffffff82169050919050565b600061208e82612063565b9050919050565b61209e81612083565b81146120a957600080fd5b50565b6000813590506120bb81612095565b92915050565b600080604083850312156120d8576120d7612023565b5b60006120e68582860161204e565b92505060206120f7858286016120ac565b9150509250929050565b60008115159050919050565b61211681612101565b82525050565b6000602082019050612131600083018461210d565b92915050565b60006020828403121561214d5761214c612023565b5b600061215b8482850161204e565b91505092915050565b61216d81612083565b82525050565b7f4e487b7100000000000000000000000000000000000000000000000000000000600052602160045260246000fd5b600381106121b3576121b2612173565b5b50565b60008190506121c4826121a2565b919050565b60006121d4826121b6565b9050919050565b6121e4816121c9565b82525050565b6000819050919050565b6121fd816121ea565b82525050565b60006080820190506122186000830187612164565b6122256020830186612164565b61223260408301856121db565b61223f60608301846121f4565b95945050505050565b6000806040838503121561225f5761225e612023565b5b600061226d8582860161204e565b925050602061227e8582860161204e565b9150509250929050565b600060208201905061229d60008301846121f4565b92915050565b600081519050919050565b600082825260208201905092915050565b6000819050602082019050919050565b6122d88161202d565b82525050565b60006122ea83836122cf565b60208301905092915050565b6000602082019050919050565b600061230e826122a3565b61231881856122ae565b9350612323836122bf565b8060005b8381101561235457815161233b88826122de565b9750612346836122f6565b925050600181019050612327565b5085935050505092915050565b6000602082019050818103600083015261237b8184612303565b905092915050565b60006020820190506123986000830184612164565b92915050565b600381106123af576123ae612173565b5b50565b60008190506123c08261239e565b919050565b60006123d0826123b2565b9050919050565b6123e0816123c5565b82525050565b60006020820190506123fb60008301846123d7565b92915050565b6000806040838503121561241857612417612023565b5b6000612426858286016120ac565b9250506020612437858286016120ac565b9150509250929050565b600081519050919050565b600082825260208201905092915050565b60005b8381101561247b578082015181840152602081019050612460565b60008484015250505050565b6000601f19601f8301169050919050565b60006124a382612441565b6124ad818561244c565b93506124bd81856020860161245d565b6124c681612487565b840191505092915050565b600060608201905081810360008301526124eb8186612498565b90506124fa602083018561210d565b818103604083015261250c8184612303565b9050949350505050565b60006020828403121561252c5761252b612023565b5b600061253a848285016120ac565b91505092915050565b61254c81612101565b811461255757600080fd5b50565b60008135905061256981612543565b92915050565b6000806040838503121561258657612585612023565b5b60006125948582860161204e565b92505060206125a58582860161255a565b9150509250929050565b600080fd5b600080fd5b7f4e487b7100000000000000000000000000000000000000000000000000000000600052604160045260246000fd5b6125f182612487565b810181811067ffffffffffffffff821117156126105761260f6125b9565b5b80604052505050565b6000612623612019565b905061262f82826125e8565b919050565b600067ffffffffffffffff82111561264f5761264e6125b9565b5b61265882612487565b9050602081019050919050565b82818337600083830152505050565b600061268761268284612634565b612619565b9050828152602081018484840111156126a3576126a26125b4565b5b6126ae848285612665565b509392505050565b600082601f8301126126cb576126ca6125af565b5b81356126db848260208601612674565b91505092915050565b6000602082840312156126fa576126f9612023565b5b600082013567ffffffffffffffff81111561271857612717612028565b5b612724848285016126b6565b91505092915050565b6127368161202d565b82525050565b6000604082019050612751600083018561272d565b61275e602083018461272d565b9392505050565b7f52656d6f76654167656e74203a204167656e74206973206e6f7420726567697360008201527f7465726564000000000000000000000000000000000000000000000000000000602082015250565b60006127c160258361244c565b91506127cc82612765565b604082019050919050565b600060208201905081810360008301526127f0816127b4565b9050919050565b7f4e487b7100000000000000000000000000000000000000000000000000000000600052601160045260246000fd5b6000612831826121ea565b915061283c836121ea565b9250828203905081811115612854576128536127f7565b5b92915050565b7f4e487b7100000000000000000000000000000000000000000000000000000000600052603260045260246000fd5b7f4e487b7100000000000000000000000000000000000000000000000000000000600052603160045260246000fd5b7f4174746573746174696f6e2070726f6365737320697320636c6f736564206f7260008201527f206e6f7420657869737473000000000000000000000000000000000000000000602082015250565b6000612914602b8361244c565b915061291f826128b8565b604082019050919050565b6000602082019050818103600083015261294381612907565b9050919050565b7f4174746573746174696f6e2070726f63657373206973206e6f7420636c6f736560008201527f6400000000000000000000000000000000000000000000000000000000000000602082015250565b60006129a660218361244c565b91506129b18261294a565b604082019050919050565b600060208201905081810360008301526129d581612999565b9050919050565b7f53656e6445766964656e6365203a204167656e74206973206e6f74207265676960008201527f7374657265640000000000000000000000000000000000000000000000000000602082015250565b6000612a3860268361244c565b9150612a43826129dc565b604082019050919050565b60006020820190508181036000830152612a6781612a2b565b9050919050565b6000602082019050612a83600083018461272d565b92915050565b7f4f6e6c7920746865205345436161532063616e2072657365742074686520636860008201527f61696e0000000000000000000000000000000000000000000000000000000000602082015250565b6000612ae560238361244c565b9150612af082612a89565b604082019050919050565b60006020820190508181036000830152612b1481612ad8565b9050919050565b7f4f6e6c7920746865205345436161532063616e2073656e64207468652072656660008201527f6572656e6365207369676e617475726500000000000000000000000000000000602082015250565b6000612b7760308361244c565b9150612b8282612b1b565b604082019050919050565b60006020820190508181036000830152612ba681612b6a565b9050919050565b7f496e76616c696420737461746520666f722053454361615320726573706f6e7360008201527f6500000000000000000000000000000000000000000000000000000000000000602082015250565b6000612c0960218361244c565b9150612c1482612bad565b604082019050919050565b60006020820190508181036000830152612c3881612bfc565b9050919050565b7f596f7520617265206e6f7420746865205345436161532e000000000000000000600082015250565b6000612c7560178361244c565b9150612c8082612c3f565b602082019050919050565b60006020820190508181036000830152612ca481612c68565b9050919050565b7f4174746573746174696f6e20697320636c6f736564206f72206e6f742065786960008201527f7374730000000000000000000000000000000000000000000000000000000000602082015250565b6000612d0760238361244c565b9150612d1282612cab565b604082019050919050565b60006020820190508181036000830152612d3681612cfa565b9050919050565b7f4765744167656e74496e666f203a204167656e74206973206e6f74207265676960008201527f7374657265640000000000000000000000000000000000000000000000000000602082015250565b6000612d9960268361244c565b9150612da482612d3d565b604082019050919050565b60006020820190508181036000830152612dc881612d8c565b9050919050565b7f4e487b7100000000000000000000000000000000000000000000000000000000600052602260045260246000fd5b60006002820490506001821680612e1657607f821691505b602082108103612e2957612e28612dcf565b5b50919050565b7f4f6e6c7920746865205345436161532063616e207265736f6c7665206174746560008201527f73746174696f6e73000000000000000000000000000000000000000000000000602082015250565b6000612e8b60288361244c565b9150612e9682612e2f565b604082019050919050565b60006020820190508181036000830152612eba81612e7e565b9050919050565b7f4e6f7420696e204f70656e207374617465000000000000000000000000000000600082015250565b6000612ef760118361244c565b9150612f0282612ec1565b602082019050919050565b60006020820190508181036000830152612f2681612eea565b9050919050565b7f534543616153206e6f7420656c65637465642061732076657269666965720000600082015250565b6000612f63601e8361244c565b9150612f6e82612f2d565b602082019050919050565b60006020820190508181036000830152612f9281612f56565b9050919050565b7f4e616d65206973206e6f742076616c6964000000000000000000000000000000600082015250565b6000612fcf60118361244c565b9150612fda82612f99565b602082019050919050565b60006020820190508181036000830152612ffe81612fc2565b9050919050565b60008190508160005260206000209050919050565b60006020601f8301049050919050565b600082821b905092915050565b6000600883026130677fffffffffffffffffffffffffffffffffffffffffffffffffffffffffffffffff8261302a565b613071868361302a565b95508019841693508086168417925050509392505050565b6000819050919050565b60006130ae6130a96130a4846121ea565b613089565b6121ea565b9050919050565b6000819050919050565b6130c883613093565b6130dc6130d4826130b5565b848454613037565b825550505050565b600090565b6130f16130e4565b6130fc8184846130bf565b505050565b5b81811015613120576131156000826130e9565b600181019050613102565b5050565b601f8211156131655761313681613005565b61313f8461301a565b8101602085101561314e578190505b61316261315a8561301a565b830182613101565b50505b505050565b600082821c905092915050565b60006131886000198460080261316a565b1980831691505092915050565b60006131a18383613177565b9150826002028217905092915050565b6131ba82612441565b67ffffffffffffffff8111156131d3576131d26125b9565b5b6131dd8254612dfe565b6131e8828285613124565b600060209050601f83116001811461321b5760008415613209578287015190505b6132138582613195565b86555061327b565b601f19841661322986613005565b60005b828110156132515784890151825560018201915060208501945060208101905061322c565b8683101561326e578489015161326a601f891682613177565b8355505b6001600288020188555050505b505050505050565b7f4f6e6c79207468652076657269666965722063616e20636c6f7365207468652060008201527f6174746573746174696f6e2070726f6365737300000000000000000000000000602082015250565b60006132df60338361244c565b91506132ea82613283565b604082019050919050565b6000602082019050818103600083015261330e816132d2565b9050919050565b7f4174746573746174696f6e206973206e6f7420726561647920666f7220636c6f60008201527f7375726500000000000000000000000000000000000000000000000000000000602082015250565b600061337160248361244c565b915061337c82613315565b604082019050919050565b600060208201905081810360008301526133a081613364565b9050919050565b7f4f6e6c79207468652076657269666965722063616e207265747269657665207460008201527f6865207369676e61747572657300000000000000000000000000000000000000602082015250565b6000613403602d8361244c565b915061340e826133a7565b604082019050919050565b60006020820190508181036000830152613432816133f6565b9050919050565b7f4174746573746174696f6e206e6f7420636f6d706c657465642028756e6c657360008201527f7320766572696669657220697320736563616173290000000000000000000000602082015250565b600061349560358361244c565b91506134a082613439565b604082019050919050565b600060208201905081810360008301526134c481613488565b9050919050565b60006134d6826121ea565b91507fffffffffffffffffffffffffffffffffffffffffffffffffffffffffffffffff8203613508576135076127f7565b5b600182019050919050565b7f4e487b7100000000000000000000000000000000000000000000000000000000600052601260045260246000fd5b600061354d826121ea565b9150613558836121ea565b92508261356857613567613513565b5b82820690509291505056fea2646970667358221220a83634c312f48e85c3ea967f0e87d01c4399d90a979131f1a6cd6585d3fb5dff64736f6c634300081c0033",
  "linkReferences": {},
  "deployedLinkReferences": {}
}