{
  "_format": "hh-sol-artifact-1",
  "contractName": "MasMutualAttestation",
  "sourceName": "contracts/MasMutualAttestation.sol",
  "abi": [
    {
      "inputs": [],
      "stateMutability": "nonpayable",
      "type": "constructor"
    },
    {
      "anonymous": false,
      "inputs": [
        {
          "indexed": false,
          "internalType": "address",
          "name": "agent",
          "type": "address"
        }
      ],
      "name": "AgentRegistered",
      "type": "event"
    },
    {
      "anonymous": false,
      "inputs": [
        {
          "indexed": false,
          "internalType": "address",
          "name": "agent",
          "type": "address"
        }
      ],
      "name": "AgentRemoved",
      "type": "event"
    },
    {
      "anonymous": false,
      "inputs": [
        {
          "indexed": false,
          "internalType": "bytes32",
          "name": "id",
          "type": "bytes32"
        }
      ],
      "name": "AttestationCompleted",
      "type": "event"
    },
    {
      "anonymous": false,
      "inputs": [
        {
          "indexed": false,
          "internalType": "bytes32",
          "name": "id",
          "type": "bytes32"
        }
      ],
      "name": "AttestationStarted",
      "type": "event"
    },
    {
      "anonymous": false,
      "inputs": [],
      "name": "ChainReset",
      "type": "event"
    },
    {
      "anonymous": false,
      "inputs": [
        {
          "indexed": false,
          "internalType": "bytes32",
          "name": "id",
          "type": "bytes32"
        }
      ],
      "name": "ReadyForEvaluation",
      "type": "event"
    },
    {
      "inputs": [
        {
          "internalType": "bytes32",
          "name": "id",
          "type": "bytes32"
        },
        {
          "internalType": "bool",
          "name": "verified",
          "type": "bool"
        }
      ],
      "name": "CloseAttestationProcess",
      "outputs": [
        {
          "internalType": "bool",
          "name": "",
          "type": "bool"
        }
      ],
      "stateMutability": "nonpayable",
      "type": "function"
    },
    {
      "inputs": [
        {
          "internalType": "address",
          "name": "agentAddress",
          "type": "address"
        },
        {
          "internalType": "address",
          "name": "callAddress",
          "type": "address"
        }
      ],
      "name": "GetAgentInfo",
      "outputs": [
        {
          "internalType": "string",
          "name": "",
          "type": "string"
        },
        {
          "internalType": "bool",
          "name": "",
          "type": "bool"
        },
        {
          "internalType": "bytes32[]",
          "name": "",
          "type": "bytes32[]"
        }
      ],
      "stateMutability": "view",
      "type": "function"
    },
    {
      "inputs": [],
      "name": "GetAttestationChain",
      "outputs": [
        {
          "internalType": "bytes32[]",
          "name": "",
          "type": "bytes32[]"
        }
      ],
      "stateMutability": "view",
      "type": "function"
    },
    {
      "inputs": [
        {
          "internalType": "bytes32",
          "name": "id",
          "type": "bytes32"
        }
      ],
      "name": "GetAttestationInfo",
      "outputs": [
        {
          "internalType": "address",
          "name": "",
          "type": "address"
        },
        {
          "internalType": "address",
          "name": "",
          "type": "address"
        },
        {
          "internalType": "enum MasMutualAttestation.AttestationResult",
          "name": "",
          "type": "uint8"
        },
        {
          "internalType": "uint256",
          "name": "",
          "type": "uint256"
        }
      ],
      "stateMutability": "view",
      "type": "function"
    },
    {
      "inputs": [
        {
          "internalType": "bytes32",
          "name": "id",
          "type": "bytes32"
        },
        {
          "internalType": "address",
          "name": "callAddress",
          "type": "address"
        }
      ],
      "name": "GetAttestationSignatures",
      "outputs": [
        {
          "internalType": "bytes32[3]",
          "name": "",
          "type": "bytes32[3]"
        },
        {
          "internalType": "bytes32[3]",
          "name": "",
          "type": "bytes32[3]"
        }
      ],
      "stateMutability": "view",
      "type": "function"
    },
    {
      "inputs": [
        {
          "internalType": "bytes32",
          "name": "id",
          "type": "bytes32"
        }
      ],
      "name": "GetAttestationState",
      "outputs": [
        {
          "internalType": "enum MasMutualAttestation.AttestationState",
          "name": "",
          "type": "uint8"
        }
      ],
      "stateMutability": "view",
      "type": "function"
    },
    {
      "inputs": [
        {
          "internalType": "bytes32",
          "name": "id",
          "type": "bytes32"
        },
        {
          "internalType": "address",
          "name": "callAddress",
          "type": "address"
        }
      ],
      "name": "GetProverAddress",
      "outputs": [
        {
          "internalType": "address",
          "name": "",
          "type": "address"
        }
      ],
      "stateMutability": "view",
      "type": "function"
    },
    {
      "inputs": [
        {
          "internalType": "bytes32",
          "name": "id",
          "type": "bytes32"
        },
        {
          "internalType": "address",
          "name": "callAddress",
          "type": "address"
        }
      ],
      "name": "IsProver",
      "outputs": [
        {
          "internalType": "bool",
          "name": "",
          "type": "bool"
        }
      ],
      "stateMutability": "view",
      "type": "function"
    },
    {
      "inputs": [
        {
          "internalType": "address",
          "name": "callAddress",
          "type": "address"
        }
      ],
      "name": "IsRegistered",
      "outputs": [
        {
          "internalType": "bool",
          "name": "",
          "type": "bool"
        }
      ],
      "stateMutability": "view",
      "type": "function"
    },
    {
      "inputs": [
        {
          "internalType": "bytes32",
          "name": "id",
          "type": "bytes32"
        },
        {
          "internalType": "address",
          "name": "callAddress",
          "type": "address"
        }
      ],
      "name": "IsVerifier",
      "outputs": [
        {
          "internalType": "bool",
          "name": "",
          "type": "bool"
        }
      ],
      "stateMutability": "view",
      "type": "function"
    },
    {
      "inputs": [
        {
          "internalType": "string",
          "name": "name",
          "type": "string"
        }
      ],
      "name": "RegisterAgent",
      "outputs": [],
      "stateMutability": "nonpayable",
      "type": "function"
    },
    {
      "inputs": [],
      "name": "RemoveAgent",
      "outputs": [],
      "stateMutability": "nonpayable",
      "type": "function"
    },
    {
      "inputs": [],
      "name": "ResetChain",
      "outputs": [],
      "stateMutability": "nonpayable",
      "type": "function"
    },
    {
      "inputs": [
        {
          "internalType": "bytes32",
          "name": "id",
          "type": "bytes32"
        },
        {
          "internalType": "bytes32[3]",
          "name": "freshMeasurements",
          "type": "bytes32[3]"
        }
      ],
      "name": "SendEvidence",
      "outputs": [],
      "stateMutability": "nonpayable",
      "type": "function"
    },
    {
      "inputs": [
        {
          "internalType": "bytes32",
          "name": "id",
          "type": "bytes32"
        },
        {
          "internalType": "bytes32[3]",
          "name": "refMeasurements",
          "type": "bytes32[3]"
        }
      ],
      "name": "SendRefSignatures",
      "outputs": [
        {
          "internalType": "bool",
          "name": "",
          "type": "bool"
        }
      ],
      "stateMutability": "nonpayable",
      "type": "function"
    },
    {
      "inputs": [],
      "name": "freshnessWindow",
      "outputs": [
        {
          "internalType": "uint256",
          "name": "",
          "type": "uint256"
        }
      ],
      "stateMutability": "view",
      "type": "function"
    },
    {
      "inputs": [],
      "name": "rrIndex",
      "outputs": [
        {
          "internalType": "uint256",
          "name": "",
          "type": "uint256"
        }
      ],
      "stateMutability": "view",
      "type": "function"
    }
  ],
  "bytecode": "0x6080604052610e1060035534801561001657600080fd5b50336000806101000a81548173ffffffffffffffffffffffffffffffffffffffff021916908373ffffffffffffffffffffffffffffffffffffffff160217905550600160008054906101000a900473ffffffffffffffffffffffffffffffffffffffff169080600181540180825580915050600190039060005260206000200160009091909190916101000a81548173ffffffffffffffffffffffffffffffffffffffff021916908373ffffffffffffffffffffffffffffffffffffffff1602179055506000600860008060009054906101000a900473ffffffffffffffffffffffffffffffffffffffff1673ffffffffffffffffffffffffffffffffffffffff1673ffffffffffffffffffffffffffffffffffffffff1681526020019081526020016000208190555061323f8061014f6000396000f3fe608060405234801561001057600080fd5b506004361061010b5760003560e01c80639cb65fa1116100a2578063c224122d11610071578063c224122d146102bf578063c984f8db146102ef578063cb2a03481461030b578063e18f770f1461033b578063e1a94c831461036b5761010b565b80639cb65fa1146101fd578063b46ca81a1461022d578063b8df8f981461025d578063bc1a097e1461028d5761010b565b806378caad49116100de57806378caad491461019957806381880fd3146101a357806393506aa6146101c157806396efe852146101df5761010b565b80631d995a0e14610110578063395d719b1461011a5780635e8b36221461014a5780635f3d422014610166575b600080fd5b61011861039c565b005b610134600480360381019061012f9190611d87565b6106b3565b6040516101419190611de2565b60405180910390f35b610164600480360381019061015f9190611f44565b61079e565b005b610180600480360381019061017b9190611f84565b6109cc565b6040516101909493929190612050565b60405180910390f35b6101a1610ad1565b005b6101ab610c44565b6040516101b89190612095565b60405180910390f35b6101c9610c4a565b6040516101d69190612095565b60405180910390f35b6101e7610c50565b6040516101f4919061216e565b60405180910390f35b61021760048036038101906102129190611d87565b610ca8565b6040516102249190612190565b60405180910390f35b61024760048036038101906102429190611d87565b610dfc565b6040516102549190611de2565b60405180910390f35b61027760048036038101906102729190611f84565b610ee7565b60405161028491906121f3565b60405180910390f35b6102a760048036038101906102a2919061220e565b610f14565b6040516102b6939291906122cd565b60405180910390f35b6102d960048036038101906102d49190612312565b61114e565b6040516102e69190611de2565b60405180910390f35b610309600480360381019061030491906123f4565b6111a7565b005b61032560048036038101906103209190612469565b611344565b6040516103329190611de2565b60405180910390f35b61035560048036038101906103509190611f44565b611668565b6040516103629190611de2565b60405180910390f35b61038560048036038101906103809190611d87565b61180b565b60405161039392919061252d565b60405180910390f35b6000600660003373ffffffffffffffffffffffffffffffffffffffff1673ffffffffffffffffffffffffffffffffffffffff16815260200190815260200160002090508060010160009054906101000a900460ff16610430576040517f08c379a0000000000000000000000000000000000000000000000000000000008152600401610427906125c8565b60405180910390fd5b6000600860003373ffffffffffffffffffffffffffffffffffffffff1673ffffffffffffffffffffffffffffffffffffffff168152602001908152602001600020549050600060018080805490506104889190612617565b815481106104995761049861264b565b5b9060005260206000200160009054906101000a900473ffffffffffffffffffffffffffffffffffffffff16905080600183815481106104db576104da61264b565b5b9060005260206000200160006101000a81548173ffffffffffffffffffffffffffffffffffffffff021916908373ffffffffffffffffffffffffffffffffffffffff16021790555081600860008373ffffffffffffffffffffffffffffffffffffffff1673ffffffffffffffffffffffffffffffffffffffff1681526020019081526020016000208190555060018054806105795761057861267a565b5b6001900381819060005260206000200160006101000a81549073ffffffffffffffffffffffffffffffffffffffff02191690559055600860003373ffffffffffffffffffffffffffffffffffffffff1673ffffffffffffffffffffffffffffffffffffffff168152602001908152602001600020600090558260020160006106019190611be2565b600660003373ffffffffffffffffffffffffffffffffffffffff1673ffffffffffffffffffffffffffffffffffffffff168152602001908152602001600020600080820160006106519190611c03565b6001820160006101000a81549060ff02191690556002820160006106759190611be2565b50507fed9c8ad8d5a0a66898ea49d2956929c93ae2e8bd50281b2ed897c5d1a6737e0b336040516106a69190612190565b60405180910390a1505050565b6000806007600085815260200190815260200160002090506002808111156106de576106dd611fc0565b5b8160090160009054906101000a900460ff16600281111561070257610701611fc0565b5b03610742576040517f08c379a00000000000000000000000000000000000000000000000000000000081526004016107399061271b565b60405180910390fd5b8273ffffffffffffffffffffffffffffffffffffffff168160020160009054906101000a900473ffffffffffffffffffffffffffffffffffffffff1673ffffffffffffffffffffffffffffffffffffffff161491505092915050565b6000600660003373ffffffffffffffffffffffffffffffffffffffff1673ffffffffffffffffffffffffffffffffffffffff16815260200190815260200160002090508060010160009054906101000a900460ff16610832576040517f08c379a0000000000000000000000000000000000000000000000000000000008152600401610829906127ad565b60405180910390fd5b600060076000858152602001908152602001600020905083816000018190555061085b336119ce565b8160010160006101000a81548173ffffffffffffffffffffffffffffffffffffffff021916908373ffffffffffffffffffffffffffffffffffffffff160217905550338160020160006101000a81548173ffffffffffffffffffffffffffffffffffffffff021916908373ffffffffffffffffffffffffffffffffffffffff16021790555082816003019060036108f3929190611c43565b5060405180606001604052806000801b81526020016000801b81526020016000801b8152508160060190600361092a929190611c43565b5060008160090160006101000a81548160ff0219169083600281111561095357610952611fc0565b5b021790555060008160090160016101000a81548160ff021916908360028111156109805761097f611fc0565b5b0217905550600081600a01819055507fd32f85071e05721b8a1c63d5cad1fe3525ec0a11fd5b7760b6a82d7f6be7d283846040516109be91906127dc565b60405180910390a150505050565b60008060008060006007600087815260200190815260200160002090506002808111156109fc576109fb611fc0565b5b8160090160009054906101000a900460ff166002811115610a2057610a1f611fc0565b5b14610a60576040517f08c379a0000000000000000000000000000000000000000000000000000000008152600401610a5790612869565b60405180910390fd5b8060020160009054906101000a900473ffffffffffffffffffffffffffffffffffffffff168160010160009054906101000a900473ffffffffffffffffffffffffffffffffffffffff168260090160019054906101000a900460ff1683600a01549450945094509450509193509193565b60008054906101000a900473ffffffffffffffffffffffffffffffffffffffff1673ffffffffffffffffffffffffffffffffffffffff163373ffffffffffffffffffffffffffffffffffffffff1614610b5f576040517f08c379a0000000000000000000000000000000000000000000000000000000008152600401610b56906128fb565b60405180910390fd5b60026000610b6d9190611be2565b600060048190555060005b600180549050811015610c155760006005600060018481548110610b9f57610b9e61264b565b5b9060005260206000200160009054906101000a900473ffffffffffffffffffffffffffffffffffffffff1673ffffffffffffffffffffffffffffffffffffffff1673ffffffffffffffffffffffffffffffffffffffff168152602001908152602001600020819055508080600101915050610b78565b507f8e1dda8e7ca889ef4bd70f2ff6dd48a9b896b1d89703a08b6385333045af148960405160405180910390a1565b60035481565b60045481565b60606002805480602002602001604051908101604052809291908181526020018280548015610c9e57602002820191906000526020600020905b815481526020019060010190808311610c8a575b5050505050905090565b60008060009054906101000a900473ffffffffffffffffffffffffffffffffffffffff1673ffffffffffffffffffffffffffffffffffffffff168273ffffffffffffffffffffffffffffffffffffffff1614610d39576040517f08c379a0000000000000000000000000000000000000000000000000000000008152600401610d3090612967565b60405180910390fd5b600060076000858152602001908152602001600020905060006002811115610d6457610d63611fc0565b5b8160090160009054906101000a900460ff166002811115610d8857610d87611fc0565b5b14610dc8576040517f08c379a0000000000000000000000000000000000000000000000000000000008152600401610dbf906129f9565b60405180910390fd5b60008160020160009054906101000a900473ffffffffffffffffffffffffffffffffffffffff169050809250505092915050565b600080600760008581526020019081526020016000209050600280811115610e2757610e26611fc0565b5b8160090160009054906101000a900460ff166002811115610e4b57610e4a611fc0565b5b03610e8b576040517f08c379a0000000000000000000000000000000000000000000000000000000008152600401610e829061271b565b60405180910390fd5b8273ffffffffffffffffffffffffffffffffffffffff168160010160009054906101000a900473ffffffffffffffffffffffffffffffffffffffff1673ffffffffffffffffffffffffffffffffffffffff161491505092915050565b60006007600083815260200190815260200160002060090160009054906101000a900460ff169050919050565b6060600060606000600660008673ffffffffffffffffffffffffffffffffffffffff1673ffffffffffffffffffffffffffffffffffffffff16815260200190815260200160002090506000600660008873ffffffffffffffffffffffffffffffffffffffff1673ffffffffffffffffffffffffffffffffffffffff16815260200190815260200160002090508160010160009054906101000a900460ff1680611008575060008054906101000a900473ffffffffffffffffffffffffffffffffffffffff1673ffffffffffffffffffffffffffffffffffffffff168673ffffffffffffffffffffffffffffffffffffffff16145b611047576040517f08c379a000000000000000000000000000000000000000000000000000000000815260040161103e90612a8b565b60405180910390fd5b806000018160010160009054906101000a900460ff168260020182805461106d90612ada565b80601f016020809104026020016040519081016040528092919081815260200182805461109990612ada565b80156110e65780601f106110bb576101008083540402835291602001916110e6565b820191906000526020600020905b8154815290600101906020018083116110c957829003601f168201915b505050505092508080548060200260200160405190810160405280929190818152602001828054801561113857602002820191906000526020600020905b815481526020019060010190808311611124575b5050505050905094509450945050509250925092565b6000600660008373ffffffffffffffffffffffffffffffffffffffff1673ffffffffffffffffffffffffffffffffffffffff16815260200190815260200160002060010160009054906101000a900460ff169050919050565b60008151116111eb576040517f08c379a00000000000000000000000000000000000000000000000000000000081526004016111e290612b57565b60405180910390fd5b6000600660003373ffffffffffffffffffffffffffffffffffffffff1673ffffffffffffffffffffffffffffffffffffffff16815260200190815260200160002090508181600001908161123f9190612d23565b5060018160010160006101000a81548160ff021916908315150217905550600180549050600860003373ffffffffffffffffffffffffffffffffffffffff1673ffffffffffffffffffffffffffffffffffffffff168152602001908152602001600020819055506001339080600181540180825580915050600190039060005260206000200160009091909190916101000a81548173ffffffffffffffffffffffffffffffffffffffff021916908373ffffffffffffffffffffffffffffffffffffffff1602179055507f82d0829d9d481e4cb9913897f9b9c903271c4db68c7b3324071d2a7e3b2c5ff0336040516113389190612190565b60405180910390a15050565b6000806007600085815260200190815260200160002090503373ffffffffffffffffffffffffffffffffffffffff168160010160009054906101000a900473ffffffffffffffffffffffffffffffffffffffff1673ffffffffffffffffffffffffffffffffffffffff16146113ee576040517f08c379a00000000000000000000000000000000000000000000000000000000081526004016113e590612e67565b60405180910390fd5b6001600281111561140257611401611fc0565b5b8160090160009054906101000a900460ff16600281111561142657611425611fc0565b5b14611466576040517f08c379a000000000000000000000000000000000000000000000000000000000815260040161145d90612ef9565b60405180910390fd5b60028160090160006101000a81548160ff0219169083600281111561148e5761148d611fc0565b5b02179055504281600a01819055506000600660008360020160009054906101000a900473ffffffffffffffffffffffffffffffffffffffff1673ffffffffffffffffffffffffffffffffffffffff1673ffffffffffffffffffffffffffffffffffffffff168152602001908152602001600020905083156115a35760028260090160016101000a81548160ff0219169083600281111561153157611530611fc0565b5b021790555042600560008460020160009054906101000a900473ffffffffffffffffffffffffffffffffffffffff1673ffffffffffffffffffffffffffffffffffffffff1673ffffffffffffffffffffffffffffffffffffffff168152602001908152602001600020819055506115d1565b60018260090160016101000a81548160ff021916908360028111156115cb576115ca611fc0565b5b02179055505b8060020185908060018154018082558091505060019003906000526020600020016000909190919091505560028590806001815401808255809150506001900390600052602060002001600090919091909150557f31a3cf273cd0e82f8ddb4be15d4b954d7fcd18a4c5d4591cce32edd1a4bc417d8560405161165491906127dc565b60405180910390a160019250505092915050565b60008060009054906101000a900473ffffffffffffffffffffffffffffffffffffffff1673ffffffffffffffffffffffffffffffffffffffff163373ffffffffffffffffffffffffffffffffffffffff16146116f9576040517f08c379a00000000000000000000000000000000000000000000000000000000081526004016116f090612f8b565b60405180910390fd5b60006007600085815260200190815260200160002090506000600281111561172457611723611fc0565b5b8160090160009054906101000a900460ff16600281111561174857611747611fc0565b5b14611788576040517f08c379a000000000000000000000000000000000000000000000000000000000815260040161177f9061301d565b60405180910390fd5b828160060190600361179b929190611c43565b5060018160090160006101000a81548160ff021916908360028111156117c4576117c3611fc0565b5b02179055507f6781e8d3c07e87e938ec28a5435aa7862779fb9c7d01b7315eca91430b2a4643846040516117f891906127dc565b60405180910390a1600191505092915050565b611813611c83565b61181b611c83565b60006007600086815260200190815260200160002090508373ffffffffffffffffffffffffffffffffffffffff168160010160009054906101000a900473ffffffffffffffffffffffffffffffffffffffff1673ffffffffffffffffffffffffffffffffffffffff16146118c4576040517f08c379a00000000000000000000000000000000000000000000000000000000081526004016118bb906130af565b60405180910390fd5b600160028111156118d8576118d7611fc0565b5b8160090160009054906101000a900460ff1660028111156118fc576118fb611fc0565b5b1461193c576040517f08c379a000000000000000000000000000000000000000000000000000000000815260040161193390613141565b60405180910390fd5b80600301816006018160038060200260405190810160405280929190826003801561197c576020028201915b815481526020019060010190808311611968575b50505050509150806003806020026040519081016040528092919082600380156119bb576020028201915b8154815260200190600101908083116119a7575b5050505050905092509250509250929050565b60008060018054905067ffffffffffffffff8111156119f0576119ef611e13565b5b604051908082528060200260200182016040528015611a1e5781602001602082028036833780820191505090505b5090506000805b600180549050811015611b5f57600060018281548110611a4857611a4761264b565b5b9060005260206000200160009054906101000a900473ffffffffffffffffffffffffffffffffffffffff1690508573ffffffffffffffffffffffffffffffffffffffff168173ffffffffffffffffffffffffffffffffffffffff1614158015611af157506000600560008373ffffffffffffffffffffffffffffffffffffffff1673ffffffffffffffffffffffffffffffffffffffff1681526020019081526020016000205414155b15611b515780848480611b0390613161565b955081518110611b1657611b1561264b565b5b602002602001019073ffffffffffffffffffffffffffffffffffffffff16908173ffffffffffffffffffffffffffffffffffffffff16815250505b508080600101915050611a25565b5060008103611b925760008054906101000a900473ffffffffffffffffffffffffffffffffffffffff1692505050611bdd565b60008282600454611ba391906131d8565b81518110611bb457611bb361264b565b5b6020026020010151905060046000815480929190611bd190613161565b91905055508093505050505b919050565b5080546000825590600052602060002090810190611c009190611ca5565b50565b508054611c0f90612ada565b6000825580601f10611c215750611c40565b601f016020900490600052602060002090810190611c3f9190611cc2565b5b50565b8260038101928215611c72579160200282015b82811115611c71578251825591602001919060010190611c56565b5b509050611c7f9190611ca5565b5090565b6040518060600160405280600390602082028036833780820191505090505090565b5b80821115611cbe576000816000905550600101611ca6565b5090565b5b80821115611cdb576000816000905550600101611cc3565b5090565b6000604051905090565b600080fd5b600080fd5b6000819050919050565b611d0681611cf3565b8114611d1157600080fd5b50565b600081359050611d2381611cfd565b92915050565b600073ffffffffffffffffffffffffffffffffffffffff82169050919050565b6000611d5482611d29565b9050919050565b611d6481611d49565b8114611d6f57600080fd5b50565b600081359050611d8181611d5b565b92915050565b60008060408385031215611d9e57611d9d611ce9565b5b6000611dac85828601611d14565b9250506020611dbd85828601611d72565b9150509250929050565b60008115159050919050565b611ddc81611dc7565b82525050565b6000602082019050611df76000830184611dd3565b92915050565b600080fd5b6000601f19601f8301169050919050565b7f4e487b7100000000000000000000000000000000000000000000000000000000600052604160045260246000fd5b611e4b82611e02565b810181811067ffffffffffffffff82111715611e6a57611e69611e13565b5b80604052505050565b6000611e7d611cdf565b9050611e898282611e42565b919050565b600067ffffffffffffffff821115611ea957611ea8611e13565b5b602082029050919050565b600080fd5b6000611ecc611ec784611e8e565b611e73565b90508060208402830185811115611ee657611ee5611eb4565b5b835b81811015611f0f5780611efb8882611d14565b845260208401935050602081019050611ee8565b5050509392505050565b600082601f830112611f2e57611f2d611dfd565b5b6003611f3b848285611eb9565b91505092915050565b60008060808385031215611f5b57611f5a611ce9565b5b6000611f6985828601611d14565b9250506020611f7a85828601611f19565b9150509250929050565b600060208284031215611f9a57611f99611ce9565b5b6000611fa884828501611d14565b91505092915050565b611fba81611d49565b82525050565b7f4e487b7100000000000000000000000000000000000000000000000000000000600052602160045260246000fd5b6003811061200057611fff611fc0565b5b50565b600081905061201182611fef565b919050565b600061202182612003565b9050919050565b61203181612016565b82525050565b6000819050919050565b61204a81612037565b82525050565b60006080820190506120656000830187611fb1565b6120726020830186611fb1565b61207f6040830185612028565b61208c6060830184612041565b95945050505050565b60006020820190506120aa6000830184612041565b92915050565b600081519050919050565b600082825260208201905092915050565b6000819050602082019050919050565b6120e581611cf3565b82525050565b60006120f783836120dc565b60208301905092915050565b6000602082019050919050565b600061211b826120b0565b61212581856120bb565b9350612130836120cc565b8060005b8381101561216157815161214888826120eb565b975061215383612103565b925050600181019050612134565b5085935050505092915050565b600060208201905081810360008301526121888184612110565b905092915050565b60006020820190506121a56000830184611fb1565b92915050565b600381106121bc576121bb611fc0565b5b50565b60008190506121cd826121ab565b919050565b60006121dd826121bf565b9050919050565b6121ed816121d2565b82525050565b600060208201905061220860008301846121e4565b92915050565b6000806040838503121561222557612224611ce9565b5b600061223385828601611d72565b925050602061224485828601611d72565b9150509250929050565b600081519050919050565b600082825260208201905092915050565b60005b8381101561228857808201518184015260208101905061226d565b60008484015250505050565b600061229f8261224e565b6122a98185612259565b93506122b981856020860161226a565b6122c281611e02565b840191505092915050565b600060608201905081810360008301526122e78186612294565b90506122f66020830185611dd3565b81810360408301526123088184612110565b9050949350505050565b60006020828403121561232857612327611ce9565b5b600061233684828501611d72565b91505092915050565b600080fd5b600067ffffffffffffffff82111561235f5761235e611e13565b5b61236882611e02565b9050602081019050919050565b82818337600083830152505050565b600061239761239284612344565b611e73565b9050828152602081018484840111156123b3576123b261233f565b5b6123be848285612375565b509392505050565b600082601f8301126123db576123da611dfd565b5b81356123eb848260208601612384565b91505092915050565b60006020828403121561240a57612409611ce9565b5b600082013567ffffffffffffffff81111561242857612427611cee565b5b612434848285016123c6565b91505092915050565b61244681611dc7565b811461245157600080fd5b50565b6000813590506124638161243d565b92915050565b600080604083850312156124805761247f611ce9565b5b600061248e85828601611d14565b925050602061249f85828601612454565b9150509250929050565b600060039050919050565b600081905092915050565b6000819050919050565b6000602082019050919050565b6124df816124a9565b6124e981846124b4565b92506124f4826124bf565b8060005b8381101561252557815161250c87826120eb565b9650612517836124c9565b9250506001810190506124f8565b505050505050565b600060c08201905061254260008301856124d6565b61254f60608301846124d6565b9392505050565b7f52656d6f76654167656e74203a204167656e74206973206e6f7420726567697360008201527f7465726564000000000000000000000000000000000000000000000000000000602082015250565b60006125b2602583612259565b91506125bd82612556565b604082019050919050565b600060208201905081810360008301526125e1816125a5565b9050919050565b7f4e487b7100000000000000000000000000000000000000000000000000000000600052601160045260246000fd5b600061262282612037565b915061262d83612037565b9250828203905081811115612645576126446125e8565b5b92915050565b7f4e487b7100000000000000000000000000000000000000000000000000000000600052603260045260246000fd5b7f4e487b7100000000000000000000000000000000000000000000000000000000600052603160045260246000fd5b7f4174746573746174696f6e2070726f6365737320697320636c6f736564206f7260008201527f206e6f7420657869737473000000000000000000000000000000000000000000602082015250565b6000612705602b83612259565b9150612710826126a9565b604082019050919050565b60006020820190508181036000830152612734816126f8565b9050919050565b7f53656e6445766964656e6365203a204167656e74206973206e6f74207265676960008201527f7374657265640000000000000000000000000000000000000000000000000000602082015250565b6000612797602683612259565b91506127a28261273b565b604082019050919050565b600060208201905081810360008301526127c68161278a565b9050919050565b6127d681611cf3565b82525050565b60006020820190506127f160008301846127cd565b92915050565b7f4174746573746174696f6e2070726f63657373206973206e6f7420636c6f736560008201527f6400000000000000000000000000000000000000000000000000000000000000602082015250565b6000612853602183612259565b915061285e826127f7565b604082019050919050565b6000602082019050818103600083015261288281612846565b9050919050565b7f4f6e6c7920746865205345436161532063616e2072657365742074686520636860008201527f61696e0000000000000000000000000000000000000000000000000000000000602082015250565b60006128e5602383612259565b91506128f082612889565b604082019050919050565b60006020820190508181036000830152612914816128d8565b9050919050565b7f596f7520617265206e6f7420746865205345436161532e000000000000000000600082015250565b6000612951601783612259565b915061295c8261291b565b602082019050919050565b6000602082019050818103600083015261298081612944565b9050919050565b7f4174746573746174696f6e20697320636c6f736564206f72206e6f742065786960008201527f7374730000000000000000000000000000000000000000000000000000000000602082015250565b60006129e3602383612259565b91506129ee82612987565b604082019050919050565b60006020820190508181036000830152612a12816129d6565b9050919050565b7f4765744167656e74496e666f203a204167656e74206973206e6f74207265676960008201527f7374657265640000000000000000000000000000000000000000000000000000602082015250565b6000612a75602683612259565b9150612a8082612a19565b604082019050919050565b60006020820190508181036000830152612aa481612a68565b9050919050565b7f4e487b7100000000000000000000000000000000000000000000000000000000600052602260045260246000fd5b60006002820490506001821680612af257607f821691505b602082108103612b0557612b04612aab565b5b50919050565b7f4e616d65206973206e6f742076616c6964000000000000000000000000000000600082015250565b6000612b41601183612259565b9150612b4c82612b0b565b602082019050919050565b60006020820190508181036000830152612b7081612b34565b9050919050565b60008190508160005260206000209050919050565b60006020601f8301049050919050565b600082821b905092915050565b600060088302612bd97fffffffffffffffffffffffffffffffffffffffffffffffffffffffffffffffff82612b9c565b612be38683612b9c565b95508019841693508086168417925050509392505050565b6000819050919050565b6000612c20612c1b612c1684612037565b612bfb565b612037565b9050919050565b6000819050919050565b612c3a83612c05565b612c4e612c4682612c27565b848454612ba9565b825550505050565b600090565b612c63612c56565b612c6e818484612c31565b505050565b5b81811015612c9257612c87600082612c5b565b600181019050612c74565b5050565b601f821115612cd757612ca881612b77565b612cb184612b8c565b81016020851015612cc0578190505b612cd4612ccc85612b8c565b830182612c73565b50505b505050565b600082821c905092915050565b6000612cfa60001984600802612cdc565b1980831691505092915050565b6000612d138383612ce9565b9150826002028217905092915050565b612d2c8261224e565b67ffffffffffffffff811115612d4557612d44611e13565b5b612d4f8254612ada565b612d5a828285612c96565b600060209050601f831160018114612d8d5760008415612d7b578287015190505b612d858582612d07565b865550612ded565b601f198416612d9b86612b77565b60005b82811015612dc357848901518255600182019150602085019450602081019050612d9e565b86831015612de05784890151612ddc601f891682612ce9565b8355505b6001600288020188555050505b505050505050565b7f4f6e6c79207468652076657269666965722063616e20636c6f7365207468652060008201527f6174746573746174696f6e2070726f6365737300000000000000000000000000602082015250565b6000612e51603383612259565b9150612e5c82612df5565b604082019050919050565b60006020820190508181036000830152612e8081612e44565b9050919050565b7f4174746573746174696f6e206973206e6f7420726561647920666f7220636c6f60008201527f7375726500000000000000000000000000000000000000000000000000000000602082015250565b6000612ee3602483612259565b9150612eee82612e87565b604082019050919050565b60006020820190508181036000830152612f1281612ed6565b9050919050565b7f4f6e6c7920746865205345436161532063616e2073656e64207468652072656660008201527f6572656e6365207369676e617475726500000000000000000000000000000000602082015250565b6000612f75603083612259565b9150612f8082612f19565b604082019050919050565b60006020820190508181036000830152612fa481612f68565b9050919050565b7f496e76616c696420737461746520666f722053454361615320726573706f6e7360008201527f6500000000000000000000000000000000000000000000000000000000000000602082015250565b6000613007602183612259565b915061301282612fab565b604082019050919050565b6000602082019050818103600083015261303681612ffa565b9050919050565b7f4f6e6c79207468652076657269666965722063616e207265747269657665207460008201527f6865207369676e61747572657300000000000000000000000000000000000000602082015250565b6000613099602d83612259565b91506130a48261303d565b604082019050919050565b600060208201905081810360008301526130c88161308c565b9050919050565b7f4174746573746174696f6e2070726f63657373206973206e6f7420636f6d706c60008201527f6574656400000000000000000000000000000000000000000000000000000000602082015250565b600061312b602483612259565b9150613136826130cf565b604082019050919050565b6000602082019050818103600083015261315a8161311e565b9050919050565b600061316c82612037565b91507fffffffffffffffffffffffffffffffffffffffffffffffffffffffffffffffff820361319e5761319d6125e8565b5b600182019050919050565b7f4e487b7100000000000000000000000000000000000000000000000000000000600052601260045260246000fd5b60006131e382612037565b91506131ee83612037565b9250826131fe576131fd6131a9565b5b82820690509291505056fea2646970667358221220de3b6f8b1b2dfac33e730d4fc81b1ff1e9200344d3988a1aee4a8425a72b93a164736f6c634300081c0033",
  "linkReferences": {},
  "deployedLinkReferences": {}
}