{
  "contractName": "MasMutualAttestation",
  "abi": [
    {
      "inputs": [],
      "stateMutability": "nonpayable",
      "type": "constructor"
    },
    {
      "anonymous": false,
      "inputs": [
        {
          "indexed": false,
          "internalType": "address",
          "name": "agent",
          "type": "address"
        }
      ],
      "name": "AgentRegistered",
      "type": "event"
    },
    {
      "anonymous": false,
      "inputs": [
        {
          "indexed": false,
          "internalType": "address",
          "name": "agent",
          "type": "address"
        }
      ],
      "name": "AgentRemoved",
      "type": "event"
    },
    {
      "anonymous": false,
      "inputs": [
        {
          "indexed": false,
          "internalType": "bytes32",
          "name": "id",
          "type": "bytes32"
        }
      ],
      "name": "AttestationCompleted",
      "type": "event"
    },
    {
      "anonymous": false,
      "inputs": [
        {
          "indexed": false,
          "internalType": "bytes32",
          "name": "id",
          "type": "bytes32"
        }
      ],
      "name": "AttestationStarted",
      "type": "event"
    },
    {
      "anonymous": false,
      "inputs": [],
      "name": "ChainReset",
      "type": "event"
    },
    {
      "anonymous": false,
      "inputs": [
        {
          "indexed": false,
          "internalType": "bytes32",
          "name": "id",
          "type": "bytes32"
        }
      ],
      "name": "ProverResponded",
      "type": "event"
    },
    {
      "anonymous": false,
      "inputs": [
        {
          "indexed": false,
          "internalType": "bytes32",
          "name": "id",
          "type": "bytes32"
        }
      ],
      "name": "ReadyForEvaluation",
      "type": "event"
    },
    {
      "anonymous": false,
      "inputs": [
        {
          "indexed": false,
          "internalType": "bytes32",
          "name": "id",
          "type": "bytes32"
        }
      ],
      "name": "SecaasResponded",
      "type": "event"
    },
    {
      "inputs": [],
      "name": "freshnessWindow",
      "outputs": [
        {
          "internalType": "uint256",
          "name": "",
          "type": "uint256"
        }
      ],
      "stateMutability": "view",
      "type": "function",
      "constant": true
    },
    {
      "inputs": [],
      "name": "rrIndex",
      "outputs": [
        {
          "internalType": "uint256",
          "name": "",
          "type": "uint256"
        }
      ],
      "stateMutability": "view",
      "type": "function",
      "constant": true
    },
    {
      "inputs": [],
      "name": "ResetChain",
      "outputs": [],
      "stateMutability": "nonpayable",
      "type": "function"
    },
    {
      "inputs": [
        {
          "internalType": "bytes16",
          "name": "uuid",
          "type": "bytes16"
        }
      ],
      "name": "RegisterAgent",
      "outputs": [],
      "stateMutability": "nonpayable",
      "type": "function"
    },
    {
      "inputs": [],
      "name": "RemoveAgent",
      "outputs": [],
      "stateMutability": "nonpayable",
      "type": "function"
    },
    {
      "inputs": [
        {
          "internalType": "address",
          "name": "agentAddress",
          "type": "address"
        },
        {
          "internalType": "address",
          "name": "callAddress",
          "type": "address"
        }
      ],
      "name": "GetAgentInfo",
      "outputs": [
        {
          "internalType": "bytes16",
          "name": "",
          "type": "bytes16"
        },
        {
          "internalType": "bool",
          "name": "",
          "type": "bool"
        },
        {
          "internalType": "bytes32[]",
          "name": "",
          "type": "bytes32[]"
        }
      ],
      "stateMutability": "view",
      "type": "function",
      "constant": true
    },
    {
      "inputs": [
        {
          "internalType": "bytes32",
          "name": "id",
          "type": "bytes32"
        }
      ],
      "name": "RequestAttestation",
      "outputs": [],
      "stateMutability": "nonpayable",
      "type": "function"
    },
    {
      "inputs": [
        {
          "internalType": "bytes32",
          "name": "id",
          "type": "bytes32"
        },
        {
          "internalType": "address",
          "name": "callAddress",
          "type": "address"
        }
      ],
      "name": "GetProverUUID",
      "outputs": [
        {
          "internalType": "bytes16",
          "name": "",
          "type": "bytes16"
        }
      ],
      "stateMutability": "view",
      "type": "function",
      "constant": true
    },
    {
      "inputs": [
        {
          "internalType": "bytes32",
          "name": "id",
          "type": "bytes32"
        },
        {
          "internalType": "bytes32",
          "name": "measurement",
          "type": "bytes32"
        }
      ],
      "name": "SendFreshSignaure",
      "outputs": [
        {
          "internalType": "bool",
          "name": "",
          "type": "bool"
        }
      ],
      "stateMutability": "nonpayable",
      "type": "function"
    },
    {
      "inputs": [
        {
          "internalType": "bytes32",
          "name": "id",
          "type": "bytes32"
        },
        {
          "internalType": "bytes32",
          "name": "measurement",
          "type": "bytes32"
        }
      ],
      "name": "SendRefSignaure",
      "outputs": [
        {
          "internalType": "bool",
          "name": "",
          "type": "bool"
        }
      ],
      "stateMutability": "nonpayable",
      "type": "function"
    },
    {
      "inputs": [
        {
          "internalType": "bytes32",
          "name": "id",
          "type": "bytes32"
        },
        {
          "internalType": "address",
          "name": "callAddress",
          "type": "address"
        }
      ],
      "name": "GetAttestationMeasurements",
      "outputs": [
        {
          "internalType": "bytes32",
          "name": "",
          "type": "bytes32"
        },
        {
          "internalType": "bytes32",
          "name": "",
          "type": "bytes32"
        }
      ],
      "stateMutability": "view",
      "type": "function",
      "constant": true
    },
    {
      "inputs": [
        {
          "internalType": "bytes32",
          "name": "id",
          "type": "bytes32"
        }
      ],
      "name": "GetAttestationInfo",
      "outputs": [
        {
          "internalType": "address",
          "name": "",
          "type": "address"
        },
        {
          "internalType": "address",
          "name": "",
          "type": "address"
        },
        {
          "internalType": "enum MasMutualAttestation.AttestationResult",
          "name": "",
          "type": "uint8"
        },
        {
          "internalType": "uint256",
          "name": "",
          "type": "uint256"
        }
      ],
      "stateMutability": "view",
      "type": "function",
      "constant": true
    },
    {
      "inputs": [
        {
          "internalType": "bytes32",
          "name": "id",
          "type": "bytes32"
        }
      ],
      "name": "GetAttestationState",
      "outputs": [
        {
          "internalType": "enum MasMutualAttestation.AttestationState",
          "name": "",
          "type": "uint8"
        }
      ],
      "stateMutability": "view",
      "type": "function",
      "constant": true
    },
    {
      "inputs": [],
      "name": "GetAttestationChain",
      "outputs": [
        {
          "internalType": "bytes32[]",
          "name": "",
          "type": "bytes32[]"
        }
      ],
      "stateMutability": "view",
      "type": "function",
      "constant": true
    },
    {
      "inputs": [
        {
          "internalType": "bytes32",
          "name": "id",
          "type": "bytes32"
        },
        {
          "internalType": "bool",
          "name": "verified",
          "type": "bool"
        }
      ],
      "name": "CloseAttestationProcess",
      "outputs": [
        {
          "internalType": "bool",
          "name": "",
          "type": "bool"
        }
      ],
      "stateMutability": "nonpayable",
      "type": "function"
    },
    {
      "inputs": [
        {
          "internalType": "bytes32",
          "name": "id",
          "type": "bytes32"
        },
        {
          "internalType": "address",
          "name": "callAddress",
          "type": "address"
        }
      ],
      "name": "IsProver",
      "outputs": [
        {
          "internalType": "bool",
          "name": "",
          "type": "bool"
        }
      ],
      "stateMutability": "view",
      "type": "function",
      "constant": true
    },
    {
      "inputs": [
        {
          "internalType": "bytes32",
          "name": "id",
          "type": "bytes32"
        },
        {
          "internalType": "address",
          "name": "callAddress",
          "type": "address"
        }
      ],
      "name": "IsVerifier",
      "outputs": [
        {
          "internalType": "bool",
          "name": "",
          "type": "bool"
        }
      ],
      "stateMutability": "view",
      "type": "function",
      "constant": true
    }
  ],
  "bytecode": "0x6080604052610e1060035534801561001657600080fd5b50336000806101000a81548173ffffffffffffffffffffffffffffffffffffffff021916908373ffffffffffffffffffffffffffffffffffffffff160217905550600160008054906101000a900473ffffffffffffffffffffffffffffffffffffffff169080600181540180825580915050600190039060005260206000200160009091909190916101000a81548173ffffffffffffffffffffffffffffffffffffffff021916908373ffffffffffffffffffffffffffffffffffffffff1602179055506000600860008060009054906101000a900473ffffffffffffffffffffffffffffffffffffffff1673ffffffffffffffffffffffffffffffffffffffff1673ffffffffffffffffffffffffffffffffffffffff1681526020019081526020016000208190555061349a8061014f6000396000f3fe608060405234801561001057600080fd5b506004361061010b5760003560e01c806381880fd3116100a2578063b8df8f9811610071578063b8df8f98146102be578063bc1a097e146102ee578063cb2a034814610320578063d5dd167b14610350578063e2021cf9146103805761010b565b806381880fd31461023457806393506aa61461025257806396efe85214610270578063b46ca81a1461028e5761010b565b80635f3d4220116100de5780635f3d4220146101ab5780636c8a3160146101de578063704b19c01461020e57806378caad491461022a5761010b565b80631d995a0e146101105780632562f1c61461011a578063395d719b1461014b5780635455cddd1461017b575b600080fd5b61011861039c565b005b610134600480360381019061012f91906125ad565b610738565b604051610142929190612ef4565b60405180910390f35b610165600480360381019061016091906125ad565b6108be565b6040516101729190612e65565b60405180910390f35b61019560048036038101906101909190612625565b6109f6565b6040516101a29190612e65565b60405180910390f35b6101c560048036038101906101c09190612584565b610da6565b6040516101d59493929190612dfe565b60405180910390f35b6101f860048036038101906101f39190612625565b610ef7565b6040516102059190612e65565b60405180910390f35b61022860048036038101906102239190612584565b6112a9565b005b6102326114ef565b005b61023c6115c1565b6040516102499190613178565b60405180910390f35b61025a6115c7565b6040516102679190613178565b60405180910390f35b6102786115cd565b6040516102859190612e43565b60405180910390f35b6102a860048036038101906102a391906125ad565b611625565b6040516102b59190612e65565b60405180910390f35b6102d860048036038101906102d39190612584565b61175d565b6040516102e59190612f1d565b60405180910390f35b6103086004803603810190610303919061251f565b61178a565b60405161031793929190612e9b565b60405180910390f35b61033a600480360381019061033591906125e9565b611945565b6040516103479190612e65565b60405180910390f35b61036a600480360381019061036591906125ad565b611d27565b6040516103779190612e80565b60405180910390f35b61039a6004803603810190610395919061255b565b611fa8565b005b6000600660003373ffffffffffffffffffffffffffffffffffffffff1673ffffffffffffffffffffffffffffffffffffffff16815260200190815260200160002090508060000160109054906101000a900460ff16610430576040517f08c379a000000000000000000000000000000000000000000000000000000000815260040161042790612f58565b60405180910390fd5b6000600860003373ffffffffffffffffffffffffffffffffffffffff1673ffffffffffffffffffffffffffffffffffffffff1681526020019081526020016000205490506000600180808054905061048891906131dd565b815481106104bf577f4e487b7100000000000000000000000000000000000000000000000000000000600052603260045260246000fd5b9060005260206000200160009054906101000a900473ffffffffffffffffffffffffffffffffffffffff1690508060018381548110610527577f4e487b7100000000000000000000000000000000000000000000000000000000600052603260045260246000fd5b9060005260206000200160006101000a81548173ffffffffffffffffffffffffffffffffffffffff021916908373ffffffffffffffffffffffffffffffffffffffff16021790555081600860008373ffffffffffffffffffffffffffffffffffffffff1673ffffffffffffffffffffffffffffffffffffffff1681526020019081526020016000208190555060018054806105eb577f4e487b7100000000000000000000000000000000000000000000000000000000600052603160045260246000fd5b6001900381819060005260206000200160006101000a81549073ffffffffffffffffffffffffffffffffffffffff02191690559055600860003373ffffffffffffffffffffffffffffffffffffffff1673ffffffffffffffffffffffffffffffffffffffff16815260200190815260200160002060009055826001016000610673919061248d565b600660003373ffffffffffffffffffffffffffffffffffffffff1673ffffffffffffffffffffffffffffffffffffffff168152602001908152602001600020600080820160006101000a8154906fffffffffffffffffffffffffffffffff02191690556000820160106101000a81549060ff02191690556001820160006106fa919061248d565b50507fed9c8ad8d5a0a66898ea49d2956929c93ae2e8bd50281b2ed897c5d1a6737e0b3360405161072b9190612de3565b60405180910390a1505050565b60008060006007600086815260200190815260200160002090508373ffffffffffffffffffffffffffffffffffffffff168160010160009054906101000a900473ffffffffffffffffffffffffffffffffffffffff1673ffffffffffffffffffffffffffffffffffffffff16146107e4576040517f08c379a00000000000000000000000000000000000000000000000000000000081526004016107db90613038565b60405180910390fd5b6003600481111561081e577f4e487b7100000000000000000000000000000000000000000000000000000000600052602160045260246000fd5b8160050160009054906101000a900460ff166004811115610868577f4e487b7100000000000000000000000000000000000000000000000000000000600052602160045260246000fd5b146108a8576040517f08c379a000000000000000000000000000000000000000000000000000000000815260040161089f90613058565b60405180910390fd5b8060030154816004015492509250509250929050565b60008060076000858152602001908152602001600020905060048081111561090f577f4e487b7100000000000000000000000000000000000000000000000000000000600052602160045260246000fd5b8160050160009054906101000a900460ff166004811115610959577f4e487b7100000000000000000000000000000000000000000000000000000000600052602160045260246000fd5b141561099a576040517f08c379a000000000000000000000000000000000000000000000000000000000815260040161099190612fd8565b60405180910390fd5b8273ffffffffffffffffffffffffffffffffffffffff168160020160009054906101000a900473ffffffffffffffffffffffffffffffffffffffff1673ffffffffffffffffffffffffffffffffffffffff161491505092915050565b60008060009054906101000a900473ffffffffffffffffffffffffffffffffffffffff1673ffffffffffffffffffffffffffffffffffffffff163373ffffffffffffffffffffffffffffffffffffffff1614610a87576040517f08c379a0000000000000000000000000000000000000000000000000000000008152600401610a7e90612ff8565b60405180910390fd5b600060076000858152602001908152602001600020905060006004811115610ad8577f4e487b7100000000000000000000000000000000000000000000000000000000600052602160045260246000fd5b8160050160009054906101000a900460ff166004811115610b22577f4e487b7100000000000000000000000000000000000000000000000000000000600052602160045260246000fd5b1480610baf575060026004811115610b63577f4e487b7100000000000000000000000000000000000000000000000000000000600052602160045260246000fd5b8160050160009054906101000a900460ff166004811115610bad577f4e487b7100000000000000000000000000000000000000000000000000000000600052602160045260246000fd5b145b610bee576040517f08c379a0000000000000000000000000000000000000000000000000000000008152600401610be590613078565b60405180910390fd5b82816004018190555060026004811115610c31577f4e487b7100000000000000000000000000000000000000000000000000000000600052602160045260246000fd5b8160050160009054906101000a900460ff166004811115610c7b577f4e487b7100000000000000000000000000000000000000000000000000000000600052602160045260246000fd5b1415610d105760038160050160006101000a81548160ff02191690836004811115610ccf577f4e487b7100000000000000000000000000000000000000000000000000000000600052602160045260246000fd5b02179055507f6781e8d3c07e87e938ec28a5435aa7862779fb9c7d01b7315eca91430b2a464384604051610d039190612ed9565b60405180910390a1610d9b565b60018160050160006101000a81548160ff02191690836004811115610d5e577f4e487b7100000000000000000000000000000000000000000000000000000000600052602160045260246000fd5b02179055507ff135c13100e80427b9d26850c8b0122e461f63682f88f2f7fd137da6c1c74c2d84604051610d929190612ed9565b60405180910390a15b600191505092915050565b6000806000806000600760008781526020019081526020016000209050600480811115610dfc577f4e487b7100000000000000000000000000000000000000000000000000000000600052602160045260246000fd5b8160050160009054906101000a900460ff166004811115610e46577f4e487b7100000000000000000000000000000000000000000000000000000000600052602160045260246000fd5b14610e86576040517f08c379a0000000000000000000000000000000000000000000000000000000008152600401610e7d90612f78565b60405180910390fd5b8060020160009054906101000a900473ffffffffffffffffffffffffffffffffffffffff168160010160009054906101000a900473ffffffffffffffffffffffffffffffffffffffff168260050160019054906101000a900460ff1683600601549450945094509450509193509193565b60008060076000858152602001908152602001600020905060006004811115610f49577f4e487b7100000000000000000000000000000000000000000000000000000000600052602160045260246000fd5b8160050160009054906101000a900460ff166004811115610f93577f4e487b7100000000000000000000000000000000000000000000000000000000600052602160045260246000fd5b1480611020575060016004811115610fd4577f4e487b7100000000000000000000000000000000000000000000000000000000600052602160045260246000fd5b8160050160009054906101000a900460ff16600481111561101e577f4e487b7100000000000000000000000000000000000000000000000000000000600052602160045260246000fd5b145b61105f576040517f08c379a000000000000000000000000000000000000000000000000000000000815260040161105690613118565b60405180910390fd5b3373ffffffffffffffffffffffffffffffffffffffff168160020160009054906101000a900473ffffffffffffffffffffffffffffffffffffffff1673ffffffffffffffffffffffffffffffffffffffff16146110f1576040517f08c379a00000000000000000000000000000000000000000000000000000000081526004016110e890613098565b60405180910390fd5b82816003018190555060016004811115611134577f4e487b7100000000000000000000000000000000000000000000000000000000600052602160045260246000fd5b8160050160009054906101000a900460ff16600481111561117e577f4e487b7100000000000000000000000000000000000000000000000000000000600052602160045260246000fd5b14156112135760038160050160006101000a81548160ff021916908360048111156111d2577f4e487b7100000000000000000000000000000000000000000000000000000000600052602160045260246000fd5b02179055507f6781e8d3c07e87e938ec28a5435aa7862779fb9c7d01b7315eca91430b2a4643846040516112069190612ed9565b60405180910390a161129e565b60028160050160006101000a81548160ff02191690836004811115611261577f4e487b7100000000000000000000000000000000000000000000000000000000600052602160045260246000fd5b02179055507ff69c881f9131038a4acd7e75ad695e1faa1b714d02f44b7ae9b2184457bf5167846040516112959190612ed9565b60405180910390a15b600191505092915050565b6000600660003373ffffffffffffffffffffffffffffffffffffffff1673ffffffffffffffffffffffffffffffffffffffff16815260200190815260200160002090508060000160109054906101000a900460ff1661133d576040517f08c379a0000000000000000000000000000000000000000000000000000000008152600401611334906130b8565b60405180910390fd5b6000600760008481526020019081526020016000209050828160000181905550611366336121da565b8160010160006101000a81548173ffffffffffffffffffffffffffffffffffffffff021916908373ffffffffffffffffffffffffffffffffffffffff160217905550338160020160006101000a81548173ffffffffffffffffffffffffffffffffffffffff021916908373ffffffffffffffffffffffffffffffffffffffff1602179055506000801b81600301819055506000801b816004018190555060008160050160006101000a81548160ff02191690836004811115611451577f4e487b7100000000000000000000000000000000000000000000000000000000600052602160045260246000fd5b021790555060008160050160016101000a81548160ff021916908360028111156114a4577f4e487b7100000000000000000000000000000000000000000000000000000000600052602160045260246000fd5b0217905550600081600601819055507fd32f85071e05721b8a1c63d5cad1fe3525ec0a11fd5b7760b6a82d7f6be7d283836040516114e29190612ed9565b60405180910390a1505050565b60008054906101000a900473ffffffffffffffffffffffffffffffffffffffff1673ffffffffffffffffffffffffffffffffffffffff163373ffffffffffffffffffffffffffffffffffffffff161461157d576040517f08c379a000000000000000000000000000000000000000000000000000000000815260040161157490612fb8565b60405180910390fd5b6002600061158b919061248d565b60006004819055507f8e1dda8e7ca889ef4bd70f2ff6dd48a9b896b1d89703a08b6385333045af148960405160405180910390a1565b60035481565b60045481565b6060600280548060200260200160405190810160405280929190818152602001828054801561161b57602002820191906000526020600020905b815481526020019060010190808311611607575b5050505050905090565b600080600760008581526020019081526020016000209050600480811115611676577f4e487b7100000000000000000000000000000000000000000000000000000000600052602160045260246000fd5b8160050160009054906101000a900460ff1660048111156116c0577f4e487b7100000000000000000000000000000000000000000000000000000000600052602160045260246000fd5b1415611701576040517f08c379a00000000000000000000000000000000000000000000000000000000081526004016116f890612fd8565b60405180910390fd5b8273ffffffffffffffffffffffffffffffffffffffff168160010160009054906101000a900473ffffffffffffffffffffffffffffffffffffffff1673ffffffffffffffffffffffffffffffffffffffff161491505092915050565b60006007600083815260200190815260200160002060050160009054906101000a900460ff169050919050565b60008060606000600660008673ffffffffffffffffffffffffffffffffffffffff1673ffffffffffffffffffffffffffffffffffffffff16815260200190815260200160002090506000600660008873ffffffffffffffffffffffffffffffffffffffff1673ffffffffffffffffffffffffffffffffffffffff16815260200190815260200160002090508160000160109054906101000a900460ff168061187d575060008054906101000a900473ffffffffffffffffffffffffffffffffffffffff1673ffffffffffffffffffffffffffffffffffffffff168673ffffffffffffffffffffffffffffffffffffffff16145b6118bc576040517f08c379a00000000000000000000000000000000000000000000000000000000081526004016118b390613138565b60405180910390fd5b8060000160009054906101000a900460801b8160000160109054906101000a900460ff16826001018080548060200260200160405190810160405280929190818152602001828054801561192f57602002820191906000526020600020905b81548152602001906001019080831161191b575b5050505050905094509450945050509250925092565b6000806007600085815260200190815260200160002090503373ffffffffffffffffffffffffffffffffffffffff168160010160009054906101000a900473ffffffffffffffffffffffffffffffffffffffff1673ffffffffffffffffffffffffffffffffffffffff16146119ef576040517f08c379a00000000000000000000000000000000000000000000000000000000081526004016119e690613158565b60405180910390fd5b60036004811115611a29577f4e487b7100000000000000000000000000000000000000000000000000000000600052602160045260246000fd5b8160050160009054906101000a900460ff166004811115611a73577f4e487b7100000000000000000000000000000000000000000000000000000000600052602160045260246000fd5b14611ab3576040517f08c379a0000000000000000000000000000000000000000000000000000000008152600401611aaa90612f38565b60405180910390fd5b60048160050160006101000a81548160ff02191690836004811115611b01577f4e487b7100000000000000000000000000000000000000000000000000000000600052602160045260246000fd5b02179055504281600601819055506000600660008360020160009054906101000a900473ffffffffffffffffffffffffffffffffffffffff1673ffffffffffffffffffffffffffffffffffffffff1673ffffffffffffffffffffffffffffffffffffffff16815260200190815260200160002090508315611c3c5760028260050160016101000a81548160ff02191690836002811115611bca577f4e487b7100000000000000000000000000000000000000000000000000000000600052602160045260246000fd5b021790555042600560008460020160009054906101000a900473ffffffffffffffffffffffffffffffffffffffff1673ffffffffffffffffffffffffffffffffffffffff1673ffffffffffffffffffffffffffffffffffffffff16815260200190815260200160002081905550611c90565b60018260050160016101000a81548160ff02191690836002811115611c8a577f4e487b7100000000000000000000000000000000000000000000000000000000600052602160045260246000fd5b02179055505b8060010185908060018154018082558091505060019003906000526020600020016000909190919091505560028590806001815401808255809150506001900390600052602060002001600090919091909150557f31a3cf273cd0e82f8ddb4be15d4b954d7fcd18a4c5d4591cce32edd1a4bc417d85604051611d139190612ed9565b60405180910390a160019250505092915050565b60008060009054906101000a900473ffffffffffffffffffffffffffffffffffffffff1673ffffffffffffffffffffffffffffffffffffffff168273ffffffffffffffffffffffffffffffffffffffff1614611db8576040517f08c379a0000000000000000000000000000000000000000000000000000000008152600401611daf906130f8565b60405180910390fd5b600060076000858152602001908152602001600020905060006004811115611e09577f4e487b7100000000000000000000000000000000000000000000000000000000600052602160045260246000fd5b8160050160009054906101000a900460ff166004811115611e53577f4e487b7100000000000000000000000000000000000000000000000000000000600052602160045260246000fd5b1480611ee0575060026004811115611e94577f4e487b7100000000000000000000000000000000000000000000000000000000600052602160045260246000fd5b8160050160009054906101000a900460ff166004811115611ede577f4e487b7100000000000000000000000000000000000000000000000000000000600052602160045260246000fd5b145b611f1f576040517f08c379a0000000000000000000000000000000000000000000000000000000008152600401611f1690613018565b60405180910390fd5b60008160020160009054906101000a900473ffffffffffffffffffffffffffffffffffffffff1690506000600660008373ffffffffffffffffffffffffffffffffffffffff1673ffffffffffffffffffffffffffffffffffffffff16815260200190815260200160002090508060000160009054906101000a900460801b935050505092915050565b600060801b6fffffffffffffffffffffffffffffffff1916816fffffffffffffffffffffffffffffffff19161415612015576040517f08c379a000000000000000000000000000000000000000000000000000000000815260040161200c906130d8565b60405180910390fd5b6000600660003373ffffffffffffffffffffffffffffffffffffffff1673ffffffffffffffffffffffffffffffffffffffff16815260200190815260200160002090508060000160109054906101000a900460ff16156120aa576040517f08c379a00000000000000000000000000000000000000000000000000000000081526004016120a190612f98565b60405180910390fd5b818160000160006101000a8154816fffffffffffffffffffffffffffffffff021916908360801c021790555060018160000160106101000a81548160ff021916908315150217905550600180549050600860003373ffffffffffffffffffffffffffffffffffffffff1673ffffffffffffffffffffffffffffffffffffffff168152602001908152602001600020819055506001339080600181540180825580915050600190039060005260206000200160009091909190916101000a81548173ffffffffffffffffffffffffffffffffffffffff021916908373ffffffffffffffffffffffffffffffffffffffff1602179055507f82d0829d9d481e4cb9913897f9b9c903271c4db68c7b3324071d2a7e3b2c5ff0336040516121ce9190612de3565b60405180910390a15050565b60008060018054905067ffffffffffffffff811115612222577f4e487b7100000000000000000000000000000000000000000000000000000000600052604160045260246000fd5b6040519080825280602002602001820160405280156122505781602001602082028036833780820191505090505b5090506000805b6001805490508110156123e3576000600182815481106122a0577f4e487b7100000000000000000000000000000000000000000000000000000000600052603260045260246000fd5b9060005260206000200160009054906101000a900473ffffffffffffffffffffffffffffffffffffffff1690508573ffffffffffffffffffffffffffffffffffffffff168173ffffffffffffffffffffffffffffffffffffffff161415801561234957506000600560008373ffffffffffffffffffffffffffffffffffffffff1673ffffffffffffffffffffffffffffffffffffffff1681526020019081526020016000205414155b156123cf578084848061235b906132d9565b955081518110612394577f4e487b7100000000000000000000000000000000000000000000000000000000600052603260045260246000fd5b602002602001019073ffffffffffffffffffffffffffffffffffffffff16908173ffffffffffffffffffffffffffffffffffffffff16815250505b5080806123db906132d9565b915050612257565b5060008114156124175760008054906101000a900473ffffffffffffffffffffffffffffffffffffffff1692505050612488565b600082826004546124289190613322565b8151811061245f577f4e487b7100000000000000000000000000000000000000000000000000000000600052603260045260246000fd5b602002602001015190506004600081548092919061247c906132d9565b91905055508093505050505b919050565b50805460008255906000526020600020908101906124ab91906124ae565b50565b5b808211156124c75760008160009055506001016124af565b5090565b6000813590506124da81613408565b92915050565b6000813590506124ef8161341f565b92915050565b60008135905061250481613436565b92915050565b6000813590506125198161344d565b92915050565b6000806040838503121561253257600080fd5b6000612540858286016124cb565b9250506020612551858286016124cb565b9150509250929050565b60006020828403121561256d57600080fd5b600061257b848285016124f5565b91505092915050565b60006020828403121561259657600080fd5b60006125a48482850161250a565b91505092915050565b600080604083850312156125c057600080fd5b60006125ce8582860161250a565b92505060206125df858286016124cb565b9150509250929050565b600080604083850312156125fc57600080fd5b600061260a8582860161250a565b925050602061261b858286016124e0565b9150509250929050565b6000806040838503121561263857600080fd5b60006126468582860161250a565b92505060206126578582860161250a565b9150509250929050565b600061266d8383612704565b60208301905092915050565b61268281613211565b82525050565b6000612693826131a3565b61269d81856131bb565b93506126a883613193565b8060005b838110156126d95781516126c08882612661565b97506126cb836131ae565b9250506001810190506126ac565b5085935050505092915050565b6126ef81613223565b82525050565b6126fe8161322f565b82525050565b61270d8161325b565b82525050565b61271c8161325b565b82525050565b61272b816132b5565b82525050565b61273a816132c7565b82525050565b600061274d6024836131cc565b91507f4174746573746174696f6e206973206e6f7420726561647920666f7220636c6f60008301527f73757265000000000000000000000000000000000000000000000000000000006020830152604082019050919050565b60006127b36025836131cc565b91507f52656d6f76654167656e74203a204167656e74206973206e6f7420726567697360008301527f74657265640000000000000000000000000000000000000000000000000000006020830152604082019050919050565b60006128196021836131cc565b91507f4174746573746174696f6e2070726f63657373206973206e6f7420636c6f736560008301527f64000000000000000000000000000000000000000000000000000000000000006020830152604082019050919050565b600061287f6018836131cc565b91507f4167656e7420616c7265616479207265676973746572656400000000000000006000830152602082019050919050565b60006128bf6023836131cc565b91507f4f6e6c7920746865205345436161532063616e2072657365742074686520636860008301527f61696e00000000000000000000000000000000000000000000000000000000006020830152604082019050919050565b6000612925602b836131cc565b91507f4174746573746174696f6e2070726f6365737320697320636c6f736564206f7260008301527f206e6f74206578697374730000000000000000000000000000000000000000006020830152604082019050919050565b600061298b6030836131cc565b91507f4f6e6c7920746865205345436161532063616e2073656e64207468652072656660008301527f6572656e6365207369676e6174757265000000000000000000000000000000006020830152604082019050919050565b60006129f16023836131cc565b91507f4174746573746174696f6e20697320636c6f736564206f72206e6f742065786960008301527f73747300000000000000000000000000000000000000000000000000000000006020830152604082019050919050565b6000612a57602d836131cc565b91507f4f6e6c79207468652076657269666965722063616e207265747269657665207460008301527f6865207369676e617475726573000000000000000000000000000000000000006020830152604082019050919050565b6000612abd6024836131cc565b91507f4174746573746174696f6e2070726f63657373206973206e6f7420636f6d706c60008301527f65746564000000000000000000000000000000000000000000000000000000006020830152604082019050919050565b6000612b236021836131cc565b91507f496e76616c696420737461746520666f722053454361615320726573706f6e7360008301527f65000000000000000000000000000000000000000000000000000000000000006020830152604082019050919050565b6000612b896017836131cc565b91507f596f7520617265206e6f74207468652070726f7665722e0000000000000000006000830152602082019050919050565b6000612bc9602c836131cc565b91507f526571756573744174746573746174696f6e203a204167656e74206973206e6f60008301527f74207265676973746572656400000000000000000000000000000000000000006020830152604082019050919050565b6000612c2f6011836131cc565b91507f55554944206973206e6f742076616c69640000000000000000000000000000006000830152602082019050919050565b6000612c6f6017836131cc565b91507f596f7520617265206e6f7420746865205345436161532e0000000000000000006000830152602082019050919050565b6000612caf602c836131cc565b91507f496e76616c696420737461746520666f72206672657368207369676e6174757260008301527f65207375626d697373696f6e00000000000000000000000000000000000000006020830152604082019050919050565b6000612d156026836131cc565b91507f4765744167656e74496e666f203a204167656e74206973206e6f74207265676960008301527f73746572656400000000000000000000000000000000000000000000000000006020830152604082019050919050565b6000612d7b6033836131cc565b91507f4f6e6c79207468652076657269666965722063616e20636c6f7365207468652060008301527f6174746573746174696f6e2070726f63657373000000000000000000000000006020830152604082019050919050565b612ddd816132ab565b82525050565b6000602082019050612df86000830184612679565b92915050565b6000608082019050612e136000830187612679565b612e206020830186612679565b612e2d6040830185612722565b612e3a6060830184612dd4565b95945050505050565b60006020820190508181036000830152612e5d8184612688565b905092915050565b6000602082019050612e7a60008301846126e6565b92915050565b6000602082019050612e9560008301846126f5565b92915050565b6000606082019050612eb060008301866126f5565b612ebd60208301856126e6565b8181036040830152612ecf8184612688565b9050949350505050565b6000602082019050612eee6000830184612713565b92915050565b6000604082019050612f096000830185612713565b612f166020830184612713565b9392505050565b6000602082019050612f326000830184612731565b92915050565b60006020820190508181036000830152612f5181612740565b9050919050565b60006020820190508181036000830152612f71816127a6565b9050919050565b60006020820190508181036000830152612f918161280c565b9050919050565b60006020820190508181036000830152612fb181612872565b9050919050565b60006020820190508181036000830152612fd1816128b2565b9050919050565b60006020820190508181036000830152612ff181612918565b9050919050565b600060208201905081810360008301526130118161297e565b9050919050565b60006020820190508181036000830152613031816129e4565b9050919050565b6000602082019050818103600083015261305181612a4a565b9050919050565b6000602082019050818103600083015261307181612ab0565b9050919050565b6000602082019050818103600083015261309181612b16565b9050919050565b600060208201905081810360008301526130b181612b7c565b9050919050565b600060208201905081810360008301526130d181612bbc565b9050919050565b600060208201905081810360008301526130f181612c22565b9050919050565b6000602082019050818103600083015261311181612c62565b9050919050565b6000602082019050818103600083015261313181612ca2565b9050919050565b6000602082019050818103600083015261315181612d08565b9050919050565b6000602082019050818103600083015261317181612d6e565b9050919050565b600060208201905061318d6000830184612dd4565b92915050565b6000819050602082019050919050565b600081519050919050565b6000602082019050919050565b600082825260208201905092915050565b600082825260208201905092915050565b60006131e8826132ab565b91506131f3836132ab565b92508282101561320657613205613353565b5b828203905092915050565b600061321c8261328b565b9050919050565b60008115159050919050565b60007fffffffffffffffffffffffffffffffff0000000000000000000000000000000082169050919050565b6000819050919050565b6000819050613273826133e0565b919050565b6000819050613286826133f4565b919050565b600073ffffffffffffffffffffffffffffffffffffffff82169050919050565b6000819050919050565b60006132c082613265565b9050919050565b60006132d282613278565b9050919050565b60006132e4826132ab565b91507fffffffffffffffffffffffffffffffffffffffffffffffffffffffffffffffff82141561331757613316613353565b5b600182019050919050565b600061332d826132ab565b9150613338836132ab565b92508261334857613347613382565b5b828206905092915050565b7f4e487b7100000000000000000000000000000000000000000000000000000000600052601160045260246000fd5b7f4e487b7100000000000000000000000000000000000000000000000000000000600052601260045260246000fd5b7f4e487b7100000000000000000000000000000000000000000000000000000000600052602160045260246000fd5b600381106133f1576133f06133b1565b5b50565b60058110613405576134046133b1565b5b50565b61341181613211565b811461341c57600080fd5b50565b61342881613223565b811461343357600080fd5b50565b61343f8161322f565b811461344a57600080fd5b50565b6134568161325b565b811461346157600080fd5b5056fea2646970667358221220d213e7e8ad9230578764d85a867e3d6b0a41e3dfb9ab26fb64e5775eacb49e3364736f6c63430008000033",
  "immutableReferences": {},
  "source": "// SPDX-License-Identifier: MIT\npragma solidity ^0.8.0;\n\ncontract MasMutualAttestation {\n\n    enum AttestationResult {None, Failure, Success}\n\n    // Define the possible states of an attestation process\n    enum AttestationState {Open, SecaasResponded, ProverResponded, ReadyForEvaluation, Closed}\n\n    struct Agent {\n        bytes16 uuid;\n        bool registered;\n        bytes32[] completedAttestations; // Stores all attestation IDs the agent has completed\n    }\n\n    struct MutualAttestation {\n        bytes32 id;\n        address verifier;\n        address prover;\n        bytes32 fresh_signature;\n        bytes32 ref_signature;\n        AttestationState state;\n        AttestationResult result;\n        uint256 timestamp; // Timestamp for attestation closure\n    }\n\n    address private secaas;\n    address[] private participants;\n    bytes32[] private attestationChain; // Store all attestation IDs\n    uint256 public freshnessWindow = 3600; // in seconds\n    uint256 public rrIndex;\n\n    // Define mappings to store data\n    mapping(address => uint256) private lastSuccess;\n    mapping(address => Agent) private agent;\n    mapping(bytes32 => MutualAttestation) private attestation;\n    mapping(address => uint256) private indexOf;\n\n\n    // Define events\n    event AgentRegistered(address agent);\n    event AgentRemoved(address agent);\n    event AttestationStarted(bytes32 id);\n    event SecaasResponded(bytes32 id);\n    event ProverResponded(bytes32 id);\n    event ReadyForEvaluation(bytes32 id);\n    event AttestationCompleted(bytes32 id);\n    event ChainReset();\n\n    constructor() {\n        secaas = msg.sender;\n        participants.push(secaas);\n        indexOf[secaas] = 0;\n    }\n\n    function ResetChain() public {\n        require(msg.sender == secaas, \"Only the SECaaS can reset the chain\");\n\n        delete attestationChain;\n        rrIndex = 0;\n        \n        emit ChainReset();\n    }    \n\n    function RegisterAgent(bytes16 uuid) public {\n        require(uuid != bytes16(0), \"UUID is not valid\");\n        Agent storage currentAgent = agent[msg.sender];\n        require(!currentAgent.registered, \"Agent already registered\");\n        currentAgent.uuid = uuid;\n        currentAgent.registered = true;\n        indexOf[msg.sender] = participants.length;\n        participants.push(msg.sender);\n        emit AgentRegistered(msg.sender);\n\n        // // Generate a unique attestation ID\n        // bytes32 id = keccak256(abi.encodePacked(msg.sender, block.timestamp));\n\n        // MutualAttestation storage currentAttestation = attestation[id];\n        // currentAttestation.id = id;\n        // currentAttestation.verifier = currentVerifier;\n        // currentAttestation.prover = msg.sender;\n        // currentAttestation.fresh_signature = bytes32(0);\n        // currentAttestation.ref_signature = bytes32(0);\n        // currentAttestation.state = AttestationState.Open;\n        // currentAttestation.result = AttestationResult.None;\n        // currentAttestation.timestamp = 0; \n\n        // emit AttestationStarted(id);\n    }\n\n    function RemoveAgent() public {\n        Agent storage currentAgent = agent[msg.sender];\n        require(currentAgent.registered, \"RemoveAgent : Agent is not registered\");\n        \n        uint idx = indexOf[msg.sender];\n        address last = participants[participants.length - 1];\n        participants[idx] = last;\n        indexOf[last] = idx;\n        participants.pop();\n\n        delete indexOf[msg.sender];\n        delete currentAgent.completedAttestations;\n        delete agent[msg.sender];\n        emit AgentRemoved(msg.sender);\n    }\n\n    function ElectVerifier(address prover) internal returns (address) {\n        address[] memory freshList = new address[](participants.length);\n        uint count = 0;\n        for (uint i = 0; i < participants.length; i++) {\n            address cand = participants[i];\n            if (\n                cand != prover &&\n                lastSuccess[cand] != 0\n                // block.timestamp - lastSuccess[cand] <= freshnessWindow\n            ) {\n                freshList[count++] = cand;\n            }\n        }\n\n        if (count == 0) {\n            return secaas;\n        }\n\n        address selected = freshList[rrIndex % count];\n        rrIndex++;\n        return selected;\n    }\n\n    function GetAgentInfo(address agentAddress, address callAddress) public view returns (bytes16, bool, bytes32[] memory) {\n        Agent storage currentAgent = agent[callAddress];\n        Agent storage agentToFind = agent[agentAddress];\n        require(currentAgent.registered || callAddress == secaas, \"GetAgentInfo : Agent is not registered\");\n        return (agentToFind.uuid, agentToFind.registered, agentToFind.completedAttestations);\n    } \n\n\n    function RequestAttestation(bytes32 id) public {\n        Agent storage currentAgent = agent[msg.sender];\n        require(currentAgent.registered, \"RequestAttestation : Agent is not registered\");\n\n        // // Generate unique attestation ID\n        // bytes32 id = keccak256(abi.encodePacked(msg.sender, block.timestamp));\n\n        MutualAttestation storage currentAttestation = attestation[id];\n        currentAttestation.id = id;\n        currentAttestation.verifier = ElectVerifier(msg.sender);\n        currentAttestation.prover = msg.sender;\n        currentAttestation.fresh_signature = bytes32(0);\n        currentAttestation.ref_signature = bytes32(0);\n        currentAttestation.state = AttestationState.Open;\n        currentAttestation.result = AttestationResult.None;\n        currentAttestation.timestamp = 0; \n\n        emit AttestationStarted(id);\n    }\n\n    function GetProverUUID(bytes32 id, address callAddress) public view returns (bytes16) {\n        require(callAddress == secaas, \"You are not the SECaaS.\");\n        MutualAttestation storage currentAttestation = attestation[id];\n        require(currentAttestation.state == AttestationState.Open || currentAttestation.state == AttestationState.ProverResponded, \"Attestation is closed or not exists\");\n        address proverAgentAddress = currentAttestation.prover;\n        Agent storage currentAgent = agent[proverAgentAddress];\n        return (currentAgent.uuid);\n    }     \n\n    function SendFreshSignaure(bytes32 id, bytes32 measurement) public returns (bool) {\n        MutualAttestation storage currentAttestation = attestation[id];\n        require(currentAttestation.state == AttestationState.Open || currentAttestation.state == AttestationState.SecaasResponded, \"Invalid state for fresh signature submission\");\n        require(currentAttestation.prover == msg.sender, \"You are not the prover.\");\n        \n        currentAttestation.fresh_signature = measurement;\n    \n        if (currentAttestation.state == AttestationState.SecaasResponded) {\n            currentAttestation.state = AttestationState.ReadyForEvaluation;\n            emit ReadyForEvaluation(id);\n        } else {\n            currentAttestation.state = AttestationState.ProverResponded;\n            emit ProverResponded(id);\n        }\n\n        return true;\n    }\n\n    function SendRefSignaure(bytes32 id, bytes32 measurement) public returns (bool) {\n        require(msg.sender == secaas, \"Only the SECaaS can send the reference signature\");\n        \n        MutualAttestation storage currentAttestation = attestation[id];\n        require(currentAttestation.state == AttestationState.Open || currentAttestation.state == AttestationState.ProverResponded, \"Invalid state for SECaaS response\");\n        \n        currentAttestation.ref_signature = measurement;\n    \n        if (currentAttestation.state == AttestationState.ProverResponded) {\n            currentAttestation.state = AttestationState.ReadyForEvaluation;\n            emit ReadyForEvaluation(id);\n        } else {\n            currentAttestation.state = AttestationState.SecaasResponded;\n            emit SecaasResponded(id);\n        }\n\n        return true;\n    }\n\n    function GetAttestationMeasurements(bytes32 id, address callAddress) public view returns (bytes32, bytes32) {\n        MutualAttestation storage currentAttestation = attestation[id];\n        require(currentAttestation.verifier == callAddress, \"Only the verifier can retrieve the signatures\");\n        require(currentAttestation.state == AttestationState.ReadyForEvaluation, \"Attestation process is not completed\");\n        return (currentAttestation.fresh_signature, currentAttestation.ref_signature);\n    }\n\n    function GetAttestationInfo(bytes32 id) public view returns (address, address, AttestationResult, uint256) {\n        MutualAttestation storage currentAttestation = attestation[id];\n        require(currentAttestation.state == AttestationState.Closed, \"Attestation process is not closed\");\n        return (currentAttestation.prover, currentAttestation.verifier, currentAttestation.result, currentAttestation.timestamp);\n    }\n\n    function GetAttestationState(bytes32 id) public view returns (AttestationState) {\n        return attestation[id].state;\n    }\n\n    function GetAttestationChain() public view returns (bytes32[] memory) {\n        return attestationChain;\n    }\n\n    function CloseAttestationProcess(bytes32 id, bool verified) public returns (bool) {\n        MutualAttestation storage currentAttestation = attestation[id];\n        require(currentAttestation.verifier == msg.sender, \"Only the verifier can close the attestation process\");\n        require(currentAttestation.state == AttestationState.ReadyForEvaluation, \"Attestation is not ready for closure\");\n        \n        currentAttestation.state = AttestationState.Closed;\n        currentAttestation.timestamp = block.timestamp; // Store closure timestamp\n        Agent storage proverAgent = agent[currentAttestation.prover];\n\n        if (verified) {\n            currentAttestation.result = AttestationResult.Success;\n            lastSuccess[currentAttestation.prover] = block.timestamp;\n        } else {\n            currentAttestation.result = AttestationResult.Failure;\n        }\n\n        // Store attestation history for the prover only\n        proverAgent.completedAttestations.push(id);\n\n        // Store attestation history for all agents\n        attestationChain.push(id);\n\n        emit AttestationCompleted(id);\n        return true;\n    }\n\n    function IsProver(bytes32 id, address callAddress) public view returns (bool) {\n        MutualAttestation storage currentAttestation = attestation[id];\n        require(currentAttestation.state != AttestationState.Closed, \"Attestation process is closed or not exists\");\n        return currentAttestation.prover == callAddress;\n    }\n\n    function IsVerifier(bytes32 id, address callAddress) public view returns (bool) {\n        MutualAttestation storage currentAttestation = attestation[id];\n        require(currentAttestation.state != AttestationState.Closed, \"Attestation process is closed or not exists\");\n        return currentAttestation.verifier == callAddress;\n    }\n\n}\n",
  "sourcePath": "/smart-contracts/contracts/MasMutualAttestation.sol",
  "compiler": {
    "name": "solc",
    "version": "0.8.0+commit.c7dfd78e.Emscripten.clang"
  },
  "schemaVersion": "3.4.16",
  "updatedAt": "2025-08-01T17:04:32.045Z",
  "networkType": "ethereum",
  "devdoc": {
    "kind": "dev",
    "methods": {},
    "version": 1
  },
  "userdoc": {
    "kind": "user",
    "methods": {},
    "version": 1
  }
}