{
  "contractName": "MasMutualAttestation",
  "abi": [
    {
      "inputs": [],
      "stateMutability": "nonpayable",
      "type": "constructor"
    },
    {
      "anonymous": false,
      "inputs": [
        {
          "indexed": false,
          "internalType": "address",
          "name": "agent",
          "type": "address"
        }
      ],
      "name": "AgentRegistered",
      "type": "event"
    },
    {
      "anonymous": false,
      "inputs": [
        {
          "indexed": false,
          "internalType": "address",
          "name": "agent",
          "type": "address"
        }
      ],
      "name": "AgentRemoved",
      "type": "event"
    },
    {
      "anonymous": false,
      "inputs": [
        {
          "indexed": false,
          "internalType": "bytes32",
          "name": "id",
          "type": "bytes32"
        }
      ],
      "name": "AttestationCompleted",
      "type": "event"
    },
    {
      "anonymous": false,
      "inputs": [
        {
          "indexed": false,
          "internalType": "bytes32",
          "name": "id",
          "type": "bytes32"
        }
      ],
      "name": "AttestationStarted",
      "type": "event"
    },
    {
      "anonymous": false,
      "inputs": [],
      "name": "ChainReset",
      "type": "event"
    },
    {
      "anonymous": false,
      "inputs": [
        {
          "indexed": false,
          "internalType": "bytes32",
          "name": "id",
          "type": "bytes32"
        }
      ],
      "name": "ReadyForEvaluation",
      "type": "event"
    },
    {
      "inputs": [],
      "name": "freshnessWindow",
      "outputs": [
        {
          "internalType": "uint256",
          "name": "",
          "type": "uint256"
        }
      ],
      "stateMutability": "view",
      "type": "function",
      "constant": true
    },
    {
      "inputs": [],
      "name": "rrIndex",
      "outputs": [
        {
          "internalType": "uint256",
          "name": "",
          "type": "uint256"
        }
      ],
      "stateMutability": "view",
      "type": "function",
      "constant": true
    },
    {
      "inputs": [],
      "name": "ResetChain",
      "outputs": [],
      "stateMutability": "nonpayable",
      "type": "function"
    },
    {
      "inputs": [
        {
          "internalType": "bytes16",
          "name": "uuid",
          "type": "bytes16"
        }
      ],
      "name": "RegisterAgent",
      "outputs": [],
      "stateMutability": "nonpayable",
      "type": "function"
    },
    {
      "inputs": [],
      "name": "RemoveAgent",
      "outputs": [],
      "stateMutability": "nonpayable",
      "type": "function"
    },
    {
      "inputs": [
        {
          "internalType": "address",
          "name": "agentAddress",
          "type": "address"
        },
        {
          "internalType": "address",
          "name": "callAddress",
          "type": "address"
        }
      ],
      "name": "GetAgentInfo",
      "outputs": [
        {
          "internalType": "bytes16",
          "name": "",
          "type": "bytes16"
        },
        {
          "internalType": "bool",
          "name": "",
          "type": "bool"
        },
        {
          "internalType": "bytes32[]",
          "name": "",
          "type": "bytes32[]"
        }
      ],
      "stateMutability": "view",
      "type": "function",
      "constant": true
    },
    {
      "inputs": [
        {
          "internalType": "bytes32",
          "name": "id",
          "type": "bytes32"
        },
        {
          "internalType": "bytes32",
          "name": "freshMeasurement",
          "type": "bytes32"
        }
      ],
      "name": "RequestAttestation",
      "outputs": [],
      "stateMutability": "nonpayable",
      "type": "function"
    },
    {
      "inputs": [
        {
          "internalType": "bytes32",
          "name": "id",
          "type": "bytes32"
        },
        {
          "internalType": "address",
          "name": "callAddress",
          "type": "address"
        }
      ],
      "name": "GetProverUUID",
      "outputs": [
        {
          "internalType": "bytes16",
          "name": "",
          "type": "bytes16"
        }
      ],
      "stateMutability": "view",
      "type": "function",
      "constant": true
    },
    {
      "inputs": [
        {
          "internalType": "bytes32",
          "name": "id",
          "type": "bytes32"
        },
        {
          "internalType": "bytes32",
          "name": "measurement",
          "type": "bytes32"
        }
      ],
      "name": "SendRefSignaure",
      "outputs": [
        {
          "internalType": "bool",
          "name": "",
          "type": "bool"
        }
      ],
      "stateMutability": "nonpayable",
      "type": "function"
    },
    {
      "inputs": [
        {
          "internalType": "bytes32",
          "name": "id",
          "type": "bytes32"
        },
        {
          "internalType": "address",
          "name": "callAddress",
          "type": "address"
        }
      ],
      "name": "GetAttestationMeasurements",
      "outputs": [
        {
          "internalType": "bytes32",
          "name": "",
          "type": "bytes32"
        },
        {
          "internalType": "bytes32",
          "name": "",
          "type": "bytes32"
        }
      ],
      "stateMutability": "view",
      "type": "function",
      "constant": true
    },
    {
      "inputs": [
        {
          "internalType": "bytes32",
          "name": "id",
          "type": "bytes32"
        }
      ],
      "name": "GetAttestationInfo",
      "outputs": [
        {
          "internalType": "address",
          "name": "",
          "type": "address"
        },
        {
          "internalType": "address",
          "name": "",
          "type": "address"
        },
        {
          "internalType": "enum MasMutualAttestation.AttestationResult",
          "name": "",
          "type": "uint8"
        },
        {
          "internalType": "uint256",
          "name": "",
          "type": "uint256"
        }
      ],
      "stateMutability": "view",
      "type": "function",
      "constant": true
    },
    {
      "inputs": [
        {
          "internalType": "bytes32",
          "name": "id",
          "type": "bytes32"
        }
      ],
      "name": "GetAttestationState",
      "outputs": [
        {
          "internalType": "enum MasMutualAttestation.AttestationState",
          "name": "",
          "type": "uint8"
        }
      ],
      "stateMutability": "view",
      "type": "function",
      "constant": true
    },
    {
      "inputs": [],
      "name": "GetAttestationChain",
      "outputs": [
        {
          "internalType": "bytes32[]",
          "name": "",
          "type": "bytes32[]"
        }
      ],
      "stateMutability": "view",
      "type": "function",
      "constant": true
    },
    {
      "inputs": [
        {
          "internalType": "bytes32",
          "name": "id",
          "type": "bytes32"
        },
        {
          "internalType": "bool",
          "name": "verified",
          "type": "bool"
        }
      ],
      "name": "CloseAttestationProcess",
      "outputs": [
        {
          "internalType": "bool",
          "name": "",
          "type": "bool"
        }
      ],
      "stateMutability": "nonpayable",
      "type": "function"
    },
    {
      "inputs": [
        {
          "internalType": "bytes32",
          "name": "id",
          "type": "bytes32"
        },
        {
          "internalType": "address",
          "name": "callAddress",
          "type": "address"
        }
      ],
      "name": "IsProver",
      "outputs": [
        {
          "internalType": "bool",
          "name": "",
          "type": "bool"
        }
      ],
      "stateMutability": "view",
      "type": "function",
      "constant": true
    },
    {
      "inputs": [
        {
          "internalType": "bytes32",
          "name": "id",
          "type": "bytes32"
        },
        {
          "internalType": "address",
          "name": "callAddress",
          "type": "address"
        }
      ],
      "name": "IsVerifier",
      "outputs": [
        {
          "internalType": "bool",
          "name": "",
          "type": "bool"
        }
      ],
      "stateMutability": "view",
      "type": "function",
      "constant": true
    }
  ],
  "bytecode": "0x6080604052610e1060035534801561001657600080fd5b50336000806101000a81548173ffffffffffffffffffffffffffffffffffffffff021916908373ffffffffffffffffffffffffffffffffffffffff160217905550600160008054906101000a900473ffffffffffffffffffffffffffffffffffffffff169080600181540180825580915050600190039060005260206000200160009091909190916101000a81548173ffffffffffffffffffffffffffffffffffffffff021916908373ffffffffffffffffffffffffffffffffffffffff1602179055506000600860008060009054906101000a900473ffffffffffffffffffffffffffffffffffffffff1673ffffffffffffffffffffffffffffffffffffffff1673ffffffffffffffffffffffffffffffffffffffff16815260200190815260200160002081905550612d938061014f6000396000f3fe608060405234801561001057600080fd5b50600436106101005760003560e01c806393506aa611610097578063bc1a097e11610066578063bc1a097e146102b3578063cb2a0348146102e5578063d5dd167b14610315578063e2021cf91461034557610100565b806393506aa61461021757806396efe85214610235578063b46ca81a14610253578063b8df8f981461028357610100565b80635f3d4220116100d35780635f3d4220146101a0578063699922c3146101d357806378caad49146101ef57806381880fd3146101f957610100565b80631d995a0e146101055780632562f1c61461010f578063395d719b146101405780635455cddd14610170575b600080fd5b61010d610361565b005b61012960048036038101906101249190611f8c565b6106fd565b60405161013792919061282d565b60405180910390f35b61015a60048036038101906101559190611f8c565b610883565b604051610167919061279e565b60405180910390f35b61018a60048036038101906101859190612004565b6109bb565b604051610197919061279e565b60405180910390f35b6101ba60048036038101906101b59190611f63565b610bc5565b6040516101ca9493929190612737565b60405180910390f35b6101ed60048036038101906101e89190612004565b610d16565b005b6101f7610f5a565b005b61020161102c565b60405161020e9190612a71565b60405180910390f35b61021f611032565b60405161022c9190612a71565b60405180910390f35b61023d611038565b60405161024a919061277c565b60405180910390f35b61026d60048036038101906102689190611f8c565b611090565b60405161027a919061279e565b60405180910390f35b61029d60048036038101906102989190611f63565b6111c8565b6040516102aa9190612856565b60405180910390f35b6102cd60048036038101906102c89190611efe565b6111f5565b6040516102dc939291906127d4565b60405180910390f35b6102ff60048036038101906102fa9190611fc8565b6113b0565b60405161030c919061279e565b60405180910390f35b61032f600480360381019061032a9190611f8c565b611792565b60405161033c91906127b9565b60405180910390f35b61035f600480360381019061035a9190611f3a565b611987565b005b6000600660003373ffffffffffffffffffffffffffffffffffffffff1673ffffffffffffffffffffffffffffffffffffffff16815260200190815260200160002090508060000160109054906101000a900460ff166103f5576040517f08c379a00000000000000000000000000000000000000000000000000000000081526004016103ec90612891565b60405180910390fd5b6000600860003373ffffffffffffffffffffffffffffffffffffffff1673ffffffffffffffffffffffffffffffffffffffff1681526020019081526020016000205490506000600180808054905061044d9190612ad6565b81548110610484577f4e487b7100000000000000000000000000000000000000000000000000000000600052603260045260246000fd5b9060005260206000200160009054906101000a900473ffffffffffffffffffffffffffffffffffffffff16905080600183815481106104ec577f4e487b7100000000000000000000000000000000000000000000000000000000600052603260045260246000fd5b9060005260206000200160006101000a81548173ffffffffffffffffffffffffffffffffffffffff021916908373ffffffffffffffffffffffffffffffffffffffff16021790555081600860008373ffffffffffffffffffffffffffffffffffffffff1673ffffffffffffffffffffffffffffffffffffffff1681526020019081526020016000208190555060018054806105b0577f4e487b7100000000000000000000000000000000000000000000000000000000600052603160045260246000fd5b6001900381819060005260206000200160006101000a81549073ffffffffffffffffffffffffffffffffffffffff02191690559055600860003373ffffffffffffffffffffffffffffffffffffffff1673ffffffffffffffffffffffffffffffffffffffff168152602001908152602001600020600090558260010160006106389190611e6c565b600660003373ffffffffffffffffffffffffffffffffffffffff1673ffffffffffffffffffffffffffffffffffffffff168152602001908152602001600020600080820160006101000a8154906fffffffffffffffffffffffffffffffff02191690556000820160106101000a81549060ff02191690556001820160006106bf9190611e6c565b50507fed9c8ad8d5a0a66898ea49d2956929c93ae2e8bd50281b2ed897c5d1a6737e0b336040516106f0919061271c565b60405180910390a1505050565b60008060006007600086815260200190815260200160002090508373ffffffffffffffffffffffffffffffffffffffff168160010160009054906101000a900473ffffffffffffffffffffffffffffffffffffffff1673ffffffffffffffffffffffffffffffffffffffff16146107a9576040517f08c379a00000000000000000000000000000000000000000000000000000000081526004016107a090612971565b60405180910390fd5b600160028111156107e3577f4e487b7100000000000000000000000000000000000000000000000000000000600052602160045260246000fd5b8160050160009054906101000a900460ff16600281111561082d577f4e487b7100000000000000000000000000000000000000000000000000000000600052602160045260246000fd5b1461086d576040517f08c379a000000000000000000000000000000000000000000000000000000000815260040161086490612991565b60405180910390fd5b8060030154816004015492509250509250929050565b6000806007600085815260200190815260200160002090506002808111156108d4577f4e487b7100000000000000000000000000000000000000000000000000000000600052602160045260246000fd5b8160050160009054906101000a900460ff16600281111561091e577f4e487b7100000000000000000000000000000000000000000000000000000000600052602160045260246000fd5b141561095f576040517f08c379a000000000000000000000000000000000000000000000000000000000815260040161095690612911565b60405180910390fd5b8273ffffffffffffffffffffffffffffffffffffffff168160020160009054906101000a900473ffffffffffffffffffffffffffffffffffffffff1673ffffffffffffffffffffffffffffffffffffffff161491505092915050565b60008060009054906101000a900473ffffffffffffffffffffffffffffffffffffffff1673ffffffffffffffffffffffffffffffffffffffff163373ffffffffffffffffffffffffffffffffffffffff1614610a4c576040517f08c379a0000000000000000000000000000000000000000000000000000000008152600401610a4390612931565b60405180910390fd5b600060076000858152602001908152602001600020905060006002811115610a9d577f4e487b7100000000000000000000000000000000000000000000000000000000600052602160045260246000fd5b8160050160009054906101000a900460ff166002811115610ae7577f4e487b7100000000000000000000000000000000000000000000000000000000600052602160045260246000fd5b14610b27576040517f08c379a0000000000000000000000000000000000000000000000000000000008152600401610b1e906129b1565b60405180910390fd5b82816004018190555060018160050160006101000a81548160ff02191690836002811115610b7e577f4e487b7100000000000000000000000000000000000000000000000000000000600052602160045260246000fd5b02179055507f6781e8d3c07e87e938ec28a5435aa7862779fb9c7d01b7315eca91430b2a464384604051610bb29190612812565b60405180910390a1600191505092915050565b6000806000806000600760008781526020019081526020016000209050600280811115610c1b577f4e487b7100000000000000000000000000000000000000000000000000000000600052602160045260246000fd5b8160050160009054906101000a900460ff166002811115610c65577f4e487b7100000000000000000000000000000000000000000000000000000000600052602160045260246000fd5b14610ca5576040517f08c379a0000000000000000000000000000000000000000000000000000000008152600401610c9c906128b1565b60405180910390fd5b8060020160009054906101000a900473ffffffffffffffffffffffffffffffffffffffff168160010160009054906101000a900473ffffffffffffffffffffffffffffffffffffffff168260050160019054906101000a900460ff1683600601549450945094509450509193509193565b6000600660003373ffffffffffffffffffffffffffffffffffffffff1673ffffffffffffffffffffffffffffffffffffffff16815260200190815260200160002090508060000160109054906101000a900460ff16610daa576040517f08c379a0000000000000000000000000000000000000000000000000000000008152600401610da1906129d1565b60405180910390fd5b6000600760008581526020019081526020016000209050838160000181905550610dd333611bb9565b8160010160006101000a81548173ffffffffffffffffffffffffffffffffffffffff021916908373ffffffffffffffffffffffffffffffffffffffff160217905550338160020160006101000a81548173ffffffffffffffffffffffffffffffffffffffff021916908373ffffffffffffffffffffffffffffffffffffffff1602179055508281600301819055506000801b816004018190555060008160050160006101000a81548160ff02191690836002811115610ebb577f4e487b7100000000000000000000000000000000000000000000000000000000600052602160045260246000fd5b021790555060008160050160016101000a81548160ff02191690836002811115610f0e577f4e487b7100000000000000000000000000000000000000000000000000000000600052602160045260246000fd5b0217905550600081600601819055507fd32f85071e05721b8a1c63d5cad1fe3525ec0a11fd5b7760b6a82d7f6be7d28384604051610f4c9190612812565b60405180910390a150505050565b60008054906101000a900473ffffffffffffffffffffffffffffffffffffffff1673ffffffffffffffffffffffffffffffffffffffff163373ffffffffffffffffffffffffffffffffffffffff1614610fe8576040517f08c379a0000000000000000000000000000000000000000000000000000000008152600401610fdf906128f1565b60405180910390fd5b60026000610ff69190611e6c565b60006004819055507f8e1dda8e7ca889ef4bd70f2ff6dd48a9b896b1d89703a08b6385333045af148960405160405180910390a1565b60035481565b60045481565b6060600280548060200260200160405190810160405280929190818152602001828054801561108657602002820191906000526020600020905b815481526020019060010190808311611072575b5050505050905090565b6000806007600085815260200190815260200160002090506002808111156110e1577f4e487b7100000000000000000000000000000000000000000000000000000000600052602160045260246000fd5b8160050160009054906101000a900460ff16600281111561112b577f4e487b7100000000000000000000000000000000000000000000000000000000600052602160045260246000fd5b141561116c576040517f08c379a000000000000000000000000000000000000000000000000000000000815260040161116390612911565b60405180910390fd5b8273ffffffffffffffffffffffffffffffffffffffff168160010160009054906101000a900473ffffffffffffffffffffffffffffffffffffffff1673ffffffffffffffffffffffffffffffffffffffff161491505092915050565b60006007600083815260200190815260200160002060050160009054906101000a900460ff169050919050565b60008060606000600660008673ffffffffffffffffffffffffffffffffffffffff1673ffffffffffffffffffffffffffffffffffffffff16815260200190815260200160002090506000600660008873ffffffffffffffffffffffffffffffffffffffff1673ffffffffffffffffffffffffffffffffffffffff16815260200190815260200160002090508160000160109054906101000a900460ff16806112e8575060008054906101000a900473ffffffffffffffffffffffffffffffffffffffff1673ffffffffffffffffffffffffffffffffffffffff168673ffffffffffffffffffffffffffffffffffffffff16145b611327576040517f08c379a000000000000000000000000000000000000000000000000000000000815260040161131e90612a31565b60405180910390fd5b8060000160009054906101000a900460801b8160000160109054906101000a900460ff16826001018080548060200260200160405190810160405280929190818152602001828054801561139a57602002820191906000526020600020905b815481526020019060010190808311611386575b5050505050905094509450945050509250925092565b6000806007600085815260200190815260200160002090503373ffffffffffffffffffffffffffffffffffffffff168160010160009054906101000a900473ffffffffffffffffffffffffffffffffffffffff1673ffffffffffffffffffffffffffffffffffffffff161461145a576040517f08c379a000000000000000000000000000000000000000000000000000000000815260040161145190612a51565b60405180910390fd5b60016002811115611494577f4e487b7100000000000000000000000000000000000000000000000000000000600052602160045260246000fd5b8160050160009054906101000a900460ff1660028111156114de577f4e487b7100000000000000000000000000000000000000000000000000000000600052602160045260246000fd5b1461151e576040517f08c379a000000000000000000000000000000000000000000000000000000000815260040161151590612871565b60405180910390fd5b60028160050160006101000a81548160ff0219169083600281111561156c577f4e487b7100000000000000000000000000000000000000000000000000000000600052602160045260246000fd5b02179055504281600601819055506000600660008360020160009054906101000a900473ffffffffffffffffffffffffffffffffffffffff1673ffffffffffffffffffffffffffffffffffffffff1673ffffffffffffffffffffffffffffffffffffffff168152602001908152602001600020905083156116a75760028260050160016101000a81548160ff02191690836002811115611635577f4e487b7100000000000000000000000000000000000000000000000000000000600052602160045260246000fd5b021790555042600560008460020160009054906101000a900473ffffffffffffffffffffffffffffffffffffffff1673ffffffffffffffffffffffffffffffffffffffff1673ffffffffffffffffffffffffffffffffffffffff168152602001908152602001600020819055506116fb565b60018260050160016101000a81548160ff021916908360028111156116f5577f4e487b7100000000000000000000000000000000000000000000000000000000600052602160045260246000fd5b02179055505b8060010185908060018154018082558091505060019003906000526020600020016000909190919091505560028590806001815401808255809150506001900390600052602060002001600090919091909150557f31a3cf273cd0e82f8ddb4be15d4b954d7fcd18a4c5d4591cce32edd1a4bc417d8560405161177e9190612812565b60405180910390a160019250505092915050565b60008060009054906101000a900473ffffffffffffffffffffffffffffffffffffffff1673ffffffffffffffffffffffffffffffffffffffff168273ffffffffffffffffffffffffffffffffffffffff1614611823576040517f08c379a000000000000000000000000000000000000000000000000000000000815260040161181a90612a11565b60405180910390fd5b600060076000858152602001908152602001600020905060006002811115611874577f4e487b7100000000000000000000000000000000000000000000000000000000600052602160045260246000fd5b8160050160009054906101000a900460ff1660028111156118be577f4e487b7100000000000000000000000000000000000000000000000000000000600052602160045260246000fd5b146118fe576040517f08c379a00000000000000000000000000000000000000000000000000000000081526004016118f590612951565b60405180910390fd5b60008160020160009054906101000a900473ffffffffffffffffffffffffffffffffffffffff1690506000600660008373ffffffffffffffffffffffffffffffffffffffff1673ffffffffffffffffffffffffffffffffffffffff16815260200190815260200160002090508060000160009054906101000a900460801b935050505092915050565b600060801b6fffffffffffffffffffffffffffffffff1916816fffffffffffffffffffffffffffffffff191614156119f4576040517f08c379a00000000000000000000000000000000000000000000000000000000081526004016119eb906129f1565b60405180910390fd5b6000600660003373ffffffffffffffffffffffffffffffffffffffff1673ffffffffffffffffffffffffffffffffffffffff16815260200190815260200160002090508060000160109054906101000a900460ff1615611a89576040517f08c379a0000000000000000000000000000000000000000000000000000000008152600401611a80906128d1565b60405180910390fd5b818160000160006101000a8154816fffffffffffffffffffffffffffffffff021916908360801c021790555060018160000160106101000a81548160ff021916908315150217905550600180549050600860003373ffffffffffffffffffffffffffffffffffffffff1673ffffffffffffffffffffffffffffffffffffffff168152602001908152602001600020819055506001339080600181540180825580915050600190039060005260206000200160009091909190916101000a81548173ffffffffffffffffffffffffffffffffffffffff021916908373ffffffffffffffffffffffffffffffffffffffff1602179055507f82d0829d9d481e4cb9913897f9b9c903271c4db68c7b3324071d2a7e3b2c5ff033604051611bad919061271c565b60405180910390a15050565b60008060018054905067ffffffffffffffff811115611c01577f4e487b7100000000000000000000000000000000000000000000000000000000600052604160045260246000fd5b604051908082528060200260200182016040528015611c2f5781602001602082028036833780820191505090505b5090506000805b600180549050811015611dc257600060018281548110611c7f577f4e487b7100000000000000000000000000000000000000000000000000000000600052603260045260246000fd5b9060005260206000200160009054906101000a900473ffffffffffffffffffffffffffffffffffffffff1690508573ffffffffffffffffffffffffffffffffffffffff168173ffffffffffffffffffffffffffffffffffffffff1614158015611d2857506000600560008373ffffffffffffffffffffffffffffffffffffffff1673ffffffffffffffffffffffffffffffffffffffff1681526020019081526020016000205414155b15611dae5780848480611d3a90612bd2565b955081518110611d73577f4e487b7100000000000000000000000000000000000000000000000000000000600052603260045260246000fd5b602002602001019073ffffffffffffffffffffffffffffffffffffffff16908173ffffffffffffffffffffffffffffffffffffffff16815250505b508080611dba90612bd2565b915050611c36565b506000811415611df65760008054906101000a900473ffffffffffffffffffffffffffffffffffffffff1692505050611e67565b60008282600454611e079190612c1b565b81518110611e3e577f4e487b7100000000000000000000000000000000000000000000000000000000600052603260045260246000fd5b6020026020010151905060046000815480929190611e5b90612bd2565b91905055508093505050505b919050565b5080546000825590600052602060002090810190611e8a9190611e8d565b50565b5b80821115611ea6576000816000905550600101611e8e565b5090565b600081359050611eb981612d01565b92915050565b600081359050611ece81612d18565b92915050565b600081359050611ee381612d2f565b92915050565b600081359050611ef881612d46565b92915050565b60008060408385031215611f1157600080fd5b6000611f1f85828601611eaa565b9250506020611f3085828601611eaa565b9150509250929050565b600060208284031215611f4c57600080fd5b6000611f5a84828501611ed4565b91505092915050565b600060208284031215611f7557600080fd5b6000611f8384828501611ee9565b91505092915050565b60008060408385031215611f9f57600080fd5b6000611fad85828601611ee9565b9250506020611fbe85828601611eaa565b9150509250929050565b60008060408385031215611fdb57600080fd5b6000611fe985828601611ee9565b9250506020611ffa85828601611ebf565b9150509250929050565b6000806040838503121561201757600080fd5b600061202585828601611ee9565b925050602061203685828601611ee9565b9150509250929050565b600061204c83836120e3565b60208301905092915050565b61206181612b0a565b82525050565b600061207282612a9c565b61207c8185612ab4565b935061208783612a8c565b8060005b838110156120b857815161209f8882612040565b97506120aa83612aa7565b92505060018101905061208b565b5085935050505092915050565b6120ce81612b1c565b82525050565b6120dd81612b28565b82525050565b6120ec81612b54565b82525050565b6120fb81612b54565b82525050565b61210a81612bae565b82525050565b61211981612bc0565b82525050565b600061212c602483612ac5565b91507f4174746573746174696f6e206973206e6f7420726561647920666f7220636c6f60008301527f73757265000000000000000000000000000000000000000000000000000000006020830152604082019050919050565b6000612192602583612ac5565b91507f52656d6f76654167656e74203a204167656e74206973206e6f7420726567697360008301527f74657265640000000000000000000000000000000000000000000000000000006020830152604082019050919050565b60006121f8602183612ac5565b91507f4174746573746174696f6e2070726f63657373206973206e6f7420636c6f736560008301527f64000000000000000000000000000000000000000000000000000000000000006020830152604082019050919050565b600061225e601883612ac5565b91507f4167656e7420616c7265616479207265676973746572656400000000000000006000830152602082019050919050565b600061229e602383612ac5565b91507f4f6e6c7920746865205345436161532063616e2072657365742074686520636860008301527f61696e00000000000000000000000000000000000000000000000000000000006020830152604082019050919050565b6000612304602b83612ac5565b91507f4174746573746174696f6e2070726f6365737320697320636c6f736564206f7260008301527f206e6f74206578697374730000000000000000000000000000000000000000006020830152604082019050919050565b600061236a603083612ac5565b91507f4f6e6c7920746865205345436161532063616e2073656e64207468652072656660008301527f6572656e6365207369676e6174757265000000000000000000000000000000006020830152604082019050919050565b60006123d0602383612ac5565b91507f4174746573746174696f6e20697320636c6f736564206f72206e6f742065786960008301527f73747300000000000000000000000000000000000000000000000000000000006020830152604082019050919050565b6000612436602d83612ac5565b91507f4f6e6c79207468652076657269666965722063616e207265747269657665207460008301527f6865207369676e617475726573000000000000000000000000000000000000006020830152604082019050919050565b600061249c602483612ac5565b91507f4174746573746174696f6e2070726f63657373206973206e6f7420636f6d706c60008301527f65746564000000000000000000000000000000000000000000000000000000006020830152604082019050919050565b6000612502602183612ac5565b91507f496e76616c696420737461746520666f722053454361615320726573706f6e7360008301527f65000000000000000000000000000000000000000000000000000000000000006020830152604082019050919050565b6000612568602c83612ac5565b91507f526571756573744174746573746174696f6e203a204167656e74206973206e6f60008301527f74207265676973746572656400000000000000000000000000000000000000006020830152604082019050919050565b60006125ce601183612ac5565b91507f55554944206973206e6f742076616c69640000000000000000000000000000006000830152602082019050919050565b600061260e601783612ac5565b91507f596f7520617265206e6f7420746865205345436161532e0000000000000000006000830152602082019050919050565b600061264e602683612ac5565b91507f4765744167656e74496e666f203a204167656e74206973206e6f74207265676960008301527f73746572656400000000000000000000000000000000000000000000000000006020830152604082019050919050565b60006126b4603383612ac5565b91507f4f6e6c79207468652076657269666965722063616e20636c6f7365207468652060008301527f6174746573746174696f6e2070726f63657373000000000000000000000000006020830152604082019050919050565b61271681612ba4565b82525050565b60006020820190506127316000830184612058565b92915050565b600060808201905061274c6000830187612058565b6127596020830186612058565b6127666040830185612101565b612773606083018461270d565b95945050505050565b600060208201905081810360008301526127968184612067565b905092915050565b60006020820190506127b360008301846120c5565b92915050565b60006020820190506127ce60008301846120d4565b92915050565b60006060820190506127e960008301866120d4565b6127f660208301856120c5565b81810360408301526128088184612067565b9050949350505050565b600060208201905061282760008301846120f2565b92915050565b600060408201905061284260008301856120f2565b61284f60208301846120f2565b9392505050565b600060208201905061286b6000830184612110565b92915050565b6000602082019050818103600083015261288a8161211f565b9050919050565b600060208201905081810360008301526128aa81612185565b9050919050565b600060208201905081810360008301526128ca816121eb565b9050919050565b600060208201905081810360008301526128ea81612251565b9050919050565b6000602082019050818103600083015261290a81612291565b9050919050565b6000602082019050818103600083015261292a816122f7565b9050919050565b6000602082019050818103600083015261294a8161235d565b9050919050565b6000602082019050818103600083015261296a816123c3565b9050919050565b6000602082019050818103600083015261298a81612429565b9050919050565b600060208201905081810360008301526129aa8161248f565b9050919050565b600060208201905081810360008301526129ca816124f5565b9050919050565b600060208201905081810360008301526129ea8161255b565b9050919050565b60006020820190508181036000830152612a0a816125c1565b9050919050565b60006020820190508181036000830152612a2a81612601565b9050919050565b60006020820190508181036000830152612a4a81612641565b9050919050565b60006020820190508181036000830152612a6a816126a7565b9050919050565b6000602082019050612a86600083018461270d565b92915050565b6000819050602082019050919050565b600081519050919050565b6000602082019050919050565b600082825260208201905092915050565b600082825260208201905092915050565b6000612ae182612ba4565b9150612aec83612ba4565b925082821015612aff57612afe612c4c565b5b828203905092915050565b6000612b1582612b84565b9050919050565b60008115159050919050565b60007fffffffffffffffffffffffffffffffff0000000000000000000000000000000082169050919050565b6000819050919050565b6000819050612b6c82612cd9565b919050565b6000819050612b7f82612ced565b919050565b600073ffffffffffffffffffffffffffffffffffffffff82169050919050565b6000819050919050565b6000612bb982612b5e565b9050919050565b6000612bcb82612b71565b9050919050565b6000612bdd82612ba4565b91507fffffffffffffffffffffffffffffffffffffffffffffffffffffffffffffffff821415612c1057612c0f612c4c565b5b600182019050919050565b6000612c2682612ba4565b9150612c3183612ba4565b925082612c4157612c40612c7b565b5b828206905092915050565b7f4e487b7100000000000000000000000000000000000000000000000000000000600052601160045260246000fd5b7f4e487b7100000000000000000000000000000000000000000000000000000000600052601260045260246000fd5b7f4e487b7100000000000000000000000000000000000000000000000000000000600052602160045260246000fd5b60038110612cea57612ce9612caa565b5b50565b60038110612cfe57612cfd612caa565b5b50565b612d0a81612b0a565b8114612d1557600080fd5b50565b612d2181612b1c565b8114612d2c57600080fd5b50565b612d3881612b28565b8114612d4357600080fd5b50565b612d4f81612b54565b8114612d5a57600080fd5b5056fea264697066735822122069ac12c22fd09a56f01d4cb36489aa595922bcb17289a358054e95fbff16956f64736f6c63430008000033",
  "immutableReferences": {},
  "source": "// SPDX-License-Identifier: MIT\npragma solidity ^0.8.0;\n\ncontract MasMutualAttestation {\n\n    enum AttestationResult {None, Failure, Success}\n\n    // Define the possible states of an attestation process\n    enum AttestationState {Open, ReadyForEvaluation, Closed}\n\n    struct Agent {\n        bytes16 uuid;\n        bool registered;\n        bytes32[] completedAttestations; // Stores all attestation IDs the agent has completed\n    }\n\n    struct MutualAttestation {\n        bytes32 id;\n        address verifier;\n        address prover;\n        bytes32 fresh_signature;\n        bytes32 ref_signature;\n        AttestationState state;\n        AttestationResult result;\n        uint256 timestamp; // Timestamp for attestation closure\n    }\n\n    address private secaas;\n    address[] private participants;\n    bytes32[] private attestationChain; // Store all attestation IDs\n    uint256 public freshnessWindow = 3600; // in seconds\n    uint256 public rrIndex;\n\n    // Define mappings to store data\n    mapping(address => uint256) private lastSuccess;\n    mapping(address => Agent) private agent;\n    mapping(bytes32 => MutualAttestation) private attestation;\n    mapping(address => uint256) private indexOf;\n\n\n    // Define events\n    event AgentRegistered(address agent);\n    event AgentRemoved(address agent);\n    event AttestationStarted(bytes32 id);\n    event ReadyForEvaluation(bytes32 id);\n    event AttestationCompleted(bytes32 id);\n    event ChainReset();\n\n    constructor() {\n        secaas = msg.sender;\n        participants.push(secaas);\n        indexOf[secaas] = 0;\n    }\n\n    function ResetChain() public {\n        require(msg.sender == secaas, \"Only the SECaaS can reset the chain\");\n\n        delete attestationChain;\n        rrIndex = 0;\n        \n        emit ChainReset();\n    }    \n\n    function RegisterAgent(bytes16 uuid) public {\n        require(uuid != bytes16(0), \"UUID is not valid\");\n        Agent storage currentAgent = agent[msg.sender];\n        require(!currentAgent.registered, \"Agent already registered\");\n        currentAgent.uuid = uuid;\n        currentAgent.registered = true;\n        indexOf[msg.sender] = participants.length;\n        participants.push(msg.sender);\n        emit AgentRegistered(msg.sender);\n    }\n\n    function RemoveAgent() public {\n        Agent storage currentAgent = agent[msg.sender];\n        require(currentAgent.registered, \"RemoveAgent : Agent is not registered\");\n        \n        uint idx = indexOf[msg.sender];\n        address last = participants[participants.length - 1];\n        participants[idx] = last;\n        indexOf[last] = idx;\n        participants.pop();\n\n        delete indexOf[msg.sender];\n        delete currentAgent.completedAttestations;\n        delete agent[msg.sender];\n        emit AgentRemoved(msg.sender);\n    }\n\n    function ElectVerifier(address prover) internal returns (address) {\n        address[] memory freshList = new address[](participants.length);\n        uint count = 0;\n        for (uint i = 0; i < participants.length; i++) {\n            address cand = participants[i];\n            if (\n                cand != prover &&\n                lastSuccess[cand] != 0\n                // block.timestamp - lastSuccess[cand] <= freshnessWindow\n            ) {\n                freshList[count++] = cand;\n            }\n        }\n\n        if (count == 0) {\n            return secaas;\n        }\n\n        address selected = freshList[rrIndex % count];\n        rrIndex++;\n        return selected;\n    }\n\n    function GetAgentInfo(address agentAddress, address callAddress) public view returns (bytes16, bool, bytes32[] memory) {\n        Agent storage currentAgent = agent[callAddress];\n        Agent storage agentToFind = agent[agentAddress];\n        require(currentAgent.registered || callAddress == secaas, \"GetAgentInfo : Agent is not registered\");\n        return (agentToFind.uuid, agentToFind.registered, agentToFind.completedAttestations);\n    } \n\n\n    function RequestAttestation(bytes32 id, bytes32 freshMeasurement) public {\n        Agent storage currentAgent = agent[msg.sender];\n        require(currentAgent.registered, \"RequestAttestation : Agent is not registered\");\n\n        MutualAttestation storage currentAttestation = attestation[id];\n        currentAttestation.id = id;\n        currentAttestation.verifier = ElectVerifier(msg.sender);\n        currentAttestation.prover = msg.sender;\n        currentAttestation.fresh_signature = freshMeasurement;\n        currentAttestation.ref_signature = bytes32(0);\n        currentAttestation.state = AttestationState.Open;\n        currentAttestation.result = AttestationResult.None;\n        currentAttestation.timestamp = 0; \n\n        emit AttestationStarted(id);\n    }\n\n    function GetProverUUID(bytes32 id, address callAddress) public view returns (bytes16) {\n        require(callAddress == secaas, \"You are not the SECaaS.\");\n        MutualAttestation storage currentAttestation = attestation[id];\n        require(currentAttestation.state == AttestationState.Open, \"Attestation is closed or not exists\");\n        address proverAgentAddress = currentAttestation.prover;\n        Agent storage currentAgent = agent[proverAgentAddress];\n        return (currentAgent.uuid);\n    }     \n\n    function SendRefSignaure(bytes32 id, bytes32 measurement) public returns (bool) {\n        require(msg.sender == secaas, \"Only the SECaaS can send the reference signature\");\n        \n        MutualAttestation storage currentAttestation = attestation[id];\n        require(currentAttestation.state == AttestationState.Open, \"Invalid state for SECaaS response\");\n        \n        currentAttestation.ref_signature = measurement;\n        currentAttestation.state = AttestationState.ReadyForEvaluation;\n\n        emit ReadyForEvaluation(id);\n        return true;\n    }\n\n    function GetAttestationMeasurements(bytes32 id, address callAddress) public view returns (bytes32, bytes32) {\n        MutualAttestation storage currentAttestation = attestation[id];\n        require(currentAttestation.verifier == callAddress, \"Only the verifier can retrieve the signatures\");\n        require(currentAttestation.state == AttestationState.ReadyForEvaluation, \"Attestation process is not completed\");\n        return (currentAttestation.fresh_signature, currentAttestation.ref_signature);\n    }\n\n    function GetAttestationInfo(bytes32 id) public view returns (address, address, AttestationResult, uint256) {\n        MutualAttestation storage currentAttestation = attestation[id];\n        require(currentAttestation.state == AttestationState.Closed, \"Attestation process is not closed\");\n        return (currentAttestation.prover, currentAttestation.verifier, currentAttestation.result, currentAttestation.timestamp);\n    }\n\n    function GetAttestationState(bytes32 id) public view returns (AttestationState) {\n        return attestation[id].state;\n    }\n\n    function GetAttestationChain() public view returns (bytes32[] memory) {\n        return attestationChain;\n    }\n\n    function CloseAttestationProcess(bytes32 id, bool verified) public returns (bool) {\n        MutualAttestation storage currentAttestation = attestation[id];\n        require(currentAttestation.verifier == msg.sender, \"Only the verifier can close the attestation process\");\n        require(currentAttestation.state == AttestationState.ReadyForEvaluation, \"Attestation is not ready for closure\");\n        \n        currentAttestation.state = AttestationState.Closed;\n        currentAttestation.timestamp = block.timestamp; // Store closure timestamp\n        Agent storage proverAgent = agent[currentAttestation.prover];\n\n        if (verified) {\n            currentAttestation.result = AttestationResult.Success;\n            lastSuccess[currentAttestation.prover] = block.timestamp;\n        } else {\n            currentAttestation.result = AttestationResult.Failure;\n        }\n\n        // Store attestation history for the prover only\n        proverAgent.completedAttestations.push(id);\n\n        // Store attestation history for all agents\n        attestationChain.push(id);\n\n        emit AttestationCompleted(id);\n        return true;\n    }\n\n    function IsProver(bytes32 id, address callAddress) public view returns (bool) {\n        MutualAttestation storage currentAttestation = attestation[id];\n        require(currentAttestation.state != AttestationState.Closed, \"Attestation process is closed or not exists\");\n        return currentAttestation.prover == callAddress;\n    }\n\n    function IsVerifier(bytes32 id, address callAddress) public view returns (bool) {\n        MutualAttestation storage currentAttestation = attestation[id];\n        require(currentAttestation.state != AttestationState.Closed, \"Attestation process is closed or not exists\");\n        return currentAttestation.verifier == callAddress;\n    }\n\n}\n",
  "sourcePath": "/smart-contracts/contracts/MasMutualAttestation.sol",
  "compiler": {
    "name": "solc",
    "version": "0.8.0+commit.c7dfd78e.Emscripten.clang"
  },
  "schemaVersion": "3.4.16",
  "updatedAt": "2025-08-02T10:47:20.345Z",
  "networkType": "ethereum",
  "devdoc": {
    "kind": "dev",
    "methods": {},
    "version": 1
  },
  "userdoc": {
    "kind": "user",
    "methods": {},
    "version": 1
  }
}