{
  "contractName": "MasMutualAttestation",
  "abi": [
    {
      "inputs": [],
      "stateMutability": "nonpayable",
      "type": "constructor"
    },
    {
      "anonymous": false,
      "inputs": [
        {
          "indexed": false,
          "internalType": "address",
          "name": "agent",
          "type": "address"
        }
      ],
      "name": "AgentRegistered",
      "type": "event"
    },
    {
      "anonymous": false,
      "inputs": [
        {
          "indexed": false,
          "internalType": "address",
          "name": "agent",
          "type": "address"
        }
      ],
      "name": "AgentRemoved",
      "type": "event"
    },
    {
      "anonymous": false,
      "inputs": [
        {
          "indexed": false,
          "internalType": "bytes32",
          "name": "id",
          "type": "bytes32"
        }
      ],
      "name": "AttestationCompleted",
      "type": "event"
    },
    {
      "anonymous": false,
      "inputs": [
        {
          "indexed": false,
          "internalType": "bytes32",
          "name": "id",
          "type": "bytes32"
        }
      ],
      "name": "AttestationStarted",
      "type": "event"
    },
    {
      "anonymous": false,
      "inputs": [],
      "name": "ChainReset",
      "type": "event"
    },
    {
      "anonymous": false,
      "inputs": [
        {
          "indexed": false,
          "internalType": "bytes32",
          "name": "id",
          "type": "bytes32"
        }
      ],
      "name": "ProverResponded",
      "type": "event"
    },
    {
      "anonymous": false,
      "inputs": [
        {
          "indexed": false,
          "internalType": "bytes32",
          "name": "id",
          "type": "bytes32"
        }
      ],
      "name": "ReadyForEvaluation",
      "type": "event"
    },
    {
      "anonymous": false,
      "inputs": [
        {
          "indexed": false,
          "internalType": "bytes32",
          "name": "id",
          "type": "bytes32"
        }
      ],
      "name": "SecaasResponded",
      "type": "event"
    },
    {
      "inputs": [],
      "name": "freshnessWindow",
      "outputs": [
        {
          "internalType": "uint256",
          "name": "",
          "type": "uint256"
        }
      ],
      "stateMutability": "view",
      "type": "function",
      "constant": true
    },
    {
      "inputs": [],
      "name": "rrIndex",
      "outputs": [
        {
          "internalType": "uint256",
          "name": "",
          "type": "uint256"
        }
      ],
      "stateMutability": "view",
      "type": "function",
      "constant": true
    },
    {
      "inputs": [],
      "name": "ResetChain",
      "outputs": [],
      "stateMutability": "nonpayable",
      "type": "function"
    },
    {
      "inputs": [
        {
          "internalType": "bytes16",
          "name": "uuid",
          "type": "bytes16"
        }
      ],
      "name": "RegisterAgent",
      "outputs": [],
      "stateMutability": "nonpayable",
      "type": "function"
    },
    {
      "inputs": [],
      "name": "RemoveAgent",
      "outputs": [],
      "stateMutability": "nonpayable",
      "type": "function"
    },
    {
      "inputs": [
        {
          "internalType": "address",
          "name": "agentAddress",
          "type": "address"
        },
        {
          "internalType": "address",
          "name": "callAddress",
          "type": "address"
        }
      ],
      "name": "GetAgentInfo",
      "outputs": [
        {
          "internalType": "bytes16",
          "name": "",
          "type": "bytes16"
        },
        {
          "internalType": "bool",
          "name": "",
          "type": "bool"
        },
        {
          "internalType": "bytes32[]",
          "name": "",
          "type": "bytes32[]"
        }
      ],
      "stateMutability": "view",
      "type": "function",
      "constant": true
    },
    {
      "inputs": [],
      "name": "RequestAttestation",
      "outputs": [],
      "stateMutability": "nonpayable",
      "type": "function"
    },
    {
      "inputs": [
        {
          "internalType": "bytes32",
          "name": "id",
          "type": "bytes32"
        },
        {
          "internalType": "address",
          "name": "callAddress",
          "type": "address"
        }
      ],
      "name": "GetProverUUID",
      "outputs": [
        {
          "internalType": "bytes16",
          "name": "",
          "type": "bytes16"
        }
      ],
      "stateMutability": "view",
      "type": "function",
      "constant": true
    },
    {
      "inputs": [
        {
          "internalType": "bytes32",
          "name": "id",
          "type": "bytes32"
        },
        {
          "internalType": "bytes32",
          "name": "measurement",
          "type": "bytes32"
        }
      ],
      "name": "SendFreshSignaure",
      "outputs": [
        {
          "internalType": "bool",
          "name": "",
          "type": "bool"
        }
      ],
      "stateMutability": "nonpayable",
      "type": "function"
    },
    {
      "inputs": [
        {
          "internalType": "bytes32",
          "name": "id",
          "type": "bytes32"
        },
        {
          "internalType": "bytes32",
          "name": "measurement",
          "type": "bytes32"
        }
      ],
      "name": "SendRefSignaure",
      "outputs": [
        {
          "internalType": "bool",
          "name": "",
          "type": "bool"
        }
      ],
      "stateMutability": "nonpayable",
      "type": "function"
    },
    {
      "inputs": [
        {
          "internalType": "bytes32",
          "name": "id",
          "type": "bytes32"
        },
        {
          "internalType": "address",
          "name": "callAddress",
          "type": "address"
        }
      ],
      "name": "GetAttestationMeasurements",
      "outputs": [
        {
          "internalType": "bytes32",
          "name": "",
          "type": "bytes32"
        },
        {
          "internalType": "bytes32",
          "name": "",
          "type": "bytes32"
        }
      ],
      "stateMutability": "view",
      "type": "function",
      "constant": true
    },
    {
      "inputs": [
        {
          "internalType": "bytes32",
          "name": "id",
          "type": "bytes32"
        }
      ],
      "name": "GetAttestationInfo",
      "outputs": [
        {
          "internalType": "address",
          "name": "",
          "type": "address"
        },
        {
          "internalType": "address",
          "name": "",
          "type": "address"
        },
        {
          "internalType": "enum MasMutualAttestation.AttestationResult",
          "name": "",
          "type": "uint8"
        },
        {
          "internalType": "uint256",
          "name": "",
          "type": "uint256"
        }
      ],
      "stateMutability": "view",
      "type": "function",
      "constant": true
    },
    {
      "inputs": [
        {
          "internalType": "bytes32",
          "name": "id",
          "type": "bytes32"
        }
      ],
      "name": "GetAttestationState",
      "outputs": [
        {
          "internalType": "enum MasMutualAttestation.AttestationState",
          "name": "",
          "type": "uint8"
        }
      ],
      "stateMutability": "view",
      "type": "function",
      "constant": true
    },
    {
      "inputs": [],
      "name": "GetAttestationChain",
      "outputs": [
        {
          "internalType": "bytes32[]",
          "name": "",
          "type": "bytes32[]"
        }
      ],
      "stateMutability": "view",
      "type": "function",
      "constant": true
    },
    {
      "inputs": [
        {
          "internalType": "bytes32",
          "name": "id",
          "type": "bytes32"
        },
        {
          "internalType": "bool",
          "name": "verified",
          "type": "bool"
        }
      ],
      "name": "CloseAttestationProcess",
      "outputs": [
        {
          "internalType": "bool",
          "name": "",
          "type": "bool"
        }
      ],
      "stateMutability": "nonpayable",
      "type": "function"
    },
    {
      "inputs": [
        {
          "internalType": "bytes32",
          "name": "id",
          "type": "bytes32"
        },
        {
          "internalType": "address",
          "name": "callAddress",
          "type": "address"
        }
      ],
      "name": "IsProver",
      "outputs": [
        {
          "internalType": "bool",
          "name": "",
          "type": "bool"
        }
      ],
      "stateMutability": "view",
      "type": "function",
      "constant": true
    },
    {
      "inputs": [
        {
          "internalType": "bytes32",
          "name": "id",
          "type": "bytes32"
        },
        {
          "internalType": "address",
          "name": "callAddress",
          "type": "address"
        }
      ],
      "name": "IsVerifier",
      "outputs": [
        {
          "internalType": "bool",
          "name": "",
          "type": "bool"
        }
      ],
      "stateMutability": "view",
      "type": "function",
      "constant": true
    }
  ],
  "bytecode": "0x6080604052610e1060035534801561001657600080fd5b50336000806101000a81548173ffffffffffffffffffffffffffffffffffffffff021916908373ffffffffffffffffffffffffffffffffffffffff160217905550600160008054906101000a900473ffffffffffffffffffffffffffffffffffffffff169080600181540180825580915050600190039060005260206000200160009091909190916101000a81548173ffffffffffffffffffffffffffffffffffffffff021916908373ffffffffffffffffffffffffffffffffffffffff1602179055506000600860008060009054906101000a900473ffffffffffffffffffffffffffffffffffffffff1673ffffffffffffffffffffffffffffffffffffffff1673ffffffffffffffffffffffffffffffffffffffff168152602001908152602001600020819055506134188061014f6000396000f3fe608060405234801561001057600080fd5b506004361061010b5760003560e01c806393506aa6116100a2578063bc1a097e11610071578063bc1a097e146102d2578063cb2a034814610304578063d5dd167b14610334578063e2021cf914610364578063f21776fc146103805761010b565b806393506aa61461023657806396efe85214610254578063b46ca81a14610272578063b8df8f98146102a25761010b565b80635f3d4220116100de5780635f3d4220146101ab5780636c8a3160146101de57806378caad491461020e57806381880fd3146102185761010b565b80631d995a0e146101105780632562f1c61461011a578063395d719b1461014b5780635455cddd1461017b575b600080fd5b61011861038a565b005b610134600480360381019061012f91906125c8565b610726565b604051610142929190612e77565b60405180910390f35b610165600480360381019061016091906125c8565b6108ac565b6040516101729190612de8565b60405180910390f35b61019560048036038101906101909190612640565b6109e4565b6040516101a29190612de8565b60405180910390f35b6101c560048036038101906101c0919061259f565b610d94565b6040516101d59493929190612d81565b60405180910390f35b6101f860048036038101906101f39190612640565b610ee5565b6040516102059190612de8565b60405180910390f35b610216611297565b005b610220611369565b60405161022d91906130bb565b60405180910390f35b61023e61136f565b60405161024b91906130bb565b60405180910390f35b61025c611375565b6040516102699190612dc6565b60405180910390f35b61028c600480360381019061028791906125c8565b6113cd565b6040516102999190612de8565b60405180910390f35b6102bc60048036038101906102b7919061259f565b611505565b6040516102c99190612ea0565b60405180910390f35b6102ec60048036038101906102e7919061253a565b611532565b6040516102fb93929190612e1e565b60405180910390f35b61031e60048036038101906103199190612604565b6116ed565b60405161032b9190612de8565b60405180910390f35b61034e600480360381019061034991906125c8565b611acf565b60405161035b9190612e03565b60405180910390f35b61037e60048036038101906103799190612576565b611d50565b005b610388611f82565b005b6000600660003373ffffffffffffffffffffffffffffffffffffffff1673ffffffffffffffffffffffffffffffffffffffff16815260200190815260200160002090508060000160109054906101000a900460ff1661041e576040517f08c379a000000000000000000000000000000000000000000000000000000000815260040161041590612edb565b60405180910390fd5b6000600860003373ffffffffffffffffffffffffffffffffffffffff1673ffffffffffffffffffffffffffffffffffffffff168152602001908152602001600020549050600060018080805490506104769190613120565b815481106104ad577f4e487b7100000000000000000000000000000000000000000000000000000000600052603260045260246000fd5b9060005260206000200160009054906101000a900473ffffffffffffffffffffffffffffffffffffffff1690508060018381548110610515577f4e487b7100000000000000000000000000000000000000000000000000000000600052603260045260246000fd5b9060005260206000200160006101000a81548173ffffffffffffffffffffffffffffffffffffffff021916908373ffffffffffffffffffffffffffffffffffffffff16021790555081600860008373ffffffffffffffffffffffffffffffffffffffff1673ffffffffffffffffffffffffffffffffffffffff1681526020019081526020016000208190555060018054806105d9577f4e487b7100000000000000000000000000000000000000000000000000000000600052603160045260246000fd5b6001900381819060005260206000200160006101000a81549073ffffffffffffffffffffffffffffffffffffffff02191690559055600860003373ffffffffffffffffffffffffffffffffffffffff1673ffffffffffffffffffffffffffffffffffffffff1681526020019081526020016000206000905582600101600061066191906124a8565b600660003373ffffffffffffffffffffffffffffffffffffffff1673ffffffffffffffffffffffffffffffffffffffff168152602001908152602001600020600080820160006101000a8154906fffffffffffffffffffffffffffffffff02191690556000820160106101000a81549060ff02191690556001820160006106e891906124a8565b50507fed9c8ad8d5a0a66898ea49d2956929c93ae2e8bd50281b2ed897c5d1a6737e0b336040516107199190612d66565b60405180910390a1505050565b60008060006007600086815260200190815260200160002090508373ffffffffffffffffffffffffffffffffffffffff168160010160009054906101000a900473ffffffffffffffffffffffffffffffffffffffff1673ffffffffffffffffffffffffffffffffffffffff16146107d2576040517f08c379a00000000000000000000000000000000000000000000000000000000081526004016107c990612fbb565b60405180910390fd5b6003600481111561080c577f4e487b7100000000000000000000000000000000000000000000000000000000600052602160045260246000fd5b8160050160009054906101000a900460ff166004811115610856577f4e487b7100000000000000000000000000000000000000000000000000000000600052602160045260246000fd5b14610896576040517f08c379a000000000000000000000000000000000000000000000000000000000815260040161088d90612fdb565b60405180910390fd5b8060030154816004015492509250509250929050565b6000806007600085815260200190815260200160002090506004808111156108fd577f4e487b7100000000000000000000000000000000000000000000000000000000600052602160045260246000fd5b8160050160009054906101000a900460ff166004811115610947577f4e487b7100000000000000000000000000000000000000000000000000000000600052602160045260246000fd5b1415610988576040517f08c379a000000000000000000000000000000000000000000000000000000000815260040161097f90612f5b565b60405180910390fd5b8273ffffffffffffffffffffffffffffffffffffffff168160020160009054906101000a900473ffffffffffffffffffffffffffffffffffffffff1673ffffffffffffffffffffffffffffffffffffffff161491505092915050565b60008060009054906101000a900473ffffffffffffffffffffffffffffffffffffffff1673ffffffffffffffffffffffffffffffffffffffff163373ffffffffffffffffffffffffffffffffffffffff1614610a75576040517f08c379a0000000000000000000000000000000000000000000000000000000008152600401610a6c90612f7b565b60405180910390fd5b600060076000858152602001908152602001600020905060006004811115610ac6577f4e487b7100000000000000000000000000000000000000000000000000000000600052602160045260246000fd5b8160050160009054906101000a900460ff166004811115610b10577f4e487b7100000000000000000000000000000000000000000000000000000000600052602160045260246000fd5b1480610b9d575060026004811115610b51577f4e487b7100000000000000000000000000000000000000000000000000000000600052602160045260246000fd5b8160050160009054906101000a900460ff166004811115610b9b577f4e487b7100000000000000000000000000000000000000000000000000000000600052602160045260246000fd5b145b610bdc576040517f08c379a0000000000000000000000000000000000000000000000000000000008152600401610bd390612ffb565b60405180910390fd5b82816004018190555060026004811115610c1f577f4e487b7100000000000000000000000000000000000000000000000000000000600052602160045260246000fd5b8160050160009054906101000a900460ff166004811115610c69577f4e487b7100000000000000000000000000000000000000000000000000000000600052602160045260246000fd5b1415610cfe5760038160050160006101000a81548160ff02191690836004811115610cbd577f4e487b7100000000000000000000000000000000000000000000000000000000600052602160045260246000fd5b02179055507f6781e8d3c07e87e938ec28a5435aa7862779fb9c7d01b7315eca91430b2a464384604051610cf19190612e5c565b60405180910390a1610d89565b60018160050160006101000a81548160ff02191690836004811115610d4c577f4e487b7100000000000000000000000000000000000000000000000000000000600052602160045260246000fd5b02179055507ff135c13100e80427b9d26850c8b0122e461f63682f88f2f7fd137da6c1c74c2d84604051610d809190612e5c565b60405180910390a15b600191505092915050565b6000806000806000600760008781526020019081526020016000209050600480811115610dea577f4e487b7100000000000000000000000000000000000000000000000000000000600052602160045260246000fd5b8160050160009054906101000a900460ff166004811115610e34577f4e487b7100000000000000000000000000000000000000000000000000000000600052602160045260246000fd5b14610e74576040517f08c379a0000000000000000000000000000000000000000000000000000000008152600401610e6b90612efb565b60405180910390fd5b8060020160009054906101000a900473ffffffffffffffffffffffffffffffffffffffff168160010160009054906101000a900473ffffffffffffffffffffffffffffffffffffffff168260050160019054906101000a900460ff1683600601549450945094509450509193509193565b60008060076000858152602001908152602001600020905060006004811115610f37577f4e487b7100000000000000000000000000000000000000000000000000000000600052602160045260246000fd5b8160050160009054906101000a900460ff166004811115610f81577f4e487b7100000000000000000000000000000000000000000000000000000000600052602160045260246000fd5b148061100e575060016004811115610fc2577f4e487b7100000000000000000000000000000000000000000000000000000000600052602160045260246000fd5b8160050160009054906101000a900460ff16600481111561100c577f4e487b7100000000000000000000000000000000000000000000000000000000600052602160045260246000fd5b145b61104d576040517f08c379a00000000000000000000000000000000000000000000000000000000081526004016110449061307b565b60405180910390fd5b3373ffffffffffffffffffffffffffffffffffffffff168160020160009054906101000a900473ffffffffffffffffffffffffffffffffffffffff1673ffffffffffffffffffffffffffffffffffffffff16146110df576040517f08c379a00000000000000000000000000000000000000000000000000000000081526004016110d69061301b565b60405180910390fd5b82816003018190555060016004811115611122577f4e487b7100000000000000000000000000000000000000000000000000000000600052602160045260246000fd5b8160050160009054906101000a900460ff16600481111561116c577f4e487b7100000000000000000000000000000000000000000000000000000000600052602160045260246000fd5b14156112015760038160050160006101000a81548160ff021916908360048111156111c0577f4e487b7100000000000000000000000000000000000000000000000000000000600052602160045260246000fd5b02179055507f6781e8d3c07e87e938ec28a5435aa7862779fb9c7d01b7315eca91430b2a4643846040516111f49190612e5c565b60405180910390a161128c565b60028160050160006101000a81548160ff0219169083600481111561124f577f4e487b7100000000000000000000000000000000000000000000000000000000600052602160045260246000fd5b02179055507ff69c881f9131038a4acd7e75ad695e1faa1b714d02f44b7ae9b2184457bf5167846040516112839190612e5c565b60405180910390a15b600191505092915050565b60008054906101000a900473ffffffffffffffffffffffffffffffffffffffff1673ffffffffffffffffffffffffffffffffffffffff163373ffffffffffffffffffffffffffffffffffffffff1614611325576040517f08c379a000000000000000000000000000000000000000000000000000000000815260040161131c90612f3b565b60405180910390fd5b6002600061133391906124a8565b60006004819055507f8e1dda8e7ca889ef4bd70f2ff6dd48a9b896b1d89703a08b6385333045af148960405160405180910390a1565b60035481565b60045481565b606060028054806020026020016040519081016040528092919081815260200182805480156113c357602002820191906000526020600020905b8154815260200190600101908083116113af575b5050505050905090565b60008060076000858152602001908152602001600020905060048081111561141e577f4e487b7100000000000000000000000000000000000000000000000000000000600052602160045260246000fd5b8160050160009054906101000a900460ff166004811115611468577f4e487b7100000000000000000000000000000000000000000000000000000000600052602160045260246000fd5b14156114a9576040517f08c379a00000000000000000000000000000000000000000000000000000000081526004016114a090612f5b565b60405180910390fd5b8273ffffffffffffffffffffffffffffffffffffffff168160010160009054906101000a900473ffffffffffffffffffffffffffffffffffffffff1673ffffffffffffffffffffffffffffffffffffffff161491505092915050565b60006007600083815260200190815260200160002060050160009054906101000a900460ff169050919050565b60008060606000600660008673ffffffffffffffffffffffffffffffffffffffff1673ffffffffffffffffffffffffffffffffffffffff16815260200190815260200160002090506000600660008873ffffffffffffffffffffffffffffffffffffffff1673ffffffffffffffffffffffffffffffffffffffff16815260200190815260200160002090508160000160109054906101000a900460ff1680611625575060008054906101000a900473ffffffffffffffffffffffffffffffffffffffff1673ffffffffffffffffffffffffffffffffffffffff168673ffffffffffffffffffffffffffffffffffffffff16145b611664576040517f08c379a000000000000000000000000000000000000000000000000000000000815260040161165b90612edb565b60405180910390fd5b8060000160009054906101000a900460801b8160000160109054906101000a900460ff1682600101808054806020026020016040519081016040528092919081815260200182805480156116d757602002820191906000526020600020905b8154815260200190600101908083116116c3575b5050505050905094509450945050509250925092565b6000806007600085815260200190815260200160002090503373ffffffffffffffffffffffffffffffffffffffff168160010160009054906101000a900473ffffffffffffffffffffffffffffffffffffffff1673ffffffffffffffffffffffffffffffffffffffff1614611797576040517f08c379a000000000000000000000000000000000000000000000000000000000815260040161178e9061309b565b60405180910390fd5b600360048111156117d1577f4e487b7100000000000000000000000000000000000000000000000000000000600052602160045260246000fd5b8160050160009054906101000a900460ff16600481111561181b577f4e487b7100000000000000000000000000000000000000000000000000000000600052602160045260246000fd5b1461185b576040517f08c379a000000000000000000000000000000000000000000000000000000000815260040161185290612ebb565b60405180910390fd5b60048160050160006101000a81548160ff021916908360048111156118a9577f4e487b7100000000000000000000000000000000000000000000000000000000600052602160045260246000fd5b02179055504281600601819055506000600660008360020160009054906101000a900473ffffffffffffffffffffffffffffffffffffffff1673ffffffffffffffffffffffffffffffffffffffff1673ffffffffffffffffffffffffffffffffffffffff168152602001908152602001600020905083156119e45760028260050160016101000a81548160ff02191690836002811115611972577f4e487b7100000000000000000000000000000000000000000000000000000000600052602160045260246000fd5b021790555042600560008460020160009054906101000a900473ffffffffffffffffffffffffffffffffffffffff1673ffffffffffffffffffffffffffffffffffffffff1673ffffffffffffffffffffffffffffffffffffffff16815260200190815260200160002081905550611a38565b60018260050160016101000a81548160ff02191690836002811115611a32577f4e487b7100000000000000000000000000000000000000000000000000000000600052602160045260246000fd5b02179055505b8060010185908060018154018082558091505060019003906000526020600020016000909190919091505560028590806001815401808255809150506001900390600052602060002001600090919091909150557f31a3cf273cd0e82f8ddb4be15d4b954d7fcd18a4c5d4591cce32edd1a4bc417d85604051611abb9190612e5c565b60405180910390a160019250505092915050565b60008060009054906101000a900473ffffffffffffffffffffffffffffffffffffffff1673ffffffffffffffffffffffffffffffffffffffff168273ffffffffffffffffffffffffffffffffffffffff1614611b60576040517f08c379a0000000000000000000000000000000000000000000000000000000008152600401611b579061305b565b60405180910390fd5b600060076000858152602001908152602001600020905060006004811115611bb1577f4e487b7100000000000000000000000000000000000000000000000000000000600052602160045260246000fd5b8160050160009054906101000a900460ff166004811115611bfb577f4e487b7100000000000000000000000000000000000000000000000000000000600052602160045260246000fd5b1480611c88575060026004811115611c3c577f4e487b7100000000000000000000000000000000000000000000000000000000600052602160045260246000fd5b8160050160009054906101000a900460ff166004811115611c86577f4e487b7100000000000000000000000000000000000000000000000000000000600052602160045260246000fd5b145b611cc7576040517f08c379a0000000000000000000000000000000000000000000000000000000008152600401611cbe90612f9b565b60405180910390fd5b60008160020160009054906101000a900473ffffffffffffffffffffffffffffffffffffffff1690506000600660008373ffffffffffffffffffffffffffffffffffffffff1673ffffffffffffffffffffffffffffffffffffffff16815260200190815260200160002090508060000160009054906101000a900460801b935050505092915050565b600060801b6fffffffffffffffffffffffffffffffff1916816fffffffffffffffffffffffffffffffff19161415611dbd576040517f08c379a0000000000000000000000000000000000000000000000000000000008152600401611db49061303b565b60405180910390fd5b6000600660003373ffffffffffffffffffffffffffffffffffffffff1673ffffffffffffffffffffffffffffffffffffffff16815260200190815260200160002090508060000160109054906101000a900460ff1615611e52576040517f08c379a0000000000000000000000000000000000000000000000000000000008152600401611e4990612f1b565b60405180910390fd5b818160000160006101000a8154816fffffffffffffffffffffffffffffffff021916908360801c021790555060018160000160106101000a81548160ff021916908315150217905550600180549050600860003373ffffffffffffffffffffffffffffffffffffffff1673ffffffffffffffffffffffffffffffffffffffff168152602001908152602001600020819055506001339080600181540180825580915050600190039060005260206000200160009091909190916101000a81548173ffffffffffffffffffffffffffffffffffffffff021916908373ffffffffffffffffffffffffffffffffffffffff1602179055507f82d0829d9d481e4cb9913897f9b9c903271c4db68c7b3324071d2a7e3b2c5ff033604051611f769190612d66565b60405180910390a15050565b6000600660003373ffffffffffffffffffffffffffffffffffffffff1673ffffffffffffffffffffffffffffffffffffffff16815260200190815260200160002090508060000160109054906101000a900460ff16612016576040517f08c379a000000000000000000000000000000000000000000000000000000000815260040161200d90612edb565b60405180910390fd5b6000334260405160200161202b929190612d3a565b604051602081830303815290604052805190602001209050600060076000838152602001908152602001600020905081816000018190555061206c336121f5565b8160010160006101000a81548173ffffffffffffffffffffffffffffffffffffffff021916908373ffffffffffffffffffffffffffffffffffffffff160217905550338160020160006101000a81548173ffffffffffffffffffffffffffffffffffffffff021916908373ffffffffffffffffffffffffffffffffffffffff1602179055506000801b81600301819055506000801b816004018190555060008160050160006101000a81548160ff02191690836004811115612157577f4e487b7100000000000000000000000000000000000000000000000000000000600052602160045260246000fd5b021790555060008160050160016101000a81548160ff021916908360028111156121aa577f4e487b7100000000000000000000000000000000000000000000000000000000600052602160045260246000fd5b0217905550600081600601819055507fd32f85071e05721b8a1c63d5cad1fe3525ec0a11fd5b7760b6a82d7f6be7d283826040516121e89190612e5c565b60405180910390a1505050565b60008060018054905067ffffffffffffffff81111561223d577f4e487b7100000000000000000000000000000000000000000000000000000000600052604160045260246000fd5b60405190808252806020026020018201604052801561226b5781602001602082028036833780820191505090505b5090506000805b6001805490508110156123fe576000600182815481106122bb577f4e487b7100000000000000000000000000000000000000000000000000000000600052603260045260246000fd5b9060005260206000200160009054906101000a900473ffffffffffffffffffffffffffffffffffffffff1690508573ffffffffffffffffffffffffffffffffffffffff168173ffffffffffffffffffffffffffffffffffffffff161415801561236457506000600560008373ffffffffffffffffffffffffffffffffffffffff1673ffffffffffffffffffffffffffffffffffffffff1681526020019081526020016000205414155b156123ea57808484806123769061321c565b9550815181106123af577f4e487b7100000000000000000000000000000000000000000000000000000000600052603260045260246000fd5b602002602001019073ffffffffffffffffffffffffffffffffffffffff16908173ffffffffffffffffffffffffffffffffffffffff16815250505b5080806123f69061321c565b915050612272565b5060008114156124325760008054906101000a900473ffffffffffffffffffffffffffffffffffffffff16925050506124a3565b600082826004546124439190613293565b8151811061247a577f4e487b7100000000000000000000000000000000000000000000000000000000600052603260045260246000fd5b60200260200101519050600460008154809291906124979061321c565b91905055508093505050505b919050565b50805460008255906000526020600020908101906124c691906124c9565b50565b5b808211156124e25760008160009055506001016124ca565b5090565b6000813590506124f581613386565b92915050565b60008135905061250a8161339d565b92915050565b60008135905061251f816133b4565b92915050565b600081359050612534816133cb565b92915050565b6000806040838503121561254d57600080fd5b600061255b858286016124e6565b925050602061256c858286016124e6565b9150509250929050565b60006020828403121561258857600080fd5b600061259684828501612510565b91505092915050565b6000602082840312156125b157600080fd5b60006125bf84828501612525565b91505092915050565b600080604083850312156125db57600080fd5b60006125e985828601612525565b92505060206125fa858286016124e6565b9150509250929050565b6000806040838503121561261757600080fd5b600061262585828601612525565b9250506020612636858286016124fb565b9150509250929050565b6000806040838503121561265357600080fd5b600061266185828601612525565b925050602061267285828601612525565b9150509250929050565b60006126888383612736565b60208301905092915050565b61269d81613154565b82525050565b6126b46126af82613154565b613265565b82525050565b60006126c5826130e6565b6126cf81856130fe565b93506126da836130d6565b8060005b8381101561270b5781516126f2888261267c565b97506126fd836130f1565b9250506001810190506126de565b5085935050505092915050565b61272181613166565b82525050565b61273081613172565b82525050565b61273f8161319e565b82525050565b61274e8161319e565b82525050565b61275d816131f8565b82525050565b61276c8161320a565b82525050565b600061277f60248361310f565b91507f4174746573746174696f6e206973206e6f7420726561647920666f7220636c6f60008301527f73757265000000000000000000000000000000000000000000000000000000006020830152604082019050919050565b60006127e560178361310f565b91507f4167656e74206973206e6f7420726567697374657265640000000000000000006000830152602082019050919050565b600061282560218361310f565b91507f4174746573746174696f6e2070726f63657373206973206e6f7420636c6f736560008301527f64000000000000000000000000000000000000000000000000000000000000006020830152604082019050919050565b600061288b60188361310f565b91507f4167656e7420616c7265616479207265676973746572656400000000000000006000830152602082019050919050565b60006128cb60238361310f565b91507f4f6e6c7920746865205345436161532063616e2072657365742074686520636860008301527f61696e00000000000000000000000000000000000000000000000000000000006020830152604082019050919050565b6000612931602b8361310f565b91507f4174746573746174696f6e2070726f6365737320697320636c6f736564206f7260008301527f206e6f74206578697374730000000000000000000000000000000000000000006020830152604082019050919050565b600061299760308361310f565b91507f4f6e6c7920746865205345436161532063616e2073656e64207468652072656660008301527f6572656e6365207369676e6174757265000000000000000000000000000000006020830152604082019050919050565b60006129fd60238361310f565b91507f4174746573746174696f6e20697320636c6f736564206f72206e6f742065786960008301527f73747300000000000000000000000000000000000000000000000000000000006020830152604082019050919050565b6000612a63602d8361310f565b91507f4f6e6c79207468652076657269666965722063616e207265747269657665207460008301527f6865207369676e617475726573000000000000000000000000000000000000006020830152604082019050919050565b6000612ac960248361310f565b91507f4174746573746174696f6e2070726f63657373206973206e6f7420636f6d706c60008301527f65746564000000000000000000000000000000000000000000000000000000006020830152604082019050919050565b6000612b2f60218361310f565b91507f496e76616c696420737461746520666f722053454361615320726573706f6e7360008301527f65000000000000000000000000000000000000000000000000000000000000006020830152604082019050919050565b6000612b9560178361310f565b91507f596f7520617265206e6f74207468652070726f7665722e0000000000000000006000830152602082019050919050565b6000612bd560118361310f565b91507f55554944206973206e6f742076616c69640000000000000000000000000000006000830152602082019050919050565b6000612c1560178361310f565b91507f596f7520617265206e6f7420746865205345436161532e0000000000000000006000830152602082019050919050565b6000612c55602c8361310f565b91507f496e76616c696420737461746520666f72206672657368207369676e6174757260008301527f65207375626d697373696f6e00000000000000000000000000000000000000006020830152604082019050919050565b6000612cbb60338361310f565b91507f4f6e6c79207468652076657269666965722063616e20636c6f7365207468652060008301527f6174746573746174696f6e2070726f63657373000000000000000000000000006020830152604082019050919050565b612d1d816131ee565b82525050565b612d34612d2f826131ee565b613289565b82525050565b6000612d4682856126a3565b601482019150612d568284612d23565b6020820191508190509392505050565b6000602082019050612d7b6000830184612694565b92915050565b6000608082019050612d966000830187612694565b612da36020830186612694565b612db06040830185612754565b612dbd6060830184612d14565b95945050505050565b60006020820190508181036000830152612de081846126ba565b905092915050565b6000602082019050612dfd6000830184612718565b92915050565b6000602082019050612e186000830184612727565b92915050565b6000606082019050612e336000830186612727565b612e406020830185612718565b8181036040830152612e5281846126ba565b9050949350505050565b6000602082019050612e716000830184612745565b92915050565b6000604082019050612e8c6000830185612745565b612e996020830184612745565b9392505050565b6000602082019050612eb56000830184612763565b92915050565b60006020820190508181036000830152612ed481612772565b9050919050565b60006020820190508181036000830152612ef4816127d8565b9050919050565b60006020820190508181036000830152612f1481612818565b9050919050565b60006020820190508181036000830152612f348161287e565b9050919050565b60006020820190508181036000830152612f54816128be565b9050919050565b60006020820190508181036000830152612f7481612924565b9050919050565b60006020820190508181036000830152612f948161298a565b9050919050565b60006020820190508181036000830152612fb4816129f0565b9050919050565b60006020820190508181036000830152612fd481612a56565b9050919050565b60006020820190508181036000830152612ff481612abc565b9050919050565b6000602082019050818103600083015261301481612b22565b9050919050565b6000602082019050818103600083015261303481612b88565b9050919050565b6000602082019050818103600083015261305481612bc8565b9050919050565b6000602082019050818103600083015261307481612c08565b9050919050565b6000602082019050818103600083015261309481612c48565b9050919050565b600060208201905081810360008301526130b481612cae565b9050919050565b60006020820190506130d06000830184612d14565b92915050565b6000819050602082019050919050565b600081519050919050565b6000602082019050919050565b600082825260208201905092915050565b600082825260208201905092915050565b600061312b826131ee565b9150613136836131ee565b925082821015613149576131486132c4565b5b828203905092915050565b600061315f826131ce565b9050919050565b60008115159050919050565b60007fffffffffffffffffffffffffffffffff0000000000000000000000000000000082169050919050565b6000819050919050565b60008190506131b68261335e565b919050565b60008190506131c982613372565b919050565b600073ffffffffffffffffffffffffffffffffffffffff82169050919050565b6000819050919050565b6000613203826131a8565b9050919050565b6000613215826131bb565b9050919050565b6000613227826131ee565b91507fffffffffffffffffffffffffffffffffffffffffffffffffffffffffffffffff82141561325a576132596132c4565b5b600182019050919050565b600061327082613277565b9050919050565b600061328282613351565b9050919050565b6000819050919050565b600061329e826131ee565b91506132a9836131ee565b9250826132b9576132b86132f3565b5b828206905092915050565b7f4e487b7100000000000000000000000000000000000000000000000000000000600052601160045260246000fd5b7f4e487b7100000000000000000000000000000000000000000000000000000000600052601260045260246000fd5b7f4e487b7100000000000000000000000000000000000000000000000000000000600052602160045260246000fd5b60008160601b9050919050565b6003811061336f5761336e613322565b5b50565b6005811061338357613382613322565b5b50565b61338f81613154565b811461339a57600080fd5b50565b6133a681613166565b81146133b157600080fd5b50565b6133bd81613172565b81146133c857600080fd5b50565b6133d48161319e565b81146133df57600080fd5b5056fea2646970667358221220b6c6b1775ee0a0f382d3567a5ae403a2a758301b2e1ba8c83a70a788998a083b64736f6c63430008000033",
  "immutableReferences": {},
  "source": "// SPDX-License-Identifier: MIT\npragma solidity ^0.8.0;\n\ncontract MasMutualAttestation {\n\n    enum AttestationResult {None, Failure, Success}\n\n    // Define the possible states of an attestation process\n    enum AttestationState {Open, SecaasResponded, ProverResponded, ReadyForEvaluation, Closed}\n\n    struct Agent {\n        bytes16 uuid;\n        bool registered;\n        bytes32[] completedAttestations; // Stores all attestation IDs the agent has completed\n    }\n\n    struct MutualAttestation {\n        bytes32 id;\n        address verifier;\n        address prover;\n        bytes32 fresh_signature;\n        bytes32 ref_signature;\n        AttestationState state;\n        AttestationResult result;\n        uint256 timestamp; // Timestamp for attestation closure\n    }\n\n    address private secaas;\n    address[] private participants;\n    bytes32[] private attestationChain; // Store all attestation IDs\n    uint256 public freshnessWindow = 3600; // in seconds\n    uint256 public rrIndex;\n\n    // Define mappings to store data\n    mapping(address => uint256) private lastSuccess;\n    mapping(address => Agent) private agent;\n    mapping(bytes32 => MutualAttestation) private attestation;\n    mapping(address => uint256) private indexOf;\n\n\n    // Define events\n    event AgentRegistered(address agent);\n    event AgentRemoved(address agent);\n    event AttestationStarted(bytes32 id);\n    event SecaasResponded(bytes32 id);\n    event ProverResponded(bytes32 id);\n    event ReadyForEvaluation(bytes32 id);\n    event AttestationCompleted(bytes32 id);\n    event ChainReset();\n\n    constructor() {\n        secaas = msg.sender;\n        participants.push(secaas);\n        indexOf[secaas] = 0;\n    }\n\n    function ResetChain() public {\n        require(msg.sender == secaas, \"Only the SECaaS can reset the chain\");\n\n        delete attestationChain;\n        rrIndex = 0;\n        \n        emit ChainReset();\n    }    \n\n    function RegisterAgent(bytes16 uuid) public {\n        require(uuid != bytes16(0), \"UUID is not valid\");\n        Agent storage currentAgent = agent[msg.sender];\n        require(!currentAgent.registered, \"Agent already registered\");\n        currentAgent.uuid = uuid;\n        currentAgent.registered = true;\n        indexOf[msg.sender] = participants.length;\n        participants.push(msg.sender);\n        emit AgentRegistered(msg.sender);\n\n        // // Generate a unique attestation ID\n        // bytes32 id = keccak256(abi.encodePacked(msg.sender, block.timestamp));\n\n        // MutualAttestation storage currentAttestation = attestation[id];\n        // currentAttestation.id = id;\n        // currentAttestation.verifier = currentVerifier;\n        // currentAttestation.prover = msg.sender;\n        // currentAttestation.fresh_signature = bytes32(0);\n        // currentAttestation.ref_signature = bytes32(0);\n        // currentAttestation.state = AttestationState.Open;\n        // currentAttestation.result = AttestationResult.None;\n        // currentAttestation.timestamp = 0; \n\n        // emit AttestationStarted(id);\n    }\n\n    function RemoveAgent() public {\n        Agent storage currentAgent = agent[msg.sender];\n        require(currentAgent.registered, \"Agent is not registered\");\n        \n        uint idx = indexOf[msg.sender];\n        address last = participants[participants.length - 1];\n        participants[idx] = last;\n        indexOf[last] = idx;\n        participants.pop();\n\n        delete indexOf[msg.sender];\n        delete currentAgent.completedAttestations;\n        delete agent[msg.sender];\n        emit AgentRemoved(msg.sender);\n    }\n\n    function ElectVerifier(address prover) internal returns (address) {\n        address[] memory freshList = new address[](participants.length);\n        uint count = 0;\n        for (uint i = 0; i < participants.length; i++) {\n            address cand = participants[i];\n            if (\n                cand != prover &&\n                lastSuccess[cand] != 0\n                // block.timestamp - lastSuccess[cand] <= freshnessWindow\n            ) {\n                freshList[count++] = cand;\n            }\n        }\n\n        if (count == 0) {\n            return secaas;\n        }\n\n        address selected = freshList[rrIndex % count];\n        rrIndex++;\n        return selected;\n    }\n\n    function GetAgentInfo(address agentAddress, address callAddress) public view returns (bytes16, bool, bytes32[] memory) {\n        Agent storage currentAgent = agent[callAddress];\n        Agent storage agentToFind = agent[agentAddress];\n        require(currentAgent.registered || callAddress == secaas, \"Agent is not registered\");\n        return (agentToFind.uuid, agentToFind.registered, agentToFind.completedAttestations);\n    } \n\n\n    function RequestAttestation() public {\n        Agent storage currentAgent = agent[msg.sender];\n        require(currentAgent.registered, \"Agent is not registered\");\n\n        // Generate unique attestation ID\n        bytes32 id = keccak256(abi.encodePacked(msg.sender, block.timestamp));\n\n        MutualAttestation storage currentAttestation = attestation[id];\n        currentAttestation.id = id;\n        currentAttestation.verifier = ElectVerifier(msg.sender);\n        currentAttestation.prover = msg.sender;\n        currentAttestation.fresh_signature = bytes32(0);\n        currentAttestation.ref_signature = bytes32(0);\n        currentAttestation.state = AttestationState.Open;\n        currentAttestation.result = AttestationResult.None;\n        currentAttestation.timestamp = 0; \n\n        emit AttestationStarted(id);\n    }\n\n    function GetProverUUID(bytes32 id, address callAddress) public view returns (bytes16) {\n        require(callAddress == secaas, \"You are not the SECaaS.\");\n        MutualAttestation storage currentAttestation = attestation[id];\n        require(currentAttestation.state == AttestationState.Open || currentAttestation.state == AttestationState.ProverResponded, \"Attestation is closed or not exists\");\n        address proverAgentAddress = currentAttestation.prover;\n        Agent storage currentAgent = agent[proverAgentAddress];\n        return (currentAgent.uuid);\n    }     \n\n    function SendFreshSignaure(bytes32 id, bytes32 measurement) public returns (bool) {\n        MutualAttestation storage currentAttestation = attestation[id];\n        require(currentAttestation.state == AttestationState.Open || currentAttestation.state == AttestationState.SecaasResponded, \"Invalid state for fresh signature submission\");\n        require(currentAttestation.prover == msg.sender, \"You are not the prover.\");\n        \n        currentAttestation.fresh_signature = measurement;\n    \n        if (currentAttestation.state == AttestationState.SecaasResponded) {\n            currentAttestation.state = AttestationState.ReadyForEvaluation;\n            emit ReadyForEvaluation(id);\n        } else {\n            currentAttestation.state = AttestationState.ProverResponded;\n            emit ProverResponded(id);\n        }\n\n        return true;\n    }\n\n    function SendRefSignaure(bytes32 id, bytes32 measurement) public returns (bool) {\n        require(msg.sender == secaas, \"Only the SECaaS can send the reference signature\");\n        \n        MutualAttestation storage currentAttestation = attestation[id];\n        require(currentAttestation.state == AttestationState.Open || currentAttestation.state == AttestationState.ProverResponded, \"Invalid state for SECaaS response\");\n        \n        currentAttestation.ref_signature = measurement;\n    \n        if (currentAttestation.state == AttestationState.ProverResponded) {\n            currentAttestation.state = AttestationState.ReadyForEvaluation;\n            emit ReadyForEvaluation(id);\n        } else {\n            currentAttestation.state = AttestationState.SecaasResponded;\n            emit SecaasResponded(id);\n        }\n\n        return true;\n    }\n\n    function GetAttestationMeasurements(bytes32 id, address callAddress) public view returns (bytes32, bytes32) {\n        MutualAttestation storage currentAttestation = attestation[id];\n        require(currentAttestation.verifier == callAddress, \"Only the verifier can retrieve the signatures\");\n        require(currentAttestation.state == AttestationState.ReadyForEvaluation, \"Attestation process is not completed\");\n        return (currentAttestation.fresh_signature, currentAttestation.ref_signature);\n    }\n\n    function GetAttestationInfo(bytes32 id) public view returns (address, address, AttestationResult, uint256) {\n        MutualAttestation storage currentAttestation = attestation[id];\n        require(currentAttestation.state == AttestationState.Closed, \"Attestation process is not closed\");\n        return (currentAttestation.prover, currentAttestation.verifier, currentAttestation.result, currentAttestation.timestamp);\n    }\n\n    function GetAttestationState(bytes32 id) public view returns (AttestationState) {\n        return attestation[id].state;\n    }\n\n    function GetAttestationChain() public view returns (bytes32[] memory) {\n        return attestationChain;\n    }\n\n    function CloseAttestationProcess(bytes32 id, bool verified) public returns (bool) {\n        MutualAttestation storage currentAttestation = attestation[id];\n        require(currentAttestation.verifier == msg.sender, \"Only the verifier can close the attestation process\");\n        require(currentAttestation.state == AttestationState.ReadyForEvaluation, \"Attestation is not ready for closure\");\n        \n        currentAttestation.state = AttestationState.Closed;\n        currentAttestation.timestamp = block.timestamp; // Store closure timestamp\n        Agent storage proverAgent = agent[currentAttestation.prover];\n\n        if (verified) {\n            currentAttestation.result = AttestationResult.Success;\n            lastSuccess[currentAttestation.prover] = block.timestamp;\n        } else {\n            currentAttestation.result = AttestationResult.Failure;\n        }\n\n        // Store attestation history for the prover only\n        proverAgent.completedAttestations.push(id);\n\n        // Store attestation history for all agents\n        attestationChain.push(id);\n\n        emit AttestationCompleted(id);\n        return true;\n    }\n\n    function IsProver(bytes32 id, address callAddress) public view returns (bool) {\n        MutualAttestation storage currentAttestation = attestation[id];\n        require(currentAttestation.state != AttestationState.Closed, \"Attestation process is closed or not exists\");\n        return currentAttestation.prover == callAddress;\n    }\n\n    function IsVerifier(bytes32 id, address callAddress) public view returns (bool) {\n        MutualAttestation storage currentAttestation = attestation[id];\n        require(currentAttestation.state != AttestationState.Closed, \"Attestation process is closed or not exists\");\n        return currentAttestation.verifier == callAddress;\n    }\n\n}\n",
  "sourcePath": "/smart-contracts/contracts/MasMutualAttestation.sol",
  "compiler": {
    "name": "solc",
    "version": "0.8.0+commit.c7dfd78e.Emscripten.clang"
  },
  "schemaVersion": "3.4.16",
  "updatedAt": "2025-07-08T07:18:45.708Z",
  "networkType": "ethereum",
  "devdoc": {
    "kind": "dev",
    "methods": {},
    "version": 1
  },
  "userdoc": {
    "kind": "user",
    "methods": {},
    "version": 1
  }
}