{
  "contractName": "MasMutualAttestation",
  "abi": [
    {
      "inputs": [],
      "stateMutability": "nonpayable",
      "type": "constructor"
    },
    {
      "anonymous": false,
      "inputs": [
        {
          "indexed": false,
          "internalType": "address",
          "name": "agent",
          "type": "address"
        }
      ],
      "name": "AgentRegistered",
      "type": "event"
    },
    {
      "anonymous": false,
      "inputs": [
        {
          "indexed": false,
          "internalType": "address",
          "name": "agent",
          "type": "address"
        }
      ],
      "name": "AgentRemoved",
      "type": "event"
    },
    {
      "anonymous": false,
      "inputs": [
        {
          "indexed": false,
          "internalType": "bytes32",
          "name": "id",
          "type": "bytes32"
        }
      ],
      "name": "AttestationCompleted",
      "type": "event"
    },
    {
      "anonymous": false,
      "inputs": [
        {
          "indexed": false,
          "internalType": "bytes32",
          "name": "id",
          "type": "bytes32"
        }
      ],
      "name": "AttestationStarted",
      "type": "event"
    },
    {
      "anonymous": false,
      "inputs": [],
      "name": "ChainReset",
      "type": "event"
    },
    {
      "anonymous": false,
      "inputs": [
        {
          "indexed": false,
          "internalType": "bytes32",
          "name": "id",
          "type": "bytes32"
        }
      ],
      "name": "ProverResponded",
      "type": "event"
    },
    {
      "anonymous": false,
      "inputs": [
        {
          "indexed": false,
          "internalType": "bytes32",
          "name": "id",
          "type": "bytes32"
        }
      ],
      "name": "ReadyForEvaluation",
      "type": "event"
    },
    {
      "anonymous": false,
      "inputs": [
        {
          "indexed": false,
          "internalType": "bytes32",
          "name": "id",
          "type": "bytes32"
        }
      ],
      "name": "SecaasResponded",
      "type": "event"
    },
    {
      "inputs": [],
      "name": "ResetChain",
      "outputs": [],
      "stateMutability": "nonpayable",
      "type": "function"
    },
    {
      "inputs": [
        {
          "internalType": "bytes16",
          "name": "uuid",
          "type": "bytes16"
        }
      ],
      "name": "RegisterAgent",
      "outputs": [],
      "stateMutability": "nonpayable",
      "type": "function"
    },
    {
      "inputs": [],
      "name": "RemoveAgent",
      "outputs": [],
      "stateMutability": "nonpayable",
      "type": "function"
    },
    {
      "inputs": [
        {
          "internalType": "address",
          "name": "callAddress",
          "type": "address"
        }
      ],
      "name": "GetAgentInfo",
      "outputs": [
        {
          "internalType": "bytes16",
          "name": "",
          "type": "bytes16"
        },
        {
          "internalType": "bool",
          "name": "",
          "type": "bool"
        },
        {
          "internalType": "bool",
          "name": "",
          "type": "bool"
        }
      ],
      "stateMutability": "view",
      "type": "function",
      "constant": true
    },
    {
      "inputs": [
        {
          "internalType": "bytes32",
          "name": "id",
          "type": "bytes32"
        },
        {
          "internalType": "address",
          "name": "callAddress",
          "type": "address"
        }
      ],
      "name": "GetProverUUID",
      "outputs": [
        {
          "internalType": "bytes16",
          "name": "",
          "type": "bytes16"
        },
        {
          "internalType": "address",
          "name": "",
          "type": "address"
        }
      ],
      "stateMutability": "view",
      "type": "function",
      "constant": true
    },
    {
      "inputs": [
        {
          "internalType": "bytes32",
          "name": "id",
          "type": "bytes32"
        },
        {
          "internalType": "bytes32",
          "name": "measurement",
          "type": "bytes32"
        }
      ],
      "name": "SendFreshSignaure",
      "outputs": [
        {
          "internalType": "bool",
          "name": "",
          "type": "bool"
        }
      ],
      "stateMutability": "nonpayable",
      "type": "function"
    },
    {
      "inputs": [
        {
          "internalType": "bytes32",
          "name": "id",
          "type": "bytes32"
        },
        {
          "internalType": "bytes32",
          "name": "measurement",
          "type": "bytes32"
        }
      ],
      "name": "SendRefSignaure",
      "outputs": [
        {
          "internalType": "bool",
          "name": "",
          "type": "bool"
        }
      ],
      "stateMutability": "nonpayable",
      "type": "function"
    },
    {
      "inputs": [
        {
          "internalType": "bytes32",
          "name": "id",
          "type": "bytes32"
        },
        {
          "internalType": "address",
          "name": "callAddress",
          "type": "address"
        }
      ],
      "name": "GetAttestationMeasurements",
      "outputs": [
        {
          "internalType": "bytes32",
          "name": "",
          "type": "bytes32"
        },
        {
          "internalType": "bytes32",
          "name": "",
          "type": "bytes32"
        }
      ],
      "stateMutability": "view",
      "type": "function",
      "constant": true
    },
    {
      "inputs": [
        {
          "internalType": "bytes32",
          "name": "id",
          "type": "bytes32"
        }
      ],
      "name": "GetAttestationInfo",
      "outputs": [
        {
          "internalType": "address",
          "name": "",
          "type": "address"
        },
        {
          "internalType": "address",
          "name": "",
          "type": "address"
        },
        {
          "internalType": "enum MasMutualAttestation.AttestationResult",
          "name": "",
          "type": "uint8"
        },
        {
          "internalType": "uint256",
          "name": "",
          "type": "uint256"
        }
      ],
      "stateMutability": "view",
      "type": "function",
      "constant": true
    },
    {
      "inputs": [
        {
          "internalType": "bytes32",
          "name": "id",
          "type": "bytes32"
        }
      ],
      "name": "GetAttestationState",
      "outputs": [
        {
          "internalType": "enum MasMutualAttestation.AttestationState",
          "name": "",
          "type": "uint8"
        }
      ],
      "stateMutability": "view",
      "type": "function",
      "constant": true
    },
    {
      "inputs": [
        {
          "internalType": "bytes32",
          "name": "id",
          "type": "bytes32"
        },
        {
          "internalType": "bool",
          "name": "verified",
          "type": "bool"
        }
      ],
      "name": "CloseAttestationProcess",
      "outputs": [
        {
          "internalType": "bool",
          "name": "",
          "type": "bool"
        }
      ],
      "stateMutability": "nonpayable",
      "type": "function"
    },
    {
      "inputs": [
        {
          "internalType": "bytes32",
          "name": "id",
          "type": "bytes32"
        },
        {
          "internalType": "address",
          "name": "callAddress",
          "type": "address"
        }
      ],
      "name": "IsProver",
      "outputs": [
        {
          "internalType": "bool",
          "name": "",
          "type": "bool"
        }
      ],
      "stateMutability": "view",
      "type": "function",
      "constant": true
    },
    {
      "inputs": [
        {
          "internalType": "bytes32",
          "name": "id",
          "type": "bytes32"
        },
        {
          "internalType": "address",
          "name": "callAddress",
          "type": "address"
        }
      ],
      "name": "IsVerifier",
      "outputs": [
        {
          "internalType": "bool",
          "name": "",
          "type": "bool"
        }
      ],
      "stateMutability": "view",
      "type": "function",
      "constant": true
    }
  ],
  "bytecode": "0x608060405234801561001057600080fd5b5033600360006101000a81548173ffffffffffffffffffffffffffffffffffffffff021916908373ffffffffffffffffffffffffffffffffffffffff160217905550600360009054906101000a900473ffffffffffffffffffffffffffffffffffffffff16600260006101000a81548173ffffffffffffffffffffffffffffffffffffffff021916908373ffffffffffffffffffffffffffffffffffffffff1602179055506001600481905550612b35806100cc6000396000f3fe608060405234801561001057600080fd5b50600436106100cf5760003560e01c806378caad491161008c578063cb2a034811610066578063cb2a03481461023c578063cf1b2d531461026c578063d5dd167b1461029e578063e2021cf9146102cf576100cf565b806378caad49146101d2578063b46ca81a146101dc578063b8df8f981461020c576100cf565b80631d995a0e146100d45780632562f1c6146100de578063395d719b1461010f5780635455cddd1461013f5780635f3d42201461016f5780636c8a3160146101a2575b600080fd5b6100dc6102eb565b005b6100f860048036038101906100f39190611e5c565b610444565b60405161010692919061267c565b60405180910390f35b61012960048036038101906101249190611e5c565b6105ca565b60405161013691906125e6565b60405180910390f35b61015960048036038101906101549190611ed4565b610702565b60405161016691906125e6565b60405180910390f35b61018960048036038101906101849190611e33565b610ab3565b60405161019994939291906125a1565b60405180910390f35b6101bc60048036038101906101b79190611ed4565b610c04565b6040516101c991906125e6565b60405180910390f35b6101da610fb6565b005b6101f660048036038101906101f19190611e5c565b6110df565b60405161020391906125e6565b60405180910390f35b61022660048036038101906102219190611e33565b611217565b60405161023391906126a5565b60405180910390f35b61025660048036038101906102519190611e98565b611244565b60405161026391906125e6565b60405180910390f35b61028660048036038101906102819190611de1565b611620565b6040516102959392919061262a565b60405180910390f35b6102b860048036038101906102b39190611e5c565b611753565b6040516102c6929190612601565b60405180910390f35b6102e960048036038101906102e49190611e0a565b6119d9565b005b60008060003373ffffffffffffffffffffffffffffffffffffffff1673ffffffffffffffffffffffffffffffffffffffff16815260200190815260200160002090508060000160109054906101000a900460ff1661037e576040517f08c379a0000000000000000000000000000000000000000000000000000000008152600401610375906126e0565b60405180910390fd5b6000803373ffffffffffffffffffffffffffffffffffffffff1673ffffffffffffffffffffffffffffffffffffffff168152602001908152602001600020600080820160006101000a8154906fffffffffffffffffffffffffffffffff02191690556000820160106101000a81549060ff02191690556000820160116101000a81549060ff021916905550507fed9c8ad8d5a0a66898ea49d2956929c93ae2e8bd50281b2ed897c5d1a6737e0b336040516104399190612586565b60405180910390a150565b60008060006001600086815260200190815260200160002090508373ffffffffffffffffffffffffffffffffffffffff168160010160009054906101000a900473ffffffffffffffffffffffffffffffffffffffff1673ffffffffffffffffffffffffffffffffffffffff16146104f0576040517f08c379a00000000000000000000000000000000000000000000000000000000081526004016104e7906127c0565b60405180910390fd5b6003600481111561052a577f4e487b7100000000000000000000000000000000000000000000000000000000600052602160045260246000fd5b8160050160009054906101000a900460ff166004811115610574577f4e487b7100000000000000000000000000000000000000000000000000000000600052602160045260246000fd5b146105b4576040517f08c379a00000000000000000000000000000000000000000000000000000000081526004016105ab906127e0565b60405180910390fd5b8060030154816004015492509250509250929050565b60008060016000858152602001908152602001600020905060048081111561061b577f4e487b7100000000000000000000000000000000000000000000000000000000600052602160045260246000fd5b8160050160009054906101000a900460ff166004811115610665577f4e487b7100000000000000000000000000000000000000000000000000000000600052602160045260246000fd5b14156106a6576040517f08c379a000000000000000000000000000000000000000000000000000000000815260040161069d90612760565b60405180910390fd5b8273ffffffffffffffffffffffffffffffffffffffff168160020160009054906101000a900473ffffffffffffffffffffffffffffffffffffffff1673ffffffffffffffffffffffffffffffffffffffff161491505092915050565b6000600360009054906101000a900473ffffffffffffffffffffffffffffffffffffffff1673ffffffffffffffffffffffffffffffffffffffff163373ffffffffffffffffffffffffffffffffffffffff1614610794576040517f08c379a000000000000000000000000000000000000000000000000000000000815260040161078b90612780565b60405180910390fd5b6000600160008581526020019081526020016000209050600060048111156107e5577f4e487b7100000000000000000000000000000000000000000000000000000000600052602160045260246000fd5b8160050160009054906101000a900460ff16600481111561082f577f4e487b7100000000000000000000000000000000000000000000000000000000600052602160045260246000fd5b14806108bc575060026004811115610870577f4e487b7100000000000000000000000000000000000000000000000000000000600052602160045260246000fd5b8160050160009054906101000a900460ff1660048111156108ba577f4e487b7100000000000000000000000000000000000000000000000000000000600052602160045260246000fd5b145b6108fb576040517f08c379a00000000000000000000000000000000000000000000000000000000081526004016108f290612800565b60405180910390fd5b8281600401819055506002600481111561093e577f4e487b7100000000000000000000000000000000000000000000000000000000600052602160045260246000fd5b8160050160009054906101000a900460ff166004811115610988577f4e487b7100000000000000000000000000000000000000000000000000000000600052602160045260246000fd5b1415610a1d5760038160050160006101000a81548160ff021916908360048111156109dc577f4e487b7100000000000000000000000000000000000000000000000000000000600052602160045260246000fd5b02179055507f6781e8d3c07e87e938ec28a5435aa7862779fb9c7d01b7315eca91430b2a464384604051610a109190612661565b60405180910390a1610aa8565b60018160050160006101000a81548160ff02191690836004811115610a6b577f4e487b7100000000000000000000000000000000000000000000000000000000600052602160045260246000fd5b02179055507ff135c13100e80427b9d26850c8b0122e461f63682f88f2f7fd137da6c1c74c2d84604051610a9f9190612661565b60405180910390a15b600191505092915050565b6000806000806000600160008781526020019081526020016000209050600480811115610b09577f4e487b7100000000000000000000000000000000000000000000000000000000600052602160045260246000fd5b8160050160009054906101000a900460ff166004811115610b53577f4e487b7100000000000000000000000000000000000000000000000000000000600052602160045260246000fd5b14610b93576040517f08c379a0000000000000000000000000000000000000000000000000000000008152600401610b8a90612700565b60405180910390fd5b8060020160009054906101000a900473ffffffffffffffffffffffffffffffffffffffff168160010160009054906101000a900473ffffffffffffffffffffffffffffffffffffffff168260050160019054906101000a900460ff1683600601549450945094509450509193509193565b60008060016000858152602001908152602001600020905060006004811115610c56577f4e487b7100000000000000000000000000000000000000000000000000000000600052602160045260246000fd5b8160050160009054906101000a900460ff166004811115610ca0577f4e487b7100000000000000000000000000000000000000000000000000000000600052602160045260246000fd5b1480610d2d575060016004811115610ce1577f4e487b7100000000000000000000000000000000000000000000000000000000600052602160045260246000fd5b8160050160009054906101000a900460ff166004811115610d2b577f4e487b7100000000000000000000000000000000000000000000000000000000600052602160045260246000fd5b145b610d6c576040517f08c379a0000000000000000000000000000000000000000000000000000000008152600401610d6390612880565b60405180910390fd5b3373ffffffffffffffffffffffffffffffffffffffff168160020160009054906101000a900473ffffffffffffffffffffffffffffffffffffffff1673ffffffffffffffffffffffffffffffffffffffff1614610dfe576040517f08c379a0000000000000000000000000000000000000000000000000000000008152600401610df590612820565b60405180910390fd5b82816003018190555060016004811115610e41577f4e487b7100000000000000000000000000000000000000000000000000000000600052602160045260246000fd5b8160050160009054906101000a900460ff166004811115610e8b577f4e487b7100000000000000000000000000000000000000000000000000000000600052602160045260246000fd5b1415610f205760038160050160006101000a81548160ff02191690836004811115610edf577f4e487b7100000000000000000000000000000000000000000000000000000000600052602160045260246000fd5b02179055507f6781e8d3c07e87e938ec28a5435aa7862779fb9c7d01b7315eca91430b2a464384604051610f139190612661565b60405180910390a1610fab565b60028160050160006101000a81548160ff02191690836004811115610f6e577f4e487b7100000000000000000000000000000000000000000000000000000000600052602160045260246000fd5b02179055507ff69c881f9131038a4acd7e75ad695e1faa1b714d02f44b7ae9b2184457bf516784604051610fa29190612661565b60405180910390a15b600191505092915050565b600360009054906101000a900473ffffffffffffffffffffffffffffffffffffffff1673ffffffffffffffffffffffffffffffffffffffff163373ffffffffffffffffffffffffffffffffffffffff1614611046576040517f08c379a000000000000000000000000000000000000000000000000000000000815260040161103d90612740565b60405180910390fd5b6001600481905550600360009054906101000a900473ffffffffffffffffffffffffffffffffffffffff16600260006101000a81548173ffffffffffffffffffffffffffffffffffffffff021916908373ffffffffffffffffffffffffffffffffffffffff1602179055507f8e1dda8e7ca889ef4bd70f2ff6dd48a9b896b1d89703a08b6385333045af148960405160405180910390a1565b600080600160008581526020019081526020016000209050600480811115611130577f4e487b7100000000000000000000000000000000000000000000000000000000600052602160045260246000fd5b8160050160009054906101000a900460ff16600481111561117a577f4e487b7100000000000000000000000000000000000000000000000000000000600052602160045260246000fd5b14156111bb576040517f08c379a00000000000000000000000000000000000000000000000000000000081526004016111b290612760565b60405180910390fd5b8273ffffffffffffffffffffffffffffffffffffffff168160010160009054906101000a900473ffffffffffffffffffffffffffffffffffffffff1673ffffffffffffffffffffffffffffffffffffffff161491505092915050565b60006001600083815260200190815260200160002060050160009054906101000a900460ff169050919050565b6000806001600085815260200190815260200160002090503373ffffffffffffffffffffffffffffffffffffffff168160010160009054906101000a900473ffffffffffffffffffffffffffffffffffffffff1673ffffffffffffffffffffffffffffffffffffffff16146112ee576040517f08c379a00000000000000000000000000000000000000000000000000000000081526004016112e5906128a0565b60405180910390fd5b60036004811115611328577f4e487b7100000000000000000000000000000000000000000000000000000000600052602160045260246000fd5b8160050160009054906101000a900460ff166004811115611372577f4e487b7100000000000000000000000000000000000000000000000000000000600052602160045260246000fd5b146113b2576040517f08c379a00000000000000000000000000000000000000000000000000000000081526004016113a9906126c0565b60405180910390fd5b60048160050160006101000a81548160ff02191690836004811115611400577f4e487b7100000000000000000000000000000000000000000000000000000000600052602160045260246000fd5b021790555042816006018190555060008060008360020160009054906101000a900473ffffffffffffffffffffffffffffffffffffffff1673ffffffffffffffffffffffffffffffffffffffff1673ffffffffffffffffffffffffffffffffffffffff16815260200190815260200160002090506004600081548092919061148790612999565b9190505550831561156c5760018160000160116101000a81548160ff02191690831515021790555060028260050160016101000a81548160ff021916908360028111156114fd577f4e487b7100000000000000000000000000000000000000000000000000000000600052602160045260246000fd5b02179055508160020160009054906101000a900473ffffffffffffffffffffffffffffffffffffffff16600260006101000a81548173ffffffffffffffffffffffffffffffffffffffff021916908373ffffffffffffffffffffffffffffffffffffffff1602179055506115dd565b60008160000160116101000a81548160ff02191690831515021790555060018260050160016101000a81548160ff021916908360028111156115d7577f4e487b7100000000000000000000000000000000000000000000000000000000600052602160045260246000fd5b02179055505b7f31a3cf273cd0e82f8ddb4be15d4b954d7fcd18a4c5d4591cce32edd1a4bc417d8560405161160c9190612661565b60405180910390a160019250505092915050565b6000806000806000808673ffffffffffffffffffffffffffffffffffffffff1673ffffffffffffffffffffffffffffffffffffffff16815260200190815260200160002090508060000160109054906101000a900460ff16806116d05750600360009054906101000a900473ffffffffffffffffffffffffffffffffffffffff1673ffffffffffffffffffffffffffffffffffffffff168573ffffffffffffffffffffffffffffffffffffffff16145b61170f576040517f08c379a0000000000000000000000000000000000000000000000000000000008152600401611706906126e0565b60405180910390fd5b8060000160009054906101000a900460801b8160000160109054906101000a900460ff168260000160119054906101000a900460ff16935093509350509193909250565b600080600360009054906101000a900473ffffffffffffffffffffffffffffffffffffffff1673ffffffffffffffffffffffffffffffffffffffff168373ffffffffffffffffffffffffffffffffffffffff16146117e6576040517f08c379a00000000000000000000000000000000000000000000000000000000081526004016117dd90612860565b60405180910390fd5b600060016000868152602001908152602001600020905060006004811115611837577f4e487b7100000000000000000000000000000000000000000000000000000000600052602160045260246000fd5b8160050160009054906101000a900460ff166004811115611881577f4e487b7100000000000000000000000000000000000000000000000000000000600052602160045260246000fd5b148061190e5750600260048111156118c2577f4e487b7100000000000000000000000000000000000000000000000000000000600052602160045260246000fd5b8160050160009054906101000a900460ff16600481111561190c577f4e487b7100000000000000000000000000000000000000000000000000000000600052602160045260246000fd5b145b61194d576040517f08c379a0000000000000000000000000000000000000000000000000000000008152600401611944906127a0565b60405180910390fd5b60008160020160009054906101000a900473ffffffffffffffffffffffffffffffffffffffff16905060008060008373ffffffffffffffffffffffffffffffffffffffff1673ffffffffffffffffffffffffffffffffffffffff16815260200190815260200160002090508060000160009054906101000a900460801b33945094505050509250929050565b600060801b6fffffffffffffffffffffffffffffffff1916816fffffffffffffffffffffffffffffffff19161415611a46576040517f08c379a0000000000000000000000000000000000000000000000000000000008152600401611a3d90612840565b60405180910390fd5b60008060003373ffffffffffffffffffffffffffffffffffffffff1673ffffffffffffffffffffffffffffffffffffffff16815260200190815260200160002090508060000160109054906101000a900460ff1615611ada576040517f08c379a0000000000000000000000000000000000000000000000000000000008152600401611ad190612720565b60405180910390fd5b818160000160006101000a8154816fffffffffffffffffffffffffffffffff021916908360801c021790555060018160000160106101000a81548160ff02191690831515021790555060008160000160116101000a81548160ff0219169083151502179055507f82d0829d9d481e4cb9913897f9b9c903271c4db68c7b3324071d2a7e3b2c5ff033604051611b6f9190612586565b60405180910390a160003342600454604051602001611b9093929190612549565b6040516020818303038152906040528051906020012090506000600160008381526020019081526020016000209050818160000181905550600260009054906101000a900473ffffffffffffffffffffffffffffffffffffffff168160010160006101000a81548173ffffffffffffffffffffffffffffffffffffffff021916908373ffffffffffffffffffffffffffffffffffffffff160217905550338160020160006101000a81548173ffffffffffffffffffffffffffffffffffffffff021916908373ffffffffffffffffffffffffffffffffffffffff1602179055506000801b81600301819055506000801b816004018190555060008160050160006101000a81548160ff02191690836004811115611cd6577f4e487b7100000000000000000000000000000000000000000000000000000000600052602160045260246000fd5b021790555060008160050160016101000a81548160ff02191690836002811115611d29577f4e487b7100000000000000000000000000000000000000000000000000000000600052602160045260246000fd5b0217905550600081600601819055507fd32f85071e05721b8a1c63d5cad1fe3525ec0a11fd5b7760b6a82d7f6be7d28382604051611d679190612661565b60405180910390a160046000815480929190611d8290612999565b919050555050505050565b600081359050611d9c81612aa3565b92915050565b600081359050611db181612aba565b92915050565b600081359050611dc681612ad1565b92915050565b600081359050611ddb81612ae8565b92915050565b600060208284031215611df357600080fd5b6000611e0184828501611d8d565b91505092915050565b600060208284031215611e1c57600080fd5b6000611e2a84828501611db7565b91505092915050565b600060208284031215611e4557600080fd5b6000611e5384828501611dcc565b91505092915050565b60008060408385031215611e6f57600080fd5b6000611e7d85828601611dcc565b9250506020611e8e85828601611d8d565b9150509250929050565b60008060408385031215611eab57600080fd5b6000611eb985828601611dcc565b9250506020611eca85828601611da2565b9150509250929050565b60008060408385031215611ee757600080fd5b6000611ef585828601611dcc565b9250506020611f0685828601611dcc565b9150509250929050565b611f19816128d1565b82525050565b611f30611f2b826128d1565b6129e2565b82525050565b611f3f816128e3565b82525050565b611f4e816128ef565b82525050565b611f5d8161291b565b82525050565b611f6c81612975565b82525050565b611f7b81612987565b82525050565b6000611f8e6024836128c0565b91507f4174746573746174696f6e206973206e6f7420726561647920666f7220636c6f60008301527f73757265000000000000000000000000000000000000000000000000000000006020830152604082019050919050565b6000611ff46017836128c0565b91507f4167656e74206973206e6f7420726567697374657265640000000000000000006000830152602082019050919050565b60006120346021836128c0565b91507f4174746573746174696f6e2070726f63657373206973206e6f7420636c6f736560008301527f64000000000000000000000000000000000000000000000000000000000000006020830152604082019050919050565b600061209a6018836128c0565b91507f4167656e7420616c7265616479207265676973746572656400000000000000006000830152602082019050919050565b60006120da6023836128c0565b91507f4f6e6c7920746865205345436161532063616e2072657365742074686520636860008301527f61696e00000000000000000000000000000000000000000000000000000000006020830152604082019050919050565b6000612140602b836128c0565b91507f4174746573746174696f6e2070726f6365737320697320636c6f736564206f7260008301527f206e6f74206578697374730000000000000000000000000000000000000000006020830152604082019050919050565b60006121a66030836128c0565b91507f4f6e6c7920746865205345436161532063616e2073656e64207468652072656660008301527f6572656e6365207369676e6174757265000000000000000000000000000000006020830152604082019050919050565b600061220c6023836128c0565b91507f4174746573746174696f6e20697320636c6f736564206f72206e6f742065786960008301527f73747300000000000000000000000000000000000000000000000000000000006020830152604082019050919050565b6000612272602d836128c0565b91507f4f6e6c79207468652076657269666965722063616e207265747269657665207460008301527f6865207369676e617475726573000000000000000000000000000000000000006020830152604082019050919050565b60006122d86024836128c0565b91507f4174746573746174696f6e2070726f63657373206973206e6f7420636f6d706c60008301527f65746564000000000000000000000000000000000000000000000000000000006020830152604082019050919050565b600061233e6021836128c0565b91507f496e76616c696420737461746520666f722053454361615320726573706f6e7360008301527f65000000000000000000000000000000000000000000000000000000000000006020830152604082019050919050565b60006123a46017836128c0565b91507f596f7520617265206e6f74207468652070726f7665722e0000000000000000006000830152602082019050919050565b60006123e46011836128c0565b91507f55554944206973206e6f742076616c69640000000000000000000000000000006000830152602082019050919050565b60006124246017836128c0565b91507f596f7520617265206e6f7420746865205345436161532e0000000000000000006000830152602082019050919050565b6000612464602c836128c0565b91507f496e76616c696420737461746520666f72206672657368207369676e6174757260008301527f65207375626d697373696f6e00000000000000000000000000000000000000006020830152604082019050919050565b60006124ca6033836128c0565b91507f4f6e6c79207468652076657269666965722063616e20636c6f7365207468652060008301527f6174746573746174696f6e2070726f63657373000000000000000000000000006020830152604082019050919050565b61252c8161296b565b82525050565b61254361253e8261296b565b612a06565b82525050565b60006125558286611f1f565b6014820191506125658285612532565b6020820191506125758284612532565b602082019150819050949350505050565b600060208201905061259b6000830184611f10565b92915050565b60006080820190506125b66000830187611f10565b6125c36020830186611f10565b6125d06040830185611f63565b6125dd6060830184612523565b95945050505050565b60006020820190506125fb6000830184611f36565b92915050565b60006040820190506126166000830185611f45565b6126236020830184611f10565b9392505050565b600060608201905061263f6000830186611f45565b61264c6020830185611f36565b6126596040830184611f36565b949350505050565b60006020820190506126766000830184611f54565b92915050565b60006040820190506126916000830185611f54565b61269e6020830184611f54565b9392505050565b60006020820190506126ba6000830184611f72565b92915050565b600060208201905081810360008301526126d981611f81565b9050919050565b600060208201905081810360008301526126f981611fe7565b9050919050565b6000602082019050818103600083015261271981612027565b9050919050565b600060208201905081810360008301526127398161208d565b9050919050565b60006020820190508181036000830152612759816120cd565b9050919050565b6000602082019050818103600083015261277981612133565b9050919050565b6000602082019050818103600083015261279981612199565b9050919050565b600060208201905081810360008301526127b9816121ff565b9050919050565b600060208201905081810360008301526127d981612265565b9050919050565b600060208201905081810360008301526127f9816122cb565b9050919050565b6000602082019050818103600083015261281981612331565b9050919050565b6000602082019050818103600083015261283981612397565b9050919050565b60006020820190508181036000830152612859816123d7565b9050919050565b6000602082019050818103600083015261287981612417565b9050919050565b6000602082019050818103600083015261289981612457565b9050919050565b600060208201905081810360008301526128b9816124bd565b9050919050565b600082825260208201905092915050565b60006128dc8261294b565b9050919050565b60008115159050919050565b60007fffffffffffffffffffffffffffffffff0000000000000000000000000000000082169050919050565b6000819050919050565b600081905061293382612a7b565b919050565b600081905061294682612a8f565b919050565b600073ffffffffffffffffffffffffffffffffffffffff82169050919050565b6000819050919050565b600061298082612925565b9050919050565b600061299282612938565b9050919050565b60006129a48261296b565b91507fffffffffffffffffffffffffffffffffffffffffffffffffffffffffffffffff8214156129d7576129d6612a10565b5b600182019050919050565b60006129ed826129f4565b9050919050565b60006129ff82612a6e565b9050919050565b6000819050919050565b7f4e487b7100000000000000000000000000000000000000000000000000000000600052601160045260246000fd5b7f4e487b7100000000000000000000000000000000000000000000000000000000600052602160045260246000fd5b60008160601b9050919050565b60038110612a8c57612a8b612a3f565b5b50565b60058110612aa057612a9f612a3f565b5b50565b612aac816128d1565b8114612ab757600080fd5b50565b612ac3816128e3565b8114612ace57600080fd5b50565b612ada816128ef565b8114612ae557600080fd5b50565b612af18161291b565b8114612afc57600080fd5b5056fea2646970667358221220444e1012d086c9735a938cea33b12056e81aafc993994efe13f949dcc3ba846564736f6c63430008000033",
  "immutableReferences": {},
  "source": "// SPDX-License-Identifier: MIT\npragma solidity ^0.8.0;\n\ncontract MasMutualAttestation {\n\n    enum AttestationResult {None, Failure, Success}\n    enum AttestationState {Open, SecaasResponded, ProverResponded, ReadyForEvaluation, Closed}\n\n    struct Agent {\n        bytes16 uuid;\n        bool registered;\n        bool verified;\n    }\n\n    struct MutualAttestation {\n        bytes32 id;\n        address verifier;\n        address prover;\n        bytes32 fresh_signature;\n        bytes32 ref_signature;\n        AttestationState state;\n        AttestationResult result;\n        uint256 timestamp; // Timestamp for attestation closure\n    }\n\n    mapping(address => Agent) private agent;\n    mapping(bytes32 => MutualAttestation) private attestation;\n    address private currentVerifier;\n    address private secaas;\n    uint256 private currentAttestationIndex;  \n\n    event AgentRegistered(address agent);\n    event AgentRemoved(address agent);\n    event AttestationStarted(bytes32 id);\n    event SecaasResponded(bytes32 id);\n    event ProverResponded(bytes32 id);\n    event ReadyForEvaluation(bytes32 id);\n    event AttestationCompleted(bytes32 id);\n    event ChainReset();\n\n    constructor() {\n        secaas = msg.sender;\n        currentVerifier = secaas;\n        currentAttestationIndex = 1;\n    }\n\n    function ResetChain() public {\n        require(msg.sender == secaas, \"Only the SECaaS can reset the chain\");\n\n        // Reset attestation index and current verifier\n        currentAttestationIndex = 1;\n        currentVerifier = secaas;\n\n        emit ChainReset();\n    }    \n\n    function RegisterAgent(bytes16 uuid) public {\n        require(uuid != bytes16(0), \"UUID is not valid\");\n\n        Agent storage currentAgent = agent[msg.sender];\n        require(!currentAgent.registered, \"Agent already registered\");\n\n        currentAgent.uuid = uuid;\n        currentAgent.registered = true;\n        currentAgent.verified = false;\n\n        emit AgentRegistered(msg.sender);\n\n        // Generate a unique attestation ID\n        bytes32 id = keccak256(abi.encodePacked(msg.sender, block.timestamp, currentAttestationIndex));\n\n        MutualAttestation storage currentAttestation = attestation[id];\n        currentAttestation.id = id;\n        currentAttestation.verifier = currentVerifier;\n        currentAttestation.prover = msg.sender;\n        currentAttestation.fresh_signature = bytes32(0);\n        currentAttestation.ref_signature = bytes32(0);\n        currentAttestation.state = AttestationState.Open;\n        currentAttestation.result = AttestationResult.None;\n        currentAttestation.timestamp = 0; \n\n        emit AttestationStarted(id);\n        currentAttestationIndex++;\n    }\n\n    function RemoveAgent() public {\n        Agent storage currentAgent = agent[msg.sender];\n        require(currentAgent.registered, \"Agent is not registered\");\n        delete agent[msg.sender];\n        emit AgentRemoved(msg.sender);\n    }\n\n    function GetAgentInfo(address callAddress) public view returns (bytes16, bool, bool) {\n        Agent storage currentAgent = agent[callAddress];\n        require(currentAgent.registered || callAddress == secaas, \"Agent is not registered\");\n        return (currentAgent.uuid, currentAgent.registered, currentAgent.verified);\n    } \n\n    function GetProverUUID(bytes32 id, address callAddress) public view returns (bytes16, address) {\n        require(callAddress == secaas, \"You are not the SECaaS.\");\n        MutualAttestation storage currentAttestation = attestation[id];\n        require(currentAttestation.state == AttestationState.Open || currentAttestation.state == AttestationState.ProverResponded, \"Attestation is closed or not exists\");\n        address proverAgentAddress = currentAttestation.prover;\n        Agent storage currentAgent = agent[proverAgentAddress];\n        return (currentAgent.uuid, msg.sender);\n    }     \n\n    function SendFreshSignaure(bytes32 id, bytes32 measurement) public returns (bool) {\n        MutualAttestation storage currentAttestation = attestation[id];\n        require(currentAttestation.state == AttestationState.Open || currentAttestation.state == AttestationState.SecaasResponded, \"Invalid state for fresh signature submission\");\n        require(currentAttestation.prover == msg.sender, \"You are not the prover.\");\n        \n        currentAttestation.fresh_signature = measurement;\n    \n        if (currentAttestation.state == AttestationState.SecaasResponded) {\n            currentAttestation.state = AttestationState.ReadyForEvaluation;\n            emit ReadyForEvaluation(id);\n        } else {\n            currentAttestation.state = AttestationState.ProverResponded;\n            emit ProverResponded(id);\n        }\n\n        return true;\n    }\n\n    function SendRefSignaure(bytes32 id, bytes32 measurement) public returns (bool) {\n        require(msg.sender == secaas, \"Only the SECaaS can send the reference signature\");\n        \n        MutualAttestation storage currentAttestation = attestation[id];\n        require(currentAttestation.state == AttestationState.Open || currentAttestation.state == AttestationState.ProverResponded, \"Invalid state for SECaaS response\");\n        \n         currentAttestation.ref_signature = measurement;\n    \n        if (currentAttestation.state == AttestationState.ProverResponded) {\n            currentAttestation.state = AttestationState.ReadyForEvaluation;\n            emit ReadyForEvaluation(id);\n        } else {\n            currentAttestation.state = AttestationState.SecaasResponded;\n            emit SecaasResponded(id);\n        }\n\n        return true;\n    }\n\n    function GetAttestationMeasurements(bytes32 id, address callAddress) public view returns (bytes32, bytes32) {\n        MutualAttestation storage currentAttestation = attestation[id];\n        require(currentAttestation.verifier == callAddress, \"Only the verifier can retrieve the signatures\");\n        require(currentAttestation.state == AttestationState.ReadyForEvaluation, \"Attestation process is not completed\");\n        return (currentAttestation.fresh_signature, currentAttestation.ref_signature);\n    }\n\n    function GetAttestationInfo(bytes32 id) public view returns (address, address, AttestationResult, uint256) {\n        MutualAttestation storage currentAttestation = attestation[id];\n        require(currentAttestation.state == AttestationState.Closed, \"Attestation process is not closed\");\n        return (currentAttestation.prover, currentAttestation.verifier, currentAttestation.result, currentAttestation.timestamp);\n    }\n\n    function GetAttestationState(bytes32 id) public view returns (AttestationState) {\n        return attestation[id].state;\n    }\n\n    function CloseAttestationProcess(bytes32 id, bool verified) public returns (bool) {\n        MutualAttestation storage currentAttestation = attestation[id];\n        require(currentAttestation.verifier == msg.sender, \"Only the verifier can close the attestation process\");\n        require(currentAttestation.state == AttestationState.ReadyForEvaluation, \"Attestation is not ready for closure\");\n        \n        currentAttestation.state = AttestationState.Closed;\n        currentAttestation.timestamp = block.timestamp; // Store closure timestamp\n        Agent storage proverAgent = agent[currentAttestation.prover];\n        currentAttestationIndex++;\n\n        if (verified) {\n            proverAgent.verified = true;\n            currentAttestation.result = AttestationResult.Success;\n            currentVerifier = currentAttestation.prover;\n        } else {\n            proverAgent.verified = false;\n            currentAttestation.result = AttestationResult.Failure;\n        }\n\n        emit AttestationCompleted(id);\n        return true;\n    }\n\n    function IsProver(bytes32 id, address callAddress) public view returns (bool) {\n        MutualAttestation storage currentAttestation = attestation[id];\n        require(currentAttestation.state != AttestationState.Closed, \"Attestation process is closed or not exists\");\n        return currentAttestation.prover == callAddress;\n    }\n\n    function IsVerifier(bytes32 id, address callAddress) public view returns (bool) {\n        MutualAttestation storage currentAttestation = attestation[id];\n        require(currentAttestation.state != AttestationState.Closed, \"Attestation process is closed or not exists\");\n        return currentAttestation.verifier == callAddress;\n    }\n\n}\n",
  "sourcePath": "/smart-contracts/contracts/MasMutualAttestation.sol",
  "compiler": {
    "name": "solc",
    "version": "0.8.0+commit.c7dfd78e.Emscripten.clang"
  },
  "schemaVersion": "3.4.16",
  "updatedAt": "2025-03-04T16:19:44.507Z",
  "networkType": "ethereum",
  "devdoc": {
    "kind": "dev",
    "methods": {},
    "version": 1
  },
  "userdoc": {
    "kind": "user",
    "methods": {},
    "version": 1
  }
}