{
  "contractName": "MasMutualAttestation",
  "abi": [
    {
      "inputs": [],
      "stateMutability": "nonpayable",
      "type": "constructor"
    },
    {
      "anonymous": false,
      "inputs": [
        {
          "indexed": false,
          "internalType": "address",
          "name": "agent",
          "type": "address"
        }
      ],
      "name": "AgentRegistered",
      "type": "event"
    },
    {
      "anonymous": false,
      "inputs": [
        {
          "indexed": false,
          "internalType": "address",
          "name": "agent",
          "type": "address"
        }
      ],
      "name": "AgentRemoved",
      "type": "event"
    },
    {
      "anonymous": false,
      "inputs": [
        {
          "indexed": false,
          "internalType": "bytes32",
          "name": "id",
          "type": "bytes32"
        }
      ],
      "name": "AttestationCompleted",
      "type": "event"
    },
    {
      "anonymous": false,
      "inputs": [
        {
          "indexed": false,
          "internalType": "bytes32",
          "name": "id",
          "type": "bytes32"
        }
      ],
      "name": "AttestationStarted",
      "type": "event"
    },
    {
      "anonymous": false,
      "inputs": [],
      "name": "ChainReset",
      "type": "event"
    },
    {
      "anonymous": false,
      "inputs": [
        {
          "indexed": false,
          "internalType": "bytes32",
          "name": "id",
          "type": "bytes32"
        }
      ],
      "name": "ProverResponded",
      "type": "event"
    },
    {
      "anonymous": false,
      "inputs": [
        {
          "indexed": false,
          "internalType": "bytes32",
          "name": "id",
          "type": "bytes32"
        }
      ],
      "name": "ReadyForEvaluation",
      "type": "event"
    },
    {
      "anonymous": false,
      "inputs": [
        {
          "indexed": false,
          "internalType": "bytes32",
          "name": "id",
          "type": "bytes32"
        }
      ],
      "name": "SecaasResponded",
      "type": "event"
    },
    {
      "inputs": [],
      "name": "ResetChain",
      "outputs": [],
      "stateMutability": "nonpayable",
      "type": "function"
    },
    {
      "inputs": [
        {
          "internalType": "bytes16",
          "name": "uuid",
          "type": "bytes16"
        }
      ],
      "name": "RegisterAgent",
      "outputs": [],
      "stateMutability": "nonpayable",
      "type": "function"
    },
    {
      "inputs": [],
      "name": "RemoveAgent",
      "outputs": [],
      "stateMutability": "nonpayable",
      "type": "function"
    },
    {
      "inputs": [
        {
          "internalType": "address",
          "name": "agentAddress",
          "type": "address"
        },
        {
          "internalType": "address",
          "name": "callAddress",
          "type": "address"
        }
      ],
      "name": "GetAgentInfo",
      "outputs": [
        {
          "internalType": "bytes16",
          "name": "",
          "type": "bytes16"
        },
        {
          "internalType": "bool",
          "name": "",
          "type": "bool"
        },
        {
          "internalType": "bytes32[]",
          "name": "",
          "type": "bytes32[]"
        }
      ],
      "stateMutability": "view",
      "type": "function",
      "constant": true
    },
    {
      "inputs": [],
      "name": "RequestAttestation",
      "outputs": [],
      "stateMutability": "nonpayable",
      "type": "function"
    },
    {
      "inputs": [
        {
          "internalType": "bytes32",
          "name": "id",
          "type": "bytes32"
        },
        {
          "internalType": "address",
          "name": "callAddress",
          "type": "address"
        }
      ],
      "name": "GetProverUUID",
      "outputs": [
        {
          "internalType": "bytes16",
          "name": "",
          "type": "bytes16"
        }
      ],
      "stateMutability": "view",
      "type": "function",
      "constant": true
    },
    {
      "inputs": [
        {
          "internalType": "bytes32",
          "name": "id",
          "type": "bytes32"
        },
        {
          "internalType": "bytes32",
          "name": "measurement",
          "type": "bytes32"
        }
      ],
      "name": "SendFreshSignaure",
      "outputs": [
        {
          "internalType": "bool",
          "name": "",
          "type": "bool"
        }
      ],
      "stateMutability": "nonpayable",
      "type": "function"
    },
    {
      "inputs": [
        {
          "internalType": "bytes32",
          "name": "id",
          "type": "bytes32"
        },
        {
          "internalType": "bytes32",
          "name": "measurement",
          "type": "bytes32"
        }
      ],
      "name": "SendRefSignaure",
      "outputs": [
        {
          "internalType": "bool",
          "name": "",
          "type": "bool"
        }
      ],
      "stateMutability": "nonpayable",
      "type": "function"
    },
    {
      "inputs": [
        {
          "internalType": "bytes32",
          "name": "id",
          "type": "bytes32"
        },
        {
          "internalType": "address",
          "name": "callAddress",
          "type": "address"
        }
      ],
      "name": "GetAttestationMeasurements",
      "outputs": [
        {
          "internalType": "bytes32",
          "name": "",
          "type": "bytes32"
        },
        {
          "internalType": "bytes32",
          "name": "",
          "type": "bytes32"
        }
      ],
      "stateMutability": "view",
      "type": "function",
      "constant": true
    },
    {
      "inputs": [
        {
          "internalType": "bytes32",
          "name": "id",
          "type": "bytes32"
        }
      ],
      "name": "GetAttestationInfo",
      "outputs": [
        {
          "internalType": "address",
          "name": "",
          "type": "address"
        },
        {
          "internalType": "address",
          "name": "",
          "type": "address"
        },
        {
          "internalType": "enum MasMutualAttestation.AttestationResult",
          "name": "",
          "type": "uint8"
        },
        {
          "internalType": "uint256",
          "name": "",
          "type": "uint256"
        }
      ],
      "stateMutability": "view",
      "type": "function",
      "constant": true
    },
    {
      "inputs": [
        {
          "internalType": "bytes32",
          "name": "id",
          "type": "bytes32"
        }
      ],
      "name": "GetAttestationState",
      "outputs": [
        {
          "internalType": "enum MasMutualAttestation.AttestationState",
          "name": "",
          "type": "uint8"
        }
      ],
      "stateMutability": "view",
      "type": "function",
      "constant": true
    },
    {
      "inputs": [],
      "name": "GetAttestationChain",
      "outputs": [
        {
          "internalType": "bytes32[]",
          "name": "",
          "type": "bytes32[]"
        }
      ],
      "stateMutability": "view",
      "type": "function",
      "constant": true
    },
    {
      "inputs": [
        {
          "internalType": "bytes32",
          "name": "id",
          "type": "bytes32"
        },
        {
          "internalType": "bool",
          "name": "verified",
          "type": "bool"
        }
      ],
      "name": "CloseAttestationProcess",
      "outputs": [
        {
          "internalType": "bool",
          "name": "",
          "type": "bool"
        }
      ],
      "stateMutability": "nonpayable",
      "type": "function"
    },
    {
      "inputs": [
        {
          "internalType": "bytes32",
          "name": "id",
          "type": "bytes32"
        },
        {
          "internalType": "address",
          "name": "callAddress",
          "type": "address"
        }
      ],
      "name": "IsProver",
      "outputs": [
        {
          "internalType": "bool",
          "name": "",
          "type": "bool"
        }
      ],
      "stateMutability": "view",
      "type": "function",
      "constant": true
    },
    {
      "inputs": [
        {
          "internalType": "bytes32",
          "name": "id",
          "type": "bytes32"
        },
        {
          "internalType": "address",
          "name": "callAddress",
          "type": "address"
        }
      ],
      "name": "IsVerifier",
      "outputs": [
        {
          "internalType": "bool",
          "name": "",
          "type": "bool"
        }
      ],
      "stateMutability": "view",
      "type": "function",
      "constant": true
    }
  ],
  "bytecode": "0x608060405234801561001057600080fd5b5033600160006101000a81548173ffffffffffffffffffffffffffffffffffffffff021916908373ffffffffffffffffffffffffffffffffffffffff160217905550600160009054906101000a900473ffffffffffffffffffffffffffffffffffffffff166000806101000a81548173ffffffffffffffffffffffffffffffffffffffff021916908373ffffffffffffffffffffffffffffffffffffffff160217905550612f67806100c36000396000f3fe608060405234801561001057600080fd5b50600436106100f55760003560e01c806396efe85211610097578063cb2a034811610066578063cb2a0348146102b2578063d5dd167b146102e2578063e2021cf914610312578063f21776fc1461032e576100f5565b806396efe85214610202578063b46ca81a14610220578063b8df8f9814610250578063bc1a097e14610280576100f5565b80635455cddd116100d35780635455cddd146101655780635f3d4220146101955780636c8a3160146101c857806378caad49146101f8576100f5565b80631d995a0e146100fa5780632562f1c614610104578063395d719b14610135575b600080fd5b610102610338565b005b61011e6004803603810190610119919061223e565b61049f565b60405161012c929190612aed565b60405180910390f35b61014f600480360381019061014a919061223e565b610625565b60405161015c9190612a5e565b60405180910390f35b61017f600480360381019061017a91906122b6565b61075d565b60405161018c9190612a5e565b60405180910390f35b6101af60048036038101906101aa9190612215565b610b0e565b6040516101bf94939291906129f7565b60405180910390f35b6101e260048036038101906101dd91906122b6565b610c5f565b6040516101ef9190612a5e565b60405180910390f35b610200611011565b005b61020a61113f565b6040516102179190612a3c565b60405180910390f35b61023a6004803603810190610235919061223e565b611197565b6040516102479190612a5e565b60405180910390f35b61026a60048036038101906102659190612215565b6112cf565b6040516102779190612b16565b60405180910390f35b61029a600480360381019061029591906121b0565b6112fc565b6040516102a993929190612a94565b60405180910390f35b6102cc60048036038101906102c7919061227a565b6114b9565b6040516102d99190612a5e565b60405180910390f35b6102fc60048036038101906102f7919061223e565b611897565b6040516103099190612a79565b60405180910390f35b61032c600480360381019061032791906121ec565b611b19565b005b610336611e93565b005b6000600360003373ffffffffffffffffffffffffffffffffffffffff1673ffffffffffffffffffffffffffffffffffffffff16815260200190815260200160002090508060000160109054906101000a900460ff166103cc576040517f08c379a00000000000000000000000000000000000000000000000000000000081526004016103c390612b51565b60405180910390fd5b8060010160006103dc919061211e565b600360003373ffffffffffffffffffffffffffffffffffffffff1673ffffffffffffffffffffffffffffffffffffffff168152602001908152602001600020600080820160006101000a8154906fffffffffffffffffffffffffffffffff02191690556000820160106101000a81549060ff0219169055600182016000610463919061211e565b50507fed9c8ad8d5a0a66898ea49d2956929c93ae2e8bd50281b2ed897c5d1a6737e0b3360405161049491906129dc565b60405180910390a150565b60008060006004600086815260200190815260200160002090508373ffffffffffffffffffffffffffffffffffffffff168160010160009054906101000a900473ffffffffffffffffffffffffffffffffffffffff1673ffffffffffffffffffffffffffffffffffffffff161461054b576040517f08c379a000000000000000000000000000000000000000000000000000000000815260040161054290612c31565b60405180910390fd5b60036004811115610585577f4e487b7100000000000000000000000000000000000000000000000000000000600052602160045260246000fd5b8160050160009054906101000a900460ff1660048111156105cf577f4e487b7100000000000000000000000000000000000000000000000000000000600052602160045260246000fd5b1461060f576040517f08c379a000000000000000000000000000000000000000000000000000000000815260040161060690612c51565b60405180910390fd5b8060030154816004015492509250509250929050565b600080600460008581526020019081526020016000209050600480811115610676577f4e487b7100000000000000000000000000000000000000000000000000000000600052602160045260246000fd5b8160050160009054906101000a900460ff1660048111156106c0577f4e487b7100000000000000000000000000000000000000000000000000000000600052602160045260246000fd5b1415610701576040517f08c379a00000000000000000000000000000000000000000000000000000000081526004016106f890612bd1565b60405180910390fd5b8273ffffffffffffffffffffffffffffffffffffffff168160020160009054906101000a900473ffffffffffffffffffffffffffffffffffffffff1673ffffffffffffffffffffffffffffffffffffffff161491505092915050565b6000600160009054906101000a900473ffffffffffffffffffffffffffffffffffffffff1673ffffffffffffffffffffffffffffffffffffffff163373ffffffffffffffffffffffffffffffffffffffff16146107ef576040517f08c379a00000000000000000000000000000000000000000000000000000000081526004016107e690612bf1565b60405180910390fd5b600060046000858152602001908152602001600020905060006004811115610840577f4e487b7100000000000000000000000000000000000000000000000000000000600052602160045260246000fd5b8160050160009054906101000a900460ff16600481111561088a577f4e487b7100000000000000000000000000000000000000000000000000000000600052602160045260246000fd5b14806109175750600260048111156108cb577f4e487b7100000000000000000000000000000000000000000000000000000000600052602160045260246000fd5b8160050160009054906101000a900460ff166004811115610915577f4e487b7100000000000000000000000000000000000000000000000000000000600052602160045260246000fd5b145b610956576040517f08c379a000000000000000000000000000000000000000000000000000000000815260040161094d90612c71565b60405180910390fd5b82816004018190555060026004811115610999577f4e487b7100000000000000000000000000000000000000000000000000000000600052602160045260246000fd5b8160050160009054906101000a900460ff1660048111156109e3577f4e487b7100000000000000000000000000000000000000000000000000000000600052602160045260246000fd5b1415610a785760038160050160006101000a81548160ff02191690836004811115610a37577f4e487b7100000000000000000000000000000000000000000000000000000000600052602160045260246000fd5b02179055507f6781e8d3c07e87e938ec28a5435aa7862779fb9c7d01b7315eca91430b2a464384604051610a6b9190612ad2565b60405180910390a1610b03565b60018160050160006101000a81548160ff02191690836004811115610ac6577f4e487b7100000000000000000000000000000000000000000000000000000000600052602160045260246000fd5b02179055507ff135c13100e80427b9d26850c8b0122e461f63682f88f2f7fd137da6c1c74c2d84604051610afa9190612ad2565b60405180910390a15b600191505092915050565b6000806000806000600460008781526020019081526020016000209050600480811115610b64577f4e487b7100000000000000000000000000000000000000000000000000000000600052602160045260246000fd5b8160050160009054906101000a900460ff166004811115610bae577f4e487b7100000000000000000000000000000000000000000000000000000000600052602160045260246000fd5b14610bee576040517f08c379a0000000000000000000000000000000000000000000000000000000008152600401610be590612b71565b60405180910390fd5b8060020160009054906101000a900473ffffffffffffffffffffffffffffffffffffffff168160010160009054906101000a900473ffffffffffffffffffffffffffffffffffffffff168260050160019054906101000a900460ff1683600601549450945094509450509193509193565b60008060046000858152602001908152602001600020905060006004811115610cb1577f4e487b7100000000000000000000000000000000000000000000000000000000600052602160045260246000fd5b8160050160009054906101000a900460ff166004811115610cfb577f4e487b7100000000000000000000000000000000000000000000000000000000600052602160045260246000fd5b1480610d88575060016004811115610d3c577f4e487b7100000000000000000000000000000000000000000000000000000000600052602160045260246000fd5b8160050160009054906101000a900460ff166004811115610d86577f4e487b7100000000000000000000000000000000000000000000000000000000600052602160045260246000fd5b145b610dc7576040517f08c379a0000000000000000000000000000000000000000000000000000000008152600401610dbe90612cf1565b60405180910390fd5b3373ffffffffffffffffffffffffffffffffffffffff168160020160009054906101000a900473ffffffffffffffffffffffffffffffffffffffff1673ffffffffffffffffffffffffffffffffffffffff1614610e59576040517f08c379a0000000000000000000000000000000000000000000000000000000008152600401610e5090612c91565b60405180910390fd5b82816003018190555060016004811115610e9c577f4e487b7100000000000000000000000000000000000000000000000000000000600052602160045260246000fd5b8160050160009054906101000a900460ff166004811115610ee6577f4e487b7100000000000000000000000000000000000000000000000000000000600052602160045260246000fd5b1415610f7b5760038160050160006101000a81548160ff02191690836004811115610f3a577f4e487b7100000000000000000000000000000000000000000000000000000000600052602160045260246000fd5b02179055507f6781e8d3c07e87e938ec28a5435aa7862779fb9c7d01b7315eca91430b2a464384604051610f6e9190612ad2565b60405180910390a1611006565b60028160050160006101000a81548160ff02191690836004811115610fc9577f4e487b7100000000000000000000000000000000000000000000000000000000600052602160045260246000fd5b02179055507ff69c881f9131038a4acd7e75ad695e1faa1b714d02f44b7ae9b2184457bf516784604051610ffd9190612ad2565b60405180910390a15b600191505092915050565b600160009054906101000a900473ffffffffffffffffffffffffffffffffffffffff1673ffffffffffffffffffffffffffffffffffffffff163373ffffffffffffffffffffffffffffffffffffffff16146110a1576040517f08c379a000000000000000000000000000000000000000000000000000000000815260040161109890612bb1565b60405180910390fd5b600260006110af919061211e565b600160009054906101000a900473ffffffffffffffffffffffffffffffffffffffff166000806101000a81548173ffffffffffffffffffffffffffffffffffffffff021916908373ffffffffffffffffffffffffffffffffffffffff1602179055507f8e1dda8e7ca889ef4bd70f2ff6dd48a9b896b1d89703a08b6385333045af148960405160405180910390a1565b6060600280548060200260200160405190810160405280929190818152602001828054801561118d57602002820191906000526020600020905b815481526020019060010190808311611179575b5050505050905090565b6000806004600085815260200190815260200160002090506004808111156111e8577f4e487b7100000000000000000000000000000000000000000000000000000000600052602160045260246000fd5b8160050160009054906101000a900460ff166004811115611232577f4e487b7100000000000000000000000000000000000000000000000000000000600052602160045260246000fd5b1415611273576040517f08c379a000000000000000000000000000000000000000000000000000000000815260040161126a90612bd1565b60405180910390fd5b8273ffffffffffffffffffffffffffffffffffffffff168160010160009054906101000a900473ffffffffffffffffffffffffffffffffffffffff1673ffffffffffffffffffffffffffffffffffffffff161491505092915050565b60006004600083815260200190815260200160002060050160009054906101000a900460ff169050919050565b60008060606000600360008673ffffffffffffffffffffffffffffffffffffffff1673ffffffffffffffffffffffffffffffffffffffff16815260200190815260200160002090506000600360008873ffffffffffffffffffffffffffffffffffffffff1673ffffffffffffffffffffffffffffffffffffffff16815260200190815260200160002090508160000160109054906101000a900460ff16806113f15750600160009054906101000a900473ffffffffffffffffffffffffffffffffffffffff1673ffffffffffffffffffffffffffffffffffffffff168673ffffffffffffffffffffffffffffffffffffffff16145b611430576040517f08c379a000000000000000000000000000000000000000000000000000000000815260040161142790612b51565b60405180910390fd5b8060000160009054906101000a900460801b8160000160109054906101000a900460ff1682600101808054806020026020016040519081016040528092919081815260200182805480156114a357602002820191906000526020600020905b81548152602001906001019080831161148f575b5050505050905094509450945050509250925092565b6000806004600085815260200190815260200160002090503373ffffffffffffffffffffffffffffffffffffffff168160010160009054906101000a900473ffffffffffffffffffffffffffffffffffffffff1673ffffffffffffffffffffffffffffffffffffffff1614611563576040517f08c379a000000000000000000000000000000000000000000000000000000000815260040161155a90612d11565b60405180910390fd5b6003600481111561159d577f4e487b7100000000000000000000000000000000000000000000000000000000600052602160045260246000fd5b8160050160009054906101000a900460ff1660048111156115e7577f4e487b7100000000000000000000000000000000000000000000000000000000600052602160045260246000fd5b14611627576040517f08c379a000000000000000000000000000000000000000000000000000000000815260040161161e90612b31565b60405180910390fd5b60048160050160006101000a81548160ff02191690836004811115611675577f4e487b7100000000000000000000000000000000000000000000000000000000600052602160045260246000fd5b02179055504281600601819055506000600360008360020160009054906101000a900473ffffffffffffffffffffffffffffffffffffffff1673ffffffffffffffffffffffffffffffffffffffff1673ffffffffffffffffffffffffffffffffffffffff168152602001908152602001600020905083156117ac5760028260050160016101000a81548160ff0219169083600281111561173e577f4e487b7100000000000000000000000000000000000000000000000000000000600052602160045260246000fd5b02179055508160020160009054906101000a900473ffffffffffffffffffffffffffffffffffffffff166000806101000a81548173ffffffffffffffffffffffffffffffffffffffff021916908373ffffffffffffffffffffffffffffffffffffffff160217905550611800565b60018260050160016101000a81548160ff021916908360028111156117fa577f4e487b7100000000000000000000000000000000000000000000000000000000600052602160045260246000fd5b02179055505b8060010185908060018154018082558091505060019003906000526020600020016000909190919091505560028590806001815401808255809150506001900390600052602060002001600090919091909150557f31a3cf273cd0e82f8ddb4be15d4b954d7fcd18a4c5d4591cce32edd1a4bc417d856040516118839190612ad2565b60405180910390a160019250505092915050565b6000600160009054906101000a900473ffffffffffffffffffffffffffffffffffffffff1673ffffffffffffffffffffffffffffffffffffffff168273ffffffffffffffffffffffffffffffffffffffff1614611929576040517f08c379a000000000000000000000000000000000000000000000000000000000815260040161192090612cd1565b60405180910390fd5b60006004600085815260200190815260200160002090506000600481111561197a577f4e487b7100000000000000000000000000000000000000000000000000000000600052602160045260246000fd5b8160050160009054906101000a900460ff1660048111156119c4577f4e487b7100000000000000000000000000000000000000000000000000000000600052602160045260246000fd5b1480611a51575060026004811115611a05577f4e487b7100000000000000000000000000000000000000000000000000000000600052602160045260246000fd5b8160050160009054906101000a900460ff166004811115611a4f577f4e487b7100000000000000000000000000000000000000000000000000000000600052602160045260246000fd5b145b611a90576040517f08c379a0000000000000000000000000000000000000000000000000000000008152600401611a8790612c11565b60405180910390fd5b60008160020160009054906101000a900473ffffffffffffffffffffffffffffffffffffffff1690506000600360008373ffffffffffffffffffffffffffffffffffffffff1673ffffffffffffffffffffffffffffffffffffffff16815260200190815260200160002090508060000160009054906101000a900460801b935050505092915050565b600060801b6fffffffffffffffffffffffffffffffff1916816fffffffffffffffffffffffffffffffff19161415611b86576040517f08c379a0000000000000000000000000000000000000000000000000000000008152600401611b7d90612cb1565b60405180910390fd5b6000600360003373ffffffffffffffffffffffffffffffffffffffff1673ffffffffffffffffffffffffffffffffffffffff16815260200190815260200160002090508060000160109054906101000a900460ff1615611c1b576040517f08c379a0000000000000000000000000000000000000000000000000000000008152600401611c1290612b91565b60405180910390fd5b818160000160006101000a8154816fffffffffffffffffffffffffffffffff021916908360801c021790555060018160000160106101000a81548160ff0219169083151502179055507f82d0829d9d481e4cb9913897f9b9c903271c4db68c7b3324071d2a7e3b2c5ff033604051611c9391906129dc565b60405180910390a160003342604051602001611cb09291906129b0565b604051602081830303815290604052805190602001209050600060046000838152602001908152602001600020905081816000018190555060008054906101000a900473ffffffffffffffffffffffffffffffffffffffff168160010160006101000a81548173ffffffffffffffffffffffffffffffffffffffff021916908373ffffffffffffffffffffffffffffffffffffffff160217905550338160020160006101000a81548173ffffffffffffffffffffffffffffffffffffffff021916908373ffffffffffffffffffffffffffffffffffffffff1602179055506000801b81600301819055506000801b816004018190555060008160050160006101000a81548160ff02191690836004811115611df4577f4e487b7100000000000000000000000000000000000000000000000000000000600052602160045260246000fd5b021790555060008160050160016101000a81548160ff02191690836002811115611e47577f4e487b7100000000000000000000000000000000000000000000000000000000600052602160045260246000fd5b0217905550600081600601819055507fd32f85071e05721b8a1c63d5cad1fe3525ec0a11fd5b7760b6a82d7f6be7d28382604051611e859190612ad2565b60405180910390a150505050565b6000600360003373ffffffffffffffffffffffffffffffffffffffff1673ffffffffffffffffffffffffffffffffffffffff16815260200190815260200160002090508060000160109054906101000a900460ff16611f27576040517f08c379a0000000000000000000000000000000000000000000000000000000008152600401611f1e90612b51565b60405180910390fd5b60003342604051602001611f3c9291906129b0565b604051602081830303815290604052805190602001209050600060046000838152602001908152602001600020905081816000018190555060008054906101000a900473ffffffffffffffffffffffffffffffffffffffff168160010160006101000a81548173ffffffffffffffffffffffffffffffffffffffff021916908373ffffffffffffffffffffffffffffffffffffffff160217905550338160020160006101000a81548173ffffffffffffffffffffffffffffffffffffffff021916908373ffffffffffffffffffffffffffffffffffffffff1602179055506000801b81600301819055506000801b816004018190555060008160050160006101000a81548160ff02191690836004811115612080577f4e487b7100000000000000000000000000000000000000000000000000000000600052602160045260246000fd5b021790555060008160050160016101000a81548160ff021916908360028111156120d3577f4e487b7100000000000000000000000000000000000000000000000000000000600052602160045260246000fd5b0217905550600081600601819055507fd32f85071e05721b8a1c63d5cad1fe3525ec0a11fd5b7760b6a82d7f6be7d283826040516121119190612ad2565b60405180910390a1505050565b508054600082559060005260206000209081019061213c919061213f565b50565b5b80821115612158576000816000905550600101612140565b5090565b60008135905061216b81612ed5565b92915050565b60008135905061218081612eec565b92915050565b60008135905061219581612f03565b92915050565b6000813590506121aa81612f1a565b92915050565b600080604083850312156121c357600080fd5b60006121d18582860161215c565b92505060206121e28582860161215c565b9150509250929050565b6000602082840312156121fe57600080fd5b600061220c84828501612186565b91505092915050565b60006020828403121561222757600080fd5b60006122358482850161219b565b91505092915050565b6000806040838503121561225157600080fd5b600061225f8582860161219b565b92505060206122708582860161215c565b9150509250929050565b6000806040838503121561228d57600080fd5b600061229b8582860161219b565b92505060206122ac85828601612171565b9150509250929050565b600080604083850312156122c957600080fd5b60006122d78582860161219b565b92505060206122e88582860161219b565b9150509250929050565b60006122fe83836123ac565b60208301905092915050565b61231381612d7b565b82525050565b61232a61232582612d7b565b612e43565b82525050565b600061233b82612d41565b6123458185612d59565b935061235083612d31565b8060005b8381101561238157815161236888826122f2565b975061237383612d4c565b925050600181019050612354565b5085935050505092915050565b61239781612d8d565b82525050565b6123a681612d99565b82525050565b6123b581612dc5565b82525050565b6123c481612dc5565b82525050565b6123d381612e1f565b82525050565b6123e281612e31565b82525050565b60006123f5602483612d6a565b91507f4174746573746174696f6e206973206e6f7420726561647920666f7220636c6f60008301527f73757265000000000000000000000000000000000000000000000000000000006020830152604082019050919050565b600061245b601783612d6a565b91507f4167656e74206973206e6f7420726567697374657265640000000000000000006000830152602082019050919050565b600061249b602183612d6a565b91507f4174746573746174696f6e2070726f63657373206973206e6f7420636c6f736560008301527f64000000000000000000000000000000000000000000000000000000000000006020830152604082019050919050565b6000612501601883612d6a565b91507f4167656e7420616c7265616479207265676973746572656400000000000000006000830152602082019050919050565b6000612541602383612d6a565b91507f4f6e6c7920746865205345436161532063616e2072657365742074686520636860008301527f61696e00000000000000000000000000000000000000000000000000000000006020830152604082019050919050565b60006125a7602b83612d6a565b91507f4174746573746174696f6e2070726f6365737320697320636c6f736564206f7260008301527f206e6f74206578697374730000000000000000000000000000000000000000006020830152604082019050919050565b600061260d603083612d6a565b91507f4f6e6c7920746865205345436161532063616e2073656e64207468652072656660008301527f6572656e6365207369676e6174757265000000000000000000000000000000006020830152604082019050919050565b6000612673602383612d6a565b91507f4174746573746174696f6e20697320636c6f736564206f72206e6f742065786960008301527f73747300000000000000000000000000000000000000000000000000000000006020830152604082019050919050565b60006126d9602d83612d6a565b91507f4f6e6c79207468652076657269666965722063616e207265747269657665207460008301527f6865207369676e617475726573000000000000000000000000000000000000006020830152604082019050919050565b600061273f602483612d6a565b91507f4174746573746174696f6e2070726f63657373206973206e6f7420636f6d706c60008301527f65746564000000000000000000000000000000000000000000000000000000006020830152604082019050919050565b60006127a5602183612d6a565b91507f496e76616c696420737461746520666f722053454361615320726573706f6e7360008301527f65000000000000000000000000000000000000000000000000000000000000006020830152604082019050919050565b600061280b601783612d6a565b91507f596f7520617265206e6f74207468652070726f7665722e0000000000000000006000830152602082019050919050565b600061284b601183612d6a565b91507f55554944206973206e6f742076616c69640000000000000000000000000000006000830152602082019050919050565b600061288b601783612d6a565b91507f596f7520617265206e6f7420746865205345436161532e0000000000000000006000830152602082019050919050565b60006128cb602c83612d6a565b91507f496e76616c696420737461746520666f72206672657368207369676e6174757260008301527f65207375626d697373696f6e00000000000000000000000000000000000000006020830152604082019050919050565b6000612931603383612d6a565b91507f4f6e6c79207468652076657269666965722063616e20636c6f7365207468652060008301527f6174746573746174696f6e2070726f63657373000000000000000000000000006020830152604082019050919050565b61299381612e15565b82525050565b6129aa6129a582612e15565b612e67565b82525050565b60006129bc8285612319565b6014820191506129cc8284612999565b6020820191508190509392505050565b60006020820190506129f1600083018461230a565b92915050565b6000608082019050612a0c600083018761230a565b612a19602083018661230a565b612a2660408301856123ca565b612a33606083018461298a565b95945050505050565b60006020820190508181036000830152612a568184612330565b905092915050565b6000602082019050612a73600083018461238e565b92915050565b6000602082019050612a8e600083018461239d565b92915050565b6000606082019050612aa9600083018661239d565b612ab6602083018561238e565b8181036040830152612ac88184612330565b9050949350505050565b6000602082019050612ae760008301846123bb565b92915050565b6000604082019050612b0260008301856123bb565b612b0f60208301846123bb565b9392505050565b6000602082019050612b2b60008301846123d9565b92915050565b60006020820190508181036000830152612b4a816123e8565b9050919050565b60006020820190508181036000830152612b6a8161244e565b9050919050565b60006020820190508181036000830152612b8a8161248e565b9050919050565b60006020820190508181036000830152612baa816124f4565b9050919050565b60006020820190508181036000830152612bca81612534565b9050919050565b60006020820190508181036000830152612bea8161259a565b9050919050565b60006020820190508181036000830152612c0a81612600565b9050919050565b60006020820190508181036000830152612c2a81612666565b9050919050565b60006020820190508181036000830152612c4a816126cc565b9050919050565b60006020820190508181036000830152612c6a81612732565b9050919050565b60006020820190508181036000830152612c8a81612798565b9050919050565b60006020820190508181036000830152612caa816127fe565b9050919050565b60006020820190508181036000830152612cca8161283e565b9050919050565b60006020820190508181036000830152612cea8161287e565b9050919050565b60006020820190508181036000830152612d0a816128be565b9050919050565b60006020820190508181036000830152612d2a81612924565b9050919050565b6000819050602082019050919050565b600081519050919050565b6000602082019050919050565b600082825260208201905092915050565b600082825260208201905092915050565b6000612d8682612df5565b9050919050565b60008115159050919050565b60007fffffffffffffffffffffffffffffffff0000000000000000000000000000000082169050919050565b6000819050919050565b6000819050612ddd82612ead565b919050565b6000819050612df082612ec1565b919050565b600073ffffffffffffffffffffffffffffffffffffffff82169050919050565b6000819050919050565b6000612e2a82612dcf565b9050919050565b6000612e3c82612de2565b9050919050565b6000612e4e82612e55565b9050919050565b6000612e6082612ea0565b9050919050565b6000819050919050565b7f4e487b7100000000000000000000000000000000000000000000000000000000600052602160045260246000fd5b60008160601b9050919050565b60038110612ebe57612ebd612e71565b5b50565b60058110612ed257612ed1612e71565b5b50565b612ede81612d7b565b8114612ee957600080fd5b50565b612ef581612d8d565b8114612f0057600080fd5b50565b612f0c81612d99565b8114612f1757600080fd5b50565b612f2381612dc5565b8114612f2e57600080fd5b5056fea2646970667358221220f4628c25c9bdec1bae1ec88e2764a294bc0e507fa7efd639363bd021c160d83964736f6c63430008000033",
  "immutableReferences": {},
  "source": "// SPDX-License-Identifier: MIT\npragma solidity ^0.8.0;\n\ncontract MasMutualAttestation {\n\n    enum AttestationResult {None, Failure, Success}\n\n    // Define the possible states of an attestation process\n    enum AttestationState {Open, SecaasResponded, ProverResponded, ReadyForEvaluation, Closed}\n\n    struct Agent {\n        bytes16 uuid;\n        bool registered;\n        bytes32[] completedAttestations; // Stores all attestation IDs the agent has completed\n    }\n\n    struct MutualAttestation {\n        bytes32 id;\n        address verifier;\n        address prover;\n        bytes32 fresh_signature;\n        bytes32 ref_signature;\n        AttestationState state;\n        AttestationResult result;\n        uint256 timestamp; // Timestamp for attestation closure\n    }\n\n    address private currentVerifier;\n    address private secaas;\n    bytes32[] private attestationChain; // Store all attestation IDs\n\n    // Define mappings to store data\n    mapping(address => Agent) private agent;\n    mapping(bytes32 => MutualAttestation) private attestation;\n\n\n    // Define events\n    event AgentRegistered(address agent);\n    event AgentRemoved(address agent);\n    event AttestationStarted(bytes32 id);\n    event SecaasResponded(bytes32 id);\n    event ProverResponded(bytes32 id);\n    event ReadyForEvaluation(bytes32 id);\n    event AttestationCompleted(bytes32 id);\n    event ChainReset();\n\n    constructor() {\n        secaas = msg.sender;\n        currentVerifier = secaas;\n    }\n\n    function ResetChain() public {\n        require(msg.sender == secaas, \"Only the SECaaS can reset the chain\");\n        \n        delete attestationChain;\n        currentVerifier = secaas;\n\n        emit ChainReset();\n    }    \n\n    function RegisterAgent(bytes16 uuid) public {\n        require(uuid != bytes16(0), \"UUID is not valid\");\n\n        Agent storage currentAgent = agent[msg.sender];\n        require(!currentAgent.registered, \"Agent already registered\");\n\n        currentAgent.uuid = uuid;\n        currentAgent.registered = true;\n\n        emit AgentRegistered(msg.sender);\n\n        // Generate a unique attestation ID\n        bytes32 id = keccak256(abi.encodePacked(msg.sender, block.timestamp));\n\n        MutualAttestation storage currentAttestation = attestation[id];\n        currentAttestation.id = id;\n        currentAttestation.verifier = currentVerifier;\n        currentAttestation.prover = msg.sender;\n        currentAttestation.fresh_signature = bytes32(0);\n        currentAttestation.ref_signature = bytes32(0);\n        currentAttestation.state = AttestationState.Open;\n        currentAttestation.result = AttestationResult.None;\n        currentAttestation.timestamp = 0; \n\n        emit AttestationStarted(id);\n    }\n\n    function RemoveAgent() public {\n        Agent storage currentAgent = agent[msg.sender];\n        require(currentAgent.registered, \"Agent is not registered\");\n        delete currentAgent.completedAttestations;\n        delete agent[msg.sender];\n        emit AgentRemoved(msg.sender);\n    }\n\n    function GetAgentInfo(address agentAddress, address callAddress) public view returns (bytes16, bool, bytes32[] memory) {\n        Agent storage currentAgent = agent[callAddress];\n        Agent storage agentToFind = agent[agentAddress];\n        require(currentAgent.registered || callAddress == secaas, \"Agent is not registered\");\n        return (agentToFind.uuid, agentToFind.registered, agentToFind.completedAttestations);\n    } \n\n\n    function RequestAttestation() public {\n        Agent storage currentAgent = agent[msg.sender];\n        require(currentAgent.registered, \"Agent is not registered\");\n\n        // Generate unique attestation ID\n        bytes32 id = keccak256(abi.encodePacked(msg.sender, block.timestamp));\n\n        MutualAttestation storage currentAttestation = attestation[id];\n        currentAttestation.id = id;\n        currentAttestation.verifier = currentVerifier;\n        currentAttestation.prover = msg.sender;\n        currentAttestation.fresh_signature = bytes32(0);\n        currentAttestation.ref_signature = bytes32(0);\n        currentAttestation.state = AttestationState.Open;\n        currentAttestation.result = AttestationResult.None;\n        currentAttestation.timestamp = 0; \n\n        emit AttestationStarted(id);\n    }\n\n    function GetProverUUID(bytes32 id, address callAddress) public view returns (bytes16) {\n        require(callAddress == secaas, \"You are not the SECaaS.\");\n        MutualAttestation storage currentAttestation = attestation[id];\n        require(currentAttestation.state == AttestationState.Open || currentAttestation.state == AttestationState.ProverResponded, \"Attestation is closed or not exists\");\n        address proverAgentAddress = currentAttestation.prover;\n        Agent storage currentAgent = agent[proverAgentAddress];\n        return (currentAgent.uuid);\n    }     \n\n    function SendFreshSignaure(bytes32 id, bytes32 measurement) public returns (bool) {\n        MutualAttestation storage currentAttestation = attestation[id];\n        require(currentAttestation.state == AttestationState.Open || currentAttestation.state == AttestationState.SecaasResponded, \"Invalid state for fresh signature submission\");\n        require(currentAttestation.prover == msg.sender, \"You are not the prover.\");\n        \n        currentAttestation.fresh_signature = measurement;\n    \n        if (currentAttestation.state == AttestationState.SecaasResponded) {\n            currentAttestation.state = AttestationState.ReadyForEvaluation;\n            emit ReadyForEvaluation(id);\n        } else {\n            currentAttestation.state = AttestationState.ProverResponded;\n            emit ProverResponded(id);\n        }\n\n        return true;\n    }\n\n    function SendRefSignaure(bytes32 id, bytes32 measurement) public returns (bool) {\n        require(msg.sender == secaas, \"Only the SECaaS can send the reference signature\");\n        \n        MutualAttestation storage currentAttestation = attestation[id];\n        require(currentAttestation.state == AttestationState.Open || currentAttestation.state == AttestationState.ProverResponded, \"Invalid state for SECaaS response\");\n        \n         currentAttestation.ref_signature = measurement;\n    \n        if (currentAttestation.state == AttestationState.ProverResponded) {\n            currentAttestation.state = AttestationState.ReadyForEvaluation;\n            emit ReadyForEvaluation(id);\n        } else {\n            currentAttestation.state = AttestationState.SecaasResponded;\n            emit SecaasResponded(id);\n        }\n\n        return true;\n    }\n\n    function GetAttestationMeasurements(bytes32 id, address callAddress) public view returns (bytes32, bytes32) {\n        MutualAttestation storage currentAttestation = attestation[id];\n        require(currentAttestation.verifier == callAddress, \"Only the verifier can retrieve the signatures\");\n        require(currentAttestation.state == AttestationState.ReadyForEvaluation, \"Attestation process is not completed\");\n        return (currentAttestation.fresh_signature, currentAttestation.ref_signature);\n    }\n\n    function GetAttestationInfo(bytes32 id) public view returns (address, address, AttestationResult, uint256) {\n        MutualAttestation storage currentAttestation = attestation[id];\n        require(currentAttestation.state == AttestationState.Closed, \"Attestation process is not closed\");\n        return (currentAttestation.prover, currentAttestation.verifier, currentAttestation.result, currentAttestation.timestamp);\n    }\n\n    function GetAttestationState(bytes32 id) public view returns (AttestationState) {\n        return attestation[id].state;\n    }\n\n    function GetAttestationChain() public view returns (bytes32[] memory) {\n        return attestationChain;\n    }\n\n    function CloseAttestationProcess(bytes32 id, bool verified) public returns (bool) {\n        MutualAttestation storage currentAttestation = attestation[id];\n        require(currentAttestation.verifier == msg.sender, \"Only the verifier can close the attestation process\");\n        require(currentAttestation.state == AttestationState.ReadyForEvaluation, \"Attestation is not ready for closure\");\n        \n        currentAttestation.state = AttestationState.Closed;\n        currentAttestation.timestamp = block.timestamp; // Store closure timestamp\n        Agent storage proverAgent = agent[currentAttestation.prover];\n\n        if (verified) {\n            // proverAgent.verified = true;\n            currentAttestation.result = AttestationResult.Success;\n            currentVerifier = currentAttestation.prover;\n        } else {\n            // proverAgent.verified = false;\n            currentAttestation.result = AttestationResult.Failure;\n        }\n\n        // Store attestation history for the prover only\n        proverAgent.completedAttestations.push(id);\n\n        // Store attestation history for all agents\n        attestationChain.push(id);\n\n        emit AttestationCompleted(id);\n        return true;\n    }\n\n    function IsProver(bytes32 id, address callAddress) public view returns (bool) {\n        MutualAttestation storage currentAttestation = attestation[id];\n        require(currentAttestation.state != AttestationState.Closed, \"Attestation process is closed or not exists\");\n        return currentAttestation.prover == callAddress;\n    }\n\n    function IsVerifier(bytes32 id, address callAddress) public view returns (bool) {\n        MutualAttestation storage currentAttestation = attestation[id];\n        require(currentAttestation.state != AttestationState.Closed, \"Attestation process is closed or not exists\");\n        return currentAttestation.verifier == callAddress;\n    }\n\n}\n",
  "sourcePath": "/smart-contracts/contracts/MasMutualAttestation.sol",
  "compiler": {
    "name": "solc",
    "version": "0.8.0+commit.c7dfd78e.Emscripten.clang"
  },
  "schemaVersion": "3.4.16",
  "updatedAt": "2025-03-05T12:01:21.534Z",
  "networkType": "ethereum",
  "devdoc": {
    "kind": "dev",
    "methods": {},
    "version": 1
  },
  "userdoc": {
    "kind": "user",
    "methods": {},
    "version": 1
  }
}